{
  "contractName": "AaveGPToken",
  "abi": [
    {
      "anonymous": false,
      "inputs": [
        {
          "indexed": true,
          "internalType": "address",
          "name": "owner",
          "type": "address"
        },
        {
          "indexed": true,
          "internalType": "address",
          "name": "spender",
          "type": "address"
        },
        {
          "indexed": false,
          "internalType": "uint256",
          "name": "value",
          "type": "uint256"
        }
      ],
      "name": "Approval",
      "type": "event"
    },
    {
      "anonymous": false,
      "inputs": [
        {
          "indexed": true,
          "internalType": "address",
          "name": "user",
          "type": "address"
        },
        {
          "indexed": false,
          "internalType": "uint256",
          "name": "amount",
          "type": "uint256"
        }
      ],
      "name": "Burn",
      "type": "event"
    },
    {
      "anonymous": false,
      "inputs": [
        {
          "indexed": true,
          "internalType": "address",
          "name": "user",
          "type": "address"
        },
        {
          "indexed": false,
          "internalType": "uint256",
          "name": "amount",
          "type": "uint256"
        }
      ],
      "name": "Mint",
      "type": "event"
    },
    {
      "anonymous": false,
      "inputs": [
        {
          "indexed": true,
          "internalType": "address",
          "name": "previousOwner",
          "type": "address"
        },
        {
          "indexed": true,
          "internalType": "address",
          "name": "newOwner",
          "type": "address"
        }
      ],
      "name": "OwnershipTransferred",
      "type": "event"
    },
    {
      "anonymous": false,
      "inputs": [
        {
          "indexed": true,
          "internalType": "address",
          "name": "from",
          "type": "address"
        },
        {
          "indexed": true,
          "internalType": "address",
          "name": "to",
          "type": "address"
        },
        {
          "indexed": false,
          "internalType": "uint256",
          "name": "value",
          "type": "uint256"
        }
      ],
      "name": "Transfer",
      "type": "event"
    },
    {
      "inputs": [
        {
          "internalType": "address",
          "name": "owner",
          "type": "address"
        },
        {
          "internalType": "address",
          "name": "spender",
          "type": "address"
        }
      ],
      "name": "allowance",
      "outputs": [
        {
          "internalType": "uint256",
          "name": "",
          "type": "uint256"
        }
      ],
      "stateMutability": "view",
      "type": "function"
    },
    {
      "inputs": [
        {
          "internalType": "address",
          "name": "spender",
          "type": "address"
        },
        {
          "internalType": "uint256",
          "name": "amount",
          "type": "uint256"
        }
      ],
      "name": "approve",
      "outputs": [
        {
          "internalType": "bool",
          "name": "",
          "type": "bool"
        }
      ],
      "stateMutability": "nonpayable",
      "type": "function"
    },
    {
      "inputs": [],
      "name": "decimals",
      "outputs": [
        {
          "internalType": "uint8",
          "name": "",
          "type": "uint8"
        }
      ],
      "stateMutability": "view",
      "type": "function"
    },
    {
      "inputs": [
        {
          "internalType": "address",
          "name": "spender",
          "type": "address"
        },
        {
          "internalType": "uint256",
          "name": "subtractedValue",
          "type": "uint256"
        }
      ],
      "name": "decreaseAllowance",
      "outputs": [
        {
          "internalType": "bool",
          "name": "",
          "type": "bool"
        }
      ],
      "stateMutability": "nonpayable",
      "type": "function"
    },
    {
      "inputs": [
        {
          "internalType": "address",
          "name": "spender",
          "type": "address"
        },
        {
          "internalType": "uint256",
          "name": "addedValue",
          "type": "uint256"
        }
      ],
      "name": "increaseAllowance",
      "outputs": [
        {
          "internalType": "bool",
          "name": "",
          "type": "bool"
        }
      ],
      "stateMutability": "nonpayable",
      "type": "function"
    },
    {
      "inputs": [],
      "name": "name",
      "outputs": [
        {
          "internalType": "string",
          "name": "",
          "type": "string"
        }
      ],
      "stateMutability": "view",
      "type": "function"
    },
    {
      "inputs": [],
      "name": "owner",
      "outputs": [
        {
          "internalType": "address",
          "name": "",
          "type": "address"
        }
      ],
      "stateMutability": "view",
      "type": "function"
    },
    {
      "inputs": [],
      "name": "renounceOwnership",
      "outputs": [],
      "stateMutability": "nonpayable",
      "type": "function"
    },
    {
      "inputs": [],
      "name": "symbol",
      "outputs": [
        {
          "internalType": "string",
          "name": "",
          "type": "string"
        }
      ],
      "stateMutability": "view",
      "type": "function"
    },
    {
      "inputs": [
        {
          "internalType": "address",
          "name": "recipient",
          "type": "address"
        },
        {
          "internalType": "uint256",
          "name": "amount",
          "type": "uint256"
        }
      ],
      "name": "transfer",
      "outputs": [
        {
          "internalType": "bool",
          "name": "",
          "type": "bool"
        }
      ],
      "stateMutability": "nonpayable",
      "type": "function"
    },
    {
      "inputs": [
        {
          "internalType": "address",
          "name": "sender",
          "type": "address"
        },
        {
          "internalType": "address",
          "name": "recipient",
          "type": "address"
        },
        {
          "internalType": "uint256",
          "name": "amount",
          "type": "uint256"
        }
      ],
      "name": "transferFrom",
      "outputs": [
        {
          "internalType": "bool",
          "name": "",
          "type": "bool"
        }
      ],
      "stateMutability": "nonpayable",
      "type": "function"
    },
    {
      "inputs": [
        {
          "internalType": "address",
          "name": "newOwner",
          "type": "address"
        }
      ],
      "name": "transferOwnership",
      "outputs": [],
      "stateMutability": "nonpayable",
      "type": "function"
    },
    {
      "inputs": [
        {
          "internalType": "address",
          "name": "gunPoolAddress",
          "type": "address"
        },
        {
          "internalType": "address",
          "name": "correspondToken",
          "type": "address"
        },
        {
          "internalType": "string",
          "name": "name",
          "type": "string"
        },
        {
          "internalType": "string",
          "name": "symbol",
          "type": "string"
        },
        {
          "internalType": "uint8",
          "name": "decimals",
          "type": "uint8"
        }
      ],
      "name": "initialize",
      "outputs": [],
      "stateMutability": "nonpayable",
      "type": "function"
    },
    {
      "inputs": [
        {
          "internalType": "address",
          "name": "user",
          "type": "address"
        },
        {
          "internalType": "uint256",
          "name": "amount",
          "type": "uint256"
        }
      ],
      "name": "mint",
      "outputs": [
        {
          "internalType": "bool",
          "name": "",
          "type": "bool"
        }
      ],
      "stateMutability": "nonpayable",
      "type": "function"
    },
    {
      "inputs": [
        {
          "internalType": "address",
          "name": "user",
          "type": "address"
        },
        {
          "internalType": "uint256",
          "name": "amount",
          "type": "uint256"
        }
      ],
      "name": "burn",
      "outputs": [],
      "stateMutability": "nonpayable",
      "type": "function"
    },
    {
      "inputs": [
        {
          "internalType": "address",
          "name": "account",
          "type": "address"
        }
      ],
      "name": "balanceOf",
      "outputs": [
        {
          "internalType": "uint256",
          "name": "",
          "type": "uint256"
        }
      ],
      "stateMutability": "view",
      "type": "function"
    },
    {
      "inputs": [],
      "name": "totalSupply",
      "outputs": [
        {
          "internalType": "uint256",
          "name": "",
          "type": "uint256"
        }
      ],
      "stateMutability": "view",
      "type": "function"
    },
    {
      "inputs": [
        {
          "internalType": "address",
          "name": "user",
          "type": "address"
        }
      ],
      "name": "getUserNormalBalanceAndSupply",
      "outputs": [
        {
          "internalType": "uint256",
          "name": "",
          "type": "uint256"
        },
        {
          "internalType": "uint256",
          "name": "",
          "type": "uint256"
        }
      ],
      "stateMutability": "view",
      "type": "function"
    },
    {
      "inputs": [],
      "name": "getNormalTotalSupply",
      "outputs": [
        {
          "internalType": "uint256",
          "name": "",
          "type": "uint256"
        }
      ],
      "stateMutability": "view",
      "type": "function"
    }
  ],
  "bytecode": "0x60806040523480156200001157600080fd5b506040518060200160405280600081525060405180602001604052806000815250601282600390805190602001906200004c929190620000e6565b50815162000062906004906020850190620000e6565b506005805460ff191660ff92909216919091179055506000905062000086620000e2565b60058054610100600160a81b0319166101006001600160a01b03841690810291909117909155604051919250906000907f8be0079c531659141344cd1fd0a4f28419497f9722a3daafe3b4186f6b6457e0908290a35062000182565b3390565b828054600181600116156101000203166002900490600052602060002090601f016020900481019282601f106200012957805160ff191683800117855562000159565b8280016001018555821562000159579182015b82811115620001595782518255916020019190600101906200013c565b50620001679291506200016b565b5090565b5b808211156200016757600081556001016200016c565b6117f780620001926000396000f3fe608060405234801561001057600080fd5b50600436106101215760003560e01c80638420ce99116100ad578063a457c2d711610071578063a457c2d71461022f578063a9059cbb14610242578063dd62ed3e14610255578063f2fde38b14610268578063fc58a62e1461027b57610121565b80638420ce99146101e45780638da5cb5b146101f75780639475fe241461020c57806395d89b41146102145780639dc29fac1461021c57610121565b8063313ce567116100f4578063313ce5671461018c57806339509351146101a157806340c10f19146101b457806370a08231146101c7578063715018a6146101da57610121565b806306fdde0314610126578063095ea7b31461014457806318160ddd1461016457806323b872dd14610179575b600080fd5b61012e61029c565b60405161013b91906113db565b60405180910390f35b6101576101523660046112f8565b610333565b60405161013b91906113d0565b61016c610351565b60405161013b91906116ef565b6101576101873660046112b8565b610390565b610194610462565b60405161013b9190611706565b6101576101af3660046112f8565b61046b565b6101576101c23660046112f8565b6104b9565b61016c6101d53660046111b9565b6105d5565b6101e26105fc565b005b6101e26101f236600461120d565b610686565b6101ff61077e565b60405161013b9190611395565b61016c610792565b61012e6107a1565b6101e261022a3660046112f8565b610802565b61015761023d3660046112f8565b61090d565b6101576102503660046112f8565b610975565b61016c6102633660046111d5565b6109e4565b6101e26102763660046111b9565b610a0f565b61028e6102893660046111b9565b610ad6565b60405161013b9291906116f8565b60038054604080516020601f60026000196101006001881615020190951694909404938401819004810282018101909252828152606093909290918301828280156103285780601f106102fd57610100808354040283529160200191610328565b820191906000526020600020905b81548152906001019060200180831161030b57829003601f168201915b505050505090505b90565b6000610347610340610af3565b8484610af7565b5060015b92915050565b60008061035c610bab565b90508061036d576000915050610330565b6000610377610bb1565b90506103838282610cd1565b92505050610330565b5090565b600061039d848484610d43565b61040d846103a9610af3565b61040885604051806060016040528060288152602001611775602891396001600160a01b038a166000908152600160205260408120906103e7610af3565b6001600160a01b031681526020810191909152604001600020549190610d69565b610af7565b826001600160a01b0316846001600160a01b03167fddf252ad1be2c89b69c2b068fc378daa952ba7f163c4a11628f55a4df523b3ef8460405161045091906116ef565b60405180910390a35060019392505050565b60055460ff1690565b6000610347610478610af3565b846104088560016000610489610af3565b6001600160a01b03908116825260208083019390935260409182016000908120918c168152925290205490610d95565b6006546000906001600160a01b03166104d0610af3565b6001600160a01b031614604051806040016040528060018152602001603760f81b8152509061051b5760405162461bcd60e51b815260040161051291906113db565b60405180910390fd5b50600061052784610dba565b90506000610533610bb1565b905060006105418583610dd5565b905060008111604051806040016040528060018152602001600760fb1b8152509061057f5760405162461bcd60e51b815260040161051291906113db565b5061058a8682610e49565b856001600160a01b03167f0f6798a560793a54c3bcfe86a93cde1e73087d944c0ea20544137d4121396885866040516105c391906116ef565b60405180910390a25050159392505050565b6000806105e0610bb1565b90506105f5816105ef85610dba565b90610cd1565b9392505050565b610604610af3565b60055461010090046001600160a01b039081169116146106365760405162461bcd60e51b81526004016105129061158a565b60055460405160009161010090046001600160a01b0316907f8be0079c531659141344cd1fd0a4f28419497f9722a3daafe3b4186f6b6457e0908390a360058054610100600160a81b0319169055565b61068e610af3565b60055461010090046001600160a01b039081169116146106c05760405162461bcd60e51b81526004016105129061158a565b600680546001600160a01b03808a166001600160a01b0319928316179092556007805492891692909116919091179055604080516020601f870181900481028201810190925285815261072d918790879081908401838280828437600092019190915250610ed092505050565b61076c83838080601f016020809104026020016040519081016040528093929190818152602001838380828437600092019190915250610ee792505050565b61077581610efa565b50505050505050565b60055461010090046001600160a01b031690565b600061079c610bab565b905090565b60048054604080516020601f60026000196101006001881615020190951694909404938401819004810282018101909252828152606093909290918301828280156103285780601f106102fd57610100808354040283529160200191610328565b600061080c610bb1565b9050600061081a8383610dd5565b6040805180820190915260018152600760fb1b6020820152909150816108535760405162461bcd60e51b815260040161051291906113db565b5061085d84610dba565b8111156108705761086d84610dba565b90505b61087a8482610f10565b60006001600160a01b0316846001600160a01b03167fddf252ad1be2c89b69c2b068fc378daa952ba7f163c4a11628f55a4df523b3ef856040516108be91906116ef565b60405180910390a3836001600160a01b03167fcc16f5dbb4873280815c1ee09dbd06736cffcc184412cf7a71a0fdb75d397ca5846040516108ff91906116ef565b60405180910390a250505050565b600061034761091a610af3565b846104088560405180606001604052806025815260200161179d6025913960016000610944610af3565b6001600160a01b03908116825260208083019390935260409182016000908120918d16815292529020549190610d69565b6000610989610982610af3565b8484610d43565b826001600160a01b031661099b610af3565b6001600160a01b03167fddf252ad1be2c89b69c2b068fc378daa952ba7f163c4a11628f55a4df523b3ef846040516109d391906116ef565b60405180910390a350600192915050565b6001600160a01b03918216600090815260016020908152604080832093909416825291909152205490565b610a17610af3565b60055461010090046001600160a01b03908116911614610a495760405162461bcd60e51b81526004016105129061158a565b6001600160a01b038116610a6f5760405162461bcd60e51b815260040161051290611471565b6005546040516001600160a01b0380841692610100900416907f8be0079c531659141344cd1fd0a4f28419497f9722a3daafe3b4186f6b6457e090600090a3600580546001600160a01b0390921661010002610100600160a81b0319909216919091179055565b600080610ae283610dba565b610aea610bab565b91509150915091565b3390565b6001600160a01b038316610b1d5760405162461bcd60e51b815260040161051290611645565b6001600160a01b038216610b435760405162461bcd60e51b8152600401610512906114b7565b6001600160a01b0380841660008181526001602090815260408083209487168084529490915290819020849055517f8c5be1e5ebec7d5bd14f71427d1e84f3dd0314c0f7b2291e5b200ac8c7c3b92590610b9e9085906116ef565b60405180910390a3505050565b60025490565b6000610bbb6110d1565b600654600754604051632c9d46d360e21b81526001600160a01b039283169263b2751b4c92610bf2929116906000906004016113a9565b604080518083038186803b158015610c0957600080fd5b505afa158015610c1d573d6000803e3d6000fd5b505050506040513d601f19601f82011682018060405250810190610c419190611323565b805160075460405163d15e005360e01b815292935090916001600160a01b038084169263d15e005392610c7a9290911690600401611395565b60206040518083038186803b158015610c9257600080fd5b505afa158015610ca6573d6000803e3d6000fd5b505050506040513d601f19601f82011682018060405250810190610cca919061137d565b9250505090565b6000821580610cde575081155b15610ceb5750600061034b565b816b019d971e4fe8401e740000001981610d0157fe5b04831115610d215760405162461bcd60e51b815260040161051290611689565b506b033b2e3c9fd0803ce800000091026b019d971e4fe8401e74000000010490565b6000610d4d610bb1565b9050610d638484610d5e8585610dd5565b610f93565b50505050565b60008184841115610d8d5760405162461bcd60e51b815260040161051291906113db565b505050900390565b6000828201838110156105f55760405162461bcd60e51b8152600401610512906114f9565b6001600160a01b031660009081526020819052604090205490565b600081610df45760405162461bcd60e51b81526004016105129061155f565b600282046b033b2e3c9fd0803ce8000000811904841115610e275760405162461bcd60e51b815260040161051290611530565b82816b033b2e3c9fd0803ce800000086020181610e4057fe5b04949350505050565b6001600160a01b038216610e6f5760405162461bcd60e51b8152600401610512906116b8565b610e7b6000838361108a565b600254610e888183610d95565b6002556001600160a01b038316600090815260208190526040902054610eae8184610d95565b6001600160a01b03909416600090815260208190526040902093909355505050565b8051610ee39060039060208401906110e8565b5050565b8051610ee39060049060208401906110e8565b6005805460ff191660ff92909216919091179055565b6001600160a01b038216610f365760405162461bcd60e51b8152600401610512906115bf565b610f428260008361108a565b600254610f4f818361108f565b6002556001600160a01b038316600090815260208181526040918290205482516060810190935260228084529092610eae9286929061172d90830139839190610d69565b6001600160a01b038316610fb95760405162461bcd60e51b815260040161051290611600565b6001600160a01b038216610fdf5760405162461bcd60e51b81526004016105129061142e565b610fea83838361108a565b6000806000856001600160a01b03166001600160a01b031681526020019081526020016000205490506110388260405180606001604052806026815260200161174f60269139839190610d69565b6001600160a01b0380861660009081526020819052604080822093909355908516815220546110678184610d95565b6001600160a01b0390941660009081526020819052604090209390935550505050565b505050565b60006105f583836040518060400160405280601e81526020017f536166654d6174683a207375627472616374696f6e206f766572666c6f770000815250610d69565b604080518082019091526000808252602082015290565b828054600181600116156101000203166002900490600052602060002090601f016020900481019282601f1061112957805160ff1916838001178555611156565b82800160010185558215611156579182015b8281111561115657825182559160200191906001019061113b565b5061038c9291505b8082111561038c576000815560010161115e565b60008083601f840112611183578182fd5b50813567ffffffffffffffff81111561119a578182fd5b6020830191508360208285010111156111b257600080fd5b9250929050565b6000602082840312156111ca578081fd5b81356105f581611714565b600080604083850312156111e7578081fd5b82356111f281611714565b9150602083013561120281611714565b809150509250929050565b600080600080600080600060a0888a031215611227578283fd5b873561123281611714565b9650602088013561124281611714565b9550604088013567ffffffffffffffff8082111561125e578485fd5b61126a8b838c01611172565b909750955060608a0135915080821115611282578485fd5b5061128f8a828b01611172565b909450925050608088013560ff811681146112a8578182fd5b8091505092959891949750929550565b6000806000606084860312156112cc578283fd5b83356112d781611714565b925060208401356112e781611714565b929592945050506040919091013590565b6000806040838503121561130a578182fd5b823561131581611714565b946020939093013593505050565b600060408284031215611334578081fd5b6040516040810181811067ffffffffffffffff82111715611353578283fd5b604052825161136181611714565b8152602083015161137181611714565b60208201529392505050565b60006020828403121561138e578081fd5b5051919050565b6001600160a01b0391909116815260200190565b6001600160a01b038316815260408101600183106113c357fe5b8260208301529392505050565b901515815260200190565b6000602080835283518082850152825b81811015611407578581018301518582016040015282016113eb565b818111156114185783604083870101525b50601f01601f1916929092016040019392505050565b60208082526023908201527f45524332303a207472616e7366657220746f20746865207a65726f206164647260408201526265737360e81b606082015260800190565b60208082526026908201527f4f776e61626c653a206e6577206f776e657220697320746865207a65726f206160408201526564647265737360d01b606082015260800190565b60208082526022908201527f45524332303a20617070726f766520746f20746865207a65726f206164647265604082015261737360f01b606082015260800190565b6020808252601b908201527f536166654d6174683a206164646974696f6e206f766572666c6f770000000000604082015260600190565b6020808252601590820152744d6174682072617920646976206f766572666c6f7760581b604082015260600190565b6020808252601190820152704d6174682072617920646976207a65726f60781b604082015260600190565b6020808252818101527f4f776e61626c653a2063616c6c6572206973206e6f7420746865206f776e6572604082015260600190565b60208082526021908201527f45524332303a206275726e2066726f6d20746865207a65726f206164647265736040820152607360f81b606082015260800190565b60208082526025908201527f45524332303a207472616e736665722066726f6d20746865207a65726f206164604082015264647265737360d81b606082015260800190565b60208082526024908201527f45524332303a20617070726f76652066726f6d20746865207a65726f206164646040820152637265737360e01b606082015260800190565b6020808252601590820152744d61746820726179206d756c206f766572666c6f7760581b604082015260600190565b6020808252601f908201527f45524332303a206d696e7420746f20746865207a65726f206164647265737300604082015260600190565b90815260200190565b918252602082015260400190565b60ff91909116815260200190565b6001600160a01b038116811461172957600080fd5b5056fe45524332303a206275726e20616d6f756e7420657863656564732062616c616e636545524332303a207472616e7366657220616d6f756e7420657863656564732062616c616e636545524332303a207472616e7366657220616d6f756e74206578636565647320616c6c6f77616e636545524332303a2064656372656173656420616c6c6f77616e63652062656c6f77207a65726fa2646970667358221220cb305a81ddf8ae273d8f4cc85fa843229a49c18c9e41b52fe15930cd14aa163a64736f6c634300060c0033",
  "immutableReferences": {},
  "source": "// SPDX-License-Identifier: agpl-3.0\r\npragma solidity >=0.4.22 <0.9.0;\r\npragma experimental ABIEncoderV2;\r\n\r\nimport {IERC20} from \"../../dependencies/openzeppelin/contracts/token/ERC20/IERC20.sol\";\r\nimport {BaseERC20} from \"./BaseERC20.sol\";\r\nimport {Ownable} from '../../dependencies/openzeppelin/contracts/access/Ownable.sol';\r\nimport {IGunPool} from \"../../interfaces/IGunPool.sol\";\r\nimport {IGPToken} from \"../../interfaces/IGPToken.sol\";\r\nimport {IAToken} from \"../gunpool/pools/aave/IAToken.sol\";\r\nimport {GunPoolContext} from \"../gunpool/GunPoolContext.sol\";\r\nimport {Error} from \"../gunpool/helpers/Error.sol\";\r\nimport {WadRayMath} from \"../gunpool/pools/aave/WadRayMath.sol\";\r\nimport {ILendingPool} from \"../gunpool/pools/aave/ILendingPool.sol\";\r\nimport {DataTypes} from \"../gunpool/pools/aave/DataTypes.sol\";\r\n\r\n// AaveToken\r\ncontract AaveGPToken is\r\n  IGPToken,\r\n  BaseERC20(\"\", \"\" , 18),\r\n  Ownable\r\n{\r\n  using WadRayMath for uint256;\r\n\r\n  IGunPool internal _pool;\r\n  address _correspondToken;\r\n\r\n  modifier onlyGunPool {\r\n    require(_msgSender() == address(_pool), Error.GPTOKEN_MINT_BE_GUNPOOL);\r\n    _;\r\n  }\r\n\r\n  function initialize(\r\n    address gunPoolAddress,\r\n    address correspondToken,\r\n    string calldata name,\r\n    string calldata symbol,\r\n    uint8 decimals\r\n  ) external onlyOwner {\r\n    _pool = IGunPool(gunPoolAddress);\r\n    _correspondToken = correspondToken;\r\n    _setName(name);\r\n    _setSymbol(symbol);\r\n    _setDecimals(decimals);\r\n  }\r\n\r\n  function mint(\r\n    address user,\r\n    uint256 amount\r\n  ) external override onlyGunPool returns (bool) {\r\n    uint256 preBalance = super.balanceOf(user);\r\n    uint256 index = _getAaveIncome();\r\n    uint256 amountScaled = amount.rayDiv(index);\r\n\r\n    require(amountScaled > 0, Error.GPTOKEN_MINT_AMOUNT_ZERO);\r\n    _mint(user, amountScaled);\r\n\r\n    emit Mint(user, amount);\r\n\r\n    return (preBalance == 0);\r\n  }\r\n\r\n  function burn(\r\n    address user,\r\n    uint256 amount\r\n  )\r\n    external\r\n    override\r\n  {\r\n    uint256 index = _getAaveIncome();\r\n    uint256 amountScaled = amount.rayDiv(index);\r\n    require(amountScaled != 0, Error.GPTOKEN_BURN_AMOUNT_ZERO);\r\n\r\n    if ( amountScaled > super.balanceOf(user) )\r\n      amountScaled = super.balanceOf(user);\r\n    _burn(user, amountScaled);\r\n\r\n    emit Transfer(user, address(0), amount);\r\n    emit Burn(user, amount);\r\n  }\r\n\r\n  function balanceOf(address account)\r\n    public\r\n    override(BaseERC20, IERC20)\r\n    view\r\n    returns (uint256)\r\n  {\r\n    uint256 index = _getAaveIncome();\r\n    return super.balanceOf(account).rayMul(index);\r\n  }\r\n\r\n  function totalSupply()\r\n    public\r\n    override(BaseERC20, IERC20)\r\n    view\r\n    returns (uint256)\r\n  {\r\n    uint256 currentSupply = super.totalSupply();\r\n    if ( currentSupply == 0 ) {\r\n      return 0;\r\n    }\r\n    else {\r\n      uint256 index = _getAaveIncome();\r\n      return currentSupply.rayMul(index);\r\n    }\r\n  }\r\n\r\n  function getUserNormalBalanceAndSupply(address user)\r\n    public\r\n    override\r\n    view\r\n    returns (uint256, uint256)\r\n  {\r\n    return (super.balanceOf(user), super.totalSupply());\r\n  }\r\n\r\n  function getNormalTotalSupply()\r\n    public\r\n    override\r\n    view\r\n    returns (uint256)\r\n  {\r\n    return super.totalSupply();\r\n  }\r\n\r\n  function _transfer(\r\n    address from,\r\n    address to,\r\n    uint256 amount\r\n    ) internal override\r\n  {\r\n    uint256 index = _getAaveIncome();\r\n\r\n    // uint256 fromBalanceBefore = super.balanceOf(from).rayMul(index);\r\n    // uint256 toBalanceBefore = super.balanceOf(to).rayMul(index);\r\n\r\n    super._transfer(from, to, amount.rayDiv(index));\r\n  }\r\n\r\n  function _getAaveIncome()\r\n    internal\r\n    view\r\n    returns (uint256)\r\n  {\r\n    GunPoolContext.PlaneContext memory plane =\r\n      _pool.getPlanes(_correspondToken, GunPoolContext.PlaneType.AAVE);\r\n    ILendingPool lendingPool = ILendingPool(plane.plane);\r\n    return lendingPool.getReserveNormalizedIncome(_correspondToken);\r\n  }\r\n}\r\n",
  "sourcePath": "E:\\my_work\\Eos\\polylend\\core\\protocol_v1\\contracts\\protocol\\token\\AaveGPToken.sol",
  "compiler": {
    "name": "solc",
    "version": "0.6.12+commit.27d51765.Emscripten.clang"
  },
  "schemaVersion": "3.4.2",
  "updatedAt": "2021-08-12T06:18:20.807Z",
  "devdoc": {
    "kind": "dev",
    "methods": {
      "allowance(address,address)": {
        "details": "Returns the allowance of spender on the tokens owned by owner",
        "params": {
          "owner": "The owner of the tokens",
          "spender": "The user allowed to spend the owner's tokens"
        },
        "returns": {
          "_0": "The amount of owner's tokens spender is allowed to spend*"
        }
      },
      "approve(address,uint256)": {
        "details": "Allows `spender` to spend the tokens owned by _msgSender()",
        "params": {
          "spender": "The user allowed to spend _msgSender() tokens"
        },
        "returns": {
          "_0": "`true`*"
        }
      },
      "burn(address,uint256)": {
        "details": "burns gpTokens from `user` and sends the equivalent amount of underlying to `user`",
        "params": {
          "amount": "The amount being burned*",
          "user": "The owner of the lpTokens, getting them burned"
        }
      },
      "decimals()": {
        "returns": {
          "_0": "The decimals of the token*"
        }
      },
      "decreaseAllowance(address,uint256)": {
        "details": "Decreases the allowance of spender to spend _msgSender() tokens",
        "params": {
          "spender": "The user allowed to spend on behalf of _msgSender()",
          "subtractedValue": "The amount being subtracted to the allowance"
        },
        "returns": {
          "_0": "`true`*"
        }
      },
      "getNormalTotalSupply()": {
        "details": "getNormalTotalSupply the Normal total supply of gptoken return: the Normal total supply of gptoken*"
      },
      "getUserNormalBalanceAndSupply(address)": {
        "details": "getUserNormalBalanceAndSupply Normal gpTokens balance from `user` and total supply of gptoken",
        "params": {
          "user": "The owner of the gpToken return: the Normal gptoken balance of user and the Normal total supply of gptoken*"
        }
      },
      "increaseAllowance(address,uint256)": {
        "details": "Increases the allowance of spender to spend _msgSender() tokens",
        "params": {
          "addedValue": "The amount being added to the allowance",
          "spender": "The user allowed to spend on behalf of _msgSender()"
        },
        "returns": {
          "_0": "`true`*"
        }
      },
      "mint(address,uint256)": {
        "details": "mint `amount` gpToken to `user`",
        "params": {
          "amount": "The amount of tokens getting minted return `true` who mint gpToken first*",
          "user": "The address receiving the minted tokens"
        }
      },
      "name()": {
        "returns": {
          "_0": "The name of the token*"
        }
      },
      "owner()": {
        "details": "Returns the address of the current owner."
      },
      "renounceOwnership()": {
        "details": "Leaves the contract without owner. It will not be possible to call `onlyOwner` functions anymore. Can only be called by the current owner. NOTE: Renouncing ownership will leave the contract without an owner, thereby removing any functionality that is only available to the owner."
      },
      "symbol()": {
        "returns": {
          "_0": "The symbol of the token*"
        }
      },
      "transfer(address,uint256)": {
        "details": "Executes a transfer of tokens from _msgSender() to recipient",
        "params": {
          "amount": "The amount of tokens being transferred",
          "recipient": "The recipient of the tokens"
        },
        "returns": {
          "_0": "`true` if the transfer succeeds, `false` otherwise*"
        }
      },
      "transferFrom(address,address,uint256)": {
        "details": "Executes a transfer of token from sender to recipient, if _msgSender() is allowed to do so",
        "params": {
          "amount": "The amount of tokens being transferred",
          "recipient": "The recipient of the tokens",
          "sender": "The owner of the tokens"
        },
        "returns": {
          "_0": "`true` if the transfer succeeds, `false` otherwise*"
        }
      },
      "transferOwnership(address)": {
        "details": "Transfers ownership of the contract to a new account (`newOwner`). Can only be called by the current owner."
      }
    },
    "version": 1
  },
  "userdoc": {
    "kind": "user",
    "methods": {},
    "version": 1
  }
}