{
  "contractName": "AaveGPToken",
  "abi": [
    {
      "anonymous": false,
      "inputs": [
        {
          "indexed": true,
          "internalType": "address",
          "name": "owner",
          "type": "address"
        },
        {
          "indexed": true,
          "internalType": "address",
          "name": "spender",
          "type": "address"
        },
        {
          "indexed": false,
          "internalType": "uint256",
          "name": "value",
          "type": "uint256"
        }
      ],
      "name": "Approval",
      "type": "event"
    },
    {
      "anonymous": false,
      "inputs": [
        {
          "indexed": true,
          "internalType": "address",
          "name": "user",
          "type": "address"
        },
        {
          "indexed": false,
          "internalType": "uint256",
          "name": "amount",
          "type": "uint256"
        }
      ],
      "name": "Burn",
      "type": "event"
    },
    {
      "anonymous": false,
      "inputs": [
        {
          "indexed": true,
          "internalType": "address",
          "name": "user",
          "type": "address"
        },
        {
          "indexed": false,
          "internalType": "uint256",
          "name": "amount",
          "type": "uint256"
        }
      ],
      "name": "Mint",
      "type": "event"
    },
    {
      "anonymous": false,
      "inputs": [
        {
          "indexed": true,
          "internalType": "address",
          "name": "previousOwner",
          "type": "address"
        },
        {
          "indexed": true,
          "internalType": "address",
          "name": "newOwner",
          "type": "address"
        }
      ],
      "name": "OwnershipTransferred",
      "type": "event"
    },
    {
      "anonymous": false,
      "inputs": [
        {
          "indexed": true,
          "internalType": "address",
          "name": "from",
          "type": "address"
        },
        {
          "indexed": true,
          "internalType": "address",
          "name": "to",
          "type": "address"
        },
        {
          "indexed": false,
          "internalType": "uint256",
          "name": "value",
          "type": "uint256"
        }
      ],
      "name": "Transfer",
      "type": "event"
    },
    {
      "inputs": [
        {
          "internalType": "address",
          "name": "owner",
          "type": "address"
        },
        {
          "internalType": "address",
          "name": "spender",
          "type": "address"
        }
      ],
      "name": "allowance",
      "outputs": [
        {
          "internalType": "uint256",
          "name": "",
          "type": "uint256"
        }
      ],
      "stateMutability": "view",
      "type": "function"
    },
    {
      "inputs": [
        {
          "internalType": "address",
          "name": "spender",
          "type": "address"
        },
        {
          "internalType": "uint256",
          "name": "amount",
          "type": "uint256"
        }
      ],
      "name": "approve",
      "outputs": [
        {
          "internalType": "bool",
          "name": "",
          "type": "bool"
        }
      ],
      "stateMutability": "nonpayable",
      "type": "function"
    },
    {
      "inputs": [],
      "name": "decimals",
      "outputs": [
        {
          "internalType": "uint8",
          "name": "",
          "type": "uint8"
        }
      ],
      "stateMutability": "view",
      "type": "function"
    },
    {
      "inputs": [
        {
          "internalType": "address",
          "name": "spender",
          "type": "address"
        },
        {
          "internalType": "uint256",
          "name": "subtractedValue",
          "type": "uint256"
        }
      ],
      "name": "decreaseAllowance",
      "outputs": [
        {
          "internalType": "bool",
          "name": "",
          "type": "bool"
        }
      ],
      "stateMutability": "nonpayable",
      "type": "function"
    },
    {
      "inputs": [
        {
          "internalType": "address",
          "name": "spender",
          "type": "address"
        },
        {
          "internalType": "uint256",
          "name": "addedValue",
          "type": "uint256"
        }
      ],
      "name": "increaseAllowance",
      "outputs": [
        {
          "internalType": "bool",
          "name": "",
          "type": "bool"
        }
      ],
      "stateMutability": "nonpayable",
      "type": "function"
    },
    {
      "inputs": [],
      "name": "name",
      "outputs": [
        {
          "internalType": "string",
          "name": "",
          "type": "string"
        }
      ],
      "stateMutability": "view",
      "type": "function"
    },
    {
      "inputs": [],
      "name": "owner",
      "outputs": [
        {
          "internalType": "address",
          "name": "",
          "type": "address"
        }
      ],
      "stateMutability": "view",
      "type": "function"
    },
    {
      "inputs": [],
      "name": "renounceOwnership",
      "outputs": [],
      "stateMutability": "nonpayable",
      "type": "function"
    },
    {
      "inputs": [],
      "name": "symbol",
      "outputs": [
        {
          "internalType": "string",
          "name": "",
          "type": "string"
        }
      ],
      "stateMutability": "view",
      "type": "function"
    },
    {
      "inputs": [
        {
          "internalType": "address",
          "name": "recipient",
          "type": "address"
        },
        {
          "internalType": "uint256",
          "name": "amount",
          "type": "uint256"
        }
      ],
      "name": "transfer",
      "outputs": [
        {
          "internalType": "bool",
          "name": "",
          "type": "bool"
        }
      ],
      "stateMutability": "nonpayable",
      "type": "function"
    },
    {
      "inputs": [
        {
          "internalType": "address",
          "name": "sender",
          "type": "address"
        },
        {
          "internalType": "address",
          "name": "recipient",
          "type": "address"
        },
        {
          "internalType": "uint256",
          "name": "amount",
          "type": "uint256"
        }
      ],
      "name": "transferFrom",
      "outputs": [
        {
          "internalType": "bool",
          "name": "",
          "type": "bool"
        }
      ],
      "stateMutability": "nonpayable",
      "type": "function"
    },
    {
      "inputs": [
        {
          "internalType": "address",
          "name": "newOwner",
          "type": "address"
        }
      ],
      "name": "transferOwnership",
      "outputs": [],
      "stateMutability": "nonpayable",
      "type": "function"
    },
    {
      "inputs": [
        {
          "internalType": "address",
          "name": "gunPoolAddress",
          "type": "address"
        },
        {
          "internalType": "address",
          "name": "correspondToken",
          "type": "address"
        },
        {
          "internalType": "string",
          "name": "name",
          "type": "string"
        },
        {
          "internalType": "string",
          "name": "symbol",
          "type": "string"
        },
        {
          "internalType": "uint8",
          "name": "decimals",
          "type": "uint8"
        }
      ],
      "name": "initialize",
      "outputs": [],
      "stateMutability": "nonpayable",
      "type": "function"
    },
    {
      "inputs": [
        {
          "internalType": "address",
          "name": "user",
          "type": "address"
        },
        {
          "internalType": "uint256",
          "name": "amount",
          "type": "uint256"
        }
      ],
      "name": "mint",
      "outputs": [
        {
          "internalType": "bool",
          "name": "",
          "type": "bool"
        }
      ],
      "stateMutability": "nonpayable",
      "type": "function"
    },
    {
      "inputs": [
        {
          "internalType": "address",
          "name": "user",
          "type": "address"
        },
        {
          "internalType": "uint256",
          "name": "amount",
          "type": "uint256"
        }
      ],
      "name": "burn",
      "outputs": [],
      "stateMutability": "nonpayable",
      "type": "function"
    },
    {
      "inputs": [
        {
          "internalType": "address",
          "name": "account",
          "type": "address"
        }
      ],
      "name": "balanceOf",
      "outputs": [
        {
          "internalType": "uint256",
          "name": "",
          "type": "uint256"
        }
      ],
      "stateMutability": "view",
      "type": "function"
    },
    {
      "inputs": [],
      "name": "totalSupply",
      "outputs": [
        {
          "internalType": "uint256",
          "name": "",
          "type": "uint256"
        }
      ],
      "stateMutability": "view",
      "type": "function"
    },
    {
      "inputs": [
        {
          "internalType": "address",
          "name": "user",
          "type": "address"
        }
      ],
      "name": "getUserNormalBalanceAndSupply",
      "outputs": [
        {
          "internalType": "uint256",
          "name": "",
          "type": "uint256"
        },
        {
          "internalType": "uint256",
          "name": "",
          "type": "uint256"
        }
      ],
      "stateMutability": "view",
      "type": "function"
    },
    {
      "inputs": [],
      "name": "getNormalTotalSupply",
      "outputs": [
        {
          "internalType": "uint256",
          "name": "",
          "type": "uint256"
        }
      ],
      "stateMutability": "view",
      "type": "function"
    }
  ],
  "bytecode": "0x60806040523480156200001157600080fd5b506040518060200160405280600081525060405180602001604052806000815250601282600390805190602001906200004c929190620000e0565b50815162000062906004906020850190620000e0565b506005805460ff191660ff929092169190911790555060009050620000843390565b60058054610100600160a81b0319166101006001600160a01b03841690810291909117909155604051919250906000907f8be0079c531659141344cd1fd0a4f28419497f9722a3daafe3b4186f6b6457e0908290a350620001c3565b828054620000ee9062000186565b90600052602060002090601f0160209004810192826200011257600085556200015d565b82601f106200012d57805160ff19168380011785556200015d565b828001600101855582156200015d579182015b828111156200015d57825182559160200191906001019062000140565b506200016b9291506200016f565b5090565b5b808211156200016b576000815560010162000170565b600181811c908216806200019b57607f821691505b60208210811415620001bd57634e487b7160e01b600052602260045260246000fd5b50919050565b6116ea80620001d36000396000f3fe608060405234801561001057600080fd5b50600436106101215760003560e01c80638420ce99116100ad578063a457c2d711610071578063a457c2d714610247578063a9059cbb1461025a578063dd62ed3e1461026d578063f2fde38b146102a6578063fc58a62e146102b957600080fd5b80638420ce99146101e85780638da5cb5b146101fb5780639475fe241461022457806395d89b411461022c5780639dc29fac1461023457600080fd5b8063313ce567116100f4578063313ce5671461019057806339509351146101a557806340c10f19146101b857806370a08231146101cb578063715018a6146101de57600080fd5b806306fdde0314610126578063095ea7b31461014457806318160ddd1461016757806323b872dd1461017d575b600080fd5b61012e6102fb565b60405161013b91906114bc565b60405180910390f35b6101576101523660046113cf565b61038d565b604051901515815260200161013b565b61016f6103a4565b60405190815260200161013b565b61015761018b36600461138e565b6103e0565b60055460405160ff909116815260200161013b565b6101576101b33660046113cf565b610496565b6101576101c63660046113cf565b6104cc565b61016f6101d9366004611289565b6105e2565b6101e661061f565b005b6101e66101f63660046112df565b61069f565b60055461010090046001600160a01b03166040516001600160a01b03909116815260200161013b565b61016f610793565b61012e6107a3565b6101e66102423660046113cf565b6107b2565b6101576102553660046113cf565b6108d3565b6101576102683660046113cf565b610922565b61016f61027b3660046112a6565b6001600160a01b03918216600090815260016020908152604080832093909416825291909152205490565b6101e66102b4366004611289565b610978565b6102e66102c7366004611289565b6001600160a01b03166000908152602081905260409020546002549091565b6040805192835260208301919091520161013b565b60606003805461030a906115b6565b80601f0160208091040260200160405190810160405280929190818152602001828054610336906115b6565b80156103835780601f1061035857610100808354040283529160200191610383565b820191906000526020600020905b81548152906001019060200180831161036657829003601f168201915b5050505050905090565b600061039a338484610a74565b5060015b92915050565b6000806103b060025490565b9050806103bf57600091505090565b60006103c9610b98565b90506103d58282610ca5565b9250505090565b5090565b60006103ed848484610d6a565b61043f843361043a85604051806060016040528060288152602001611668602891396001600160a01b038a1660009081526001602090815260408083203384529091529020549190610d90565b610a74565b826001600160a01b0316846001600160a01b03167fddf252ad1be2c89b69c2b068fc378daa952ba7f163c4a11628f55a4df523b3ef8460405161048491815260200190565b60405180910390a35060019392505050565b3360008181526001602090815260408083206001600160a01b0387168452909152812054909161039a91859061043a9086610dbc565b6006546040805180820190915260018152603760f81b60208201526000916001600160a01b0316331461051b5760405162461bcd60e51b815260040161051291906114bc565b60405180910390fd5b506001600160a01b0383166000908152602081905260408120549061053e610b98565b9050600061054c8583610dc8565b905060008111604051806040016040528060018152602001600760fb1b8152509061058a5760405162461bcd60e51b815260040161051291906114bc565b506105958682610eb8565b856001600160a01b03167f0f6798a560793a54c3bcfe86a93cde1e73087d944c0ea20544137d4121396885866040516105d091815260200190565b60405180910390a25050159392505050565b6000806105ed610b98565b905061061881610612856001600160a01b031660009081526020819052604090205490565b90610ca5565b9392505050565b6005546001600160a01b0361010090910416331461064f5760405162461bcd60e51b815260040161051290611511565b60055460405160009161010090046001600160a01b0316907f8be0079c531659141344cd1fd0a4f28419497f9722a3daafe3b4186f6b6457e0908390a360058054610100600160a81b0319169055565b6005546001600160a01b036101009091041633146106cf5760405162461bcd60e51b815260040161051290611511565b600680546001600160a01b03808a166001600160a01b0319928316179092556007805492891692909116919091179055604080516020601f870181900481028201810190925285815261073c918790879081908401838280828437600092019190915250610f6392505050565b61077b83838080601f016020809104026020016040519081016040528093929190818152602001838380828437600092019190915250610f7a92505050565b6005805460ff191660ff831617905550505050505050565b600061079e60025490565b905090565b60606004805461030a906115b6565b60006107bc610b98565b905060006107ca8383610dc8565b6040805180820190915260018152600760fb1b6020820152909150816108035760405162461bcd60e51b815260040161051291906114bc565b506001600160a01b03841660009081526020819052604090205481111561083f57506001600160a01b0383166000908152602081905260409020545b6108498482610f8d565b6040518381526000906001600160a01b038616907fddf252ad1be2c89b69c2b068fc378daa952ba7f163c4a11628f55a4df523b3ef9060200160405180910390a3836001600160a01b03167fcc16f5dbb4873280815c1ee09dbd06736cffcc184412cf7a71a0fdb75d397ca5846040516108c591815260200190565b60405180910390a250505050565b600061039a338461043a85604051806060016040528060258152602001611690602591393360009081526001602090815260408083206001600160a01b038d1684529091529020549190610d90565b600061092f338484610d6a565b6040518281526001600160a01b0384169033907fddf252ad1be2c89b69c2b068fc378daa952ba7f163c4a11628f55a4df523b3ef9060200160405180910390a350600192915050565b6005546001600160a01b036101009091041633146109a85760405162461bcd60e51b815260040161051290611511565b6001600160a01b038116610a0d5760405162461bcd60e51b815260206004820152602660248201527f4f776e61626c653a206e6577206f776e657220697320746865207a65726f206160448201526564647265737360d01b6064820152608401610512565b6005546040516001600160a01b0380841692610100900416907f8be0079c531659141344cd1fd0a4f28419497f9722a3daafe3b4186f6b6457e090600090a3600580546001600160a01b0390921661010002610100600160a81b0319909216919091179055565b6001600160a01b038316610ad65760405162461bcd60e51b8152602060048201526024808201527f45524332303a20617070726f76652066726f6d20746865207a65726f206164646044820152637265737360e01b6064820152608401610512565b6001600160a01b038216610b375760405162461bcd60e51b815260206004820152602260248201527f45524332303a20617070726f766520746f20746865207a65726f206164647265604482015261737360f01b6064820152608401610512565b6001600160a01b0383811660008181526001602090815260408083209487168084529482529182902085905590518481527f8c5be1e5ebec7d5bd14f71427d1e84f3dd0314c0f7b2291e5b200ac8c7c3b925910160405180910390a3505050565b600654600754604051632c9d46d360e21b815260009283926001600160a01b039182169263b2751b4c92610bd29216908590600401611481565b604080518083038186803b158015610be957600080fd5b505afa158015610bfd573d6000803e3d6000fd5b505050506040513d601f19601f82011682018060405250810190610c2191906113fb565b805160075460405163d15e005360e01b81526001600160a01b03918216600482015292935090919082169063d15e00539060240160206040518083038186803b158015610c6d57600080fd5b505afa158015610c81573d6000803e3d6000fd5b505050506040513d601f19601f820116820180604052508101906103d59190611468565b6000821580610cb2575081155b15610cbf5750600061039e565b81610cd760026b033b2e3c9fd0803ce800000061155e565b610ce39060001961159f565b610ced919061155e565b831115610d345760405162461bcd60e51b81526020600482015260156024820152744d61746820726179206d756c206f766572666c6f7760581b6044820152606401610512565b6b033b2e3c9fd0803ce8000000610d4c60028261155e565b610d568486611580565b610d609190611546565b610618919061155e565b6000610d74610b98565b9050610d8a8484610d858585610dc8565b61103e565b50505050565b60008184841115610db45760405162461bcd60e51b815260040161051291906114bc565b505050900390565b60006106188284611546565b600081610e0b5760405162461bcd60e51b81526020600482015260116024820152704d6174682072617920646976207a65726f60781b6044820152606401610512565b6000610e1860028461155e565b90506b033b2e3c9fd0803ce8000000610e338260001961159f565b610e3d919061155e565b841115610e845760405162461bcd60e51b81526020600482015260156024820152744d6174682072617920646976206f766572666c6f7760581b6044820152606401610512565b8281610e9c6b033b2e3c9fd0803ce800000087611580565b610ea69190611546565b610eb0919061155e565b949350505050565b6001600160a01b038216610f0e5760405162461bcd60e51b815260206004820152601f60248201527f45524332303a206d696e7420746f20746865207a65726f2061646472657373006044820152606401610512565b600254610f1b8183610dbc565b6002556001600160a01b038316600090815260208190526040902054610f418184610dbc565b6001600160a01b03909416600090815260208190526040902093909355505050565b8051610f769060039060208401906111b0565b5050565b8051610f769060049060208401906111b0565b6001600160a01b038216610fed5760405162461bcd60e51b815260206004820152602160248201527f45524332303a206275726e2066726f6d20746865207a65726f206164647265736044820152607360f81b6064820152608401610512565b600254610ffa81836111a4565b6002556001600160a01b038316600090815260208181526040918290205482516060810190935260228084529092610f419286929061162090830139839190610d90565b6001600160a01b0383166110a25760405162461bcd60e51b815260206004820152602560248201527f45524332303a207472616e736665722066726f6d20746865207a65726f206164604482015264647265737360d81b6064820152608401610512565b6001600160a01b0382166111045760405162461bcd60e51b815260206004820152602360248201527f45524332303a207472616e7366657220746f20746865207a65726f206164647260448201526265737360e81b6064820152608401610512565b6000806000856001600160a01b03166001600160a01b031681526020019081526020016000205490506111528260405180606001604052806026815260200161164260269139839190610d90565b6001600160a01b0380861660009081526020819052604080822093909355908516815220546111818184610dbc565b6001600160a01b0390941660009081526020819052604090209390935550505050565b6000610618828461159f565b8280546111bc906115b6565b90600052602060002090601f0160209004810192826111de5760008555611224565b82601f106111f757805160ff1916838001178555611224565b82800160010185558215611224579182015b82811115611224578251825591602001919060010190611209565b506103dc9291505b808211156103dc576000815560010161122c565b60008083601f84011261125257600080fd5b50813567ffffffffffffffff81111561126a57600080fd5b60208301915083602082850101111561128257600080fd5b9250929050565b60006020828403121561129b57600080fd5b813561061881611607565b600080604083850312156112b957600080fd5b82356112c481611607565b915060208301356112d481611607565b809150509250929050565b600080600080600080600060a0888a0312156112fa57600080fd5b873561130581611607565b9650602088013561131581611607565b9550604088013567ffffffffffffffff8082111561133257600080fd5b61133e8b838c01611240565b909750955060608a013591508082111561135757600080fd5b506113648a828b01611240565b909450925050608088013560ff8116811461137e57600080fd5b8091505092959891949750929550565b6000806000606084860312156113a357600080fd5b83356113ae81611607565b925060208401356113be81611607565b929592945050506040919091013590565b600080604083850312156113e257600080fd5b82356113ed81611607565b946020939093013593505050565b60006040828403121561140d57600080fd5b6040516040810181811067ffffffffffffffff8211171561143e57634e487b7160e01b600052604160045260246000fd5b604052825161144c81611607565b8152602083015161145c81611607565b60208201529392505050565b60006020828403121561147a57600080fd5b5051919050565b6001600160a01b038316815260408101600183106114af57634e487b7160e01b600052602160045260246000fd5b8260208301529392505050565b600060208083528351808285015260005b818110156114e9578581018301518582016040015282016114cd565b818111156114fb576000604083870101525b50601f01601f1916929092016040019392505050565b6020808252818101527f4f776e61626c653a2063616c6c6572206973206e6f7420746865206f776e6572604082015260600190565b60008219821115611559576115596115f1565b500190565b60008261157b57634e487b7160e01b600052601260045260246000fd5b500490565b600081600019048311821515161561159a5761159a6115f1565b500290565b6000828210156115b1576115b16115f1565b500390565b600181811c908216806115ca57607f821691505b602082108114156115eb57634e487b7160e01b600052602260045260246000fd5b50919050565b634e487b7160e01b600052601160045260246000fd5b6001600160a01b038116811461161c57600080fd5b5056fe45524332303a206275726e20616d6f756e7420657863656564732062616c616e636545524332303a207472616e7366657220616d6f756e7420657863656564732062616c616e636545524332303a207472616e7366657220616d6f756e74206578636565647320616c6c6f77616e636545524332303a2064656372656173656420616c6c6f77616e63652062656c6f77207a65726fa2646970667358221220c389414efeebb766e0b4694a752fd0b1254b7a7b06a8d230b354674790ca3fd664736f6c63430008070033",
  "immutableReferences": {},
  "source": "// SPDX-License-Identifier: agpl-3.0\r\npragma solidity ^0.8.0;\r\npragma experimental ABIEncoderV2;\r\n\r\nimport {IERC20} from \"../../dependencies/openzeppelin/contracts/token/ERC20/IERC20.sol\";\r\nimport {BaseERC20} from \"./BaseERC20.sol\";\r\nimport {Ownable} from '../../dependencies/openzeppelin/contracts/access/Ownable.sol';\r\nimport {IGunPool} from \"../../interfaces/IGunPool.sol\";\r\nimport {IGPToken} from \"../../interfaces/IGPToken.sol\";\r\nimport {IAToken} from \"../gunpool/pools/aave/IAToken.sol\";\r\nimport {GunPoolContext} from \"../gunpool/GunPoolContext.sol\";\r\nimport {Error} from \"../gunpool/helpers/Error.sol\";\r\nimport {WadRayMath} from \"../gunpool/pools/aave/WadRayMath.sol\";\r\nimport {ILendingPool} from \"../gunpool/pools/aave/ILendingPool.sol\";\r\nimport {DataTypes} from \"../gunpool/pools/aave/DataTypes.sol\";\r\n\r\n// AaveToken\r\ncontract AaveGPToken is\r\n  IGPToken,\r\n  BaseERC20(\"\", \"\" , 18),\r\n  Ownable\r\n{\r\n  using WadRayMath for uint256;\r\n\r\n  IGunPool internal _pool;\r\n  address _correspondToken;\r\n\r\n  modifier onlyGunPool {\r\n    require(_msgSender() == address(_pool), Error.GPTOKEN_MINT_BE_GUNPOOL);\r\n    _;\r\n  }\r\n\r\n    function initialize(\r\n    address gunPoolAddress,\r\n    address correspondToken,\r\n    string calldata name,\r\n    string calldata symbol,\r\n    uint8 decimals\r\n  ) external onlyOwner {\r\n    _pool = IGunPool(gunPoolAddress);\r\n    _correspondToken = correspondToken;\r\n    _setName(name);\r\n    _setSymbol(symbol);\r\n    _setDecimals(decimals);\r\n  }\r\n\r\n  function mint(\r\n    address user,\r\n    uint256 amount\r\n  ) external override onlyGunPool returns (bool) {\r\n    uint256 preBalance = super.balanceOf(user);\r\n    uint256 index = _getAaveIncome();\r\n    uint256 amountScaled = amount.rayDiv(index);\r\n\r\n    require(amountScaled > 0, Error.GPTOKEN_MINT_AMOUNT_ZERO);\r\n    _mint(user, amountScaled);\r\n\r\n    emit Mint(user, amount);\r\n\r\n    return (preBalance == 0);\r\n  }\r\n\r\n  function burn(\r\n    address user,\r\n    uint256 amount\r\n  )\r\n    external\r\n    override\r\n  {\r\n    uint256 index = _getAaveIncome();\r\n    uint256 amountScaled = amount.rayDiv(index);\r\n    require(amountScaled != 0, Error.GPTOKEN_BURN_AMOUNT_ZERO);\r\n\r\n    if ( amountScaled > super.balanceOf(user) )\r\n      amountScaled = super.balanceOf(user);\r\n    _burn(user, amountScaled);\r\n\r\n    emit Transfer(user, address(0), amount);\r\n    emit Burn(user, amount);\r\n  }\r\n\r\n  function balanceOf(address account)\r\n    public\r\n    override(BaseERC20, IERC20)\r\n    view\r\n    returns (uint256)\r\n  {\r\n    uint256 index = _getAaveIncome();\r\n    return super.balanceOf(account).rayMul(index);\r\n  }\r\n\r\n  function totalSupply()\r\n    public\r\n    override(BaseERC20, IERC20)\r\n    view\r\n    returns (uint256)\r\n  {\r\n    uint256 currentSupply = super.totalSupply();\r\n    if ( currentSupply == 0 ) {\r\n      return 0;\r\n    }\r\n    else {\r\n      uint256 index = _getAaveIncome();\r\n      return currentSupply.rayMul(index);\r\n    }\r\n  }\r\n\r\n  function getUserNormalBalanceAndSupply(address user)\r\n    public\r\n    override\r\n    view\r\n    returns (uint256, uint256)\r\n  {\r\n    return (super.balanceOf(user), super.totalSupply());\r\n  }\r\n\r\n  function getNormalTotalSupply()\r\n    public\r\n    override\r\n    view\r\n    returns (uint256)\r\n  {\r\n    return super.totalSupply();\r\n  }\r\n\r\n  function _transfer(\r\n    address from,\r\n    address to,\r\n    uint256 amount\r\n    ) internal override\r\n  {\r\n    uint256 index = _getAaveIncome();\r\n\r\n    // uint256 fromBalanceBefore = super.balanceOf(from).rayMul(index);\r\n    // uint256 toBalanceBefore = super.balanceOf(to).rayMul(index);\r\n\r\n    super._transfer(from, to, amount.rayDiv(index));\r\n  }\r\n\r\n  function _getAaveIncome()\r\n    internal\r\n    view\r\n    returns (uint256)\r\n  {\r\n    GunPoolContext.PlaneContext memory plane =\r\n      _pool.getPlanes(_correspondToken, GunPoolContext.PlaneType.AAVE);\r\n    ILendingPool lendingPool = ILendingPool(plane.plane);\r\n    return lendingPool.getReserveNormalizedIncome(_correspondToken);\r\n  }\r\n}\r\n",
  "sourcePath": "E:\\my_work\\Eos\\polylend\\core\\protocol_v1\\contracts\\protocol\\token\\AaveGPToken.sol",
  "compiler": {
    "name": "solc",
    "version": "0.8.7+commit.e28d00a7.Emscripten.clang"
  },
  "schemaVersion": "3.4.2",
  "updatedAt": "2021-08-19T02:20:52.502Z",
  "devdoc": {
    "kind": "dev",
    "methods": {
      "allowance(address,address)": {
        "details": "Returns the allowance of spender on the tokens owned by owner",
        "params": {
          "owner": "The owner of the tokens",
          "spender": "The user allowed to spend the owner's tokens"
        },
        "returns": {
          "_0": "The amount of owner's tokens spender is allowed to spend*"
        }
      },
      "approve(address,uint256)": {
        "details": "Allows `spender` to spend the tokens owned by _msgSender()",
        "params": {
          "spender": "The user allowed to spend _msgSender() tokens"
        },
        "returns": {
          "_0": "`true`*"
        }
      },
      "burn(address,uint256)": {
        "details": "burns gpTokens from `user` and sends the equivalent amount of underlying to `user`",
        "params": {
          "amount": "The amount being burned*",
          "user": "The owner of the lpTokens, getting them burned"
        }
      },
      "decimals()": {
        "returns": {
          "_0": "The decimals of the token*"
        }
      },
      "decreaseAllowance(address,uint256)": {
        "details": "Decreases the allowance of spender to spend _msgSender() tokens",
        "params": {
          "spender": "The user allowed to spend on behalf of _msgSender()",
          "subtractedValue": "The amount being subtracted to the allowance"
        },
        "returns": {
          "_0": "`true`*"
        }
      },
      "getNormalTotalSupply()": {
        "details": "getNormalTotalSupply the Normal total supply of gptoken return: the Normal total supply of gptoken*"
      },
      "getUserNormalBalanceAndSupply(address)": {
        "details": "getUserNormalBalanceAndSupply Normal gpTokens balance from `user` and total supply of gptoken",
        "params": {
          "user": "The owner of the gpToken return: the Normal gptoken balance of user and the Normal total supply of gptoken*"
        }
      },
      "increaseAllowance(address,uint256)": {
        "details": "Increases the allowance of spender to spend _msgSender() tokens",
        "params": {
          "addedValue": "The amount being added to the allowance",
          "spender": "The user allowed to spend on behalf of _msgSender()"
        },
        "returns": {
          "_0": "`true`*"
        }
      },
      "mint(address,uint256)": {
        "details": "mint `amount` gpToken to `user`",
        "params": {
          "amount": "The amount of tokens getting minted return `true` who mint gpToken first*",
          "user": "The address receiving the minted tokens"
        }
      },
      "name()": {
        "returns": {
          "_0": "The name of the token*"
        }
      },
      "owner()": {
        "details": "Returns the address of the current owner."
      },
      "renounceOwnership()": {
        "details": "Leaves the contract without owner. It will not be possible to call `onlyOwner` functions anymore. Can only be called by the current owner. NOTE: Renouncing ownership will leave the contract without an owner, thereby removing any functionality that is only available to the owner."
      },
      "symbol()": {
        "returns": {
          "_0": "The symbol of the token*"
        }
      },
      "transfer(address,uint256)": {
        "details": "Executes a transfer of tokens from _msgSender() to recipient",
        "params": {
          "amount": "The amount of tokens being transferred",
          "recipient": "The recipient of the tokens"
        },
        "returns": {
          "_0": "`true` if the transfer succeeds, `false` otherwise*"
        }
      },
      "transferFrom(address,address,uint256)": {
        "details": "Executes a transfer of token from sender to recipient, if _msgSender() is allowed to do so",
        "params": {
          "amount": "The amount of tokens being transferred",
          "recipient": "The recipient of the tokens",
          "sender": "The owner of the tokens"
        },
        "returns": {
          "_0": "`true` if the transfer succeeds, `false` otherwise*"
        }
      },
      "transferOwnership(address)": {
        "details": "Transfers ownership of the contract to a new account (`newOwner`). Can only be called by the current owner."
      }
    },
    "version": 1
  },
  "userdoc": {
    "kind": "user",
    "methods": {},
    "version": 1
  }
}