{
  "contractName": "ERC777",
  "abi": [
    {
      "inputs": [
        {
          "internalType": "string",
          "name": "name_",
          "type": "string"
        },
        {
          "internalType": "string",
          "name": "symbol_",
          "type": "string"
        },
        {
          "internalType": "address[]",
          "name": "defaultOperators_",
          "type": "address[]"
        }
      ],
      "stateMutability": "nonpayable",
      "type": "constructor"
    },
    {
      "anonymous": false,
      "inputs": [
        {
          "indexed": true,
          "internalType": "address",
          "name": "owner",
          "type": "address"
        },
        {
          "indexed": true,
          "internalType": "address",
          "name": "spender",
          "type": "address"
        },
        {
          "indexed": false,
          "internalType": "uint256",
          "name": "value",
          "type": "uint256"
        }
      ],
      "name": "Approval",
      "type": "event"
    },
    {
      "anonymous": false,
      "inputs": [
        {
          "indexed": true,
          "internalType": "address",
          "name": "operator",
          "type": "address"
        },
        {
          "indexed": true,
          "internalType": "address",
          "name": "tokenHolder",
          "type": "address"
        }
      ],
      "name": "AuthorizedOperator",
      "type": "event"
    },
    {
      "anonymous": false,
      "inputs": [
        {
          "indexed": true,
          "internalType": "address",
          "name": "operator",
          "type": "address"
        },
        {
          "indexed": true,
          "internalType": "address",
          "name": "from",
          "type": "address"
        },
        {
          "indexed": false,
          "internalType": "uint256",
          "name": "amount",
          "type": "uint256"
        },
        {
          "indexed": false,
          "internalType": "bytes",
          "name": "data",
          "type": "bytes"
        },
        {
          "indexed": false,
          "internalType": "bytes",
          "name": "operatorData",
          "type": "bytes"
        }
      ],
      "name": "Burned",
      "type": "event"
    },
    {
      "anonymous": false,
      "inputs": [
        {
          "indexed": true,
          "internalType": "address",
          "name": "operator",
          "type": "address"
        },
        {
          "indexed": true,
          "internalType": "address",
          "name": "to",
          "type": "address"
        },
        {
          "indexed": false,
          "internalType": "uint256",
          "name": "amount",
          "type": "uint256"
        },
        {
          "indexed": false,
          "internalType": "bytes",
          "name": "data",
          "type": "bytes"
        },
        {
          "indexed": false,
          "internalType": "bytes",
          "name": "operatorData",
          "type": "bytes"
        }
      ],
      "name": "Minted",
      "type": "event"
    },
    {
      "anonymous": false,
      "inputs": [
        {
          "indexed": true,
          "internalType": "address",
          "name": "operator",
          "type": "address"
        },
        {
          "indexed": true,
          "internalType": "address",
          "name": "tokenHolder",
          "type": "address"
        }
      ],
      "name": "RevokedOperator",
      "type": "event"
    },
    {
      "anonymous": false,
      "inputs": [
        {
          "indexed": true,
          "internalType": "address",
          "name": "operator",
          "type": "address"
        },
        {
          "indexed": true,
          "internalType": "address",
          "name": "from",
          "type": "address"
        },
        {
          "indexed": true,
          "internalType": "address",
          "name": "to",
          "type": "address"
        },
        {
          "indexed": false,
          "internalType": "uint256",
          "name": "amount",
          "type": "uint256"
        },
        {
          "indexed": false,
          "internalType": "bytes",
          "name": "data",
          "type": "bytes"
        },
        {
          "indexed": false,
          "internalType": "bytes",
          "name": "operatorData",
          "type": "bytes"
        }
      ],
      "name": "Sent",
      "type": "event"
    },
    {
      "anonymous": false,
      "inputs": [
        {
          "indexed": true,
          "internalType": "address",
          "name": "from",
          "type": "address"
        },
        {
          "indexed": true,
          "internalType": "address",
          "name": "to",
          "type": "address"
        },
        {
          "indexed": false,
          "internalType": "uint256",
          "name": "value",
          "type": "uint256"
        }
      ],
      "name": "Transfer",
      "type": "event"
    },
    {
      "inputs": [],
      "name": "name",
      "outputs": [
        {
          "internalType": "string",
          "name": "",
          "type": "string"
        }
      ],
      "stateMutability": "view",
      "type": "function"
    },
    {
      "inputs": [],
      "name": "symbol",
      "outputs": [
        {
          "internalType": "string",
          "name": "",
          "type": "string"
        }
      ],
      "stateMutability": "view",
      "type": "function"
    },
    {
      "inputs": [],
      "name": "decimals",
      "outputs": [
        {
          "internalType": "uint8",
          "name": "",
          "type": "uint8"
        }
      ],
      "stateMutability": "pure",
      "type": "function"
    },
    {
      "inputs": [],
      "name": "granularity",
      "outputs": [
        {
          "internalType": "uint256",
          "name": "",
          "type": "uint256"
        }
      ],
      "stateMutability": "view",
      "type": "function"
    },
    {
      "inputs": [],
      "name": "totalSupply",
      "outputs": [
        {
          "internalType": "uint256",
          "name": "",
          "type": "uint256"
        }
      ],
      "stateMutability": "view",
      "type": "function"
    },
    {
      "inputs": [
        {
          "internalType": "address",
          "name": "tokenHolder",
          "type": "address"
        }
      ],
      "name": "balanceOf",
      "outputs": [
        {
          "internalType": "uint256",
          "name": "",
          "type": "uint256"
        }
      ],
      "stateMutability": "view",
      "type": "function"
    },
    {
      "inputs": [
        {
          "internalType": "address",
          "name": "recipient",
          "type": "address"
        },
        {
          "internalType": "uint256",
          "name": "amount",
          "type": "uint256"
        },
        {
          "internalType": "bytes",
          "name": "data",
          "type": "bytes"
        }
      ],
      "name": "send",
      "outputs": [],
      "stateMutability": "nonpayable",
      "type": "function"
    },
    {
      "inputs": [
        {
          "internalType": "address",
          "name": "recipient",
          "type": "address"
        },
        {
          "internalType": "uint256",
          "name": "amount",
          "type": "uint256"
        }
      ],
      "name": "transfer",
      "outputs": [
        {
          "internalType": "bool",
          "name": "",
          "type": "bool"
        }
      ],
      "stateMutability": "nonpayable",
      "type": "function"
    },
    {
      "inputs": [
        {
          "internalType": "uint256",
          "name": "amount",
          "type": "uint256"
        },
        {
          "internalType": "bytes",
          "name": "data",
          "type": "bytes"
        }
      ],
      "name": "burn",
      "outputs": [],
      "stateMutability": "nonpayable",
      "type": "function"
    },
    {
      "inputs": [
        {
          "internalType": "address",
          "name": "operator",
          "type": "address"
        },
        {
          "internalType": "address",
          "name": "tokenHolder",
          "type": "address"
        }
      ],
      "name": "isOperatorFor",
      "outputs": [
        {
          "internalType": "bool",
          "name": "",
          "type": "bool"
        }
      ],
      "stateMutability": "view",
      "type": "function"
    },
    {
      "inputs": [
        {
          "internalType": "address",
          "name": "operator",
          "type": "address"
        }
      ],
      "name": "authorizeOperator",
      "outputs": [],
      "stateMutability": "nonpayable",
      "type": "function"
    },
    {
      "inputs": [
        {
          "internalType": "address",
          "name": "operator",
          "type": "address"
        }
      ],
      "name": "revokeOperator",
      "outputs": [],
      "stateMutability": "nonpayable",
      "type": "function"
    },
    {
      "inputs": [],
      "name": "defaultOperators",
      "outputs": [
        {
          "internalType": "address[]",
          "name": "",
          "type": "address[]"
        }
      ],
      "stateMutability": "view",
      "type": "function"
    },
    {
      "inputs": [
        {
          "internalType": "address",
          "name": "sender",
          "type": "address"
        },
        {
          "internalType": "address",
          "name": "recipient",
          "type": "address"
        },
        {
          "internalType": "uint256",
          "name": "amount",
          "type": "uint256"
        },
        {
          "internalType": "bytes",
          "name": "data",
          "type": "bytes"
        },
        {
          "internalType": "bytes",
          "name": "operatorData",
          "type": "bytes"
        }
      ],
      "name": "operatorSend",
      "outputs": [],
      "stateMutability": "nonpayable",
      "type": "function"
    },
    {
      "inputs": [
        {
          "internalType": "address",
          "name": "account",
          "type": "address"
        },
        {
          "internalType": "uint256",
          "name": "amount",
          "type": "uint256"
        },
        {
          "internalType": "bytes",
          "name": "data",
          "type": "bytes"
        },
        {
          "internalType": "bytes",
          "name": "operatorData",
          "type": "bytes"
        }
      ],
      "name": "operatorBurn",
      "outputs": [],
      "stateMutability": "nonpayable",
      "type": "function"
    },
    {
      "inputs": [
        {
          "internalType": "address",
          "name": "holder",
          "type": "address"
        },
        {
          "internalType": "address",
          "name": "spender",
          "type": "address"
        }
      ],
      "name": "allowance",
      "outputs": [
        {
          "internalType": "uint256",
          "name": "",
          "type": "uint256"
        }
      ],
      "stateMutability": "view",
      "type": "function"
    },
    {
      "inputs": [
        {
          "internalType": "address",
          "name": "spender",
          "type": "address"
        },
        {
          "internalType": "uint256",
          "name": "value",
          "type": "uint256"
        }
      ],
      "name": "approve",
      "outputs": [
        {
          "internalType": "bool",
          "name": "",
          "type": "bool"
        }
      ],
      "stateMutability": "nonpayable",
      "type": "function"
    },
    {
      "inputs": [
        {
          "internalType": "address",
          "name": "holder",
          "type": "address"
        },
        {
          "internalType": "address",
          "name": "recipient",
          "type": "address"
        },
        {
          "internalType": "uint256",
          "name": "amount",
          "type": "uint256"
        }
      ],
      "name": "transferFrom",
      "outputs": [
        {
          "internalType": "bool",
          "name": "",
          "type": "bool"
        }
      ],
      "stateMutability": "nonpayable",
      "type": "function"
    }
  ],
  "bytecode": "0x60806040523480156200001157600080fd5b5060405162001d7b38038062001d7b8339810160408190526200003491620003a8565b82516200004990600290602086019062000215565b5081516200005f90600390602085019062000215565b50805162000075906004906020840190620002a4565b5060005b8151811015620000e5576001600560008484815181106200009e576200009e6200055e565b6020908102919091018101516001600160a01b03168252810191909152604001600020805460ff191691151591909117905580620000dc8162000534565b91505062000079565b506040516329965a1d60e01b815230600482018190527fac7fbab5f54a3ca8194167523c6753bfeb96a445279294b6125b68cce217705460248301526044820152731820a4b7618bde71dce8cdc73aab6c95905fad24906329965a1d90606401600060405180830381600087803b1580156200016057600080fd5b505af115801562000175573d6000803e3d6000fd5b50506040516329965a1d60e01b815230600482018190527faea199e31a596269b42cdafd93407f14436db6e4cad65417994c2eb37381e05a60248301526044820152731820a4b7618bde71dce8cdc73aab6c95905fad2492506329965a1d9150606401600060405180830381600087803b158015620001f357600080fd5b505af115801562000208573d6000803e3d6000fd5b505050505050506200058a565b8280546200022390620004f7565b90600052602060002090601f01602090048101928262000247576000855562000292565b82601f106200026257805160ff191683800117855562000292565b8280016001018555821562000292579182015b828111156200029257825182559160200191906001019062000275565b50620002a0929150620002fc565b5090565b82805482825590600052602060002090810192821562000292579160200282015b828111156200029257825182546001600160a01b0319166001600160a01b03909116178255602090920191600190910190620002c5565b5b80821115620002a05760008155600101620002fd565b600082601f8301126200032557600080fd5b81516001600160401b0381111562000341576200034162000574565b602062000357601f8301601f19168201620004c4565b82815285828487010111156200036c57600080fd5b60005b838110156200038c5785810183015182820184015282016200036f565b838111156200039e5760008385840101525b5095945050505050565b600080600060608486031215620003be57600080fd5b83516001600160401b0380821115620003d657600080fd5b620003e48783880162000313565b9450602091508186015181811115620003fc57600080fd5b6200040a8882890162000313565b9450506040860151818111156200042057600080fd5b8601601f810188136200043257600080fd5b80518281111562000447576200044762000574565b8060051b92506200045a848401620004c4565b8181528481019083860185850187018c10156200047657600080fd5b600095508594505b83851015620004b35780516001600160a01b03811681146200049e578687fd5b8352600194909401939186019186016200047e565b508096505050505050509250925092565b604051601f8201601f191681016001600160401b0381118282101715620004ef57620004ef62000574565b604052919050565b600181811c908216806200050c57607f821691505b602082108114156200052e57634e487b7160e01b600052602260045260246000fd5b50919050565b60006000198214156200055757634e487b7160e01b600052601160045260246000fd5b5060010190565b634e487b7160e01b600052603260045260246000fd5b634e487b7160e01b600052604160045260246000fd5b6117e1806200059a6000396000f3fe608060405234801561001057600080fd5b50600436106101165760003560e01c8063959b8c3f116100a2578063d95b637111610071578063d95b63711461022b578063dd62ed3e1461023e578063fad8b32a14610277578063fc673c4f1461028a578063fe9d93031461029d57600080fd5b8063959b8c3f146101ea57806395d89b41146101fd5780639bd9bbc614610205578063a9059cbb1461021857600080fd5b806323b872dd116100e957806323b872dd14610183578063313ce56714610196578063556f0dc7146101a557806362ad1b83146101ac57806370a08231146101c157600080fd5b806306e485381461011b57806306fdde0314610139578063095ea7b31461014e57806318160ddd14610171575b600080fd5b6101236102b0565b60405161013091906115d8565b60405180910390f35b610141610312565b6040516101309190611625565b61016161015c3660046113e5565b61039b565b6040519015158152602001610130565b6001545b604051908152602001610130565b610161610191366004611311565b6103b3565b60405160128152602001610130565b6001610175565b6101bf6101ba366004611352565b61057c565b005b6101756101cf36600461129e565b6001600160a01b031660009081526020819052604090205490565b6101bf6101f836600461129e565b6105b8565b6101416106d6565b6101bf610213366004611411565b6106e5565b6101616102263660046113e5565b610708565b6101616102393660046112d8565b6107bb565b61017561024c3660046112d8565b6001600160a01b03918216600090815260086020908152604080832093909416825291909152205490565b6101bf61028536600461129e565b61085d565b6101bf61029836600461146a565b610979565b6101bf6102ab3660046114ea565b6109b1565b6060600480548060200260200160405190810160405280929190818152602001828054801561030857602002820191906000526020600020905b81546001600160a01b031681526001909101906020018083116102ea575b5050505050905090565b6060600280546103219061172c565b80601f016020809104026020016040519081016040528092919081815260200182805461034d9061172c565b80156103085780601f1061036f57610100808354040283529160200191610308565b820191906000526020600020905b81548152906001019060200180831161037d57509395945050505050565b6000336103a98185856109d0565b5060019392505050565b60006001600160a01b0383166103e45760405162461bcd60e51b81526004016103db90611638565b60405180910390fd5b6001600160a01b0384166104495760405162461bcd60e51b815260206004820152602660248201527f4552433737373a207472616e736665722066726f6d20746865207a65726f206160448201526564647265737360d01b60648201526084016103db565b600033905061047a818686866040518060200160405280600081525060405180602001604052806000815250610af7565b6104a6818686866040518060200160405280600081525060405180602001604052806000815250610c2e565b6001600160a01b038086166000908152600860209081526040808320938516835292905220548381101561052e5760405162461bcd60e51b815260206004820152602960248201527f4552433737373a207472616e7366657220616d6f756e74206578636565647320604482015268616c6c6f77616e636560b81b60648201526084016103db565b610542868361053d8785611715565b6109d0565b6105708287878760405180602001604052806000815250604051806020016040528060008152506000610d9d565b50600195945050505050565b61058633866107bb565b6105a25760405162461bcd60e51b81526004016103db9061167c565b6105b185858585856001610f71565b5050505050565b336001600160a01b038216141561061d5760405162461bcd60e51b8152602060048201526024808201527f4552433737373a20617574686f72697a696e672073656c66206173206f70657260448201526330ba37b960e11b60648201526084016103db565b6001600160a01b03811660009081526005602052604090205460ff161561066e573360009081526007602090815260408083206001600160a01b03851684529091529020805460ff1916905561069d565b3360009081526006602090815260408083206001600160a01b03851684529091529020805460ff191660011790555b60405133906001600160a01b038316907ff4caeb2d6ca8932a215a353d0703c326ec2d81fc68170f320eb2ab49e9df61f990600090a350565b6060600380546103219061172c565b61070333848484604051806020016040528060008152506001610f71565b505050565b60006001600160a01b0383166107305760405162461bcd60e51b81526004016103db90611638565b6000339050610761818286866040518060200160405280600081525060405180602001604052806000815250610af7565b61078d818286866040518060200160405280600081525060405180602001604052806000815250610c2e565b6103a98182868660405180602001604052806000815250604051806020016040528060008152506000610d9d565b6000816001600160a01b0316836001600160a01b0316148061082657506001600160a01b03831660009081526005602052604090205460ff16801561082657506001600160a01b0380831660009081526007602090815260408083209387168352929052205460ff16155b8061085657506001600160a01b0380831660009081526006602090815260408083209387168352929052205460ff165b9392505050565b6001600160a01b0381163314156108c05760405162461bcd60e51b815260206004820152602160248201527f4552433737373a207265766f6b696e672073656c66206173206f70657261746f6044820152603960f91b60648201526084016103db565b6001600160a01b03811660009081526005602052604090205460ff1615610914573360009081526007602090815260408083206001600160a01b03851684529091529020805460ff19166001179055610940565b3360009081526006602090815260408083206001600160a01b03851684529091529020805460ff191690555b60405133906001600160a01b038316907f50546e66e5f44d728365dc3908c63bc5cfeeab470722c1677e3073a6ac294aa190600090a350565b61098333856107bb565b61099f5760405162461bcd60e51b81526004016103db9061167c565b6109ab84848484611054565b50505050565b6109cc33838360405180602001604052806000815250611054565b5050565b6001600160a01b038316610a345760405162461bcd60e51b815260206004820152602560248201527f4552433737373a20617070726f76652066726f6d20746865207a65726f206164604482015264647265737360d81b60648201526084016103db565b6001600160a01b038216610a965760405162461bcd60e51b815260206004820152602360248201527f4552433737373a20617070726f766520746f20746865207a65726f206164647260448201526265737360e81b60648201526084016103db565b6001600160a01b0383811660008181526008602090815260408083209487168084529482529182902085905590518481527f8c5be1e5ebec7d5bd14f71427d1e84f3dd0314c0f7b2291e5b200ac8c7c3b925910160405180910390a3505050565b60405163555ddc6560e11b81526001600160a01b03861660048201527f29ddb589b1fb5fc7cf394961c1adf5f8c6454761adf795e67fe149f658abe8956024820152600090731820a4b7618bde71dce8cdc73aab6c95905fad249063aabbb8ca9060440160206040518083038186803b158015610b7357600080fd5b505afa158015610b87573d6000803e3d6000fd5b505050506040513d601f19601f82011682018060405250810190610bab91906112bb565b90506001600160a01b03811615610c2557604051633ad5cbc160e11b81526001600160a01b038216906375ab978290610bf2908a908a908a908a908a908a9060040161157e565b600060405180830381600087803b158015610c0c57600080fd5b505af1158015610c20573d6000803e3d6000fd5b505050505b50505050505050565b6001600160a01b03851660009081526020819052604090205483811015610ca75760405162461bcd60e51b815260206004820152602760248201527f4552433737373a207472616e7366657220616d6f756e7420657863656564732060448201526662616c616e636560c81b60648201526084016103db565b610cb18482611715565b6001600160a01b038088166000908152602081905260408082209390935590871681529081208054869290610ce79084906116fd565b92505081905550846001600160a01b0316866001600160a01b0316886001600160a01b03167f06b541ddaa720db2b10a4d0cdac39b8d360425fc073085fac19bc82614677987878787604051610d3f939291906116c8565b60405180910390a4846001600160a01b0316866001600160a01b03167fddf252ad1be2c89b69c2b068fc378daa952ba7f163c4a11628f55a4df523b3ef86604051610d8c91815260200190565b60405180910390a350505050505050565b60405163555ddc6560e11b81526001600160a01b03861660048201527fb281fc8c12954d22544db45de3159a39272895b169a852b314f9cc762e44c53b6024820152600090731820a4b7618bde71dce8cdc73aab6c95905fad249063aabbb8ca9060440160206040518083038186803b158015610e1957600080fd5b505afa158015610e2d573d6000803e3d6000fd5b505050506040513d601f19601f82011682018060405250810190610e5191906112bb565b90506001600160a01b03811615610ecd576040516223de2960e01b81526001600160a01b038216906223de2990610e96908b908b908b908b908b908b9060040161157e565b600060405180830381600087803b158015610eb057600080fd5b505af1158015610ec4573d6000803e3d6000fd5b50505050610f67565b8115610f67576001600160a01b0386163b15610f675760405162461bcd60e51b815260206004820152604d60248201527f4552433737373a20746f6b656e20726563697069656e7420636f6e747261637460448201527f20686173206e6f20696d706c656d656e74657220666f7220455243373737546f60648201526c1ad95b9cd49958da5c1a595b9d609a1b608482015260a4016103db565b5050505050505050565b6001600160a01b038616610fd25760405162461bcd60e51b815260206004820152602260248201527f4552433737373a2073656e642066726f6d20746865207a65726f206164647265604482015261737360f01b60648201526084016103db565b6001600160a01b0385166110285760405162461bcd60e51b815260206004820181905260248201527f4552433737373a2073656e6420746f20746865207a65726f206164647265737360448201526064016103db565b33611037818888888888610af7565b611045818888888888610c2e565b610c2581888888888888610d9d565b6001600160a01b0384166110b55760405162461bcd60e51b815260206004820152602260248201527f4552433737373a206275726e2066726f6d20746865207a65726f206164647265604482015261737360f01b60648201526084016103db565b336110c581866000878787610af7565b6001600160a01b0385166000908152602081905260409020548481101561113a5760405162461bcd60e51b815260206004820152602360248201527f4552433737373a206275726e20616d6f756e7420657863656564732062616c616044820152626e636560e81b60648201526084016103db565b6111448582611715565b6001600160a01b03871660009081526020819052604081209190915560018054879290611172908490611715565b92505081905550856001600160a01b0316826001600160a01b03167fa78a9be3a7b862d26933ad85fb11d80ef66b8f972d7cbba06621d583943a40988787876040516111c0939291906116c8565b60405180910390a36040518581526000906001600160a01b038816907fddf252ad1be2c89b69c2b068fc378daa952ba7f163c4a11628f55a4df523b3ef9060200160405180910390a3505050505050565b600082601f83011261122257600080fd5b813567ffffffffffffffff8082111561123d5761123d61177d565b604051601f8301601f19908116603f011681019082821181831017156112655761126561177d565b8160405283815286602085880101111561127e57600080fd5b836020870160208301376000602085830101528094505050505092915050565b6000602082840312156112b057600080fd5b813561085681611793565b6000602082840312156112cd57600080fd5b815161085681611793565b600080604083850312156112eb57600080fd5b82356112f681611793565b9150602083013561130681611793565b809150509250929050565b60008060006060848603121561132657600080fd5b833561133181611793565b9250602084013561134181611793565b929592945050506040919091013590565b600080600080600060a0868803121561136a57600080fd5b853561137581611793565b9450602086013561138581611793565b935060408601359250606086013567ffffffffffffffff808211156113a957600080fd5b6113b589838a01611211565b935060808801359150808211156113cb57600080fd5b506113d888828901611211565b9150509295509295909350565b600080604083850312156113f857600080fd5b823561140381611793565b946020939093013593505050565b60008060006060848603121561142657600080fd5b833561143181611793565b925060208401359150604084013567ffffffffffffffff81111561145457600080fd5b61146086828701611211565b9150509250925092565b6000806000806080858703121561148057600080fd5b843561148b81611793565b935060208501359250604085013567ffffffffffffffff808211156114af57600080fd5b6114bb88838901611211565b935060608701359150808211156114d157600080fd5b506114de87828801611211565b91505092959194509250565b600080604083850312156114fd57600080fd5b82359150602083013567ffffffffffffffff81111561151b57600080fd5b61152785828601611211565b9150509250929050565b6000815180845260005b818110156115575760208185018101518683018201520161153b565b81811115611569576000602083870101525b50601f01601f19169290920160200192915050565b6001600160a01b0387811682528681166020830152851660408201526060810184905260c0608082018190526000906115b990830185611531565b82810360a08401526115cb8185611531565b9998505050505050505050565b6020808252825182820181905260009190848201906040850190845b818110156116195783516001600160a01b0316835292840192918401916001016115f4565b50909695505050505050565b6020815260006108566020830184611531565b60208082526024908201527f4552433737373a207472616e7366657220746f20746865207a65726f206164646040820152637265737360e01b606082015260800190565b6020808252602c908201527f4552433737373a2063616c6c6572206973206e6f7420616e206f70657261746f60408201526b39103337b9103437b63232b960a11b606082015260800190565b8381526060602082015260006116e16060830185611531565b82810360408401526116f38185611531565b9695505050505050565b6000821982111561171057611710611767565b500190565b60008282101561172757611727611767565b500390565b600181811c9082168061174057607f821691505b6020821081141561176157634e487b7160e01b600052602260045260246000fd5b50919050565b634e487b7160e01b600052601160045260246000fd5b634e487b7160e01b600052604160045260246000fd5b6001600160a01b03811681146117a857600080fd5b5056fea2646970667358221220ffede6229049160f8b5453dc3ce9592a196363bb0c31e1219b950ec00c90583f64736f6c63430008070033",
  "immutableReferences": {},
  "source": "// SPDX-License-Identifier: MIT\r\n\r\npragma solidity ^0.8.0;\r\n\r\nimport \"./IERC777.sol\";\r\nimport \"./IERC777Recipient.sol\";\r\nimport \"./IERC777Sender.sol\";\r\nimport \"../ERC20/IERC20.sol\";\r\nimport \"../../utils/Address.sol\";\r\nimport \"../../utils/Context.sol\";\r\nimport \"../../utils/introspection/IERC1820Registry.sol\";\r\n\r\n/**\r\n * @dev Implementation of the {IERC777} interface.\r\n *\r\n * This implementation is agnostic to the way tokens are created. This means\r\n * that a supply mechanism has to be added in a derived contract using {_mint}.\r\n *\r\n * Support for ERC20 is included in this contract, as specified by the EIP: both\r\n * the ERC777 and ERC20 interfaces can be safely used when interacting with it.\r\n * Both {IERC777-Sent} and {IERC20-Transfer} events are emitted on token\r\n * movements.\r\n *\r\n * Additionally, the {IERC777-granularity} value is hard-coded to `1`, meaning that there\r\n * are no special restrictions in the amount of tokens that created, moved, or\r\n * destroyed. This makes integration with ERC20 applications seamless.\r\n */\r\ncontract ERC777 is Context, IERC777, IERC20 {\r\n    using Address for address;\r\n\r\n    IERC1820Registry constant internal _ERC1820_REGISTRY = IERC1820Registry(0x1820a4B7618BdE71Dce8cdc73aAB6C95905faD24);\r\n\r\n    mapping(address => uint256) private _balances;\r\n\r\n    uint256 private _totalSupply;\r\n\r\n    string private _name;\r\n    string private _symbol;\r\n\r\n    bytes32 private constant _TOKENS_SENDER_INTERFACE_HASH = keccak256(\"ERC777TokensSender\");\r\n    bytes32 private constant _TOKENS_RECIPIENT_INTERFACE_HASH = keccak256(\"ERC777TokensRecipient\");\r\n\r\n    // This isn't ever read from - it's only used to respond to the defaultOperators query.\r\n    address[] private _defaultOperatorsArray;\r\n\r\n    // Immutable, but accounts may revoke them (tracked in __revokedDefaultOperators).\r\n    mapping(address => bool) private _defaultOperators;\r\n\r\n    // For each account, a mapping of its operators and revoked default operators.\r\n    mapping(address => mapping(address => bool)) private _operators;\r\n    mapping(address => mapping(address => bool)) private _revokedDefaultOperators;\r\n\r\n    // ERC20-allowances\r\n    mapping (address => mapping (address => uint256)) private _allowances;\r\n\r\n    /**\r\n     * @dev `defaultOperators` may be an empty array.\r\n     */\r\n    constructor(\r\n        string memory name_,\r\n        string memory symbol_,\r\n        address[] memory defaultOperators_\r\n    ) {\r\n        _name = name_;\r\n        _symbol = symbol_;\r\n\r\n        _defaultOperatorsArray = defaultOperators_;\r\n        for (uint256 i = 0; i < defaultOperators_.length; i++) {\r\n            _defaultOperators[defaultOperators_[i]] = true;\r\n        }\r\n\r\n        // register interfaces\r\n        _ERC1820_REGISTRY.setInterfaceImplementer(address(this), keccak256(\"ERC777Token\"), address(this));\r\n        _ERC1820_REGISTRY.setInterfaceImplementer(address(this), keccak256(\"ERC20Token\"), address(this));\r\n    }\r\n\r\n    /**\r\n     * @dev See {IERC777-name}.\r\n     */\r\n    function name() public view virtual override returns (string memory) {\r\n        return _name;\r\n    }\r\n\r\n    /**\r\n     * @dev See {IERC777-symbol}.\r\n     */\r\n    function symbol() public view virtual override returns (string memory) {\r\n        return _symbol;\r\n    }\r\n\r\n    /**\r\n     * @dev See {ERC20-decimals}.\r\n     *\r\n     * Always returns 18, as per the\r\n     * [ERC777 EIP](https://eips.ethereum.org/EIPS/eip-777#backward-compatibility).\r\n     */\r\n    function decimals() public pure virtual returns (uint8) {\r\n        return 18;\r\n    }\r\n\r\n    /**\r\n     * @dev See {IERC777-granularity}.\r\n     *\r\n     * This implementation always returns `1`.\r\n     */\r\n    function granularity() public view virtual override returns (uint256) {\r\n        return 1;\r\n    }\r\n\r\n    /**\r\n     * @dev See {IERC777-totalSupply}.\r\n     */\r\n    function totalSupply() public view virtual override(IERC20, IERC777) returns (uint256) {\r\n        return _totalSupply;\r\n    }\r\n\r\n    /**\r\n     * @dev Returns the amount of tokens owned by an account (`tokenHolder`).\r\n     */\r\n    function balanceOf(address tokenHolder) public view virtual override(IERC20, IERC777) returns (uint256) {\r\n        return _balances[tokenHolder];\r\n    }\r\n\r\n    /**\r\n     * @dev See {IERC777-send}.\r\n     *\r\n     * Also emits a {IERC20-Transfer} event for ERC20 compatibility.\r\n     */\r\n    function send(address recipient, uint256 amount, bytes memory data) public virtual override  {\r\n        _send(_msgSender(), recipient, amount, data, \"\", true);\r\n    }\r\n\r\n    /**\r\n     * @dev See {IERC20-transfer}.\r\n     *\r\n     * Unlike `send`, `recipient` is _not_ required to implement the {IERC777Recipient}\r\n     * interface if it is a contract.\r\n     *\r\n     * Also emits a {Sent} event.\r\n     */\r\n    function transfer(address recipient, uint256 amount) public virtual override returns (bool) {\r\n        require(recipient != address(0), \"ERC777: transfer to the zero address\");\r\n\r\n        address from = _msgSender();\r\n\r\n        _callTokensToSend(from, from, recipient, amount, \"\", \"\");\r\n\r\n        _move(from, from, recipient, amount, \"\", \"\");\r\n\r\n        _callTokensReceived(from, from, recipient, amount, \"\", \"\", false);\r\n\r\n        return true;\r\n    }\r\n\r\n    /**\r\n     * @dev See {IERC777-burn}.\r\n     *\r\n     * Also emits a {IERC20-Transfer} event for ERC20 compatibility.\r\n     */\r\n    function burn(uint256 amount, bytes memory data) public virtual override  {\r\n        _burn(_msgSender(), amount, data, \"\");\r\n    }\r\n\r\n    /**\r\n     * @dev See {IERC777-isOperatorFor}.\r\n     */\r\n    function isOperatorFor(address operator, address tokenHolder) public view virtual override returns (bool) {\r\n        return operator == tokenHolder ||\r\n            (_defaultOperators[operator] && !_revokedDefaultOperators[tokenHolder][operator]) ||\r\n            _operators[tokenHolder][operator];\r\n    }\r\n\r\n    /**\r\n     * @dev See {IERC777-authorizeOperator}.\r\n     */\r\n    function authorizeOperator(address operator) public virtual override  {\r\n        require(_msgSender() != operator, \"ERC777: authorizing self as operator\");\r\n\r\n        if (_defaultOperators[operator]) {\r\n            delete _revokedDefaultOperators[_msgSender()][operator];\r\n        } else {\r\n            _operators[_msgSender()][operator] = true;\r\n        }\r\n\r\n        emit AuthorizedOperator(operator, _msgSender());\r\n    }\r\n\r\n    /**\r\n     * @dev See {IERC777-revokeOperator}.\r\n     */\r\n    function revokeOperator(address operator) public virtual override  {\r\n        require(operator != _msgSender(), \"ERC777: revoking self as operator\");\r\n\r\n        if (_defaultOperators[operator]) {\r\n            _revokedDefaultOperators[_msgSender()][operator] = true;\r\n        } else {\r\n            delete _operators[_msgSender()][operator];\r\n        }\r\n\r\n        emit RevokedOperator(operator, _msgSender());\r\n    }\r\n\r\n    /**\r\n     * @dev See {IERC777-defaultOperators}.\r\n     */\r\n    function defaultOperators() public view virtual override returns (address[] memory) {\r\n        return _defaultOperatorsArray;\r\n    }\r\n\r\n    /**\r\n     * @dev See {IERC777-operatorSend}.\r\n     *\r\n     * Emits {Sent} and {IERC20-Transfer} events.\r\n     */\r\n    function operatorSend(\r\n        address sender,\r\n        address recipient,\r\n        uint256 amount,\r\n        bytes memory data,\r\n        bytes memory operatorData\r\n    )\r\n        public\r\n        virtual\r\n        override\r\n    {\r\n        require(isOperatorFor(_msgSender(), sender), \"ERC777: caller is not an operator for holder\");\r\n        _send(sender, recipient, amount, data, operatorData, true);\r\n    }\r\n\r\n    /**\r\n     * @dev See {IERC777-operatorBurn}.\r\n     *\r\n     * Emits {Burned} and {IERC20-Transfer} events.\r\n     */\r\n    function operatorBurn(address account, uint256 amount, bytes memory data, bytes memory operatorData) public virtual override {\r\n        require(isOperatorFor(_msgSender(), account), \"ERC777: caller is not an operator for holder\");\r\n        _burn(account, amount, data, operatorData);\r\n    }\r\n\r\n    /**\r\n     * @dev See {IERC20-allowance}.\r\n     *\r\n     * Note that operator and allowance concepts are orthogonal: operators may\r\n     * not have allowance, and accounts with allowance may not be operators\r\n     * themselves.\r\n     */\r\n    function allowance(address holder, address spender) public view virtual override returns (uint256) {\r\n        return _allowances[holder][spender];\r\n    }\r\n\r\n    /**\r\n     * @dev See {IERC20-approve}.\r\n     *\r\n     * Note that accounts cannot have allowance issued by their operators.\r\n     */\r\n    function approve(address spender, uint256 value) public virtual override returns (bool) {\r\n        address holder = _msgSender();\r\n        _approve(holder, spender, value);\r\n        return true;\r\n    }\r\n\r\n   /**\r\n    * @dev See {IERC20-transferFrom}.\r\n    *\r\n    * Note that operator and allowance concepts are orthogonal: operators cannot\r\n    * call `transferFrom` (unless they have allowance), and accounts with\r\n    * allowance cannot call `operatorSend` (unless they are operators).\r\n    *\r\n    * Emits {Sent}, {IERC20-Transfer} and {IERC20-Approval} events.\r\n    */\r\n    function transferFrom(address holder, address recipient, uint256 amount) public virtual override returns (bool) {\r\n        require(recipient != address(0), \"ERC777: transfer to the zero address\");\r\n        require(holder != address(0), \"ERC777: transfer from the zero address\");\r\n\r\n        address spender = _msgSender();\r\n\r\n        _callTokensToSend(spender, holder, recipient, amount, \"\", \"\");\r\n\r\n        _move(spender, holder, recipient, amount, \"\", \"\");\r\n\r\n        uint256 currentAllowance = _allowances[holder][spender];\r\n        require(currentAllowance >= amount, \"ERC777: transfer amount exceeds allowance\");\r\n        _approve(holder, spender, currentAllowance - amount);\r\n\r\n        _callTokensReceived(spender, holder, recipient, amount, \"\", \"\", false);\r\n\r\n        return true;\r\n    }\r\n\r\n    /**\r\n     * @dev Creates `amount` tokens and assigns them to `account`, increasing\r\n     * the total supply.\r\n     *\r\n     * If a send hook is registered for `account`, the corresponding function\r\n     * will be called with `operator`, `data` and `operatorData`.\r\n     *\r\n     * See {IERC777Sender} and {IERC777Recipient}.\r\n     *\r\n     * Emits {Minted} and {IERC20-Transfer} events.\r\n     *\r\n     * Requirements\r\n     *\r\n     * - `account` cannot be the zero address.\r\n     * - if `account` is a contract, it must implement the {IERC777Recipient}\r\n     * interface.\r\n     */\r\n    function _mint(\r\n        address account,\r\n        uint256 amount,\r\n        bytes memory userData,\r\n        bytes memory operatorData\r\n    )\r\n        internal\r\n        virtual\r\n    {\r\n        _mint(account, amount, userData, operatorData, true);\r\n    }\r\n\r\n    /**\r\n     * @dev Creates `amount` tokens and assigns them to `account`, increasing\r\n     * the total supply.\r\n     *\r\n     * If `requireReceptionAck` is set to true, and if a send hook is\r\n     * registered for `account`, the corresponding function will be called with\r\n     * `operator`, `data` and `operatorData`.\r\n     *\r\n     * See {IERC777Sender} and {IERC777Recipient}.\r\n     *\r\n     * Emits {Minted} and {IERC20-Transfer} events.\r\n     *\r\n     * Requirements\r\n     *\r\n     * - `account` cannot be the zero address.\r\n     * - if `account` is a contract, it must implement the {IERC777Recipient}\r\n     * interface.\r\n     */\r\n    function _mint(\r\n        address account,\r\n        uint256 amount,\r\n        bytes memory userData,\r\n        bytes memory operatorData,\r\n        bool requireReceptionAck\r\n    )\r\n        internal\r\n        virtual\r\n    {\r\n        require(account != address(0), \"ERC777: mint to the zero address\");\r\n\r\n        address operator = _msgSender();\r\n\r\n        _beforeTokenTransfer(operator, address(0), account, amount);\r\n\r\n        // Update state variables\r\n        _totalSupply += amount;\r\n        _balances[account] += amount;\r\n\r\n        _callTokensReceived(operator, address(0), account, amount, userData, operatorData, requireReceptionAck);\r\n\r\n        emit Minted(operator, account, amount, userData, operatorData);\r\n        emit Transfer(address(0), account, amount);\r\n    }\r\n\r\n    /**\r\n     * @dev Send tokens\r\n     * @param from address token holder address\r\n     * @param to address recipient address\r\n     * @param amount uint256 amount of tokens to transfer\r\n     * @param userData bytes extra information provided by the token holder (if any)\r\n     * @param operatorData bytes extra information provided by the operator (if any)\r\n     * @param requireReceptionAck if true, contract recipients are required to implement ERC777TokensRecipient\r\n     */\r\n    function _send(\r\n        address from,\r\n        address to,\r\n        uint256 amount,\r\n        bytes memory userData,\r\n        bytes memory operatorData,\r\n        bool requireReceptionAck\r\n    )\r\n        internal\r\n        virtual\r\n    {\r\n        require(from != address(0), \"ERC777: send from the zero address\");\r\n        require(to != address(0), \"ERC777: send to the zero address\");\r\n\r\n        address operator = _msgSender();\r\n\r\n        _callTokensToSend(operator, from, to, amount, userData, operatorData);\r\n\r\n        _move(operator, from, to, amount, userData, operatorData);\r\n\r\n        _callTokensReceived(operator, from, to, amount, userData, operatorData, requireReceptionAck);\r\n    }\r\n\r\n    /**\r\n     * @dev Burn tokens\r\n     * @param from address token holder address\r\n     * @param amount uint256 amount of tokens to burn\r\n     * @param data bytes extra information provided by the token holder\r\n     * @param operatorData bytes extra information provided by the operator (if any)\r\n     */\r\n    function _burn(\r\n        address from,\r\n        uint256 amount,\r\n        bytes memory data,\r\n        bytes memory operatorData\r\n    )\r\n        internal\r\n        virtual\r\n    {\r\n        require(from != address(0), \"ERC777: burn from the zero address\");\r\n\r\n        address operator = _msgSender();\r\n\r\n        _callTokensToSend(operator, from, address(0), amount, data, operatorData);\r\n\r\n        _beforeTokenTransfer(operator, from, address(0), amount);\r\n\r\n        // Update state variables\r\n        uint256 fromBalance = _balances[from];\r\n        require(fromBalance >= amount, \"ERC777: burn amount exceeds balance\");\r\n        _balances[from] = fromBalance - amount;\r\n        _totalSupply -= amount;\r\n\r\n        emit Burned(operator, from, amount, data, operatorData);\r\n        emit Transfer(from, address(0), amount);\r\n    }\r\n\r\n    function _move(\r\n        address operator,\r\n        address from,\r\n        address to,\r\n        uint256 amount,\r\n        bytes memory userData,\r\n        bytes memory operatorData\r\n    )\r\n        private\r\n    {\r\n        _beforeTokenTransfer(operator, from, to, amount);\r\n\r\n        uint256 fromBalance = _balances[from];\r\n        require(fromBalance >= amount, \"ERC777: transfer amount exceeds balance\");\r\n        _balances[from] = fromBalance - amount;\r\n        _balances[to] += amount;\r\n\r\n        emit Sent(operator, from, to, amount, userData, operatorData);\r\n        emit Transfer(from, to, amount);\r\n    }\r\n\r\n    /**\r\n     * @dev See {ERC20-_approve}.\r\n     *\r\n     * Note that accounts cannot have allowance issued by their operators.\r\n     */\r\n    function _approve(address holder, address spender, uint256 value) internal {\r\n        require(holder != address(0), \"ERC777: approve from the zero address\");\r\n        require(spender != address(0), \"ERC777: approve to the zero address\");\r\n\r\n        _allowances[holder][spender] = value;\r\n        emit Approval(holder, spender, value);\r\n    }\r\n\r\n    /**\r\n     * @dev Call from.tokensToSend() if the interface is registered\r\n     * @param operator address operator requesting the transfer\r\n     * @param from address token holder address\r\n     * @param to address recipient address\r\n     * @param amount uint256 amount of tokens to transfer\r\n     * @param userData bytes extra information provided by the token holder (if any)\r\n     * @param operatorData bytes extra information provided by the operator (if any)\r\n     */\r\n    function _callTokensToSend(\r\n        address operator,\r\n        address from,\r\n        address to,\r\n        uint256 amount,\r\n        bytes memory userData,\r\n        bytes memory operatorData\r\n    )\r\n        private\r\n    {\r\n        address implementer = _ERC1820_REGISTRY.getInterfaceImplementer(from, _TOKENS_SENDER_INTERFACE_HASH);\r\n        if (implementer != address(0)) {\r\n            IERC777Sender(implementer).tokensToSend(operator, from, to, amount, userData, operatorData);\r\n        }\r\n    }\r\n\r\n    /**\r\n     * @dev Call to.tokensReceived() if the interface is registered. Reverts if the recipient is a contract but\r\n     * tokensReceived() was not registered for the recipient\r\n     * @param operator address operator requesting the transfer\r\n     * @param from address token holder address\r\n     * @param to address recipient address\r\n     * @param amount uint256 amount of tokens to transfer\r\n     * @param userData bytes extra information provided by the token holder (if any)\r\n     * @param operatorData bytes extra information provided by the operator (if any)\r\n     * @param requireReceptionAck if true, contract recipients are required to implement ERC777TokensRecipient\r\n     */\r\n    function _callTokensReceived(\r\n        address operator,\r\n        address from,\r\n        address to,\r\n        uint256 amount,\r\n        bytes memory userData,\r\n        bytes memory operatorData,\r\n        bool requireReceptionAck\r\n    )\r\n        private\r\n    {\r\n        address implementer = _ERC1820_REGISTRY.getInterfaceImplementer(to, _TOKENS_RECIPIENT_INTERFACE_HASH);\r\n        if (implementer != address(0)) {\r\n            IERC777Recipient(implementer).tokensReceived(operator, from, to, amount, userData, operatorData);\r\n        } else if (requireReceptionAck) {\r\n            require(!to.isContract(), \"ERC777: token recipient contract has no implementer for ERC777TokensRecipient\");\r\n        }\r\n    }\r\n\r\n    /**\r\n     * @dev Hook that is called before any token transfer. This includes\r\n     * calls to {send}, {transfer}, {operatorSend}, minting and burning.\r\n     *\r\n     * Calling conditions:\r\n     *\r\n     * - when `from` and `to` are both non-zero, `amount` of ``from``'s tokens\r\n     * will be to transferred to `to`.\r\n     * - when `from` is zero, `amount` tokens will be minted for `to`.\r\n     * - when `to` is zero, `amount` of ``from``'s tokens will be burned.\r\n     * - `from` and `to` are never both zero.\r\n     *\r\n     * To learn more about hooks, head to xref:ROOT:extending-contracts.adoc#using-hooks[Using Hooks].\r\n     */\r\n    function _beforeTokenTransfer(address operator, address from, address to, uint256 amount) internal virtual { }\r\n}\r\n",
  "sourcePath": "E:\\my_work\\Eos\\polylend\\core\\protocol_v1\\contracts\\dependencies\\openzeppelin\\contracts\\token\\ERC777\\ERC777.sol",
  "compiler": {
    "name": "solc",
    "version": "0.8.7+commit.e28d00a7.Emscripten.clang"
  },
  "schemaVersion": "3.4.2",
  "updatedAt": "2021-08-19T02:20:52.242Z",
  "devdoc": {
    "details": "Implementation of the {IERC777} interface. This implementation is agnostic to the way tokens are created. This means that a supply mechanism has to be added in a derived contract using {_mint}. Support for ERC20 is included in this contract, as specified by the EIP: both the ERC777 and ERC20 interfaces can be safely used when interacting with it. Both {IERC777-Sent} and {IERC20-Transfer} events are emitted on token movements. Additionally, the {IERC777-granularity} value is hard-coded to `1`, meaning that there are no special restrictions in the amount of tokens that created, moved, or destroyed. This makes integration with ERC20 applications seamless.",
    "kind": "dev",
    "methods": {
      "allowance(address,address)": {
        "details": "See {IERC20-allowance}. Note that operator and allowance concepts are orthogonal: operators may not have allowance, and accounts with allowance may not be operators themselves."
      },
      "approve(address,uint256)": {
        "details": "See {IERC20-approve}. Note that accounts cannot have allowance issued by their operators."
      },
      "authorizeOperator(address)": {
        "details": "See {IERC777-authorizeOperator}."
      },
      "balanceOf(address)": {
        "details": "Returns the amount of tokens owned by an account (`tokenHolder`)."
      },
      "burn(uint256,bytes)": {
        "details": "See {IERC777-burn}. Also emits a {IERC20-Transfer} event for ERC20 compatibility."
      },
      "constructor": {
        "details": "`defaultOperators` may be an empty array."
      },
      "decimals()": {
        "details": "See {ERC20-decimals}. Always returns 18, as per the [ERC777 EIP](https://eips.ethereum.org/EIPS/eip-777#backward-compatibility)."
      },
      "defaultOperators()": {
        "details": "See {IERC777-defaultOperators}."
      },
      "granularity()": {
        "details": "See {IERC777-granularity}. This implementation always returns `1`."
      },
      "isOperatorFor(address,address)": {
        "details": "See {IERC777-isOperatorFor}."
      },
      "name()": {
        "details": "See {IERC777-name}."
      },
      "operatorBurn(address,uint256,bytes,bytes)": {
        "details": "See {IERC777-operatorBurn}. Emits {Burned} and {IERC20-Transfer} events."
      },
      "operatorSend(address,address,uint256,bytes,bytes)": {
        "details": "See {IERC777-operatorSend}. Emits {Sent} and {IERC20-Transfer} events."
      },
      "revokeOperator(address)": {
        "details": "See {IERC777-revokeOperator}."
      },
      "send(address,uint256,bytes)": {
        "details": "See {IERC777-send}. Also emits a {IERC20-Transfer} event for ERC20 compatibility."
      },
      "symbol()": {
        "details": "See {IERC777-symbol}."
      },
      "totalSupply()": {
        "details": "See {IERC777-totalSupply}."
      },
      "transfer(address,uint256)": {
        "details": "See {IERC20-transfer}. Unlike `send`, `recipient` is _not_ required to implement the {IERC777Recipient} interface if it is a contract. Also emits a {Sent} event."
      },
      "transferFrom(address,address,uint256)": {
        "details": "See {IERC20-transferFrom}. Note that operator and allowance concepts are orthogonal: operators cannot call `transferFrom` (unless they have allowance), and accounts with allowance cannot call `operatorSend` (unless they are operators). Emits {Sent}, {IERC20-Transfer} and {IERC20-Approval} events."
      }
    },
    "version": 1
  },
  "userdoc": {
    "kind": "user",
    "methods": {},
    "version": 1
  }
}