{
  "contractName": "Error",
  "abi": [
    {
      "inputs": [],
      "name": "GPTOKEN_BURN_AMOUNT_ZERO",
      "outputs": [
        {
          "internalType": "string",
          "name": "",
          "type": "string"
        }
      ],
      "stateMutability": "view",
      "type": "function"
    },
    {
      "inputs": [],
      "name": "GPTOKEN_MINT_AMOUNT_ZERO",
      "outputs": [
        {
          "internalType": "string",
          "name": "",
          "type": "string"
        }
      ],
      "stateMutability": "view",
      "type": "function"
    },
    {
      "inputs": [],
      "name": "GPTOKEN_MINT_BE_GUNPOOL",
      "outputs": [
        {
          "internalType": "string",
          "name": "",
          "type": "string"
        }
      ],
      "stateMutability": "view",
      "type": "function"
    },
    {
      "inputs": [],
      "name": "POOL_PLANE_INVALID",
      "outputs": [
        {
          "internalType": "string",
          "name": "",
          "type": "string"
        }
      ],
      "stateMutability": "view",
      "type": "function"
    },
    {
      "inputs": [],
      "name": "RESERVE_FROZEN",
      "outputs": [
        {
          "internalType": "string",
          "name": "",
          "type": "string"
        }
      ],
      "stateMutability": "view",
      "type": "function"
    },
    {
      "inputs": [],
      "name": "RESERVE_GPTOKEN_ZERO",
      "outputs": [
        {
          "internalType": "string",
          "name": "",
          "type": "string"
        }
      ],
      "stateMutability": "view",
      "type": "function"
    },
    {
      "inputs": [],
      "name": "RESERVE_LOCK",
      "outputs": [
        {
          "internalType": "string",
          "name": "",
          "type": "string"
        }
      ],
      "stateMutability": "view",
      "type": "function"
    },
    {
      "inputs": [],
      "name": "TOKEN_ADDRESS_ZERO",
      "outputs": [
        {
          "internalType": "string",
          "name": "",
          "type": "string"
        }
      ],
      "stateMutability": "view",
      "type": "function"
    },
    {
      "inputs": [],
      "name": "TOKEN_AMOUNT_ZERO",
      "outputs": [
        {
          "internalType": "string",
          "name": "",
          "type": "string"
        }
      ],
      "stateMutability": "view",
      "type": "function"
    },
    {
      "inputs": [],
      "name": "TOKEN_INVALID_CONTRACTS",
      "outputs": [
        {
          "internalType": "string",
          "name": "",
          "type": "string"
        }
      ],
      "stateMutability": "view",
      "type": "function"
    },
    {
      "inputs": [],
      "name": "TOKEN_RESERVE_EXIST",
      "outputs": [
        {
          "internalType": "string",
          "name": "",
          "type": "string"
        }
      ],
      "stateMutability": "view",
      "type": "function"
    },
    {
      "inputs": [],
      "name": "TOKEN_RESERVE_PLANE_INPUT_FAIL",
      "outputs": [
        {
          "internalType": "string",
          "name": "",
          "type": "string"
        }
      ],
      "stateMutability": "view",
      "type": "function"
    },
    {
      "inputs": [],
      "name": "TOKEN_RESERVE_RESET_UNEXIST",
      "outputs": [
        {
          "internalType": "string",
          "name": "",
          "type": "string"
        }
      ],
      "stateMutability": "view",
      "type": "function"
    },
    {
      "inputs": [],
      "name": "WMATIC_DEPOSIT_FAIL",
      "outputs": [
        {
          "internalType": "string",
          "name": "",
          "type": "string"
        }
      ],
      "stateMutability": "view",
      "type": "function"
    },
    {
      "inputs": [],
      "name": "WMATIC_WITHDRAW_FAIL",
      "outputs": [
        {
          "internalType": "string",
          "name": "",
          "type": "string"
        }
      ],
      "stateMutability": "view",
      "type": "function"
    },
    {
      "inputs": [],
      "name": "WMATIC_WITHDRAW_RETURN_NONE",
      "outputs": [
        {
          "internalType": "string",
          "name": "",
          "type": "string"
        }
      ],
      "stateMutability": "view",
      "type": "function"
    }
  ],
  "bytecode": "0x6103eb610026600b82828239805160001a60731461001957fe5b30600052607381538281f3fe730000000000000000000000000000000000000000301460806040526004361061010a5760003560e01c80635b545fc3116100a157806388559ee51161007057806388559ee5146101e45780639a0ecade146101ec578063bba46ee0146101c4578063e9b139da146101f45761010a565b80635b545fc3146101c45780636cd3cfbc146101cc57806383373dd9146101d457806384f0b0ea146101dc5761010a565b80633809066b116100dd5780633809066b146101a45780633b6fef66146101ac57806357b4c90c146101b45780635902a860146101bc5761010a565b80630b1bfa261461010f5780630debbbd01461018c57806316560e4514610194578063318015f31461019c575b600080fd5b6101176101fc565b6040805160208082528351818301528351919283929083019185019080838360005b83811015610151578181015183820152602001610139565b50505050905090810190601f16801561017e5780820380516001836020036101000a031916815260200191505b509250505060405180910390f35b61011761021a565b610117610238565b610117610256565b610117610273565b610117610290565b6101176102ad565b6101176102ca565b6101176102e8565b610117610305565b610117610322565b610117610340565b61011761035d565b61011761037a565b610117610398565b60405180604001604052806002815260200161189960f11b81525081565b604051806040016040528060028152602001610c4d60f21b81525081565b60405180604001604052806002815260200161313560f01b81525081565b604051806040016040528060018152602001603160f81b81525081565b604051806040016040528060018152602001601b60f91b81525081565b604051806040016040528060018152602001603360f81b81525081565b604051806040016040528060018152602001600360fc1b81525081565b60405180604001604052806002815260200161031360f41b81525081565b604051806040016040528060018152602001600760fb1b81525081565b604051806040016040528060018152602001600d60fa1b81525081565b60405180604001604052806002815260200161313160f01b81525081565b604051806040016040528060018152602001603560f81b81525081565b604051806040016040528060018152602001603760f81b81525081565b60405180604001604052806002815260200161313360f01b81525081565b604051806040016040528060018152602001603960f81b8152508156fea2646970667358221220c82a76a39a263df5c6ef39d78ceefb0d4a66881ba854c0164c091ba47a0972e664736f6c634300060c0033",
  "immutableReferences": {},
  "source": "// SPDX-License-Identifier: agpl-3.0\npragma solidity >=0.4.22 <0.9.0;\n\nlibrary Error {\n  // token address is invalid\n  string public constant TOKEN_ADDRESS_ZERO = '0';\n  // token address is not contracts\n  string public constant TOKEN_INVALID_CONTRACTS = '1';\n  // token input amount is zero\n  string public constant TOKEN_AMOUNT_ZERO = '3';\n  // reserve is frozened\n  string public constant RESERVE_FROZEN = '4';\n  // reserve lptoken is zero\n  string public constant RESERVE_GPTOKEN_ZERO = '5';\n  // reserve is lockded\n  string public constant RESERVE_LOCK = '12';\n  // pool plane invalid\n  string public constant POOL_PLANE_INVALID = '6';\n\n\n  // gptoken must be minted by gunpool\n  string public constant GPTOKEN_MINT_BE_GUNPOOL = '7';\n  // gptoken mint amount is zero\n  string public constant GPTOKEN_MINT_AMOUNT_ZERO = '8';\n  // gptoken burn amount is zero\n  string public constant GPTOKEN_BURN_AMOUNT_ZERO = '8';\n\n  // token reserve has exist\n  string public constant TOKEN_RESERVE_EXIST = '9';\n  // token reserve plane input fails\n  string public constant TOKEN_RESERVE_PLANE_INPUT_FAIL = '10';\n  // reset token reserve has not exist\n  string public constant TOKEN_RESERVE_RESET_UNEXIST = '11';\n\n\n  // wmatic deposit fail\n  string public constant WMATIC_DEPOSIT_FAIL = '13';\n  // wmatic withdraw fail\n  string public constant WMATIC_WITHDRAW_FAIL = '14';\n  // wmatic withdraw return none\n  string public constant WMATIC_WITHDRAW_RETURN_NONE = '15';\n}\n",
  "sourcePath": "/home/gaozl/Downloads/polygon/myproject/contracts/protocol_v1/contracts/protocol/gunpool/helpers/Error.sol",
  "compiler": {
    "name": "solc",
    "version": "0.6.12+commit.27d51765.Emscripten.clang"
  },
  "schemaVersion": "3.4.1",
  "updatedAt": "2021-07-23T11:42:28.273Z",
  "devdoc": {
    "kind": "dev",
    "methods": {},
    "version": 1
  },
  "userdoc": {
    "kind": "user",
    "methods": {},
    "version": 1
  }
}