{
  "contractName": "Error",
  "abi": [
    {
      "inputs": [],
      "name": "GPTOKEN_BURN_AMOUNT_ZERO",
      "outputs": [
        {
          "internalType": "string",
          "name": "",
          "type": "string"
        }
      ],
      "stateMutability": "view",
      "type": "function"
    },
    {
      "inputs": [],
      "name": "GPTOKEN_MINT_AMOUNT_ZERO",
      "outputs": [
        {
          "internalType": "string",
          "name": "",
          "type": "string"
        }
      ],
      "stateMutability": "view",
      "type": "function"
    },
    {
      "inputs": [],
      "name": "GPTOKEN_MUST_BE_GUNPOOL",
      "outputs": [
        {
          "internalType": "string",
          "name": "",
          "type": "string"
        }
      ],
      "stateMutability": "view",
      "type": "function"
    },
    {
      "inputs": [],
      "name": "POOL_PLANE_INVALID",
      "outputs": [
        {
          "internalType": "string",
          "name": "",
          "type": "string"
        }
      ],
      "stateMutability": "view",
      "type": "function"
    },
    {
      "inputs": [],
      "name": "RESERVE_FROZEN",
      "outputs": [
        {
          "internalType": "string",
          "name": "",
          "type": "string"
        }
      ],
      "stateMutability": "view",
      "type": "function"
    },
    {
      "inputs": [],
      "name": "RESERVE_GPTOKEN_ZERO",
      "outputs": [
        {
          "internalType": "string",
          "name": "",
          "type": "string"
        }
      ],
      "stateMutability": "view",
      "type": "function"
    },
    {
      "inputs": [],
      "name": "RESERVE_LOCK",
      "outputs": [
        {
          "internalType": "string",
          "name": "",
          "type": "string"
        }
      ],
      "stateMutability": "view",
      "type": "function"
    },
    {
      "inputs": [],
      "name": "TOKEN_ADDRESS_ZERO",
      "outputs": [
        {
          "internalType": "string",
          "name": "",
          "type": "string"
        }
      ],
      "stateMutability": "view",
      "type": "function"
    },
    {
      "inputs": [],
      "name": "TOKEN_AMOUNT_ZERO",
      "outputs": [
        {
          "internalType": "string",
          "name": "",
          "type": "string"
        }
      ],
      "stateMutability": "view",
      "type": "function"
    },
    {
      "inputs": [],
      "name": "TOKEN_INVALID_CONTRACTS",
      "outputs": [
        {
          "internalType": "string",
          "name": "",
          "type": "string"
        }
      ],
      "stateMutability": "view",
      "type": "function"
    },
    {
      "inputs": [],
      "name": "TOKEN_RESERVE_EXIST",
      "outputs": [
        {
          "internalType": "string",
          "name": "",
          "type": "string"
        }
      ],
      "stateMutability": "view",
      "type": "function"
    },
    {
      "inputs": [],
      "name": "TOKEN_RESERVE_PLANE_INPUT_FAIL",
      "outputs": [
        {
          "internalType": "string",
          "name": "",
          "type": "string"
        }
      ],
      "stateMutability": "view",
      "type": "function"
    },
    {
      "inputs": [],
      "name": "TOKEN_RESERVE_RESET_UNEXIST",
      "outputs": [
        {
          "internalType": "string",
          "name": "",
          "type": "string"
        }
      ],
      "stateMutability": "view",
      "type": "function"
    }
  ],
  "bytecode": "0x610348610026600b82828239805160001a60731461001957fe5b30600052607381538281f3fe73000000000000000000000000000000000000000030146080604052600436106100d95760003560e01c80635902a8601161009657806383373dd91161007057806383373dd91461019b57806384f0b0ea146101a3578063bba46ee01461018b578063e9b139da146101ab576100d9565b80635902a860146101835780635b545fc31461018b5780636cd3cfbc14610193576100d9565b80630b1bfa26146100de578063318015f31461015b5780633809066b146101635780633b6fef661461016b578063418a397d1461017357806357b4c90c1461017b575b600080fd5b6100e66101b3565b6040805160208082528351818301528351919283929083019185019080838360005b83811015610120578181015183820152602001610108565b50505050905090810190601f16801561014d5780820380516001836020036101000a031916815260200191505b509250505060405180910390f35b6100e66101d1565b6100e66101ee565b6100e661020b565b6100e6610228565b6100e6610245565b6100e6610262565b6100e6610280565b6100e661029d565b6100e66102ba565b6100e66102d8565b6100e66102f5565b60405180604001604052806002815260200161189960f11b81525081565b604051806040016040528060018152602001603160f81b81525081565b604051806040016040528060018152602001601b60f91b81525081565b604051806040016040528060018152602001603360f81b81525081565b604051806040016040528060018152602001603760f81b81525081565b604051806040016040528060018152602001600360fc1b81525081565b60405180604001604052806002815260200161031360f41b81525081565b604051806040016040528060018152602001600760fb1b81525081565b604051806040016040528060018152602001600d60fa1b81525081565b60405180604001604052806002815260200161313160f01b81525081565b604051806040016040528060018152602001603560f81b81525081565b604051806040016040528060018152602001603960f81b8152508156fea264697066735822122093450ef35200eeaaf3b59060c56f646edc34856a2bf682cb254da447b2c5b0fe64736f6c634300060c0033",
  "immutableReferences": {},
  "source": "// SPDX-License-Identifier: agpl-3.0\npragma solidity >=0.4.22 <0.9.0;\n\nlibrary Error {\n  // token address is invalid\n  string public constant TOKEN_ADDRESS_ZERO = '0';\n  // token address is not contracts\n  string public constant TOKEN_INVALID_CONTRACTS = '1';\n  // token input amount is zero\n  string public constant TOKEN_AMOUNT_ZERO = '3';\n  // reserve is frozened\n  string public constant RESERVE_FROZEN = '4';\n  // reserve lptoken is zero\n  string public constant RESERVE_GPTOKEN_ZERO = '5';\n  // reserve is lockded\n  string public constant RESERVE_LOCK = '12';\n  // pool plane invalid\n  string public constant POOL_PLANE_INVALID = '6';\n\n\n  // gptoken must be minted by gunpool\n  string public constant GPTOKEN_MUST_BE_GUNPOOL = '7';\n  // gptoken mint amount is zero\n  string public constant GPTOKEN_MINT_AMOUNT_ZERO = '8';\n  // gptoken burn amount is zero\n  string public constant GPTOKEN_BURN_AMOUNT_ZERO = '8';\n\n  // token reserve has exist\n  string public constant TOKEN_RESERVE_EXIST = '9';\n  // token reserve plane input fails\n  string public constant TOKEN_RESERVE_PLANE_INPUT_FAIL = '10';\n  // reset token reserve has not exist\n  string public constant TOKEN_RESERVE_RESET_UNEXIST = '11';\n}\n",
  "sourcePath": "/home/gaozl/Downloads/polygon/myproject/contracts/protocol_v1/contracts/protocol/gunpool/helpers/Error.sol",
  "compiler": {
    "name": "solc",
    "version": "0.6.12+commit.27d51765.Emscripten.clang"
  },
  "schemaVersion": "3.4.1",
  "updatedAt": "2021-07-22T03:03:20.370Z",
  "devdoc": {
    "kind": "dev",
    "methods": {},
    "version": 1
  },
  "userdoc": {
    "kind": "user",
    "methods": {},
    "version": 1
  }
}