{
  "contractName": "Error",
  "abi": [
    {
      "inputs": [],
      "name": "GPTOKEN_BURN_AMOUNT_ZERO",
      "outputs": [
        {
          "internalType": "string",
          "name": "",
          "type": "string"
        }
      ],
      "stateMutability": "view",
      "type": "function"
    },
    {
      "inputs": [],
      "name": "GPTOKEN_MINT_AMOUNT_ZERO",
      "outputs": [
        {
          "internalType": "string",
          "name": "",
          "type": "string"
        }
      ],
      "stateMutability": "view",
      "type": "function"
    },
    {
      "inputs": [],
      "name": "GPTOKEN_MINT_BE_GUNPOOL",
      "outputs": [
        {
          "internalType": "string",
          "name": "",
          "type": "string"
        }
      ],
      "stateMutability": "view",
      "type": "function"
    },
    {
      "inputs": [],
      "name": "POOL_PLANE_INVALID",
      "outputs": [
        {
          "internalType": "string",
          "name": "",
          "type": "string"
        }
      ],
      "stateMutability": "view",
      "type": "function"
    },
    {
      "inputs": [],
      "name": "RESERVE_FROZEN",
      "outputs": [
        {
          "internalType": "string",
          "name": "",
          "type": "string"
        }
      ],
      "stateMutability": "view",
      "type": "function"
    },
    {
      "inputs": [],
      "name": "RESERVE_GPTOKEN_ZERO",
      "outputs": [
        {
          "internalType": "string",
          "name": "",
          "type": "string"
        }
      ],
      "stateMutability": "view",
      "type": "function"
    },
    {
      "inputs": [],
      "name": "RESERVE_LOCK",
      "outputs": [
        {
          "internalType": "string",
          "name": "",
          "type": "string"
        }
      ],
      "stateMutability": "view",
      "type": "function"
    },
    {
      "inputs": [],
      "name": "TOKEN_ADDRESS_ZERO",
      "outputs": [
        {
          "internalType": "string",
          "name": "",
          "type": "string"
        }
      ],
      "stateMutability": "view",
      "type": "function"
    },
    {
      "inputs": [],
      "name": "TOKEN_AMOUNT_ZERO",
      "outputs": [
        {
          "internalType": "string",
          "name": "",
          "type": "string"
        }
      ],
      "stateMutability": "view",
      "type": "function"
    },
    {
      "inputs": [],
      "name": "TOKEN_INVALID_CONTRACTS",
      "outputs": [
        {
          "internalType": "string",
          "name": "",
          "type": "string"
        }
      ],
      "stateMutability": "view",
      "type": "function"
    },
    {
      "inputs": [],
      "name": "TOKEN_RESERVE_EXIST",
      "outputs": [
        {
          "internalType": "string",
          "name": "",
          "type": "string"
        }
      ],
      "stateMutability": "view",
      "type": "function"
    },
    {
      "inputs": [],
      "name": "TOKEN_RESERVE_PLANE_INPUT_FAIL",
      "outputs": [
        {
          "internalType": "string",
          "name": "",
          "type": "string"
        }
      ],
      "stateMutability": "view",
      "type": "function"
    },
    {
      "inputs": [],
      "name": "TOKEN_RESERVE_RESET_UNEXIST",
      "outputs": [
        {
          "internalType": "string",
          "name": "",
          "type": "string"
        }
      ],
      "stateMutability": "view",
      "type": "function"
    }
  ],
  "bytecode": "0x61030261003a600b82828239805160001a60731461002d57634e487b7160e01b600052600060045260246000fd5b30600052607381538281f3fe73000000000000000000000000000000000000000030146080604052600436106100d95760003560e01c80635b545fc31161009657806384f0b0ea1161007057806384f0b0ea1461021757806388559ee514610237578063bba46ee0146101b6578063e9b139da1461025757600080fd5b80635b545fc3146101b65780636cd3cfbc146101d657806383373dd9146101f657600080fd5b80630b1bfa26146100de578063318015f3146101155780633809066b146101355780633b6fef661461015557806357b4c90c146101755780635902a86014610195575b600080fd5b6100ff60405180604001604052806002815260200161189960f11b81525081565b60405161010c9190610277565b60405180910390f35b6100ff604051806040016040528060018152602001603160f81b81525081565b6100ff604051806040016040528060018152602001601b60f91b81525081565b6100ff604051806040016040528060018152602001603360f81b81525081565b6100ff604051806040016040528060018152602001600360fc1b81525081565b6100ff60405180604001604052806002815260200161031360f41b81525081565b6100ff604051806040016040528060018152602001600760fb1b81525081565b6100ff604051806040016040528060018152602001600d60fa1b81525081565b6100ff60405180604001604052806002815260200161313160f01b81525081565b6100ff604051806040016040528060018152602001603560f81b81525081565b6100ff604051806040016040528060018152602001603760f81b81525081565b6100ff604051806040016040528060018152602001603960f81b81525081565b600060208083528351808285015260005b818110156102a457858101830151858201604001528201610288565b818111156102b6576000604083870101525b50601f01601f191692909201604001939250505056fea264697066735822122073e5d6b595902a192cf15da1be971b063cb2a1b0892369b696db58b6125ab01f64736f6c63430008070033",
  "immutableReferences": {},
  "source": "// SPDX-License-Identifier: agpl-3.0\r\npragma solidity ^0.8.0;\r\n\r\nlibrary Error {\r\n  // token address is invalid\r\n  string public constant TOKEN_ADDRESS_ZERO = '0';\r\n  // token address is not contracts\r\n  string public constant TOKEN_INVALID_CONTRACTS = '1';\r\n  // token input amount is zero\r\n  string public constant TOKEN_AMOUNT_ZERO = '3';\r\n  // reserve is frozened\r\n  string public constant RESERVE_FROZEN = '4';\r\n  // reserve lptoken is zero\r\n  string public constant RESERVE_GPTOKEN_ZERO = '5';\r\n  // reserve is lockded\r\n  string public constant RESERVE_LOCK = '12';\r\n  // pool plane invalid\r\n  string public constant POOL_PLANE_INVALID = '6';\r\n\r\n\r\n  // gptoken must be minted by gunpool\r\n  string public constant GPTOKEN_MINT_BE_GUNPOOL = '7';\r\n  // gptoken mint amount is zero\r\n  string public constant GPTOKEN_MINT_AMOUNT_ZERO = '8';\r\n  // gptoken burn amount is zero\r\n  string public constant GPTOKEN_BURN_AMOUNT_ZERO = '8';\r\n\r\n  // token reserve has exist\r\n  string public constant TOKEN_RESERVE_EXIST = '9';\r\n  // token reserve plane input fails\r\n  string public constant TOKEN_RESERVE_PLANE_INPUT_FAIL = '10';\r\n  // reset token reserve has not exist\r\n  string public constant TOKEN_RESERVE_RESET_UNEXIST = '11';\r\n\r\n\r\n  // wmatic deposit fail\r\n  // string public constant WMATIC_DEPOSIT_FAIL = '13';\r\n  // wmatic withdraw fail\r\n  // string public constant WMATIC_WITHDRAW_FAIL = '14';\r\n  // wmatic withdraw return none\r\n  // string public constant WMATIC_WITHDRAW_RETURN_NONE = '15';\r\n}\r\n",
  "sourcePath": "E:\\my_work\\Eos\\polylend\\core\\protocol_v1\\contracts\\protocol\\gunpool\\helpers\\Error.sol",
  "compiler": {
    "name": "solc",
    "version": "0.8.7+commit.e28d00a7.Emscripten.clang"
  },
  "schemaVersion": "3.4.2",
  "updatedAt": "2021-08-19T02:20:52.437Z",
  "devdoc": {
    "kind": "dev",
    "methods": {},
    "version": 1
  },
  "userdoc": {
    "kind": "user",
    "methods": {},
    "version": 1
  }
}