{
  "contractName": "GunPool",
  "abi": [
    {
      "inputs": [
        {
          "internalType": "address",
          "name": "weth",
          "type": "address"
        }
      ],
      "stateMutability": "nonpayable",
      "type": "constructor"
    },
    {
      "anonymous": false,
      "inputs": [
        {
          "indexed": true,
          "internalType": "address",
          "name": "from",
          "type": "address"
        },
        {
          "indexed": true,
          "internalType": "address",
          "name": "to",
          "type": "address"
        },
        {
          "indexed": false,
          "internalType": "uint256",
          "name": "amount",
          "type": "uint256"
        }
      ],
      "name": "Claim",
      "type": "event"
    },
    {
      "anonymous": false,
      "inputs": [
        {
          "indexed": true,
          "internalType": "address",
          "name": "token",
          "type": "address"
        },
        {
          "indexed": true,
          "internalType": "address",
          "name": "user",
          "type": "address"
        },
        {
          "indexed": false,
          "internalType": "uint256",
          "name": "amount",
          "type": "uint256"
        }
      ],
      "name": "Deposit",
      "type": "event"
    },
    {
      "anonymous": false,
      "inputs": [
        {
          "indexed": true,
          "internalType": "address",
          "name": "token",
          "type": "address"
        },
        {
          "components": [
            {
              "internalType": "uint256",
              "name": "mintSupply",
              "type": "uint256"
            },
            {
              "internalType": "uint256",
              "name": "mintMaxSupply",
              "type": "uint256"
            },
            {
              "internalType": "uint256",
              "name": "mintRateBySec",
              "type": "uint256"
            },
            {
              "internalType": "uint256",
              "name": "lastMintTime",
              "type": "uint256"
            },
            {
              "internalType": "uint256",
              "name": "lastSupply",
              "type": "uint256"
            },
            {
              "internalType": "uint256",
              "name": "mintCapacity",
              "type": "uint256"
            }
          ],
          "indexed": false,
          "internalType": "struct GunPoolContext.PcoinReward",
          "name": "pcoin",
          "type": "tuple"
        },
        {
          "indexed": false,
          "internalType": "address[]",
          "name": "gptAddress",
          "type": "address[]"
        }
      ],
      "name": "InitReserve",
      "type": "event"
    },
    {
      "anonymous": false,
      "inputs": [
        {
          "indexed": true,
          "internalType": "address",
          "name": "previousOwner",
          "type": "address"
        },
        {
          "indexed": true,
          "internalType": "address",
          "name": "newOwner",
          "type": "address"
        }
      ],
      "name": "OwnershipTransferred",
      "type": "event"
    },
    {
      "anonymous": false,
      "inputs": [
        {
          "indexed": true,
          "internalType": "address",
          "name": "token",
          "type": "address"
        },
        {
          "indexed": false,
          "internalType": "bool",
          "name": "frozen",
          "type": "bool"
        }
      ],
      "name": "Pause",
      "type": "event"
    },
    {
      "anonymous": false,
      "inputs": [
        {
          "indexed": true,
          "internalType": "address",
          "name": "token",
          "type": "address"
        },
        {
          "components": [
            {
              "internalType": "uint256",
              "name": "mintSupply",
              "type": "uint256"
            },
            {
              "internalType": "uint256",
              "name": "mintMaxSupply",
              "type": "uint256"
            },
            {
              "internalType": "uint256",
              "name": "mintRateBySec",
              "type": "uint256"
            },
            {
              "internalType": "uint256",
              "name": "lastMintTime",
              "type": "uint256"
            },
            {
              "internalType": "uint256",
              "name": "lastSupply",
              "type": "uint256"
            },
            {
              "internalType": "uint256",
              "name": "mintCapacity",
              "type": "uint256"
            }
          ],
          "indexed": false,
          "internalType": "struct GunPoolContext.PcoinReward",
          "name": "pcoin",
          "type": "tuple"
        }
      ],
      "name": "ResetPcoinReward",
      "type": "event"
    },
    {
      "anonymous": false,
      "inputs": [
        {
          "indexed": true,
          "internalType": "address",
          "name": "token",
          "type": "address"
        },
        {
          "indexed": true,
          "internalType": "enum GunPoolContext.PlaneType",
          "name": "pt",
          "type": "uint8"
        },
        {
          "components": [
            {
              "internalType": "address",
              "name": "plane",
              "type": "address"
            },
            {
              "internalType": "address",
              "name": "gptoken",
              "type": "address"
            }
          ],
          "indexed": false,
          "internalType": "struct GunPoolContext.PlaneContext",
          "name": "pc",
          "type": "tuple"
        }
      ],
      "name": "ResetPlane",
      "type": "event"
    },
    {
      "anonymous": false,
      "inputs": [
        {
          "indexed": false,
          "internalType": "address",
          "name": "feeAccount",
          "type": "address"
        },
        {
          "indexed": false,
          "internalType": "uint16",
          "name": "permillage",
          "type": "uint16"
        }
      ],
      "name": "SetFeeto",
      "type": "event"
    },
    {
      "anonymous": false,
      "inputs": [
        {
          "indexed": true,
          "internalType": "address",
          "name": "pcoinAddress",
          "type": "address"
        }
      ],
      "name": "SetPcoinAddress",
      "type": "event"
    },
    {
      "anonymous": false,
      "inputs": [
        {
          "indexed": true,
          "internalType": "address",
          "name": "token",
          "type": "address"
        },
        {
          "indexed": true,
          "internalType": "address",
          "name": "user",
          "type": "address"
        },
        {
          "indexed": false,
          "internalType": "uint256",
          "name": "amount",
          "type": "uint256"
        }
      ],
      "name": "Withdraw",
      "type": "event"
    },
    {
      "inputs": [],
      "name": "owner",
      "outputs": [
        {
          "internalType": "address",
          "name": "",
          "type": "address"
        }
      ],
      "stateMutability": "view",
      "type": "function"
    },
    {
      "inputs": [],
      "name": "renounceOwnership",
      "outputs": [],
      "stateMutability": "nonpayable",
      "type": "function"
    },
    {
      "inputs": [
        {
          "internalType": "address",
          "name": "newOwner",
          "type": "address"
        }
      ],
      "name": "transferOwnership",
      "outputs": [],
      "stateMutability": "nonpayable",
      "type": "function"
    },
    {
      "inputs": [
        {
          "internalType": "address",
          "name": "token",
          "type": "address"
        },
        {
          "components": [
            {
              "internalType": "enum GunPoolContext.PlaneType",
              "name": "pt",
              "type": "uint8"
            },
            {
              "components": [
                {
                  "internalType": "address",
                  "name": "plane",
                  "type": "address"
                },
                {
                  "internalType": "address",
                  "name": "gptoken",
                  "type": "address"
                }
              ],
              "internalType": "struct GunPoolContext.PlaneContext",
              "name": "plane",
              "type": "tuple"
            }
          ],
          "internalType": "struct GunPoolContext.PlaneInitInput[]",
          "name": "planes",
          "type": "tuple[]"
        },
        {
          "components": [
            {
              "internalType": "uint256",
              "name": "mintSupply",
              "type": "uint256"
            },
            {
              "internalType": "uint256",
              "name": "mintMaxSupply",
              "type": "uint256"
            },
            {
              "internalType": "uint256",
              "name": "mintRateBySec",
              "type": "uint256"
            },
            {
              "internalType": "uint256",
              "name": "lastMintTime",
              "type": "uint256"
            },
            {
              "internalType": "uint256",
              "name": "lastSupply",
              "type": "uint256"
            },
            {
              "internalType": "uint256",
              "name": "mintCapacity",
              "type": "uint256"
            }
          ],
          "internalType": "struct GunPoolContext.PcoinReward",
          "name": "pcoin",
          "type": "tuple"
        }
      ],
      "name": "initReserve",
      "outputs": [],
      "stateMutability": "nonpayable",
      "type": "function"
    },
    {
      "inputs": [
        {
          "internalType": "address",
          "name": "token",
          "type": "address"
        },
        {
          "components": [
            {
              "internalType": "uint256",
              "name": "mintSupply",
              "type": "uint256"
            },
            {
              "internalType": "uint256",
              "name": "mintMaxSupply",
              "type": "uint256"
            },
            {
              "internalType": "uint256",
              "name": "mintRateBySec",
              "type": "uint256"
            },
            {
              "internalType": "uint256",
              "name": "lastMintTime",
              "type": "uint256"
            },
            {
              "internalType": "uint256",
              "name": "lastSupply",
              "type": "uint256"
            },
            {
              "internalType": "uint256",
              "name": "mintCapacity",
              "type": "uint256"
            }
          ],
          "internalType": "struct GunPoolContext.PcoinReward",
          "name": "pcoin",
          "type": "tuple"
        }
      ],
      "name": "resetPcoinReward",
      "outputs": [],
      "stateMutability": "nonpayable",
      "type": "function"
    },
    {
      "inputs": [
        {
          "internalType": "address",
          "name": "token",
          "type": "address"
        },
        {
          "components": [
            {
              "internalType": "enum GunPoolContext.PlaneType",
              "name": "pt",
              "type": "uint8"
            },
            {
              "components": [
                {
                  "internalType": "address",
                  "name": "plane",
                  "type": "address"
                },
                {
                  "internalType": "address",
                  "name": "gptoken",
                  "type": "address"
                }
              ],
              "internalType": "struct GunPoolContext.PlaneContext",
              "name": "plane",
              "type": "tuple"
            }
          ],
          "internalType": "struct GunPoolContext.PlaneInitInput",
          "name": "planeInput",
          "type": "tuple"
        }
      ],
      "name": "resetPlane",
      "outputs": [],
      "stateMutability": "nonpayable",
      "type": "function"
    },
    {
      "inputs": [
        {
          "internalType": "address",
          "name": "token",
          "type": "address"
        },
        {
          "internalType": "bool",
          "name": "frozen",
          "type": "bool"
        }
      ],
      "name": "pause",
      "outputs": [],
      "stateMutability": "nonpayable",
      "type": "function"
    },
    {
      "inputs": [
        {
          "internalType": "address",
          "name": "pcoinAddress",
          "type": "address"
        }
      ],
      "name": "setPcoinAddress",
      "outputs": [],
      "stateMutability": "nonpayable",
      "type": "function"
    },
    {
      "inputs": [
        {
          "components": [
            {
              "internalType": "address",
              "name": "account",
              "type": "address"
            },
            {
              "internalType": "uint16",
              "name": "permillage",
              "type": "uint16"
            }
          ],
          "internalType": "struct GunPoolContext.FeeContext",
          "name": "feeTo",
          "type": "tuple"
        }
      ],
      "name": "setFeeto",
      "outputs": [],
      "stateMutability": "nonpayable",
      "type": "function"
    },
    {
      "inputs": [
        {
          "internalType": "address",
          "name": "token",
          "type": "address"
        }
      ],
      "name": "getDepositAPY",
      "outputs": [
        {
          "internalType": "uint256",
          "name": "",
          "type": "uint256"
        }
      ],
      "stateMutability": "view",
      "type": "function"
    },
    {
      "inputs": [
        {
          "internalType": "address",
          "name": "token",
          "type": "address"
        },
        {
          "internalType": "uint256",
          "name": "amount",
          "type": "uint256"
        }
      ],
      "name": "deposit",
      "outputs": [],
      "stateMutability": "nonpayable",
      "type": "function"
    },
    {
      "inputs": [
        {
          "internalType": "address",
          "name": "token",
          "type": "address"
        },
        {
          "internalType": "uint256",
          "name": "amount",
          "type": "uint256"
        }
      ],
      "name": "withdraw",
      "outputs": [
        {
          "internalType": "uint256",
          "name": "",
          "type": "uint256"
        }
      ],
      "stateMutability": "nonpayable",
      "type": "function"
    },
    {
      "inputs": [],
      "name": "depositByEth",
      "outputs": [],
      "stateMutability": "payable",
      "type": "function"
    },
    {
      "inputs": [
        {
          "internalType": "uint256",
          "name": "amount",
          "type": "uint256"
        }
      ],
      "name": "withdrawByEth",
      "outputs": [],
      "stateMutability": "nonpayable",
      "type": "function"
    },
    {
      "inputs": [
        {
          "internalType": "address",
          "name": "to",
          "type": "address"
        }
      ],
      "name": "claim",
      "outputs": [
        {
          "internalType": "uint256",
          "name": "",
          "type": "uint256"
        }
      ],
      "stateMutability": "nonpayable",
      "type": "function"
    },
    {
      "inputs": [
        {
          "internalType": "address",
          "name": "token",
          "type": "address"
        }
      ],
      "name": "getReserve",
      "outputs": [
        {
          "components": [
            {
              "components": [
                {
                  "internalType": "uint256",
                  "name": "mintSupply",
                  "type": "uint256"
                },
                {
                  "internalType": "uint256",
                  "name": "mintMaxSupply",
                  "type": "uint256"
                },
                {
                  "internalType": "uint256",
                  "name": "mintRateBySec",
                  "type": "uint256"
                },
                {
                  "internalType": "uint256",
                  "name": "lastMintTime",
                  "type": "uint256"
                },
                {
                  "internalType": "uint256",
                  "name": "lastSupply",
                  "type": "uint256"
                },
                {
                  "internalType": "uint256",
                  "name": "mintCapacity",
                  "type": "uint256"
                }
              ],
              "internalType": "struct GunPoolContext.PcoinReward",
              "name": "pcoin",
              "type": "tuple"
            },
            {
              "internalType": "enum GunPoolContext.PlaneType",
              "name": "pt",
              "type": "uint8"
            },
            {
              "internalType": "bool",
              "name": "isFrozen",
              "type": "bool"
            },
            {
              "internalType": "bool",
              "name": "lock",
              "type": "bool"
            }
          ],
          "internalType": "struct GunPoolContext.ReserveData",
          "name": "",
          "type": "tuple"
        }
      ],
      "stateMutability": "view",
      "type": "function"
    },
    {
      "inputs": [
        {
          "internalType": "address",
          "name": "token",
          "type": "address"
        },
        {
          "internalType": "enum GunPoolContext.PlaneType",
          "name": "pt",
          "type": "uint8"
        }
      ],
      "name": "getPlanes",
      "outputs": [
        {
          "components": [
            {
              "internalType": "address",
              "name": "plane",
              "type": "address"
            },
            {
              "internalType": "address",
              "name": "gptoken",
              "type": "address"
            }
          ],
          "internalType": "struct GunPoolContext.PlaneContext",
          "name": "",
          "type": "tuple"
        }
      ],
      "stateMutability": "view",
      "type": "function"
    },
    {
      "inputs": [
        {
          "internalType": "address",
          "name": "user",
          "type": "address"
        }
      ],
      "name": "rewardBalanceOf",
      "outputs": [
        {
          "internalType": "uint256",
          "name": "amount",
          "type": "uint256"
        }
      ],
      "stateMutability": "view",
      "type": "function"
    }
  ],
  "bytecode": "0x60a06040523480156200001157600080fd5b50604051620035ac380380620035ac8339810160408190526200003491620000c1565b600062000040620000bd565b600080546001600160a01b0319166001600160a01b0383169081178255604051929350917f8be0079c531659141344cd1fd0a4f28419497f9722a3daafe3b4186f6b6457e0908290a3506005805463ffffffff1916905560601b6001600160601b031916608052600780546001600160b01b0319169055620000f1565b3390565b600060208284031215620000d3578081fd5b81516001600160a01b0381168114620000ea578182fd5b9392505050565b60805160601c61347f6200012d60003980610dbf52806110dd5280611173528061164c52806116d952806126a8528061285a525061347f6000f3fe6080604052600436106101095760003560e01c80638da5cb5b11610095578063c9a396e911610064578063c9a396e9146102b2578063e964b644146102df578063f2fde38b146102ff578063f3fef3a31461031f578063fd3f5e521461033f57610109565b80638da5cb5b1461023b578063a09f52aa1461025d578063b2751b4c1461027d578063bc66c1d9146102aa57610109565b80634d689130116100dc5780634d689130146101a6578063534815fb146101c65780635e32fae1146101e6578063715018a614610206578063727b32511461021b57610109565b80631e83409a1461010e5780632279ce701461014457806346ce827d1461016657806347e7ef2414610186575b600080fd5b34801561011a57600080fd5b5061012e610129366004612c30565b61035f565b60405161013b91906133c7565b60405180910390f35b34801561015057600080fd5b5061016461015f366004612c4c565b610655565b005b34801561017257600080fd5b5061012e610181366004612c30565b610acb565b34801561019257600080fd5b506101646101a1366004612dbe565b610cb3565b3480156101b257600080fd5b506101646101c1366004612f52565b6110bf565b3480156101d257600080fd5b506101646101e1366004612c30565b6111e8565b3480156101f257600080fd5b50610164610201366004612e24565b611267565b34801561021257600080fd5b50610164611371565b34801561022757600080fd5b50610164610236366004612d4a565b6113f0565b34801561024757600080fd5b50610250611520565b60405161013b9190612fde565b34801561026957600080fd5b50610164610278366004612ce2565b61152f565b34801561028957600080fd5b5061029d610298366004612d1a565b6115d2565b60405161013b9190613321565b610164611645565b3480156102be57600080fd5b506102d26102cd366004612c30565b611738565b60405161013b9190613344565b3480156102eb57600080fd5b5061012e6102fa366004612c30565b6117f1565b34801561030b57600080fd5b5061016461031a366004612c30565b611a07565b34801561032b57600080fd5b5061012e61033a366004612dbe565b611abd565b34801561034b57600080fd5b5061016461035a366004612d7f565b611e73565b6000808080808080805b60055463ffffffff90811690821610156105c75763ffffffff81166000908152600460209081526040808320546001600160a01b0316808452600283528184203385526003845282852082865290935290832060068301549299509750945060ff1680156103d357fe5b14156105bf576103e1612a92565b6001600160a01b038416600090815260066020819052604082209089015490919060ff16801561040d57fe5b801561041557fe5b815260208082019290925260409081016000208151808301835281546001600160a01b03908116825260019092015490911681840181905282516318160ddd60e01b815292519098509093506104c9928a9289926318160ddd92600480840193919291829003018186803b15801561048c57600080fd5b505afa1580156104a0573d6000803e3d6000fd5b505050506040513d601f19601f820116820180604052508101906104c49190612f6a565b61203e565b9250821561051e576040805160c08101825288548152600189015460208201526002890154918101919091526003880154606082015260048801546080820152600588015460a082015261051e9087906120bb565b855461052b90899061214e565b60008755600588015460018801556040516370a0823160e01b81529098506001600160a01b038616906370a0823190610568903390600401612fde565b60206040518083038186803b15801561058057600080fd5b505afa158015610594573d6000803e3d6000fd5b505050506040513d601f19601f820116820180604052508101906105b89190612f6a565b6002870155505b600101610369565b506001546001600160a01b0316158015906105e25750600086115b1561064a576001546105fe906001600160a01b0316898861217a565b876001600160a01b0316336001600160a01b03167f70eb43c4a8ae8c40502dcf22436c509c28d6ff421cf07c491be56984bd9870688860405161064191906133c7565b60405180910390a35b505050505050919050565b61065d6121d5565b6000546001600160a01b039081169116146106935760405162461bcd60e51b815260040161068a90613198565b60405180910390fd5b6040805180820190915260018152600360fc1b60208201526001600160a01b0385166106d25760405162461bcd60e51b815260040161068a91906130a7565b506106e5846001600160a01b03166121d9565b604051806040016040528060018152602001603160f81b8152509061071d5760405162461bcd60e51b815260040161068a91906130a7565b5060005b60055463ffffffff908116908216101561079c5763ffffffff811660009081526004602090815260409182902054825180840190935260018352603960f81b918301919091526001600160a01b03878116911614156107935760405162461bcd60e51b815260040161068a91906130a7565b50600101610721565b506001600160a01b0384166000908152600260208181526040808420815160c08101835285815286840135938101849052868301359281018390524260608083018290526080830188905260a0909201879052868355600183019490945593810191909155600381019190915560048101839055600581019290925560068201805462ffffff191690558367ffffffffffffffff8111801561083d57600080fd5b50604051908082528060200260200182016040528015610867578160200160208202803683370190505b5090506000805b858110156109fe57600087878381811061088457fe5b61089a9260206060909202019081019150612e05565b80156108a257fe5b14156109f65760405180604001604052808888848181106108bf57fe5b6108d89260406060909202019081019150602001612c30565b6001600160a01b031681526020018888848181106108f257fe5b610909926060918202019081019150604001612c30565b6001600160a01b03908116909152891660009081526006602052604081209089898581811061093457fe5b61094a9260206060909202019081019150612e05565b801561095257fe5b801561095a57fe5b8152602080820192909252604001600020825181546001600160a01b039182166001600160a01b031991821617835593909201516001918201805491909316931692909217905591909101908686828181106109b257fe5b6109c9926060918202019081019150604001612c30565b8382815181106109d557fe5b60200260200101906001600160a01b031690816001600160a01b0316815250505b60010161086e565b50604080518082019091526002815261031360f41b602082015281610a365760405162461bcd60e51b815260040161068a91906130a7565b506005805463ffffffff9081166000908152600460205260409081902080546001600160a01b0319166001600160a01b038c16908117909155835463ffffffff1981169084166001019093169290921790925590517f1f666445da447c32a327c9373b8b5ecd83d65df453ba9953cd4d788db4facdbf90610aba9087908690613289565b60405180910390a250505050505050565b6000610ad5612aa9565b6001600160a01b03831660009081526002602081815260409283902083516101408101909452805460808501908152600182015460a08601529281015460c0850152600381015460e08501526004810154610100850152600581015461012085015291835260068201549083019060ff168015610b4e57fe5b8015610b5657fe5b81526006919091015460ff6101008204811615156020840152620100009091041615156040909101529050600060208201518015610b9057fe5b1415610ca857610b9e612a92565b6001600160a01b03841660009081526006602090815260408220908401519091908015610bc757fe5b8015610bcf57fe5b81526020808201929092526040908101600020815180830190925280546001600160a01b0390811680845260019092015416928201929092529150610c12612ad7565b6040516335ea6a7560e01b81526001600160a01b038316906335ea6a7590610c3e908990600401612fde565b6101806040518083038186803b158015610c5757600080fd5b505afa158015610c6b573d6000803e3d6000fd5b505050506040513d601f19601f82011682018060405250810190610c8f9190612e35565b606001516001600160801b03169450610cae9350505050565b60009150505b919050565b6040805180820190915260018152600360fc1b6020820152829082906001600160a01b038316610cf65760405162461bcd60e51b815260040161068a91906130a7565b50610d09826001600160a01b03166121d9565b604051806040016040528060018152602001603160f81b81525090610d415760405162461bcd60e51b815260040161068a91906130a7565b506040805180820190915260018152603360f81b602082015281610d785760405162461bcd60e51b815260040161068a91906130a7565b506001600160a01b0384166000908152600260205260409020610d9a81612215565b60068101805462ff000019166201000017905560008080806001600160a01b038981167f00000000000000000000000000000000000000000000000000000000000000009190911614610dfc57610dfc6001600160a01b038a1633308b6122a0565b6000600686015460ff168015610e0e57fe5b1415610f9557610e1c612a92565b6001600160a01b038a16600090815260066020819052604082209088015490919060ff168015610e4857fe5b8015610e5057fe5b81526020808201929092526040908101600020815180830190925280546001600160a01b03908116808452600190920154169282018390529195509150610e9b908b9086338d6122c7565b6040516370a0823160e01b81529095506001600160a01b038516906370a0823190610eca903390600401612fde565b60206040518083038186803b158015610ee257600080fd5b505afa158015610ef6573d6000803e3d6000fd5b505050506040513d601f19601f82011682018060405250810190610f1a9190612f6a565b9150836001600160a01b03166318160ddd6040518163ffffffff1660e01b815260040160206040518083038186803b158015610f5557600080fd5b505afa158015610f69573d6000803e3d6000fd5b505050506040513d601f19601f82011682018060405250810190610f8d9190612f6a565b925050610fc4565b60408051808201825260018152601b60f91b6020820152905162461bcd60e51b815261068a91906004016130a7565b6000610fd0868461203e565b3360009081526003602090815260408083206001600160a01b038f1684529091529020909150811561104e578561104e576040805160c08101825288548152600189015460208201526002890154918101919091526003880154606082015260048801546080820152600588015460a082015261104e9082906120bb565b600587015460018201556002810183905560068701805462ff00001916905560405133906001600160a01b038d16907f5548c837ab068cf56a2c2479df0882a4922fd203edb7517321831d95078c5f62906110aa908e906133c7565b60405180910390a35050505050505050505050565b60405163f3fef3a360e01b8152600090309063f3fef3a390611107907f0000000000000000000000000000000000000000000000000000000000000000908690600401613033565b602060405180830381600087803b15801561112157600080fd5b505af1158015611135573d6000803e3d6000fd5b505050506040513d601f19601f820116820180604052508101906111599190612f6a565b604051632e1a7d4d60e01b81529091506001600160a01b037f00000000000000000000000000000000000000000000000000000000000000001690632e1a7d4d906111a89084906004016133c7565b600060405180830381600087803b1580156111c257600080fd5b505af11580156111d6573d6000803e3d6000fd5b505050506111e433826123bb565b5050565b6111f06121d5565b6000546001600160a01b0390811691161461121d5760405162461bcd60e51b815260040161068a90613198565b600180546001600160a01b0319166001600160a01b0383169081179091556040517f4d8c0465f32841877cda1a7f3560b5f1141f69fc530e2c9ac10b92f7029b8d7390600090a250565b61126f6121d5565b6000546001600160a01b0390811691161461129c5760405162461bcd60e51b815260040161068a90613198565b60006112ae6040830160208401612f30565b9050600a8161ffff1611156112c15750600a5b60408051808201909152806112d96020850185612c30565b6001600160a01b03908116825261ffff80851660209384015283516007805495850151909216600160a01b0261ffff60a01b19919093166001600160a01b03199095169490941793909316179091557fbd141520decd44037c2464fbcbac39fdb58aa6bb0061b4bd19371a81f1aa065c9061135690840184612c30565b82604051611365929190613016565b60405180910390a15050565b6113796121d5565b6000546001600160a01b039081169116146113a65760405162461bcd60e51b815260040161068a90613198565b600080546040516001600160a01b03909116907f8be0079c531659141344cd1fd0a4f28419497f9722a3daafe3b4186f6b6457e0908390a3600080546001600160a01b0319169055565b6113f86121d5565b6000546001600160a01b039081169116146114255760405162461bcd60e51b815260040161068a90613198565b6000805b60055463ffffffff90811690821610156114775763ffffffff81166000908152600460205260409020546001600160a01b038581169116141561146f5760019150611477565b600101611429565b50604080518082019091526002815261313160f01b6020820152816114af5760405162461bcd60e51b815260040161068a91906130a7565b506001600160a01b038316600081815260026020818152604092839020908601356001820155858301359181019190915590519091907f7cf54b86656fffb9d1325c50c39e42b7505430adcc9cdd68c9d6bd1d52b0cc3d9061151290869061327b565b60405180910390a250505050565b6000546001600160a01b031690565b6115376121d5565b6000546001600160a01b039081169116146115645760405162461bcd60e51b815260040161068a90613198565b6001600160a01b0382166000818152600260205260409081902060068101805461ff0019166101008615150217905590519091907f0d7fd1e314b29407db3d79c46ecf1fa3d2108961fab8d20584277358cac41e89906115c590859061309c565b60405180910390a2505050565b6115da612a92565b6001600160a01b0383166000908152600660205260408120908380156115fc57fe5b801561160457fe5b81526020808201929092526040908101600020815180830190925280546001600160a01b039081168352600190910154169181019190915290505b92915050565b60003490507f00000000000000000000000000000000000000000000000000000000000000006001600160a01b031663d0e30db0346040518263ffffffff1660e01b81526004016000604051808303818588803b1580156116a557600080fd5b505af11580156116b9573d6000803e3d6000fd5b50506040516311f9fbc960e21b81523093506347e7ef24925061170391507f0000000000000000000000000000000000000000000000000000000000000000908590600401613033565b600060405180830381600087803b15801561171d57600080fd5b505af1158015611731573d6000803e3d6000fd5b5050505050565b611740612aa9565b6001600160a01b03821660009081526002602081815260409283902083516101408101909452805460808501908152600182015460a08601529281015460c0850152600381015460e08501526004810154610100850152600581015461012085015291835260068201549083019060ff1680156117b957fe5b80156117c157fe5b81526006919091015460ff6101008204811615156020840152620100009091041615156040909101529050919050565b60006117fb612aa9565b611803612b42565b60008060005b60055463ffffffff90811690821610156119ea5763ffffffff81166000908152600460208181526040808420546001600160a01b031680855260028084529482902082516101408101909352805460808401908152600182015460a08501529581015460c0840152600381015460e08401529384015461010083015260058401546101208301529381526006830154939650929083019060ff1680156118ab57fe5b80156118b357fe5b81526006919091015460ff610100820481161515602080850191909152620100009092041615156040928301526001600160a01b03808b1660009081526003835283812091881681529082528290208251606081018452815481526001820154818401526002919091015492810192909252825190810151905192975090955011156119d25784516000906119489042612448565b90506000611967866020015187604001516124d990919063ffffffff16565b875160a0015190915061197b90839061214e565b915060006119968388604001516124d990919063ffffffff16565b905060006119a48284612513565b90506119c7816119c18a600001518961214e90919063ffffffff16565b9061214e565b9550505050506119e2565b83516119df90839061214e565b91505b600101611809565b506119fd6119f6612555565b8290612565565b9695505050505050565b611a0f6121d5565b6000546001600160a01b03908116911614611a3c5760405162461bcd60e51b815260040161068a90613198565b6001600160a01b038116611a625760405162461bcd60e51b815260040161068a906130da565b600080546040516001600160a01b03808516939216917f8be0079c531659141344cd1fd0a4f28419497f9722a3daafe3b4186f6b6457e091a3600080546001600160a01b0319166001600160a01b0392909216919091179055565b6040805180820190915260018152600360fc1b6020820152600090839083906001600160a01b038316611b035760405162461bcd60e51b815260040161068a91906130a7565b50611b16826001600160a01b03166121d9565b604051806040016040528060018152602001603160f81b81525090611b4e5760405162461bcd60e51b815260040161068a91906130a7565b506040805180820190915260018152603360f81b602082015281611b855760405162461bcd60e51b815260040161068a91906130a7565b506001600160a01b0385166000908152600260205260409020611ba781612215565b60068101805462ff0000191662010000179055600080808080600686015460ff168015611bd057fe5b1415610f9557611bde612a92565b6001600160a01b038b16600090815260066020819052604082209088015490919060ff168015611c0a57fe5b8015611c1257fe5b81526020808201929092526040908101600020815180830190925280546001600160a01b03908116808452600190920154169282018390529195509150611c5d908c9086338e6125a7565b9450836001600160a01b03166318160ddd6040518163ffffffff1660e01b815260040160206040518083038186803b158015611c9857600080fd5b505afa158015611cac573d6000803e3d6000fd5b505050506040513d601f19601f82011682018060405250810190611cd09190612f6a565b6040516370a0823160e01b81529093506001600160a01b038516906370a0823190611cff903390600401612fde565b60206040518083038186803b158015611d1757600080fd5b505afa158015611d2b573d6000803e3d6000fd5b505050506040513d601f19601f82011682018060405250810190611d4f9190612f6a565b9150506000611d5e868461203e565b9050600060036000336001600160a01b03166001600160a01b0316815260200190815260200160002060008d6001600160a01b03166001600160a01b0316815260200190815260200160002090508115611dff576040805160c08101825288548152600189015460208201526002890154918101919091526003880154606082015260048801546080820152600588015460a0820152611dff9082906120bb565b600587015460018201556002810183905560405133906001600160a01b038e16907f9b1bfa7fa9ee420a16e124f794c35ac9f90472acc99140eb2f6447c714cad8eb90611e4d908a906133c7565b60405180910390a35050506006909301805462ff00001916905550935050505092915050565b611e7b6121d5565b6000546001600160a01b03908116911614611ea85760405162461bcd60e51b815260040161068a90613198565b6000805b60055463ffffffff9081169082161015611efa5763ffffffff81166000908152600460205260409020546001600160a01b0385811691161415611ef25760019150611efa565b600101611eac565b50604080518082019091526002815261313160f01b602082015281611f325760405162461bcd60e51b815260040161068a91906130a7565b506001600160a01b03831660009081526006602090815260408220908290611f5c90860186612e05565b8015611f6457fe5b8015611f6c57fe5b81526020019081526020016000209050826020016000016020810190611f929190612c30565b81546001600160a01b0319166001600160a01b0391909116178155611fbd6060840160408501612c30565b6001820180546001600160a01b0319166001600160a01b0392909216919091179055611fec6020840184612e05565b8015611ff457fe5b846001600160a01b03167f66de2dd922d8f6c758abb9469dc78f035df8c8647dbf551ca17695c6539ff84d8560200160405161203091906132e6565b60405180910390a350505050565b6040805160c08101825283548152600184015460208201526002840154918101919091526003830154606082015260048301546080820152600583015460a0820152600090429082906120919083612448565b905061209f858583856128b4565b80156120b05760019250505061163f565b60009250505061163f565b6020810151815110156111e45760006120e5836001015484600201546124d990919063ffffffff16565b905060006121048360a0015185600201546124d990919063ffffffff16565b905060006121128284612513565b90508015611731578454612126908261214e565b855561214561213d612136612555565b8390612565565b85519061214e565b84525050505050565b6000828201838110156121735760405162461bcd60e51b815260040161068a90613120565b9392505050565b6121d08363a9059cbb60e01b8484604051602401612199929190613033565b60408051601f198184030181529190526020810180516001600160e01b03166001600160e01b0319909316929092179091526128d2565b505050565b3390565b6000813f7fc5d2460186f7233c927e7db2dcc703c0e500b653ca82273b7bfad8045d85a47081811480159061220d57508115155b949350505050565b60068101546040805180820190915260018152600d60fa1b602082015290610100900460ff16156122595760405162461bcd60e51b815260040161068a91906130a7565b506006810154604080518082019091526002815261189960f11b60208201529062010000900460ff16156111e45760405162461bcd60e51b815260040161068a91906130a7565b6122c1846323b872dd60e01b85858560405160240161219993929190612ff2565b50505050565b60405163e8eda9df60e01b815260009085906001600160a01b0382169063e8eda9df906122fe908a9087903090889060040161306f565b600060405180830381600087803b15801561231857600080fd5b505af115801561232c573d6000803e3d6000fd5b50506040516340c10f1960e01b81526001600160a01b03881692506340c10f19915061235e9087908790600401613033565b602060405180830381600087803b15801561237857600080fd5b505af115801561238c573d6000803e3d6000fd5b505050506040513d601f19601f820116820180604052508101906123b09190612de9565b979650505050505050565b604080516000808252602082019092526001600160a01b0384169083906040516123e59190612fc2565b60006040518083038185875af1925050503d8060008114612422576040519150601f19603f3d011682016040523d82523d6000602084013e612427565b606091505b50509050806121d05760405162461bcd60e51b815260040161068a90613204565b6000818360600151108015612461575060008360800151115b156124d157600061247f84606001518461251390919063ffffffff16565b9050600061249a8286604001516124d990919063ffffffff16565b90506124ae6124a7612555565b82906124d9565b90506124c785608001518261256590919063ffffffff16565b925061163f915050565b50600061163f565b6000826124e85750600061163f565b828202828482816124f557fe5b04146121735760405162461bcd60e51b815260040161068a90613157565b600061217383836040518060400160405280601e81526020017f536166654d6174683a207375627472616374696f6e206f766572666c6f770000815250612961565b6b033b2e3c9fd0803ce800000090565b600061217383836040518060400160405280601a81526020017f536166654d6174683a206469766973696f6e206279207a65726f00000000000081525061298d565b6040516370a0823160e01b81526000908590839083906001600160a01b038816906370a08231906125dc908990600401612fde565b60206040518083038186803b1580156125f457600080fd5b505afa158015612608573d6000803e3d6000fd5b505050506040513d601f19601f8201168201806040525081019061262c9190612f6a565b905060001985148061263d57508085115b15612646578091505b604051632770a7eb60e21b81526001600160a01b03881690639dc29fac906126749089908690600401613033565b600060405180830381600087803b15801561268e57600080fd5b505af11580156126a2573d6000803e3d6000fd5b505050507f00000000000000000000000000000000000000000000000000000000000000006001600160a01b0316896001600160a01b0316141561276857604051631a4ca37b60e21b81526001600160a01b038416906369328dec90612710908c908690309060040161304c565b602060405180830381600087803b15801561272a57600080fd5b505af115801561273e573d6000803e3d6000fd5b505050506040513d601f19601f820116820180604052508101906127629190612f6a565b506127ec565b604051631a4ca37b60e21b81526001600160a01b038416906369328dec90612798908c9086908b9060040161304c565b602060405180830381600087803b1580156127b257600080fd5b505af11580156127c6573d6000803e3d6000fd5b505050506040513d601f19601f820116820180604052508101906127ea9190612f6a565b505b6007546001600160a01b0316158015906128125750600754600160a01b900461ffff1615155b156128a8576007546103e890612834908290600160a01b900461ffff16612513565b5061284a606461284485846124d9565b90612565565b90506128568382612513565b92507f00000000000000000000000000000000000000000000000000000000000000006001600160a01b03168a6001600160a01b0316146128a6576128a66001600160a01b038b168830846122a0565b505b50979650505050505050565b60058401546128c3908361214e565b50600384015550600490910155565b6060612927826040518060400160405280602081526020017f5361666545524332303a206c6f772d6c6576656c2063616c6c206661696c6564815250856001600160a01b03166129c49092919063ffffffff16565b8051909150156121d057808060200190518101906129459190612de9565b6121d05760405162461bcd60e51b815260040161068a90613231565b600081848411156129855760405162461bcd60e51b815260040161068a91906130a7565b505050900390565b600081836129ae5760405162461bcd60e51b815260040161068a91906130a7565b5060008385816129ba57fe5b0495945050505050565b606061220d848460008560606129d9856121d9565b6129f55760405162461bcd60e51b815260040161068a906131cd565b60006060866001600160a01b03168587604051612a129190612fc2565b60006040518083038185875af1925050503d8060008114612a4f576040519150601f19603f3d011682016040523d82523d6000602084013e612a54565b606091505b50915091508115612a6857915061220d9050565b805115612a785780518082602001fd5b8360405162461bcd60e51b815260040161068a91906130a7565b604080518082019091526000808252602082015290565b6040518060800160405280612abc612b63565b81526020016000815260006020820181905260409091015290565b604051806101800160405280612aeb612b99565b815260006020820181905260408201819052606082018190526080820181905260a0820181905260c0820181905260e082018190526101008201819052610120820181905261014082018190526101609091015290565b60405180606001604052806000815260200160008152602001600081525090565b6040518060c001604052806000815260200160008152602001600081526020016000815260200160008152602001600081525090565b6040518060200160405280600081525090565b805161163f81613423565b600060c08284031215612bc8578081fd5b50919050565b600060208284031215612bdf578081fd5b612be960206133d0565b9151825250919050565b80516001600160801b038116811461163f57600080fd5b805164ffffffffff8116811461163f57600080fd5b805160ff8116811461163f57600080fd5b600060208284031215612c41578081fd5b813561217381613423565b6000806000806101008587031215612c62578283fd5b8435612c6d81613423565b9350602085013567ffffffffffffffff80821115612c89578485fd5b818701915087601f830112612c9c578485fd5b813581811115612caa578586fd5b886020606083028501011115612cbe578586fd5b602083019550809450505050612cd78660408701612bb7565b905092959194509250565b60008060408385031215612cf4578182fd5b8235612cff81613423565b91506020830135612d0f8161343b565b809150509250929050565b60008060408385031215612d2c578182fd5b8235612d3781613423565b9150602083013560018110612d0f578182fd5b60008060e08385031215612d5c578182fd5b8235612d6781613423565b9150612d768460208501612bb7565b90509250929050565b6000808284036080811215612d92578283fd5b8335612d9d81613423565b92506060601f1982011215612db0578182fd5b506020830190509250929050565b60008060408385031215612dd0578182fd5b8235612ddb81613423565b946020939093013593505050565b600060208284031215612dfa578081fd5b81516121738161343b565b600060208284031215612e16578081fd5b813560018110612173578182fd5b600060408284031215612bc8578081fd5b6000610180808385031215612e48578182fd5b612e51816133d0565b9050612e5d8484612bce565b8152612e6c8460208501612bf3565b6020820152612e7e8460408501612bf3565b6040820152612e908460608501612bf3565b6060820152612ea28460808501612bf3565b6080820152612eb48460a08501612bf3565b60a0820152612ec68460c08501612c0a565b60c0820152612ed88460e08501612bac565b60e0820152610100612eec85828601612bac565b90820152610120612eff85858301612bac565b90820152610140612f1285858301612bac565b90820152610160612f2585858301612c1f565b908201529392505050565b600060208284031215612f41578081fd5b813561ffff81168114612173578182fd5b600060208284031215612f63578081fd5b5035919050565b600060208284031215612f7b578081fd5b5051919050565b15159052565b803582526020810135602083015260408101356040830152606081013560608301526080810135608083015260a081013560a08301525050565b60008251612fd48184602087016133f7565b9190910192915050565b6001600160a01b0391909116815260200190565b6001600160a01b039384168152919092166020820152604081019190915260600190565b6001600160a01b0392909216825261ffff16602082015260400190565b6001600160a01b03929092168252602082015260400190565b6001600160a01b0393841681526020810192909252909116604082015260600190565b6001600160a01b03948516815260208101939093529216604082015261ffff909116606082015260800190565b901515815260200190565b60006020825282518060208401526130c68160408501602087016133f7565b601f01601f19169190910160400192915050565b60208082526026908201527f4f776e61626c653a206e6577206f776e657220697320746865207a65726f206160408201526564647265737360d01b606082015260800190565b6020808252601b908201527f536166654d6174683a206164646974696f6e206f766572666c6f770000000000604082015260600190565b60208082526021908201527f536166654d6174683a206d756c7469706c69636174696f6e206f766572666c6f6040820152607760f81b606082015260800190565b6020808252818101527f4f776e61626c653a2063616c6c6572206973206e6f7420746865206f776e6572604082015260600190565b6020808252601d908201527f416464726573733a2063616c6c20746f206e6f6e2d636f6e7472616374000000604082015260600190565b60208082526013908201527211551217d514905394d1915497d19052531151606a1b604082015260600190565b6020808252602a908201527f5361666545524332303a204552433230206f7065726174696f6e20646964206e6040820152691bdd081cdd58d8d9595960b21b606082015260800190565b60c0810161163f8284612f88565b600060e082016132998386612f88565b60e060c0840152835190819052602090610100840190828601845b828110156132d95781516001600160a01b0316845292840192908401906001016132b4565b5091979650505050505050565b6040810182356132f581613423565b6001600160a01b03908116835260208401359061331182613423565b8082166020850152505092915050565b81516001600160a01b039081168252602092830151169181019190915260400190565b6000610120820190508251805183526020810151602084015260408101516040840152606081015160608401526080810151608084015260a081015160a08401525060208301516001811061339557fe5b60c083015260408301516133ac60e0840182612f82565b5060608301516133c0610100840182612f82565b5092915050565b90815260200190565b60405181810167ffffffffffffffff811182821017156133ef57600080fd5b604052919050565b60005b838110156134125781810151838201526020016133fa565b838111156122c15750506000910152565b6001600160a01b038116811461343857600080fd5b50565b801515811461343857600080fdfea26469706673582212206443280441b845afe281fc8d431c657005e1d2297aaf17c2d51f76b91e53b8bd64736f6c634300060c0033",
  "immutableReferences": {
    "11842": [
      {
        "length": 32,
        "start": 3519
      },
      {
        "length": 32,
        "start": 4317
      },
      {
        "length": 32,
        "start": 4467
      },
      {
        "length": 32,
        "start": 5708
      },
      {
        "length": 32,
        "start": 5849
      },
      {
        "length": 32,
        "start": 9896
      },
      {
        "length": 32,
        "start": 10330
      }
    ]
  },
  "source": "// SPDX-License-Identifier: agpl-3.0\npragma solidity >=0.4.22 <0.9.0;\npragma experimental ABIEncoderV2;\n\nimport {IGunPool} from \"../../interfaces/IGunPool.sol\";\nimport {IGPToken} from \"../../interfaces/IGPToken.sol\";\nimport {Ownable} from '../../dependencies/openzeppelin/contracts/access/Ownable.sol';\nimport {GunPoolContext} from \"./GunPoolContext.sol\";\nimport {IERC20} from \"../../dependencies/openzeppelin/contracts/token/ERC20/IERC20.sol\";\nimport {SafeERC20} from \"../../dependencies/openzeppelin/contracts/token/ERC20/SafeERC20.sol\";\nimport {Address} from \"../../dependencies/openzeppelin/contracts/utils/Address.sol\";\nimport {Error} from \"./helpers/Error.sol\";\nimport {DataTypes} from \"./pools/aave/DataTypes.sol\";\nimport {ILendingPool} from \"./pools/aave/ILendingPool.sol\";\nimport {IAToken} from \"./pools/aave/IAToken.sol\";\nimport {SafeMath} from \"../../dependencies/openzeppelin/contracts/math/SafeMath.sol\";\nimport {MintPolicy} from \"../libraries/MintPolicy.sol\";\nimport {IWETH} from \"../../dependencies/misc/IWETH.sol\";\nimport {WadRayMath} from \"./pools/aave/WadRayMath.sol\";\n\ncontract GunPool is IGunPool, Ownable {\n  using Address for address;\n  using SafeERC20 for IERC20;\n  using SafeMath for uint256;\n  using MintPolicy for GunPoolContext.PcoinReward;\n\n  /**** data context ****/\n  // pcoin address\n  address internal _pcoinAddress;\n  // reservers: key is token; value is resverer data\n  mapping(address => GunPoolContext.ReserveData) internal _reserves;\n  // rewards: key is user and token, value is reward context\n  mapping(address => mapping(address => GunPoolContext.RewardContext)) internal _rewards;\n  // reservers token list and count\n  mapping(uint32 => address) internal _reservesList;\n  uint32 internal _reservesCount;\n  // IWETH instance\n  IWETH internal immutable _IWETH;\n  // gptoken mapping: key is token and plane type, value is gptoken address\n  mapping (address => mapping(GunPoolContext.PlaneType => GunPoolContext.PlaneContext)) internal _planes;\n  // fee account\n  GunPoolContext.FeeContext _feeTo;\n\n  /**** modifier ****/\n  modifier tokenValid(address token, uint256 amount) {\n    require(token != address(0), Error.TOKEN_ADDRESS_ZERO);\n    require(token.isContract(), Error.TOKEN_INVALID_CONTRACTS);\n    require(amount > 0, Error.TOKEN_AMOUNT_ZERO);\n    _;\n  }\n\n  /**** constructor funcion ****/\n  constructor (address weth) public {\n    _reservesCount = 0;\n    _IWETH = IWETH(weth);\n    _feeTo.account = address(0);\n    _feeTo.permillage = 0;\n  }\n\n  /**** public function ****/\n  function initReserve(\n    address token,\n    GunPoolContext.PlaneInitInput[] calldata planes,\n    GunPoolContext.PcoinReward calldata pcoin\n  )\n    external\n    override\n    onlyOwner\n  {\n    require(token != address(0), Error.TOKEN_ADDRESS_ZERO);\n    require(token.isContract(), Error.TOKEN_INVALID_CONTRACTS);\n\n    for (uint32 i = 0; i < _reservesCount; i++) {\n      require(token != _reservesList[i], Error.TOKEN_RESERVE_EXIST);\n    }\n\n    GunPoolContext.ReserveData storage reserve = _reserves[token];\n    reserve.pcoin = GunPoolContext.PcoinReward(0,\n                                               pcoin.mintMaxSupply,\n                                               pcoin.mintRateBySec,\n                                               block.timestamp,\n                                               0,\n                                               0);\n    reserve.pt = GunPoolContext.PlaneType.AAVE;\n    reserve.isFrozen = false;\n    reserve.lock = false;\n\n    address[] memory gptoken = new address[](planes.length);\n    uint256 insertNums = 0;\n\n    for ( uint256 j = 0; j < planes.length; j++ ) {\n      if ( planes[j].pt == GunPoolContext.PlaneType.AAVE ) {\n        _planes[token][planes[j].pt] =\n          GunPoolContext.PlaneContext(\n            planes[j].plane.plane,\n            planes[j].plane.gptoken\n          );\n        insertNums += 1;\n        gptoken[j] = planes[j].plane.gptoken;\n      }\n    }\n\n    require(insertNums > 0, Error.TOKEN_RESERVE_PLANE_INPUT_FAIL);\n    _reservesList[_reservesCount] = token;\n    _reservesCount++;\n\n    emit InitReserve(token, pcoin, gptoken);\n  }\n\n  function resetPcoinReward(\n    address token,\n    GunPoolContext.PcoinReward calldata pcoin\n  )\n    external\n    override\n    onlyOwner\n  {\n    bool isExist = false;\n    for (uint32 i = 0; i < _reservesCount; i++) {\n      if ( token == _reservesList[i] ) {\n        isExist = true;\n        break;\n      }\n    }\n    require(isExist, Error.TOKEN_RESERVE_RESET_UNEXIST);\n\n    GunPoolContext.ReserveData storage reserve = _reserves[token];\n    reserve.pcoin.mintMaxSupply = pcoin.mintMaxSupply;\n    reserve.pcoin.mintRateBySec = pcoin.mintRateBySec;\n\n    emit ResetPcoinReward(token, pcoin);\n  }\n\n  function resetPlane(\n    address token,\n    GunPoolContext.PlaneInitInput calldata planeInput\n  )\n    external\n    override\n    onlyOwner\n  {\n    bool isExist = false;\n    for (uint32 i = 0; i < _reservesCount; i++) {\n      if ( token == _reservesList[i] ) {\n        isExist = true;\n        break;\n      }\n    }\n    require(isExist, Error.TOKEN_RESERVE_RESET_UNEXIST);\n\n    GunPoolContext.PlaneContext storage planeContext = _planes[token][planeInput.pt];\n    planeContext.plane = planeInput.plane.plane;\n    planeContext.gptoken = planeInput.plane.gptoken;\n\n    emit ResetPlane(token, planeInput.pt, planeInput.plane);\n\n  }\n\n  function pause(address token, bool frozen)\n    external\n    override\n    onlyOwner\n  {\n    GunPoolContext.ReserveData storage reserve = _reserves[token];\n    reserve.isFrozen = frozen;\n    emit Pause(token, frozen);\n  }\n\n  function setPcoinAddress(address pcoinAddress)\n    external\n    override\n    onlyOwner\n  {\n    _pcoinAddress = pcoinAddress;\n\n    emit SetPcoinAddress(pcoinAddress);\n  }\n\n  function setFeeto(GunPoolContext.FeeContext calldata feeTo)\n    external\n    override\n    onlyOwner\n  {\n    uint16 permillage = feeTo.permillage;\n    if ( permillage > 10 ) {\n      permillage = 10;\n    }\n    _feeTo = GunPoolContext.FeeContext(feeTo.account, permillage);\n    emit SetFeeto(feeTo.account, permillage);\n  }\n\n  function getDepositAPY(address token)\n    external\n    override\n    view\n    returns(uint256)\n  {\n    GunPoolContext.ReserveData memory reserve = _reserves[token];\n    if ( reserve.pt == GunPoolContext.PlaneType.AAVE ) {\n      GunPoolContext.PlaneContext memory plane =\n        _planes[token][reserve.pt];\n      ILendingPool lendingPool = ILendingPool(plane.plane);\n      DataTypes.ReserveData memory lpReserve = lendingPool.getReserveData(token);\n      return lpReserve.currentLiquidityRate;\n    }\n    else {\n      return 0;\n    }\n  }\n\n\n  /*\n  * user who deposit by polylend gunpool will get gptoken and obtain pcoin reward\n  */\n  function deposit(\n    address token,\n    uint256 amount\n  )\n    external\n    override\n    tokenValid(token, amount)\n  {\n    GunPoolContext.ReserveData storage reserve = _reserves[token];\n    _reserveValidate(reserve);\n    bool isFirst = false;\n    IGPToken gpToken;\n    //uint256 gpMPSupply = 0;\n    uint256 gpMASupply = 0;\n    //uint256 gpMPBalance = 0;\n    uint256 gpMABalance = 0;\n    reserve.lock = true;\n\n    if ( token != address(_IWETH) ) {\n      IERC20(token).safeTransferFrom(msg.sender, address(this), amount);\n    }\n\n    if ( reserve.pt == GunPoolContext.PlaneType.AAVE ) {\n      GunPoolContext.PlaneContext memory plane = _planes[token][reserve.pt];\n      gpToken = IGPToken(plane.gptoken);\n      //gpMPBalance = gpToken.balanceOf(msg.sender);\n      //gpMPSupply = gpToken.totalSupply();\n      isFirst = _aaveDeposit(token,\n                             plane.plane,\n                             gpToken,\n                             msg.sender,\n                             amount);\n      gpMABalance = gpToken.balanceOf(msg.sender);\n      gpMASupply = gpToken.totalSupply();\n    }\n    else {\n      require(false, Error.POOL_PLANE_INVALID);\n    }\n\n    bool isMint = _updateMint(reserve.pcoin, gpMASupply);\n    GunPoolContext.RewardContext storage reward = _rewards[msg.sender][token];\n\n    if ( isMint ) {\n      if ( !isFirst ) {\n        _updateReward(reward, reserve.pcoin);\n      }\n    }\n    reward.lastMintCapacity = reserve.pcoin.mintCapacity;\n    reward.lastGpBalance = gpMABalance;\n\n    reserve.lock = false;\n    emit Deposit(token, msg.sender, amount);\n  }\n\n  /*\n  * we will convert the ratio between gptoken and input token\n  */\n  function withdraw(\n    address token,\n    uint256 amount\n  ) external override tokenValid(token, amount) returns (uint256) {\n    GunPoolContext.ReserveData storage reserve = _reserves[token];\n    _reserveValidate(reserve);\n    uint256 amountWithdraw = 0;\n    IGPToken gpToken;\n    uint256 gpMASupply = 0;\n    uint256 gpMABalance = 0;\n    reserve.lock = true;\n\n    if ( reserve.pt == GunPoolContext.PlaneType.AAVE ) {\n      GunPoolContext.PlaneContext memory plane = _planes[token][reserve.pt];\n      gpToken = IGPToken(plane.gptoken);\n      // gpPreSupply = gpToken.totalSupply();\n      amountWithdraw = _aaveWithdraw(token,\n                                     plane.plane,\n                                     gpToken,\n                                     msg.sender,\n                                     amount);\n      gpMASupply = gpToken.totalSupply();\n      gpMABalance = gpToken.balanceOf(msg.sender);\n    }\n    else {\n      require(false, Error.POOL_PLANE_INVALID);\n    }\n\n    bool isMint = _updateMint(reserve.pcoin, gpMASupply);\n    GunPoolContext.RewardContext storage reward = _rewards[msg.sender][token];\n\n    if ( isMint ) {\n      _updateReward(reward, reserve.pcoin);\n    }\n    reward.lastMintCapacity = reserve.pcoin.mintCapacity;\n    reward.lastGpBalance = gpMABalance;\n\n    emit Withdraw(token, msg.sender, amountWithdraw);\n    reserve.lock = false;\n    return amountWithdraw;\n  }\n\n  function depositByEth()\n    external payable override\n  {\n    uint256 amount = msg.value;\n    _IWETH.deposit{value: msg.value}();\n    this.deposit(address(_IWETH), amount);\n  }\n\n  function withdrawByEth(uint256 amount)\n    external override\n  {\n    uint256 amountWithdraw = this.withdraw(address(_IWETH), amount);\n    _IWETH.withdraw(amountWithdraw);\n    _safeTransferETH(msg.sender, amountWithdraw);\n  }\n\n  function claim(\n    address to\n  ) external override returns (uint256) {\n    uint256 totalReward = 0;\n    GunPoolContext.ReserveData storage reserve;\n    GunPoolContext.RewardContext storage reward;\n    IGPToken gpToken;\n    address token = address(0);\n    bool isMint = false;\n\n    for ( uint32 i = 0; i < _reservesCount; i++ ) {\n      token = _reservesList[i];\n      reserve = _reserves[token];\n      reward = _rewards[msg.sender][token];\n\n      if ( reserve.pt == GunPoolContext.PlaneType.AAVE ) {\n        GunPoolContext.PlaneContext memory plane = _planes[token][reserve.pt];\n        gpToken = IGPToken(plane.gptoken);\n        isMint = _updateMint(reserve.pcoin, gpToken.totalSupply());\n        if ( isMint ) {\n          _updateReward(reward, reserve.pcoin);\n        }\n        totalReward = totalReward.add(reward.rewardSupply);\n        reward.rewardSupply = 0;\n        reward.lastMintCapacity = reserve.pcoin.mintCapacity;\n        reward.lastGpBalance = gpToken.balanceOf(msg.sender);\n      }\n    }\n\n    if ( (_pcoinAddress != address(0)) && (totalReward > 0) ) {\n      IERC20(_pcoinAddress).safeTransfer(to, totalReward);\n      emit Claim(msg.sender, to, totalReward);\n    }\n  }\n\n  function getReserve(address token)\n    external\n    view\n    override\n    returns (GunPoolContext.ReserveData memory)\n  {\n    return _reserves[token];\n  }\n\n  function getPlanes(address token, GunPoolContext.PlaneType pt)\n    external\n    view\n    override\n    returns(GunPoolContext.PlaneContext memory)\n  {\n    return _planes[token][pt];\n  }\n\n  function rewardBalanceOf(address user)\n    external\n    view\n    override\n    returns (uint256 amount)\n  {\n    GunPoolContext.ReserveData memory reserve;\n    GunPoolContext.RewardContext memory reward;\n    address token = address(0);\n    uint256 rewardBalance = 0;\n\n    for ( uint32 i = 0; i < _reservesCount; i++ ) {\n      token = _reservesList[i];\n      reserve = _reserves[token];\n      reward = _rewards[user][token];\n\n      if ( reserve.pcoin.mintSupply < reserve.pcoin.mintMaxSupply ) {\n        uint256 mintRate = reserve.pcoin.calcultionMintRate(block.timestamp);\n        uint256 preSupply = reward.lastGpBalance.mul(reward.lastMintCapacity);\n        mintRate = mintRate.add(reserve.pcoin.mintCapacity);\n        uint256 curSupply = reward.lastGpBalance.mul(mintRate);\n        uint256 rewardAmount = curSupply.sub(preSupply);\n        rewardBalance = rewardBalance.add(reward.rewardSupply).add(rewardAmount);\n      }\n      else {\n        rewardBalance = rewardBalance.add(reward.rewardSupply);\n      }\n    }\n\n    return rewardBalance.div(WadRayMath.ray());\n  }\n\n  /**** internal function ****/\n  function _reserveValidate(GunPoolContext.ReserveData storage reserve) internal view {\n    require(!(reserve.isFrozen), Error.RESERVE_FROZEN);\n    require(!(reserve.lock), Error.RESERVE_LOCK);\n    //require(reserve.aavePlane.gpTokenAddress != address(0), Error.RESERVE_GPTOKEN_ZERO);\n  }\n\n  function _aaveDeposit(\n    address token,\n    address lendingPoolAddress,\n    IGPToken gpToken,\n    address user,\n    uint256 amount\n    ) internal returns (bool) {\n      ILendingPool lendingPool = ILendingPool(lendingPoolAddress);\n      lendingPool.deposit(token, amount, address(this), 0);\n      return gpToken.mint(user, amount);\n  }\n\n  function _aaveWithdraw(\n    address token,\n    address lendingPoolAddress,\n    IGPToken gpToken,\n    address user,\n    uint256 amount\n    ) internal returns (uint256) {\n      ILendingPool lendingPool = ILendingPool(lendingPoolAddress);\n      uint256 amountToWithdraw = amount;\n      uint256 gpBalance = gpToken.balanceOf(user);\n\n      if ( (amount == type(uint256).max) || (amount > gpBalance) )\n        amountToWithdraw = gpBalance;\n\n      gpToken.burn(user, amountToWithdraw);\n      // todo receive a part of coin for self user\n      if ( token == address(_IWETH) ) {\n        lendingPool.withdraw(token, amountToWithdraw, address(this));\n      }\n      else {\n        lendingPool.withdraw(token, amountToWithdraw, user);\n      }\n\n      if ( _feeTo.account != address(0) && _feeTo.permillage > 0 ) {\n        uint256 fee = 1000;\n        fee.sub(_feeTo.permillage);\n        fee = amountToWithdraw.mul(fee).div(100);\n        amountToWithdraw = amountToWithdraw.sub(fee);\n        if ( token != address(_IWETH) ) {\n          IERC20(token).safeTransferFrom(user, address(this), fee);\n        }\n      }\n\n      return amountToWithdraw;\n  }\n\n  function _updateMint(\n    GunPoolContext.PcoinReward storage pcoin,\n    uint256 supply\n  )\n    internal\n    returns (bool)\n  {\n    uint256 timestamp = block.timestamp;\n    uint256 mintRate = pcoin.calcultionMintRate(timestamp);\n    pcoin.updateMintContext(supply, mintRate, timestamp);\n    if ( mintRate > 0 ) {\n      return true;\n    }\n    else {\n      return false;\n    }\n  }\n\n  function _updateReward(\n    GunPoolContext.RewardContext storage reward,\n    GunPoolContext.PcoinReward memory pcoin\n  )\n    internal\n  {\n    if ( pcoin.mintSupply < pcoin.mintMaxSupply ) {\n      uint256 preSupply = reward.lastGpBalance.mul(reward.lastMintCapacity);\n      uint256 curSupply = reward.lastGpBalance.mul(pcoin.mintCapacity);\n      uint256 rewardAmount = curSupply.sub(preSupply);\n\n      if ( rewardAmount > 0 ) {\n        reward.rewardSupply = reward.rewardSupply.add(rewardAmount);\n        pcoin.mintSupply = pcoin.mintSupply.add(rewardAmount.div(WadRayMath.ray()));\n      }\n    }\n  }\n\n  /**\n   * @dev transfer ETH to an address, revert if it fails.\n   * @param to recipient of the transfer\n   * @param value the amount to send\n   */\n  function _safeTransferETH(address to, uint256 value) internal {\n    (bool success, ) = to.call{value: value}(new bytes(0));\n    require(success, 'ETH_TRANSFER_FAILED');\n  }\n}\n",
  "sourcePath": "/home/gaozl/Downloads/polygon/myproject/contracts/protocol_v1/contracts/protocol/gunpool/GunPool.sol",
  "compiler": {
    "name": "solc",
    "version": "0.6.12+commit.27d51765.Emscripten.clang"
  },
  "schemaVersion": "3.4.1",
  "updatedAt": "2021-07-22T03:03:20.349Z",
  "devdoc": {
    "kind": "dev",
    "methods": {
      "claim(address)": {
        "details": "claim from gun pool(contain: polylend token) Returns amount The total amount of reward is obtained by to which is recalculated by pcoin Emits a {Claim} event.*"
      },
      "deposit(address,uint256)": {
        "details": "deposit the ERC20 token",
        "params": {
          "amount": "The amount of the token to deposit.(For max: `uint256(-1)`) Emits a {Deposit} event.*",
          "token": "The address of the token to deposit.(For MATIC: 0xEeeeeEeeeEeEeeEeEeEeeEEEeeeeEeeeeeeeEEeE)"
        }
      },
      "depositByEth()": {
        "details": "deposit the mainet basis token Returns a boolean value indicating whether the operation succeeded. Emits a {Deposit} event.*"
      },
      "getDepositAPY(address)": {
        "details": "getDepositAPY get the APY of deposited token",
        "params": {
          "token": "the address of reserve"
        },
        "returns": {
          "_0": "APY: Annual percentage yields*"
        }
      },
      "getPlanes(address,uint8)": {
        "details": "getPlanes get the context address of work plane",
        "params": {
          "pt": "the type of plane",
          "token": "the address of reserve"
        },
        "returns": {
          "_0": "planecontext contain address of plane and gptoken*"
        }
      },
      "getReserve(address)": {
        "details": "Returns the state of the reserve in gunpool",
        "params": {
          "token": "The address of the underlying token of the reserve"
        },
        "returns": {
          "_0": "The state of the reserve in gunpool*"
        }
      },
      "initReserve(address,(uint8,(address,address))[],(uint256,uint256,uint256,uint256,uint256,uint256))": {
        "details": "initReserve configure the reserve in gunpool",
        "params": {
          "pcoin": "The reward context of polylend coin Emits a {InitReserve} event.*",
          "planes": "the context of the plane",
          "token": "The address of the underlying token of the reserve"
        }
      },
      "owner()": {
        "details": "Returns the address of the current owner."
      },
      "pause(address,bool)": {
        "details": "pause set token frozen status",
        "params": {
          "frozen": "the status of reserve, true is frozen Emits a {Pause} event*",
          "token": "the address of reserve"
        }
      },
      "renounceOwnership()": {
        "details": "Leaves the contract without owner. It will not be possible to call `onlyOwner` functions anymore. Can only be called by the current owner. NOTE: Renouncing ownership will leave the contract without an owner, thereby removing any functionality that is only available to the owner."
      },
      "resetPcoinReward(address,(uint256,uint256,uint256,uint256,uint256,uint256))": {
        "details": "resetReservePcoinReward reset pcoin reward params for reserve",
        "params": {
          "pcoin": "The reward context of polylend coin Emits a {ResetPcoinReward} event*",
          "token": "The address of the underlying token of the reserve"
        }
      },
      "resetPlane(address,(uint8,(address,address)))": {
        "details": "resetPlane reset plane for reserve",
        "params": {
          "planeInput": "the context of the plane Emits a {ResetPlane} event*",
          "token": "The address of the underlying token of the reserve"
        }
      },
      "rewardBalanceOf(address)": {
        "details": "rewardBalanceOf quary pcoin rewards",
        "params": {
          "user": "who has rewards Returns balance The total amount of reward*"
        }
      },
      "setFeeto((address,uint16))": {
        "details": "setFeeto set account and permillage for fee",
        "params": {
          "feeTo": "the context of feeto Emits a {SetFeeTo} event*"
        }
      },
      "setPcoinAddress(address)": {
        "details": "initPcoinAddress set the address of pcoin",
        "params": {
          "pcoinAddress": "the address of pcoin who mint reward for user Emits a {SetPcoinAddress} event*"
        }
      },
      "transferOwnership(address)": {
        "details": "Transfers ownership of the contract to a new account (`newOwner`). Can only be called by the current owner."
      },
      "withdraw(address,uint256)": {
        "details": "withdraw the ERC20 token",
        "params": {
          "amount": "The amount of the lptoken (For max: `uint256(-1)`) Returns a boolean value indicating whether the operation succeeded. Emits a {Withdraw} event.*",
          "token": "The address of the token to withdraw.(For MATIC: 0xEeeeeEeeeEeEeeEeEeEeeEEEeeeeEeeeeeeeEEeE)"
        }
      },
      "withdrawByEth(uint256)": {
        "details": "withdraw the mainet basis token",
        "params": {
          "amount": "The amount of the token to withdraw.(For max: `uint256(-1)`) Returns a boolean value indicating whether the operation succeeded. Emits a {Withdraw} event.*"
        }
      }
    },
    "version": 1
  },
  "userdoc": {
    "kind": "user",
    "methods": {},
    "version": 1
  }
}