{
  "contractName": "GunpoolMock",
  "abi": [
    {
      "inputs": [
        {
          "internalType": "address",
          "name": "token",
          "type": "address"
        },
        {
          "internalType": "address",
          "name": "gpAddress",
          "type": "address"
        },
        {
          "internalType": "address",
          "name": "lendpoolAddress",
          "type": "address"
        }
      ],
      "name": "initReserve",
      "outputs": [],
      "stateMutability": "nonpayable",
      "type": "function"
    },
    {
      "inputs": [
        {
          "internalType": "address",
          "name": "token",
          "type": "address"
        },
        {
          "internalType": "enum GunPoolContext.PlaneType",
          "name": "pt",
          "type": "uint8"
        }
      ],
      "name": "getPlanes",
      "outputs": [
        {
          "components": [
            {
              "internalType": "address",
              "name": "plane",
              "type": "address"
            },
            {
              "internalType": "address",
              "name": "gptoken",
              "type": "address"
            }
          ],
          "internalType": "struct GunPoolContext.PlaneContext",
          "name": "",
          "type": "tuple"
        }
      ],
      "stateMutability": "view",
      "type": "function"
    },
    {
      "inputs": [
        {
          "internalType": "address",
          "name": "gpToken",
          "type": "address"
        },
        {
          "internalType": "uint256",
          "name": "amount",
          "type": "uint256"
        }
      ],
      "name": "mint",
      "outputs": [
        {
          "internalType": "bool",
          "name": "",
          "type": "bool"
        }
      ],
      "stateMutability": "nonpayable",
      "type": "function"
    },
    {
      "inputs": [
        {
          "internalType": "address",
          "name": "gpToken",
          "type": "address"
        },
        {
          "internalType": "uint256",
          "name": "amount",
          "type": "uint256"
        }
      ],
      "name": "burn",
      "outputs": [],
      "stateMutability": "nonpayable",
      "type": "function"
    },
    {
      "inputs": [
        {
          "internalType": "address",
          "name": "gpToken",
          "type": "address"
        },
        {
          "internalType": "address",
          "name": "account",
          "type": "address"
        }
      ],
      "name": "balanceOf",
      "outputs": [
        {
          "internalType": "uint256",
          "name": "",
          "type": "uint256"
        }
      ],
      "stateMutability": "view",
      "type": "function"
    }
  ],
  "bytecode": "0x608060405234801561001057600080fd5b50610510806100206000396000f3fe608060405234801561001057600080fd5b50600436106100575760003560e01c806340c10f191461005c578063932f12c8146100855780639dc29fac1461009a578063b2751b4c146100ad578063f7888aec146100cd575b600080fd5b61006f61006a36600461040d565b6100ed565b60405161007c91906104a3565b60405180910390f35b61009861009336600461038e565b610179565b005b6100986100a836600461040d565b6101d8565b6100c06100bb3660046103d3565b61023c565b60405161007c91906104ae565b6100e06100db36600461035a565b6102ad565b60405161007c91906104d1565b6040516340c10f1960e01b81526000906001600160a01b038416906340c10f199061011e903390869060040161048a565b602060405180830381600087803b15801561013857600080fd5b505af115801561014c573d6000803e3d6000fd5b505050506040513d601f19601f820116820180604052508101906101709190610437565b90505b92915050565b6001600160a01b03928316600090815260208181526040808320600601805460ff19169055600180835281842084805280845291842090810180549688166001600160a01b031997881617905592805290528054919093169116179055565b604051632770a7eb60e21b81526001600160a01b03831690639dc29fac90610206903390859060040161048a565b600060405180830381600087803b15801561022057600080fd5b505af1158015610234573d6000803e3d6000fd5b505050505050565b61024461032c565b6001600160a01b03831660009081526001602052604081209083801561026657fe5b801561026e57fe5b81526020808201929092526040908101600020815180830190925280546001600160a01b03908116835260019091015416918101919091529392505050565b6040516370a0823160e01b81526000906001600160a01b038416906370a08231906102dc908590600401610476565b60206040518083038186803b1580156102f457600080fd5b505afa158015610308573d6000803e3d6000fd5b505050506040513d601f19601f82011682018060405250810190610170919061045e565b604080518082019091526000808252602082015290565b80356001600160a01b038116811461017357600080fd5b6000806040838503121561036c578182fd5b6103768484610343565b91506103858460208501610343565b90509250929050565b6000806000606084860312156103a2578081fd5b6103ac8585610343565b92506103bb8560208601610343565b91506103ca8560408601610343565b90509250925092565b600080604083850312156103e5578182fd5b6103ef8484610343565b9150602083013560018110610402578182fd5b809150509250929050565b6000806040838503121561041f578182fd5b6104298484610343565b946020939093013593505050565b600060208284031215610448578081fd5b81518015158114610457578182fd5b9392505050565b60006020828403121561046f578081fd5b5051919050565b6001600160a01b0391909116815260200190565b6001600160a01b03929092168252602082015260400190565b901515815260200190565b81516001600160a01b039081168252602092830151169181019190915260400190565b9081526020019056fea2646970667358221220e4fc173f38f7c3d49ac02572af170bc04e848efd3d34770bfcba107c309caa9564736f6c634300060c0033",
  "immutableReferences": {},
  "source": "// SPDX-License-Identifier: agpl-3.0\r\npragma solidity >=0.4.22 <0.9.0;\r\npragma experimental ABIEncoderV2;\r\n\r\nimport {GunPoolContext} from \"../protocol/gunpool/GunPoolContext.sol\";\r\nimport {IGPToken} from \"../interfaces/IGPToken.sol\";\r\n\r\ncontract GunpoolMock {\r\n\r\n  mapping (address => GunPoolContext.ReserveData) internal _reserves;\r\n  mapping (address => mapping(GunPoolContext.PlaneType => GunPoolContext.PlaneContext)) internal _planes;\r\n\r\n  function initReserve(\r\n    address token,\r\n    address gpAddress,\r\n    address lendpoolAddress\r\n  )\r\n    external\r\n  {\r\n    _reserves[token].pt = GunPoolContext.PlaneType.AAVE;\r\n    _planes[token][GunPoolContext.PlaneType.AAVE].gptoken = gpAddress;\r\n    _planes[token][GunPoolContext.PlaneType.AAVE].plane = lendpoolAddress;\r\n  }\r\n\r\n  function getPlanes(address token, GunPoolContext.PlaneType pt)\r\n    external\r\n    view\r\n    returns (GunPoolContext.PlaneContext memory)\r\n  {\r\n    return _planes[token][pt];\r\n  }\r\n\r\n  function mint(\r\n    address gpToken,\r\n    uint256 amount\r\n  )\r\n    external returns(bool)\r\n  {\r\n    return IGPToken(gpToken).mint(msg.sender, amount);\r\n  }\r\n\r\n  function burn(\r\n    address gpToken,\r\n    uint256 amount\r\n  )\r\n    external\r\n  {\r\n    IGPToken(gpToken).burn(msg.sender, amount);\r\n  }\r\n\r\n  function balanceOf(\r\n    address gpToken,\r\n    address account\r\n  )\r\n    external\r\n    view\r\n    returns (uint256)\r\n  {\r\n    return IGPToken(gpToken).balanceOf(account);\r\n  }\r\n\r\n}\r\n",
  "sourcePath": "E:\\my_work\\Eos\\polylend\\core\\protocol_v1\\contracts\\mock\\GunpoolMock.sol",
  "compiler": {
    "name": "solc",
    "version": "0.6.12+commit.27d51765.Emscripten.clang"
  },
  "schemaVersion": "3.4.2",
  "updatedAt": "2021-08-10T11:43:49.449Z",
  "devdoc": {
    "kind": "dev",
    "methods": {},
    "version": 1
  },
  "userdoc": {
    "kind": "user",
    "methods": {},
    "version": 1
  }
}