{
  "contractName": "GunpoolMock",
  "abi": [
    {
      "inputs": [
        {
          "internalType": "address",
          "name": "token",
          "type": "address"
        },
        {
          "internalType": "address",
          "name": "gpAddress",
          "type": "address"
        },
        {
          "internalType": "address",
          "name": "lendpoolAddress",
          "type": "address"
        }
      ],
      "name": "initReserve",
      "outputs": [],
      "stateMutability": "nonpayable",
      "type": "function"
    },
    {
      "inputs": [
        {
          "internalType": "address",
          "name": "token",
          "type": "address"
        },
        {
          "internalType": "enum GunPoolContext.PlaneType",
          "name": "pt",
          "type": "uint8"
        }
      ],
      "name": "getPlanes",
      "outputs": [
        {
          "components": [
            {
              "internalType": "address",
              "name": "plane",
              "type": "address"
            },
            {
              "internalType": "address",
              "name": "gptoken",
              "type": "address"
            }
          ],
          "internalType": "struct GunPoolContext.PlaneContext",
          "name": "",
          "type": "tuple"
        }
      ],
      "stateMutability": "view",
      "type": "function"
    },
    {
      "inputs": [
        {
          "internalType": "address",
          "name": "gpToken",
          "type": "address"
        },
        {
          "internalType": "uint256",
          "name": "amount",
          "type": "uint256"
        }
      ],
      "name": "mint",
      "outputs": [
        {
          "internalType": "bool",
          "name": "",
          "type": "bool"
        }
      ],
      "stateMutability": "nonpayable",
      "type": "function"
    },
    {
      "inputs": [
        {
          "internalType": "address",
          "name": "gpToken",
          "type": "address"
        },
        {
          "internalType": "uint256",
          "name": "amount",
          "type": "uint256"
        }
      ],
      "name": "burn",
      "outputs": [],
      "stateMutability": "nonpayable",
      "type": "function"
    },
    {
      "inputs": [
        {
          "internalType": "address",
          "name": "gpToken",
          "type": "address"
        },
        {
          "internalType": "address",
          "name": "account",
          "type": "address"
        }
      ],
      "name": "balanceOf",
      "outputs": [
        {
          "internalType": "uint256",
          "name": "",
          "type": "uint256"
        }
      ],
      "stateMutability": "view",
      "type": "function"
    }
  ],
  "bytecode": "0x608060405234801561001057600080fd5b506104d3806100206000396000f3fe608060405234801561001057600080fd5b50600436106100575760003560e01c806340c10f191461005c578063932f12c8146100845780639dc29fac146100f3578063b2751b4c14610106578063f7888aec14610140575b600080fd5b61006f61006a366004610422565b610161565b60405190151581526020015b60405180910390f35b6100f16100923660046103a4565b6001600160a01b03928316600090815260208181526040808320600601805460ff19169055600180835281842084805280845291842090810180549688166001600160a01b031997881617905592805290528054919093169116179055565b005b6100f1610101366004610422565b6101eb565b6101196101143660046103e7565b61024f565b6040805182516001600160a01b03908116825260209384015116928101929092520161007b565b61015361014e366004610371565b6102d8565b60405190815260200161007b565b6040516340c10f1960e01b8152336004820152602481018290526000906001600160a01b038416906340c10f1990604401602060405180830381600087803b1580156101ac57600080fd5b505af11580156101c0573d6000803e3d6000fd5b505050506040513d601f19601f820116820180604052508101906101e4919061044c565b9392505050565b604051632770a7eb60e21b8152336004820152602481018290526001600160a01b03831690639dc29fac90604401600060405180830381600087803b15801561023357600080fd5b505af1158015610247573d6000803e3d6000fd5b505050505050565b60408051808201909152600080825260208201526001600160a01b03831660009081526001602052604081209083801561028b5761028b610487565b801561029957610299610487565b81526020808201929092526040908101600020815180830190925280546001600160a01b03908116835260019091015416918101919091529392505050565b6040516370a0823160e01b81526001600160a01b038281166004830152600091908416906370a082319060240160206040518083038186803b15801561031d57600080fd5b505afa158015610331573d6000803e3d6000fd5b505050506040513d601f19601f820116820180604052508101906101e4919061046e565b80356001600160a01b038116811461036c57600080fd5b919050565b6000806040838503121561038457600080fd5b61038d83610355565b915061039b60208401610355565b90509250929050565b6000806000606084860312156103b957600080fd5b6103c284610355565b92506103d060208501610355565b91506103de60408501610355565b90509250925092565b600080604083850312156103fa57600080fd5b61040383610355565b915060208301356001811061041757600080fd5b809150509250929050565b6000806040838503121561043557600080fd5b61043e83610355565b946020939093013593505050565b60006020828403121561045e57600080fd5b815180151581146101e457600080fd5b60006020828403121561048057600080fd5b5051919050565b634e487b7160e01b600052602160045260246000fdfea2646970667358221220f4c0673a373bee53f27e97201440591eba42b9a02016167f698d870670de167164736f6c63430008070033",
  "immutableReferences": {},
  "source": "// SPDX-License-Identifier: agpl-3.0\r\npragma solidity ^0.8.0;\r\npragma experimental ABIEncoderV2;\r\n\r\nimport {GunPoolContext} from \"../protocol/gunpool/GunPoolContext.sol\";\r\nimport {IGPToken} from \"../interfaces/IGPToken.sol\";\r\n\r\ncontract GunpoolMock {\r\n\r\n  mapping (address => GunPoolContext.ReserveData) internal _reserves;\r\n  mapping (address => mapping(GunPoolContext.PlaneType => GunPoolContext.PlaneContext)) internal _planes;\r\n\r\n  function initReserve(\r\n    address token,\r\n    address gpAddress,\r\n    address lendpoolAddress\r\n  )\r\n    external\r\n  {\r\n    _reserves[token].pt = GunPoolContext.PlaneType.AAVE;\r\n    _planes[token][GunPoolContext.PlaneType.AAVE].gptoken = gpAddress;\r\n    _planes[token][GunPoolContext.PlaneType.AAVE].plane = lendpoolAddress;\r\n  }\r\n\r\n  function getPlanes(address token, GunPoolContext.PlaneType pt)\r\n    external\r\n    view\r\n    returns (GunPoolContext.PlaneContext memory)\r\n  {\r\n    return _planes[token][pt];\r\n  }\r\n\r\n  function mint(\r\n    address gpToken,\r\n    uint256 amount\r\n  )\r\n    external returns(bool)\r\n  {\r\n    return IGPToken(gpToken).mint(msg.sender, amount);\r\n  }\r\n\r\n  function burn(\r\n    address gpToken,\r\n    uint256 amount\r\n  )\r\n    external\r\n  {\r\n    IGPToken(gpToken).burn(msg.sender, amount);\r\n  }\r\n\r\n  function balanceOf(\r\n    address gpToken,\r\n    address account\r\n  )\r\n    external\r\n    view\r\n    returns (uint256)\r\n  {\r\n    return IGPToken(gpToken).balanceOf(account);\r\n  }\r\n\r\n}\r\n",
  "sourcePath": "E:\\my_work\\Eos\\polylend\\core\\protocol_v1\\contracts\\mock\\GunpoolMock.sol",
  "compiler": {
    "name": "solc",
    "version": "0.8.7+commit.e28d00a7.Emscripten.clang"
  },
  "schemaVersion": "3.4.2",
  "updatedAt": "2021-08-19T02:20:52.382Z",
  "devdoc": {
    "kind": "dev",
    "methods": {},
    "version": 1
  },
  "userdoc": {
    "kind": "user",
    "methods": {},
    "version": 1
  }
}