{
  "contractName": "GunPool",
  "abi": [
    {
      "inputs": [
        {
          "internalType": "address",
          "name": "weth",
          "type": "address"
        }
      ],
      "stateMutability": "nonpayable",
      "type": "constructor"
    },
    {
      "anonymous": false,
      "inputs": [
        {
          "indexed": true,
          "internalType": "address",
          "name": "from",
          "type": "address"
        },
        {
          "indexed": true,
          "internalType": "address",
          "name": "to",
          "type": "address"
        },
        {
          "indexed": false,
          "internalType": "uint256",
          "name": "amount",
          "type": "uint256"
        }
      ],
      "name": "Claim",
      "type": "event"
    },
    {
      "anonymous": false,
      "inputs": [
        {
          "indexed": true,
          "internalType": "address",
          "name": "token",
          "type": "address"
        },
        {
          "indexed": true,
          "internalType": "address",
          "name": "user",
          "type": "address"
        },
        {
          "indexed": false,
          "internalType": "uint256",
          "name": "amount",
          "type": "uint256"
        }
      ],
      "name": "Deposit",
      "type": "event"
    },
    {
      "anonymous": false,
      "inputs": [
        {
          "indexed": true,
          "internalType": "address",
          "name": "token",
          "type": "address"
        },
        {
          "components": [
            {
              "internalType": "uint256",
              "name": "mintSupply",
              "type": "uint256"
            },
            {
              "internalType": "uint256",
              "name": "mintMaxSupply",
              "type": "uint256"
            },
            {
              "internalType": "uint256",
              "name": "mintRateBySec",
              "type": "uint256"
            },
            {
              "internalType": "uint256",
              "name": "lastMintTime",
              "type": "uint256"
            },
            {
              "internalType": "uint256",
              "name": "lastSupply",
              "type": "uint256"
            },
            {
              "internalType": "uint256",
              "name": "mintCapacity",
              "type": "uint256"
            }
          ],
          "indexed": false,
          "internalType": "struct GunPoolContext.PcoinReward",
          "name": "pcoin",
          "type": "tuple"
        },
        {
          "indexed": false,
          "internalType": "address[]",
          "name": "gptAddress",
          "type": "address[]"
        }
      ],
      "name": "InitReserve",
      "type": "event"
    },
    {
      "anonymous": false,
      "inputs": [
        {
          "indexed": false,
          "internalType": "string",
          "name": "msg",
          "type": "string"
        },
        {
          "indexed": false,
          "internalType": "uint256",
          "name": "value",
          "type": "uint256"
        }
      ],
      "name": "Log",
      "type": "event"
    },
    {
      "anonymous": false,
      "inputs": [
        {
          "indexed": true,
          "internalType": "address",
          "name": "previousOwner",
          "type": "address"
        },
        {
          "indexed": true,
          "internalType": "address",
          "name": "newOwner",
          "type": "address"
        }
      ],
      "name": "OwnershipTransferred",
      "type": "event"
    },
    {
      "anonymous": false,
      "inputs": [
        {
          "indexed": true,
          "internalType": "address",
          "name": "token",
          "type": "address"
        },
        {
          "indexed": false,
          "internalType": "bool",
          "name": "frozen",
          "type": "bool"
        }
      ],
      "name": "Pause",
      "type": "event"
    },
    {
      "anonymous": false,
      "inputs": [
        {
          "indexed": true,
          "internalType": "address",
          "name": "token",
          "type": "address"
        },
        {
          "components": [
            {
              "internalType": "uint256",
              "name": "mintSupply",
              "type": "uint256"
            },
            {
              "internalType": "uint256",
              "name": "mintMaxSupply",
              "type": "uint256"
            },
            {
              "internalType": "uint256",
              "name": "mintRateBySec",
              "type": "uint256"
            },
            {
              "internalType": "uint256",
              "name": "lastMintTime",
              "type": "uint256"
            },
            {
              "internalType": "uint256",
              "name": "lastSupply",
              "type": "uint256"
            },
            {
              "internalType": "uint256",
              "name": "mintCapacity",
              "type": "uint256"
            }
          ],
          "indexed": false,
          "internalType": "struct GunPoolContext.PcoinReward",
          "name": "pcoin",
          "type": "tuple"
        }
      ],
      "name": "ResetPcoinReward",
      "type": "event"
    },
    {
      "anonymous": false,
      "inputs": [
        {
          "indexed": true,
          "internalType": "address",
          "name": "token",
          "type": "address"
        },
        {
          "indexed": true,
          "internalType": "enum GunPoolContext.PlaneType",
          "name": "pt",
          "type": "uint8"
        },
        {
          "components": [
            {
              "internalType": "address",
              "name": "plane",
              "type": "address"
            },
            {
              "internalType": "address",
              "name": "gptoken",
              "type": "address"
            }
          ],
          "indexed": false,
          "internalType": "struct GunPoolContext.PlaneContext",
          "name": "pc",
          "type": "tuple"
        }
      ],
      "name": "ResetPlane",
      "type": "event"
    },
    {
      "anonymous": false,
      "inputs": [
        {
          "indexed": false,
          "internalType": "address",
          "name": "feeAccount",
          "type": "address"
        },
        {
          "indexed": false,
          "internalType": "uint16",
          "name": "permillage",
          "type": "uint16"
        }
      ],
      "name": "SetFeeto",
      "type": "event"
    },
    {
      "anonymous": false,
      "inputs": [
        {
          "indexed": true,
          "internalType": "address",
          "name": "pcoinAddress",
          "type": "address"
        }
      ],
      "name": "SetPcoinAddress",
      "type": "event"
    },
    {
      "anonymous": false,
      "inputs": [
        {
          "indexed": true,
          "internalType": "address",
          "name": "token",
          "type": "address"
        },
        {
          "indexed": true,
          "internalType": "address",
          "name": "user",
          "type": "address"
        },
        {
          "indexed": false,
          "internalType": "uint256",
          "name": "amount",
          "type": "uint256"
        }
      ],
      "name": "Withdraw",
      "type": "event"
    },
    {
      "stateMutability": "payable",
      "type": "fallback"
    },
    {
      "inputs": [],
      "name": "owner",
      "outputs": [
        {
          "internalType": "address",
          "name": "",
          "type": "address"
        }
      ],
      "stateMutability": "view",
      "type": "function"
    },
    {
      "inputs": [],
      "name": "renounceOwnership",
      "outputs": [],
      "stateMutability": "nonpayable",
      "type": "function"
    },
    {
      "inputs": [
        {
          "internalType": "address",
          "name": "newOwner",
          "type": "address"
        }
      ],
      "name": "transferOwnership",
      "outputs": [],
      "stateMutability": "nonpayable",
      "type": "function"
    },
    {
      "stateMutability": "payable",
      "type": "receive"
    },
    {
      "inputs": [
        {
          "internalType": "address",
          "name": "token",
          "type": "address"
        },
        {
          "components": [
            {
              "internalType": "enum GunPoolContext.PlaneType",
              "name": "pt",
              "type": "uint8"
            },
            {
              "components": [
                {
                  "internalType": "address",
                  "name": "plane",
                  "type": "address"
                },
                {
                  "internalType": "address",
                  "name": "gptoken",
                  "type": "address"
                }
              ],
              "internalType": "struct GunPoolContext.PlaneContext",
              "name": "plane",
              "type": "tuple"
            }
          ],
          "internalType": "struct GunPoolContext.PlaneInitInput[]",
          "name": "planes",
          "type": "tuple[]"
        },
        {
          "components": [
            {
              "internalType": "uint256",
              "name": "mintSupply",
              "type": "uint256"
            },
            {
              "internalType": "uint256",
              "name": "mintMaxSupply",
              "type": "uint256"
            },
            {
              "internalType": "uint256",
              "name": "mintRateBySec",
              "type": "uint256"
            },
            {
              "internalType": "uint256",
              "name": "lastMintTime",
              "type": "uint256"
            },
            {
              "internalType": "uint256",
              "name": "lastSupply",
              "type": "uint256"
            },
            {
              "internalType": "uint256",
              "name": "mintCapacity",
              "type": "uint256"
            }
          ],
          "internalType": "struct GunPoolContext.PcoinReward",
          "name": "pcoin",
          "type": "tuple"
        }
      ],
      "name": "initReserve",
      "outputs": [],
      "stateMutability": "nonpayable",
      "type": "function"
    },
    {
      "inputs": [
        {
          "internalType": "address",
          "name": "token",
          "type": "address"
        },
        {
          "components": [
            {
              "internalType": "uint256",
              "name": "mintSupply",
              "type": "uint256"
            },
            {
              "internalType": "uint256",
              "name": "mintMaxSupply",
              "type": "uint256"
            },
            {
              "internalType": "uint256",
              "name": "mintRateBySec",
              "type": "uint256"
            },
            {
              "internalType": "uint256",
              "name": "lastMintTime",
              "type": "uint256"
            },
            {
              "internalType": "uint256",
              "name": "lastSupply",
              "type": "uint256"
            },
            {
              "internalType": "uint256",
              "name": "mintCapacity",
              "type": "uint256"
            }
          ],
          "internalType": "struct GunPoolContext.PcoinReward",
          "name": "pcoin",
          "type": "tuple"
        }
      ],
      "name": "resetPcoinReward",
      "outputs": [],
      "stateMutability": "nonpayable",
      "type": "function"
    },
    {
      "inputs": [
        {
          "internalType": "address",
          "name": "token",
          "type": "address"
        },
        {
          "components": [
            {
              "internalType": "enum GunPoolContext.PlaneType",
              "name": "pt",
              "type": "uint8"
            },
            {
              "components": [
                {
                  "internalType": "address",
                  "name": "plane",
                  "type": "address"
                },
                {
                  "internalType": "address",
                  "name": "gptoken",
                  "type": "address"
                }
              ],
              "internalType": "struct GunPoolContext.PlaneContext",
              "name": "plane",
              "type": "tuple"
            }
          ],
          "internalType": "struct GunPoolContext.PlaneInitInput",
          "name": "planeInput",
          "type": "tuple"
        }
      ],
      "name": "resetPlane",
      "outputs": [],
      "stateMutability": "nonpayable",
      "type": "function"
    },
    {
      "inputs": [
        {
          "internalType": "address",
          "name": "token",
          "type": "address"
        },
        {
          "internalType": "bool",
          "name": "frozen",
          "type": "bool"
        }
      ],
      "name": "pause",
      "outputs": [],
      "stateMutability": "nonpayable",
      "type": "function"
    },
    {
      "inputs": [
        {
          "internalType": "address",
          "name": "pcoinAddress",
          "type": "address"
        }
      ],
      "name": "setPcoinAddress",
      "outputs": [],
      "stateMutability": "nonpayable",
      "type": "function"
    },
    {
      "inputs": [
        {
          "components": [
            {
              "internalType": "address",
              "name": "account",
              "type": "address"
            },
            {
              "internalType": "uint16",
              "name": "permillage",
              "type": "uint16"
            }
          ],
          "internalType": "struct GunPoolContext.FeeContext",
          "name": "feeTo",
          "type": "tuple"
        }
      ],
      "name": "setFeeto",
      "outputs": [],
      "stateMutability": "nonpayable",
      "type": "function"
    },
    {
      "inputs": [
        {
          "internalType": "address",
          "name": "token",
          "type": "address"
        }
      ],
      "name": "getDepositAPY",
      "outputs": [
        {
          "internalType": "uint256",
          "name": "",
          "type": "uint256"
        }
      ],
      "stateMutability": "view",
      "type": "function"
    },
    {
      "inputs": [],
      "name": "getDepositAccounts",
      "outputs": [
        {
          "internalType": "uint32",
          "name": "",
          "type": "uint32"
        }
      ],
      "stateMutability": "view",
      "type": "function"
    },
    {
      "inputs": [
        {
          "internalType": "address",
          "name": "token",
          "type": "address"
        },
        {
          "internalType": "uint256",
          "name": "amount",
          "type": "uint256"
        }
      ],
      "name": "deposit",
      "outputs": [],
      "stateMutability": "nonpayable",
      "type": "function"
    },
    {
      "inputs": [
        {
          "internalType": "address",
          "name": "token",
          "type": "address"
        },
        {
          "internalType": "uint256",
          "name": "amount",
          "type": "uint256"
        }
      ],
      "name": "withdraw",
      "outputs": [
        {
          "internalType": "uint256",
          "name": "",
          "type": "uint256"
        }
      ],
      "stateMutability": "nonpayable",
      "type": "function"
    },
    {
      "inputs": [],
      "name": "depositByEth",
      "outputs": [],
      "stateMutability": "payable",
      "type": "function"
    },
    {
      "inputs": [
        {
          "internalType": "uint256",
          "name": "amount",
          "type": "uint256"
        }
      ],
      "name": "withdrawByEth",
      "outputs": [],
      "stateMutability": "nonpayable",
      "type": "function"
    },
    {
      "inputs": [
        {
          "internalType": "address",
          "name": "to",
          "type": "address"
        }
      ],
      "name": "claim",
      "outputs": [
        {
          "internalType": "uint256",
          "name": "",
          "type": "uint256"
        }
      ],
      "stateMutability": "nonpayable",
      "type": "function"
    },
    {
      "inputs": [
        {
          "internalType": "address",
          "name": "token",
          "type": "address"
        }
      ],
      "name": "getReserve",
      "outputs": [
        {
          "components": [
            {
              "components": [
                {
                  "internalType": "uint256",
                  "name": "mintSupply",
                  "type": "uint256"
                },
                {
                  "internalType": "uint256",
                  "name": "mintMaxSupply",
                  "type": "uint256"
                },
                {
                  "internalType": "uint256",
                  "name": "mintRateBySec",
                  "type": "uint256"
                },
                {
                  "internalType": "uint256",
                  "name": "lastMintTime",
                  "type": "uint256"
                },
                {
                  "internalType": "uint256",
                  "name": "lastSupply",
                  "type": "uint256"
                },
                {
                  "internalType": "uint256",
                  "name": "mintCapacity",
                  "type": "uint256"
                }
              ],
              "internalType": "struct GunPoolContext.PcoinReward",
              "name": "pcoin",
              "type": "tuple"
            },
            {
              "internalType": "enum GunPoolContext.PlaneType",
              "name": "pt",
              "type": "uint8"
            },
            {
              "internalType": "bool",
              "name": "isFrozen",
              "type": "bool"
            },
            {
              "internalType": "bool",
              "name": "lock",
              "type": "bool"
            }
          ],
          "internalType": "struct GunPoolContext.ReserveData",
          "name": "",
          "type": "tuple"
        }
      ],
      "stateMutability": "view",
      "type": "function"
    },
    {
      "inputs": [
        {
          "internalType": "address",
          "name": "token",
          "type": "address"
        },
        {
          "internalType": "enum GunPoolContext.PlaneType",
          "name": "pt",
          "type": "uint8"
        }
      ],
      "name": "getPlanes",
      "outputs": [
        {
          "components": [
            {
              "internalType": "address",
              "name": "plane",
              "type": "address"
            },
            {
              "internalType": "address",
              "name": "gptoken",
              "type": "address"
            }
          ],
          "internalType": "struct GunPoolContext.PlaneContext",
          "name": "",
          "type": "tuple"
        }
      ],
      "stateMutability": "view",
      "type": "function"
    },
    {
      "inputs": [
        {
          "internalType": "address",
          "name": "user",
          "type": "address"
        }
      ],
      "name": "rewardBalanceOf",
      "outputs": [
        {
          "internalType": "uint256",
          "name": "amount",
          "type": "uint256"
        }
      ],
      "stateMutability": "view",
      "type": "function"
    }
  ],
  "bytecode": "0x60a06040523480156200001157600080fd5b50604051620037a7380380620037a78339810160408190526200003491620000d0565b600062000040620000cc565b600080546001600160a01b0319166001600160a01b0383169081178255604051929350917f8be0079c531659141344cd1fd0a4f28419497f9722a3daafe3b4186f6b6457e0908290a3506005805463ffffffff1990811690915560609190911b6001600160601b031916608052600780546001600160b01b031916905560088054909116905562000100565b3390565b600060208284031215620000e2578081fd5b81516001600160a01b0381168114620000f9578182fd5b9392505050565b60805160601c61366662000141600039806101285280610b6a5280610ba9528061108e52806111055280611bb952806127da528061297752506136666000f3fe6080604052600436106101185760003560e01c806384659d5d116100a0578063c9a396e911610064578063c9a396e91461034c578063e964b64414610379578063f2fde38b14610399578063f3fef3a3146103b9578063fd3f5e52146103d957610170565b806384659d5d146102b35780638da5cb5b146102d5578063a09f52aa146102f7578063b2751b4c14610317578063bc66c1d91461034457610170565b80634d689130116100e75780634d6891301461021e578063534815fb1461023e5780635e32fae11461025e578063715018a61461027e578063727b32511461029357610170565b80631e83409a146101885780632279ce70146101be57806346ce827d146101de57806347e7ef24146101fe57610170565b3661017057336001600160a01b037f0000000000000000000000000000000000000000000000000000000000000000161461016e5760405162461bcd60e51b8152600401610165906132bf565b60405180910390fd5b005b60405162461bcd60e51b81526004016101659061321c565b34801561019457600080fd5b506101a86101a3366004612d78565b6103f9565b6040516101b59190613593565b60405180910390f35b3480156101ca57600080fd5b5061016e6101d9366004612d94565b61040c565b3480156101ea57600080fd5b506101a86101f9366004612d78565b6108a6565b34801561020a57600080fd5b5061016e610219366004612f03565b610a8d565b34801561022a57600080fd5b5061016e610239366004613094565b610b63565b34801561024a57600080fd5b5061016e610259366004612d78565b610c1e565b34801561026a57600080fd5b5061016e610279366004612f66565b610c9d565b34801561028a57600080fd5b5061016e610da7565b34801561029f57600080fd5b5061016e6102ae366004612e8f565b610e26565b3480156102bf57600080fd5b506102c8610f56565b6040516101b5919061359c565b3480156102e157600080fd5b506102ea610f62565b6040516101b59190613120565b34801561030357600080fd5b5061016e610312366004612e2a565b610f71565b34801561032357600080fd5b50610337610332366004612e62565b611014565b6040516101b591906134ed565b61016e611087565b34801561035857600080fd5b5061036c610367366004612d78565b61112d565b6040516101b59190613510565b34801561038557600080fd5b506101a8610394366004612d78565b6111e6565b3480156103a557600080fd5b5061016e6103b4366004612d78565b6113d3565b3480156103c557600080fd5b506101a86103d4366004612f03565b611489565b3480156103e557600080fd5b5061016e6103f4366004612ec4565b611565565b600061040482611763565b90505b919050565b610414611aac565b6000546001600160a01b039081169116146104415760405162461bcd60e51b815260040161016590613364565b6040805180820190915260018152600360fc1b60208201526001600160a01b0385166104805760405162461bcd60e51b815260040161016591906131e9565b50610493846001600160a01b0316611ab0565b604051806040016040528060018152602001603160f81b815250906104cb5760405162461bcd60e51b815260040161016591906131e9565b5060005b60055463ffffffff908116908216101561054a5763ffffffff811660009081526004602090815260409182902054825180840190935260018352603960f81b918301919091526001600160a01b03878116911614156105415760405162461bcd60e51b815260040161016591906131e9565b506001016104cf565b506001600160a01b0384166000908152600260208181526040808420815160c08101835285815286840135938101849052868301359281018390524260608083018290526080830188905260a0909201879052868355600183019490945593810191909155600381019190915560048101839055600581019290925560068201805462ffffff191690558367ffffffffffffffff811180156105eb57600080fd5b50604051908082528060200260200182016040528015610615578160200160208202803683370190505b5090506000805b858110156107d957600087878381811061063257fe5b6106489260206060909202019081019150612f4a565b801561065057fe5b14156107d157604051806040016040528088888481811061066d57fe5b6106869260406060909202019081019150602001612d78565b6001600160a01b031681526020018888848181106106a057fe5b6106b7926060918202019081019150604001612d78565b6001600160a01b0390811690915289166000908152600660205260408120908989858181106106e257fe5b6106f89260206060909202019081019150612f4a565b801561070057fe5b801561070857fe5b8152602080820192909252604001600020825181546001600160a01b039182166001600160a01b0319918216178355939092015160019182018054919093169316929092179055919091019086868281811061076057fe5b610777926060918202019081019150604001612d78565b83828151811061078357fe5b60200260200101906001600160a01b031690816001600160a01b0316815250506107d1888888848181106107b357fe5b6107cc9260406060909202019081019150602001612d78565b611aec565b60010161061c565b50604080518082019091526002815261031360f41b6020820152816108115760405162461bcd60e51b815260040161016591906131e9565b506005805463ffffffff9081166000908152600460205260409081902080546001600160a01b0319166001600160a01b038c16908117909155835463ffffffff1981169084166001019093169290921790925590517f1f666445da447c32a327c9373b8b5ecd83d65df453ba9953cd4d788db4facdbf906108959087908690613455565b60405180910390a250505050505050565b60006108b0612bda565b6001600160a01b03831660009081526002602081815260409283902083516101408101909452805460808501908152600182015460a08601529281015460c0850152600381015460e08501526004810154610100850152600581015461012085015291835260068201549083019060ff16801561092957fe5b801561093157fe5b81526006919091015460ff610100820481161515602084015262010000909104161515604090910152905060006020820151801561096b57fe5b1415610a8357610979612c08565b6001600160a01b038416600090815260066020908152604082209084015190919080156109a257fe5b80156109aa57fe5b81526020808201929092526040908101600020815180830190925280546001600160a01b03908116808452600190920154169282019290925291506109ed612c1f565b6040516335ea6a7560e01b81526001600160a01b038316906335ea6a7590610a19908990600401613120565b6101806040518083038186803b158015610a3257600080fd5b505afa158015610a46573d6000803e3d6000fd5b505050506040513d601f19601f82011682018060405250810190610a6a9190612f77565b606001516001600160801b031694506104079350505050565b6000915050610407565b6040805180820190915260018152600360fc1b6020820152829082906001600160a01b038316610ad05760405162461bcd60e51b815260040161016591906131e9565b50610ae3826001600160a01b0316611ab0565b604051806040016040528060018152602001603160f81b81525090610b1b5760405162461bcd60e51b815260040161016591906131e9565b506040805180820190915260018152603360f81b602082015281610b525760405162461bcd60e51b815260040161016591906131e9565b50610b5d8484611b73565b50505050565b6000610b8f7f000000000000000000000000000000000000000000000000000000000000000083611ece565b604051632e1a7d4d60e01b81529091506001600160a01b037f00000000000000000000000000000000000000000000000000000000000000001690632e1a7d4d90610bde908490600401613593565b600060405180830381600087803b158015610bf857600080fd5b505af1158015610c0c573d6000803e3d6000fd5b50505050610c1a33826121ce565b5050565b610c26611aac565b6000546001600160a01b03908116911614610c535760405162461bcd60e51b815260040161016590613364565b600180546001600160a01b0319166001600160a01b0383169081179091556040517f4d8c0465f32841877cda1a7f3560b5f1141f69fc530e2c9ac10b92f7029b8d7390600090a250565b610ca5611aac565b6000546001600160a01b03908116911614610cd25760405162461bcd60e51b815260040161016590613364565b6000610ce46040830160208401613072565b9050600a8161ffff161115610cf75750600a5b6040805180820190915280610d0f6020850185612d78565b6001600160a01b03908116825261ffff80851660209384015283516007805495850151909216600160a01b0261ffff60a01b19919093166001600160a01b03199095169490941793909316179091557fbd141520decd44037c2464fbcbac39fdb58aa6bb0061b4bd19371a81f1aa065c90610d8c90840184612d78565b82604051610d9b929190613158565b60405180910390a15050565b610daf611aac565b6000546001600160a01b03908116911614610ddc5760405162461bcd60e51b815260040161016590613364565b600080546040516001600160a01b03909116907f8be0079c531659141344cd1fd0a4f28419497f9722a3daafe3b4186f6b6457e0908390a3600080546001600160a01b0319169055565b610e2e611aac565b6000546001600160a01b03908116911614610e5b5760405162461bcd60e51b815260040161016590613364565b6000805b60055463ffffffff9081169082161015610ead5763ffffffff81166000908152600460205260409020546001600160a01b0385811691161415610ea55760019150610ead565b600101610e5f565b50604080518082019091526002815261313160f01b602082015281610ee55760405162461bcd60e51b815260040161016591906131e9565b506001600160a01b038316600081815260026020818152604092839020908601356001820155858301359181019190915590519091907f7cf54b86656fffb9d1325c50c39e42b7505430adcc9cdd68c9d6bd1d52b0cc3d90610f48908690613447565b60405180910390a250505050565b60085463ffffffff1690565b6000546001600160a01b031690565b610f79611aac565b6000546001600160a01b03908116911614610fa65760405162461bcd60e51b815260040161016590613364565b6001600160a01b0382166000818152600260205260409081902060068101805461ff0019166101008615150217905590519091907f0d7fd1e314b29407db3d79c46ecf1fa3d2108961fab8d20584277358cac41e89906110079085906131de565b60405180910390a2505050565b61101c612c08565b6001600160a01b03831660009081526006602052604081209083801561103e57fe5b801561104657fe5b81526020808201929092526040908101600020815180830190925280546001600160a01b039081168352600190910154169181019190915290505b92915050565b60003490507f00000000000000000000000000000000000000000000000000000000000000006001600160a01b031663d0e30db0346040518263ffffffff1660e01b81526004016000604051808303818588803b1580156110e757600080fd5b505af11580156110fb573d6000803e3d6000fd5b505050505061112a7f000000000000000000000000000000000000000000000000000000000000000082611b73565b50565b611135612bda565b6001600160a01b03821660009081526002602081815260409283902083516101408101909452805460808501908152600182015460a08601529281015460c0850152600381015460e08501526004810154610100850152600581015461012085015291835260068201549083019060ff1680156111ae57fe5b80156111b657fe5b81526006919091015460ff6101008204811615156020840152620100009091041615156040909101529050919050565b60006111f0612bda565b6111f8612c8a565b60008042815b60055463ffffffff90811690821610156113c75763ffffffff81166000908152600460208181526040808420546001600160a01b031680855260028084529482902082516101408101909352805460808401908152600182015460a08501529581015460c0840152600381015460e08401529384015461010083015260058401546101208301529381526006830154939750929083019060ff1680156112a057fe5b80156112a857fe5b81526006919091015460ff610100820481161515602080850191909152620100009092041615156040928301526001600160a01b03808c1660009081526003835283812091891681529082528281208351606081018552815481526001820154938101939093526002015492820192909252825192985096509061132c908461225b565b9050600061134b876020015188604001516122ec90919063ffffffff16565b885160a0015190915061135f90839061232d565b9150600061137a8389604001516122ec90919063ffffffff16565b90506000611399611389612352565b6113938486612362565b906123a4565b89519091506113a990829061232d565b90506113b5878261232d565b965050600190930192506111fe915050565b50909695505050505050565b6113db611aac565b6000546001600160a01b039081169116146114085760405162461bcd60e51b815260040161016590613364565b6001600160a01b03811661142e5760405162461bcd60e51b815260040161016590613279565b600080546040516001600160a01b03808516939216917f8be0079c531659141344cd1fd0a4f28419497f9722a3daafe3b4186f6b6457e091a3600080546001600160a01b0319166001600160a01b0392909216919091179055565b6040805180820190915260018152600360fc1b6020820152600090839083906001600160a01b0383166114cf5760405162461bcd60e51b815260040161016591906131e9565b506114e2826001600160a01b0316611ab0565b604051806040016040528060018152602001603160f81b8152509061151a5760405162461bcd60e51b815260040161016591906131e9565b506040805180820190915260018152603360f81b6020820152816115515760405162461bcd60e51b815260040161016591906131e9565b5061155c8585611ece565b95945050505050565b61156d611aac565b6000546001600160a01b0390811691161461159a5760405162461bcd60e51b815260040161016590613364565b6000805b60055463ffffffff90811690821610156115ec5763ffffffff81166000908152600460205260409020546001600160a01b03858116911614156115e457600191506115ec565b60010161159e565b50604080518082019091526002815261313160f01b6020820152816116245760405162461bcd60e51b815260040161016591906131e9565b506001600160a01b0383166000908152600660209081526040822090829061164e90860186612f4a565b801561165657fe5b801561165e57fe5b815260200190815260200160002090508260200160000160208101906116849190612d78565b81546001600160a01b0319166001600160a01b03919091161781556116af6060840160408501612d78565b6001820180546001600160a01b0319166001600160a01b039290921691909117905560006116e06020850185612f4a565b80156116e857fe5b14156117045780546117049085906001600160a01b0316611aec565b6117116020840184612f4a565b801561171957fe5b846001600160a01b03167f66de2dd922d8f6c758abb9469dc78f035df8c8647dbf551ca17695c6539ff84d8560200160405161175591906134b2565b60405180910390a350505050565b60008080808080805b60055463ffffffff90811690821610156119c25763ffffffff81166000908152600460209081526040808320546001600160a01b0316808452600283528184203385526003845282852082865290935290832060068301549298509650935060ff1680156117d657fe5b14156119ba576117e4612c08565b6001600160a01b038316600090815260066020819052604082209088015490919060ff16801561181057fe5b801561181857fe5b815260208082019290925260409081016000208151808301835281546001600160a01b03908116825260019092015490911681840181905282516318160ddd60e01b815292519097509093506118cc92899288926318160ddd92600480840193919291829003018186803b15801561188f57600080fd5b505afa1580156118a3573d6000803e3d6000fd5b505050506040513d601f19601f820116820180604052508101906118c791906130ac565b6123e6565b6040805160c08101825287548152600188015460208201526002880154918101919091526003870154606082015260048701546080820152600587015460a0820152611919908690612452565b845461192690889061232d565b60008655600587015460018701556040516370a0823160e01b81529097506001600160a01b038516906370a0823190611963903390600401613120565b60206040518083038186803b15801561197b57600080fd5b505afa15801561198f573d6000803e3d6000fd5b505050506040513d601f19601f820116820180604052508101906119b391906130ac565b6002860155505b60010161176c565b506001546001600160a01b0316158015906119dd5750600085115b15611a9e576001546040516340c10f1960e01b81526001600160a01b03909116906340c10f1990611a14908a908990600401613175565b600060405180830381600087803b158015611a2e57600080fd5b505af1158015611a42573d6000803e3d6000fd5b50505050866001600160a01b0316336001600160a01b03167f70eb43c4a8ae8c40502dcf22436c509c28d6ff421cf07c491be56984bd98706887604051611a899190613593565b60405180910390a38495505050505050610407565b600095505050505050610407565b3390565b6000813f7fc5d2460186f7233c927e7db2dcc703c0e500b653ca82273b7bfad8045d85a470818114801590611ae457508115155b949350505050565b60405163095ea7b360e01b81526001600160a01b0383169063095ea7b390611b1c90849060001990600401613175565b602060405180830381600087803b158015611b3657600080fd5b505af1158015611b4a573d6000803e3d6000fd5b505050506040513d601f19601f82011682018060405250810190611b6e9190612f2e565b505050565b6001600160a01b0382166000908152600260205260409020611b94816124cb565b60068101805462ff000019166201000017905560008080806001600160a01b038781167f00000000000000000000000000000000000000000000000000000000000000009190911614611bf657611bf66001600160a01b038816333089612556565b6000600686015460ff168015611c0857fe5b1415611d8f57611c16612c08565b6001600160a01b038816600090815260066020819052604082209088015490919060ff168015611c4257fe5b8015611c4a57fe5b81526020808201929092526040908101600020815180830190925280546001600160a01b03908116808452600190920154169282018390529195509150611c9590899086338b6125ae565b6040516370a0823160e01b81529095506001600160a01b038516906370a0823190611cc4903390600401613120565b60206040518083038186803b158015611cdc57600080fd5b505afa158015611cf0573d6000803e3d6000fd5b505050506040513d601f19601f82011682018060405250810190611d1491906130ac565b9150836001600160a01b03166318160ddd6040518163ffffffff1660e01b815260040160206040518083038186803b158015611d4f57600080fd5b505afa158015611d63573d6000803e3d6000fd5b505050506040513d601f19601f82011682018060405250810190611d8791906130ac565b925050611dbe565b60408051808201825260018152601b60f91b6020820152905162461bcd60e51b815261016591906004016131e9565b611dc885836123e6565b3360009081526003602090815260408083206001600160a01b038b168452909152902084611e3d576040805160c08101825287548152600188015460208201526002880154918101919091526003870154606082015260048701546080820152600587015460a0820152611e3d908290612452565b60058601546001820155600281018290558415611e71576008805463ffffffff8082166001011663ffffffff199091161790555b60068601805462ff00001916905560405133906001600160a01b038a16907f5548c837ab068cf56a2c2479df0882a4922fd203edb7517321831d95078c5f6290611ebc908b90613593565b60405180910390a35050505050505050565b6001600160a01b0382166000908152600260205260408120611eef816124cb565b60068101805462ff0000191662010000179055600080808080600686015460ff168015611f1857fe5b1415611d8f57611f26612c08565b6001600160a01b038916600090815260066020819052604082209088015490919060ff168015611f5257fe5b8015611f5a57fe5b81526020808201929092526040908101600020815180830190925280546001600160a01b03908116808452600190920154169282018390529195509150611fa5908a9086338c6126a2565b9450836001600160a01b03166318160ddd6040518163ffffffff1660e01b815260040160206040518083038186803b158015611fe057600080fd5b505afa158015611ff4573d6000803e3d6000fd5b505050506040513d601f19601f8201168201806040525081019061201891906130ac565b6040516370a0823160e01b81529093506001600160a01b038516906370a0823190612047903390600401613120565b60206040518083038186803b15801561205f57600080fd5b505afa158015612073573d6000803e3d6000fd5b505050506040513d601f19601f8201168201806040525081019061209791906130ac565b9150506120a485836123e6565b3360009081526003602081815260408084206001600160a01b038d168552825292839020835160c0810185528954815260018a01549281019290925260028901549382019390935290870154606082015260048701546080820152600587015460a0820152612114908290612452565b60058601546001820155600281018290558115801561213a575060085463ffffffff1615155b1561215e576008805463ffffffff19811663ffffffff918216600019019091161790555b61216733611763565b50336001600160a01b0316896001600160a01b03167f9b1bfa7fa9ee420a16e124f794c35ac9f90472acc99140eb2f6447c714cad8eb876040516121ab9190613593565b60405180910390a35050506006909201805462ff00001916905591505092915050565b604080516000808252602082019092526001600160a01b0384169083906040516121f89190613104565b60006040518083038185875af1925050503d8060008114612235576040519150601f19603f3d011682016040523d82523d6000602084013e61223a565b606091505b5050905080611b6e5760405162461bcd60e51b8152600401610165906133d0565b6000818360600151108015612274575060008360800151115b156122e457600061229284606001518461236290919063ffffffff16565b905060006122ad8286604001516122ec90919063ffffffff16565b90506122c16122ba612352565b82906122ec565b90506122da8560800151826123a490919063ffffffff16565b9250611081915050565b506000611081565b6000826122fb57506000611081565b8282028284828161230857fe5b04146123265760405162461bcd60e51b815260040161016590613323565b9392505050565b6000828201838110156123265760405162461bcd60e51b8152600401610165906132ec565b6b033b2e3c9fd0803ce800000090565b600061232683836040518060400160405280601e81526020017f536166654d6174683a207375627472616374696f6e206f766572666c6f7700008152506129d1565b600061232683836040518060400160405280601a81526020017f536166654d6174683a206469766973696f6e206279207a65726f0000000000008152506129fd565b600182015482541015610c1a576040805160c08101825283548152600184015460208201526002840154918101919091526003830154606082015260048301546080820152600583015460a08201524290600090612444908361225b565b9050610b5d84848385612a34565b600061246f836001015484600201546122ec90919063ffffffff16565b9050600061248e8360a0015185600201546122ec90919063ffffffff16565b9050600061249c8284612362565b905080156124c4576124c16124b96124b2612352565b83906123a4565b86549061232d565b85555b5050505050565b60068101546040805180820190915260018152600d60fa1b602082015290610100900460ff161561250f5760405162461bcd60e51b815260040161016591906131e9565b506006810154604080518082019091526002815261189960f11b60208201529062010000900460ff1615610c1a5760405162461bcd60e51b815260040161016591906131e9565b610b5d846323b872dd60e01b85858560405160240161257793929190613134565b60408051601f198184030181529190526020810180516001600160e01b03166001600160e01b031990931692909217909152612a7d565b60405163e8eda9df60e01b815260009085906001600160a01b0382169063e8eda9df906125e5908a908790309088906004016131b1565b600060405180830381600087803b1580156125ff57600080fd5b505af1158015612613573d6000803e3d6000fd5b50506040516340c10f1960e01b81526001600160a01b03881692506340c10f1991506126459087908790600401613175565b602060405180830381600087803b15801561265f57600080fd5b505af1158015612673573d6000803e3d6000fd5b505050506040513d601f19601f820116820180604052508101906126979190612f2e565b979650505050505050565b6040516370a0823160e01b81526000908590839083906001600160a01b038816906370a08231906126d7908990600401613120565b60206040518083038186803b1580156126ef57600080fd5b505afa158015612703573d6000803e3d6000fd5b505050506040513d601f19601f8201168201806040525081019061272791906130ac565b905060001985148061273857508085115b15612741578091505b7fdd970dd9b5bfe707922155b058a407655cb18288b807e2216442bca8ad83d6b582604051612770919061324a565b60405180910390a1604051632770a7eb60e21b81526001600160a01b03881690639dc29fac906127a69089908690600401613175565b600060405180830381600087803b1580156127c057600080fd5b505af11580156127d4573d6000803e3d6000fd5b505050507f00000000000000000000000000000000000000000000000000000000000000006001600160a01b0316896001600160a01b0316141561289a57604051631a4ca37b60e21b81526001600160a01b038416906369328dec90612842908c908690309060040161318e565b602060405180830381600087803b15801561285c57600080fd5b505af1158015612870573d6000803e3d6000fd5b505050506040513d601f19601f8201168201806040525081019061289491906130ac565b5061291e565b604051631a4ca37b60e21b81526001600160a01b038416906369328dec906128ca908c9086908b9060040161318e565b602060405180830381600087803b1580156128e457600080fd5b505af11580156128f8573d6000803e3d6000fd5b505050506040513d601f19601f8201168201806040525081019061291c91906130ac565b505b6007546001600160a01b0316158015906129445750600754600160a01b900461ffff1615155b156129c557600754600160a01b900461ffff166129676103e861139385846122ec565b90506129738382612362565b92507f00000000000000000000000000000000000000000000000000000000000000006001600160a01b03168a6001600160a01b0316146129c3576129c36001600160a01b038b16883084612556565b505b50979650505050505050565b600081848411156129f55760405162461bcd60e51b815260040161016591906131e9565b505050900390565b60008183612a1e5760405162461bcd60e51b815260040161016591906131e9565b506000838581612a2a57fe5b0495945050505050565b612a59612a51612a42612352565b600487015461139390866122ec565b85549061232d565b84556005840154612a6a908361232d565b6005850155600384015550600490910155565b6060612ad2826040518060400160405280602081526020017f5361666545524332303a206c6f772d6c6576656c2063616c6c206661696c6564815250856001600160a01b0316612b0c9092919063ffffffff16565b805190915015611b6e5780806020019051810190612af09190612f2e565b611b6e5760405162461bcd60e51b8152600401610165906133fd565b6060611ae484846000856060612b2185611ab0565b612b3d5760405162461bcd60e51b815260040161016590613399565b60006060866001600160a01b03168587604051612b5a9190613104565b60006040518083038185875af1925050503d8060008114612b97576040519150601f19603f3d011682016040523d82523d6000602084013e612b9c565b606091505b50915091508115612bb0579150611ae49050565b805115612bc05780518082602001fd5b8360405162461bcd60e51b815260040161016591906131e9565b6040518060800160405280612bed612cab565b81526020016000815260006020820181905260409091015290565b604080518082019091526000808252602082015290565b604051806101800160405280612c33612ce1565b815260006020820181905260408201819052606082018190526080820181905260a0820181905260c0820181905260e082018190526101008201819052610120820181905261014082018190526101609091015290565b60405180606001604052806000815260200160008152602001600081525090565b6040518060c001604052806000815260200160008152602001600081526020016000815260200160008152602001600081525090565b6040518060200160405280600081525090565b805161108181613600565b600060c08284031215612d10578081fd5b50919050565b600060208284031215612d27578081fd5b612d3160206135ad565b9151825250919050565b80516001600160801b038116811461108157600080fd5b805164ffffffffff8116811461108157600080fd5b805160ff8116811461108157600080fd5b600060208284031215612d89578081fd5b813561232681613600565b6000806000806101008587031215612daa578283fd5b8435612db581613600565b9350602085013567ffffffffffffffff80821115612dd1578485fd5b818701915087601f830112612de4578485fd5b813581811115612df2578586fd5b886020606083028501011115612e06578586fd5b602083019550809450505050612e1f8660408701612cff565b905092959194509250565b60008060408385031215612e3c578182fd5b8235612e4781613600565b91506020830135612e5781613615565b809150509250929050565b60008060408385031215612e74578182fd5b8235612e7f81613600565b91506020830135612e5781613623565b60008060e08385031215612ea1578182fd5b8235612eac81613600565b9150612ebb8460208501612cff565b90509250929050565b6000808284036080811215612ed7578283fd5b8335612ee281613600565b92506060601f1982011215612ef5578182fd5b506020830190509250929050565b60008060408385031215612f15578182fd5b8235612f2081613600565b946020939093013593505050565b600060208284031215612f3f578081fd5b815161232681613615565b600060208284031215612f5b578081fd5b813561232681613623565b600060408284031215612d10578081fd5b6000610180808385031215612f8a578182fd5b612f93816135ad565b9050612f9f8484612d16565b8152612fae8460208501612d3b565b6020820152612fc08460408501612d3b565b6040820152612fd28460608501612d3b565b6060820152612fe48460808501612d3b565b6080820152612ff68460a08501612d3b565b60a08201526130088460c08501612d52565b60c082015261301a8460e08501612cf4565b60e082015261010061302e85828601612cf4565b9082015261012061304185858301612cf4565b9082015261014061305485858301612cf4565b9082015261016061306785858301612d67565b908201529392505050565b600060208284031215613083578081fd5b813561ffff81168114612326578182fd5b6000602082840312156130a5578081fd5b5035919050565b6000602082840312156130bd578081fd5b5051919050565b15159052565b803582526020810135602083015260408101356040830152606081013560608301526080810135608083015260a081013560a08301525050565b600082516131168184602087016135d4565b9190910192915050565b6001600160a01b0391909116815260200190565b6001600160a01b039384168152919092166020820152604081019190915260600190565b6001600160a01b0392909216825261ffff16602082015260400190565b6001600160a01b03929092168252602082015260400190565b6001600160a01b0393841681526020810192909252909116604082015260600190565b6001600160a01b03948516815260208101939093529216604082015261ffff909116606082015260800190565b901515815260200190565b60006020825282518060208401526132088160408501602087016135d4565b601f01601f19169190910160400192915050565b60208082526014908201527311985b1b189858dac81b9bdd08185b1b1bddd95960621b604082015260600190565b6040808252600d908201526c6275726e20776974686472617760981b6060820152602081019190915260800190565b60208082526026908201527f4f776e61626c653a206e6577206f776e657220697320746865207a65726f206160408201526564647265737360d01b606082015260800190565b602080825260139082015272149958d95a5d99481b9bdd08185b1b1bddd959606a1b604082015260600190565b6020808252601b908201527f536166654d6174683a206164646974696f6e206f766572666c6f770000000000604082015260600190565b60208082526021908201527f536166654d6174683a206d756c7469706c69636174696f6e206f766572666c6f6040820152607760f81b606082015260800190565b6020808252818101527f4f776e61626c653a2063616c6c6572206973206e6f7420746865206f776e6572604082015260600190565b6020808252601d908201527f416464726573733a2063616c6c20746f206e6f6e2d636f6e7472616374000000604082015260600190565b60208082526013908201527211551217d514905394d1915497d19052531151606a1b604082015260600190565b6020808252602a908201527f5361666545524332303a204552433230206f7065726174696f6e20646964206e6040820152691bdd081cdd58d8d9595960b21b606082015260800190565b60c0810161108182846130ca565b600060e0820161346583866130ca565b60e060c0840152835190819052602090610100840190828601845b828110156134a55781516001600160a01b031684529284019290840190600101613480565b5091979650505050505050565b6040810182356134c181613600565b6001600160a01b0390811683526020840135906134dd82613600565b8082166020850152505092915050565b81516001600160a01b039081168252602092830151169181019190915260400190565b6000610120820190508251805183526020810151602084015260408101516040840152606081015160608401526080810151608084015260a081015160a08401525060208301516001811061356157fe5b60c0830152604083015161357860e08401826130c4565b50606083015161358c6101008401826130c4565b5092915050565b90815260200190565b63ffffffff91909116815260200190565b60405181810167ffffffffffffffff811182821017156135cc57600080fd5b604052919050565b60005b838110156135ef5781810151838201526020016135d7565b83811115610b5d5750506000910152565b6001600160a01b038116811461112a57600080fd5b801515811461112a57600080fd5b6001811061112a57600080fdfea2646970667358221220137aa7b7a9a87fcc94ab3924d99141e1e6df5f7f127695fa38d399a9e383600d64736f6c634300060c0033",
  "immutableReferences": {
    "12465": [
      {
        "length": 32,
        "start": 296
      },
      {
        "length": 32,
        "start": 2922
      },
      {
        "length": 32,
        "start": 2985
      },
      {
        "length": 32,
        "start": 4238
      },
      {
        "length": 32,
        "start": 4357
      },
      {
        "length": 32,
        "start": 7097
      },
      {
        "length": 32,
        "start": 10202
      },
      {
        "length": 32,
        "start": 10615
      }
    ]
  },
  "source": "// SPDX-License-Identifier: agpl-3.0\r\npragma solidity >=0.4.22 <0.9.0;\r\npragma experimental ABIEncoderV2;\r\n\r\nimport {IGunPool} from \"../../interfaces/IGunPool.sol\";\r\nimport {IGPToken} from \"../../interfaces/IGPToken.sol\";\r\nimport {Ownable} from '../../dependencies/openzeppelin/contracts/access/Ownable.sol';\r\nimport {GunPoolContext} from \"./GunPoolContext.sol\";\r\nimport {IERC20} from \"../../dependencies/openzeppelin/contracts/token/ERC20/IERC20.sol\";\r\nimport {SafeERC20} from \"../../dependencies/openzeppelin/contracts/token/ERC20/SafeERC20.sol\";\r\nimport {Address} from \"../../dependencies/openzeppelin/contracts/utils/Address.sol\";\r\nimport {Error} from \"./helpers/Error.sol\";\r\nimport {DataTypes} from \"./pools/aave/DataTypes.sol\";\r\nimport {ILendingPool} from \"./pools/aave/ILendingPool.sol\";\r\nimport {IAToken} from \"./pools/aave/IAToken.sol\";\r\nimport {SafeMath} from \"../../dependencies/openzeppelin/contracts/math/SafeMath.sol\";\r\nimport {MintPolicy} from \"../libraries/MintPolicy.sol\";\r\nimport {IWETH} from \"../../dependencies/misc/IWETH.sol\";\r\nimport {WadRayMath} from \"./pools/aave/WadRayMath.sol\";\r\nimport {IPCoin} from \"../../interfaces/IPCoin.sol\";\r\n\r\ncontract GunPool is IGunPool, Ownable {\r\n  using Address for address;\r\n  using SafeERC20 for IERC20;\r\n  using SafeMath for uint256;\r\n  using MintPolicy for GunPoolContext.PcoinReward;\r\n\r\n  /**** data context ****/\r\n  // pcoin address\r\n  address internal _pcoinAddress;\r\n  // reservers: key is token; value is resverer data\r\n  mapping(address => GunPoolContext.ReserveData) internal _reserves;\r\n  // rewards: key is user and token, value is reward context\r\n  mapping(address => mapping(address => GunPoolContext.RewardContext)) internal _rewards;\r\n  // reservers token list and count\r\n  mapping(uint32 => address) internal _reservesList;\r\n  uint32 internal _reservesCount;\r\n  // IWETH instance\r\n  IWETH internal immutable _IWETH;\r\n  // gptoken mapping: key is token and plane type, value is gptoken address\r\n  mapping (address => mapping(GunPoolContext.PlaneType => GunPoolContext.PlaneContext)) internal _planes;\r\n  // fee account\r\n  GunPoolContext.FeeContext _feeTo;\r\n  // the count of deposit account\r\n  uint32 _depositAccounts;\r\n\r\n  /**** modifier ****/\r\n  modifier tokenValid(address token, uint256 amount) {\r\n    require(token != address(0), Error.TOKEN_ADDRESS_ZERO);\r\n    require(token.isContract(), Error.TOKEN_INVALID_CONTRACTS);\r\n    require(amount > 0, Error.TOKEN_AMOUNT_ZERO);\r\n    _;\r\n  }\r\n\r\n  /**** constructor funcion ****/\r\n  constructor (address weth) public {\r\n    _reservesCount = 0;\r\n    _IWETH = IWETH(weth);\r\n    _feeTo.account = address(0);\r\n    _feeTo.permillage = 0;\r\n    _depositAccounts = 0;\r\n  }\r\n\r\n  /**** public function ****/\r\n  function initReserve(\r\n    address token,\r\n    GunPoolContext.PlaneInitInput[] calldata planes,\r\n    GunPoolContext.PcoinReward calldata pcoin\r\n  )\r\n    external\r\n    override\r\n    onlyOwner\r\n  {\r\n    require(token != address(0), Error.TOKEN_ADDRESS_ZERO);\r\n    require(token.isContract(), Error.TOKEN_INVALID_CONTRACTS);\r\n\r\n    for (uint32 i = 0; i < _reservesCount; i++) {\r\n      require(token != _reservesList[i], Error.TOKEN_RESERVE_EXIST);\r\n    }\r\n\r\n    GunPoolContext.ReserveData storage reserve = _reserves[token];\r\n    reserve.pcoin = GunPoolContext.PcoinReward(0,\r\n      pcoin.mintMaxSupply,\r\n      pcoin.mintRateBySec,\r\n      block.timestamp,\r\n      0,\r\n      0);\r\n    reserve.pt = GunPoolContext.PlaneType.AAVE;\r\n    reserve.isFrozen = false;\r\n    reserve.lock = false;\r\n\r\n    address[] memory gptoken = new address[](planes.length);\r\n    uint256 insertNums = 0;\r\n\r\n    for ( uint256 j = 0; j < planes.length; j++ ) {\r\n      if ( planes[j].pt == GunPoolContext.PlaneType.AAVE ) {\r\n        _planes[token][planes[j].pt] =\r\n        GunPoolContext.PlaneContext(\r\n          planes[j].plane.plane,\r\n          planes[j].plane.gptoken\r\n        );\r\n        insertNums += 1;\r\n        gptoken[j] = planes[j].plane.gptoken;\r\n        _authorizeAAVEPlane(token, planes[j].plane.plane);\r\n      }\r\n    }\r\n\r\n    require(insertNums > 0, Error.TOKEN_RESERVE_PLANE_INPUT_FAIL);\r\n    _reservesList[_reservesCount] = token;\r\n    _reservesCount++;\r\n\r\n    emit InitReserve(token, pcoin, gptoken);\r\n  }\r\n\r\n  function resetPcoinReward(\r\n    address token,\r\n    GunPoolContext.PcoinReward calldata pcoin\r\n  )\r\n    external\r\n    override\r\n    onlyOwner\r\n  {\r\n    bool isExist = false;\r\n    for (uint32 i = 0; i < _reservesCount; i++) {\r\n      if ( token == _reservesList[i] ) {\r\n        isExist = true;\r\n        break;\r\n      }\r\n    }\r\n    require(isExist, Error.TOKEN_RESERVE_RESET_UNEXIST);\r\n\r\n    GunPoolContext.ReserveData storage reserve = _reserves[token];\r\n    reserve.pcoin.mintMaxSupply = pcoin.mintMaxSupply;\r\n    reserve.pcoin.mintRateBySec = pcoin.mintRateBySec;\r\n\r\n    emit ResetPcoinReward(token, pcoin);\r\n  }\r\n\r\n  function resetPlane(\r\n    address token,\r\n    GunPoolContext.PlaneInitInput calldata planeInput\r\n  )\r\n    external\r\n    override\r\n    onlyOwner\r\n  {\r\n    bool isExist = false;\r\n    for (uint32 i = 0; i < _reservesCount; i++) {\r\n      if ( token == _reservesList[i] ) {\r\n        isExist = true;\r\n        break;\r\n      }\r\n    }\r\n    require(isExist, Error.TOKEN_RESERVE_RESET_UNEXIST);\r\n\r\n    GunPoolContext.PlaneContext storage planeContext = _planes[token][planeInput.pt];\r\n    planeContext.plane = planeInput.plane.plane;\r\n    planeContext.gptoken = planeInput.plane.gptoken;\r\n\r\n    if ( planeInput.pt == GunPoolContext.PlaneType.AAVE ) {\r\n      _authorizeAAVEPlane(token, planeContext.plane);\r\n    }\r\n\r\n    emit ResetPlane(token, planeInput.pt, planeInput.plane);\r\n  }\r\n\r\n  function pause(address token, bool frozen)\r\n    external\r\n    override\r\n    onlyOwner\r\n  {\r\n    GunPoolContext.ReserveData storage reserve = _reserves[token];\r\n    reserve.isFrozen = frozen;\r\n    emit Pause(token, frozen);\r\n  }\r\n\r\n  function setPcoinAddress(address pcoinAddress)\r\n    external\r\n    override\r\n    onlyOwner\r\n  {\r\n    _pcoinAddress = pcoinAddress;\r\n\r\n    emit SetPcoinAddress(pcoinAddress);\r\n  }\r\n\r\n  function setFeeto(GunPoolContext.FeeContext calldata feeTo)\r\n    external\r\n    override\r\n    onlyOwner\r\n  {\r\n    uint16 permillage = feeTo.permillage;\r\n    if ( permillage > 10 ) {\r\n      permillage = 10;\r\n    }\r\n    _feeTo = GunPoolContext.FeeContext(feeTo.account, permillage);\r\n    emit SetFeeto(feeTo.account, permillage);\r\n  }\r\n\r\n  function getDepositAPY(address token)\r\n    external\r\n    override\r\n    view\r\n    returns(uint256)\r\n  {\r\n    GunPoolContext.ReserveData memory reserve = _reserves[token];\r\n    if ( reserve.pt == GunPoolContext.PlaneType.AAVE ) {\r\n      GunPoolContext.PlaneContext memory plane = _planes[token][reserve.pt];\r\n      ILendingPool lendingPool = ILendingPool(plane.plane);\r\n      DataTypes.ReserveData memory lpReserve = lendingPool.getReserveData(token);\r\n      return lpReserve.currentLiquidityRate;\r\n    }\r\n    else {\r\n      return 0;\r\n    }\r\n  }\r\n\r\n  function getDepositAccounts()\r\n    external\r\n    override\r\n    view\r\n    returns(uint32)\r\n  {\r\n    return _depositAccounts;\r\n  }\r\n\r\n  /*\r\n  * user who deposit by polylend gunpool will get gptoken and obtain pcoin reward\r\n  */\r\n  function deposit(\r\n    address token,\r\n    uint256 amount\r\n  )\r\n    external\r\n    override\r\n    tokenValid(token, amount)\r\n  {\r\n    _deposit(token, amount);\r\n  }\r\n\r\n  function _deposit(\r\n    address token,\r\n    uint256 amount\r\n  )\r\n    internal\r\n  {\r\n    GunPoolContext.ReserveData storage reserve = _reserves[token];\r\n    _reserveValidate(reserve);\r\n    bool isFirst = false;\r\n    IGPToken gpToken;\r\n    uint256 gpMASupply = 0;\r\n    uint256 gpMABalance = 0;\r\n    reserve.lock = true;\r\n\r\n    if ( token != address(_IWETH) ) {\r\n      IERC20(token).safeTransferFrom(msg.sender, address(this), amount);\r\n    }\r\n\r\n    if ( reserve.pt == GunPoolContext.PlaneType.AAVE ) {\r\n      GunPoolContext.PlaneContext memory plane = _planes[token][reserve.pt];\r\n      gpToken = IGPToken(plane.gptoken);\r\n      isFirst = _aaveDeposit(token,\r\n        plane.plane,\r\n        gpToken,\r\n        msg.sender,\r\n        amount);\r\n      gpMABalance = gpToken.balanceOf(msg.sender);\r\n      gpMASupply = gpToken.totalSupply();\r\n    }\r\n    else {\r\n      require(false, Error.POOL_PLANE_INVALID);\r\n    }\r\n\r\n    _updateMint(reserve.pcoin, gpMASupply);\r\n    GunPoolContext.RewardContext storage reward = _rewards[msg.sender][token];\r\n    if ( !isFirst ) {\r\n      _updateReward(reward, reserve.pcoin);\r\n    }\r\n    reward.lastMintCapacity = reserve.pcoin.mintCapacity;\r\n    reward.lastGpBalance = gpMABalance;\r\n\r\n    if ( isFirst ) {\r\n      _depositAccounts = _depositAccounts + 1;\r\n    }\r\n\r\n    reserve.lock = false;\r\n    emit Deposit(token, msg.sender, amount);\r\n  }\r\n\r\n  /*\r\n  * we will convert the ratio between gptoken and input token\r\n  */\r\n  function withdraw(\r\n    address token,\r\n    uint256 amount\r\n  ) external override tokenValid(token, amount) returns (uint256) {\r\n    return _withdraw(token, amount);\r\n  }\r\n\r\n  function _withdraw(\r\n    address token,\r\n    uint256 amount\r\n  )\r\n    internal\r\n    returns (uint256)\r\n  {\r\n    GunPoolContext.ReserveData storage reserve = _reserves[token];\r\n    _reserveValidate(reserve);\r\n    uint256 amountWithdraw = 0;\r\n    IGPToken gpToken;\r\n    uint256 gpMASupply = 0;\r\n    uint256 gpMABalance = 0;\r\n    reserve.lock = true;\r\n\r\n    if ( reserve.pt == GunPoolContext.PlaneType.AAVE ) {\r\n      GunPoolContext.PlaneContext memory plane = _planes[token][reserve.pt];\r\n      gpToken = IGPToken(plane.gptoken);\r\n      amountWithdraw = _aaveWithdraw(token,\r\n        plane.plane,\r\n        gpToken,\r\n        msg.sender,\r\n        amount);\r\n      gpMASupply = gpToken.totalSupply();\r\n      gpMABalance = gpToken.balanceOf(msg.sender);\r\n    }\r\n    else {\r\n      require(false, Error.POOL_PLANE_INVALID);\r\n    }\r\n\r\n    _updateMint(reserve.pcoin, gpMASupply);\r\n    GunPoolContext.RewardContext storage reward = _rewards[msg.sender][token];\r\n    _updateReward(reward, reserve.pcoin);\r\n    reward.lastMintCapacity = reserve.pcoin.mintCapacity;\r\n    reward.lastGpBalance = gpMABalance;\r\n    if ( gpMABalance == 0 && _depositAccounts > 0 ) {\r\n      _depositAccounts = _depositAccounts - 1;\r\n    }\r\n\r\n    _claim(msg.sender);\r\n    emit Withdraw(token, msg.sender, amountWithdraw);\r\n    reserve.lock = false;\r\n    return amountWithdraw;\r\n  }\r\n\r\n  function depositByEth()\r\n    external payable override\r\n  {\r\n    uint256 amount = msg.value;\r\n    _IWETH.deposit{value: msg.value}();\r\n    _deposit(address(_IWETH), amount);\r\n    //IGunPool pool = IGunPool(address(this));\r\n    //bytes memory data = abi.encodeWithSelector(pool.deposit.selector, address(_IWETH), amount);\r\n    //(bool success, ) = address(this).delegatecall(data);\r\n    //require(success, Error.WMATIC_DEPOSIT_FAIL);\r\n  }\r\n\r\n  function withdrawByEth(uint256 amount)\r\n    external override\r\n  {\r\n    //IGunPool pool = IGunPool(address(this));\r\n    //bytes memory data = abi.encodeWithSelector(pool.withdraw.selector, address(_IWETH), amount);\r\n    //(bool success, bytes memory returndata) = address(this).delegatecall(data);\r\n    //require(success, Error.WMATIC_WITHDRAW_FAIL);\r\n    //require(returndata.length > 0, Error.WMATIC_WITHDRAW_RETURN_NONE);\r\n    //uint256 amountWithdraw = abi.decode(returndata, (uint256));\r\n    //uint256 amountWithdraw = this.withdraw(address(_IWETH), amount);\r\n    uint256 amountWithdraw = _withdraw(address(_IWETH), amount);\r\n    _IWETH.withdraw(amountWithdraw);\r\n    _safeTransferETH(msg.sender, amountWithdraw);\r\n  }\r\n\r\n  function claim(address to)\r\n    external\r\n    override\r\n    returns (uint256)\r\n  {\r\n    return _claim(to);\r\n  }\r\n\r\n  function getReserve(address token)\r\n    external\r\n    view\r\n    override\r\n    returns (GunPoolContext.ReserveData memory)\r\n  {\r\n    return _reserves[token];\r\n  }\r\n\r\n  function getPlanes(address token, GunPoolContext.PlaneType pt)\r\n    external\r\n    view\r\n    override\r\n    returns(GunPoolContext.PlaneContext memory)\r\n  {\r\n    return _planes[token][pt];\r\n  }\r\n\r\n  function rewardBalanceOf(address user)\r\n    external\r\n    view\r\n    override\r\n    returns (uint256 amount)\r\n  {\r\n    GunPoolContext.ReserveData memory reserve;\r\n    GunPoolContext.RewardContext memory reward;\r\n    address token = address(0);\r\n    uint256 rewardBalance = 0;\r\n    uint256 timestamp = block.timestamp;\r\n\r\n    for ( uint32 i = 0; i < _reservesCount; i++ ) {\r\n      token = _reservesList[i];\r\n      reserve = _reserves[token];\r\n      reward = _rewards[user][token];\r\n\r\n      uint256 mintRate = reserve.pcoin.calcultionMintRate(timestamp);\r\n      uint256 preSupply = reward.lastGpBalance.mul(reward.lastMintCapacity);\r\n      mintRate = mintRate.add(reserve.pcoin.mintCapacity);\r\n      uint256 curSupply = reward.lastGpBalance.mul(mintRate);\r\n      uint256 rewardAmount = curSupply.sub(preSupply).div(WadRayMath.ray());\r\n      rewardAmount = rewardAmount.add(reward.rewardSupply);\r\n      rewardBalance = rewardBalance.add(rewardAmount);\r\n    }\r\n\r\n    return rewardBalance;\r\n  }\r\n\r\n  /**** internal function ****/\r\n  function _reserveValidate(GunPoolContext.ReserveData storage reserve) internal view {\r\n    require(!(reserve.isFrozen), Error.RESERVE_FROZEN);\r\n    require(!(reserve.lock), Error.RESERVE_LOCK);\r\n    //require(reserve.aavePlane.gpTokenAddress != address(0), Error.RESERVE_GPTOKEN_ZERO);\r\n  }\r\n\r\n  function _aaveDeposit(\r\n    address token,\r\n    address lendingPoolAddress,\r\n    IGPToken gpToken,\r\n    address user,\r\n    uint256 amount\r\n  )\r\n    internal\r\n    returns (bool)\r\n  {\r\n    ILendingPool lendingPool = ILendingPool(lendingPoolAddress);\r\n    lendingPool.deposit(token, amount, address(this), 0);\r\n    return gpToken.mint(user, amount);\r\n  }\r\n\r\n  function _aaveWithdraw(\r\n    address token,\r\n    address lendingPoolAddress,\r\n    IGPToken gpToken,\r\n    address user,\r\n    uint256 amount\r\n  )\r\n    internal\r\n    returns (uint256)\r\n  {\r\n    ILendingPool lendingPool = ILendingPool(lendingPoolAddress);\r\n    uint256 amountToWithdraw = amount;\r\n    uint256 gpBalance = gpToken.balanceOf(user);\r\n\r\n    if ( (amount == type(uint256).max) || (amount > gpBalance) ) {\r\n      amountToWithdraw = gpBalance;\r\n    }\r\n    emit Log(\"burn withdraw\", amountToWithdraw);\r\n    gpToken.burn(user, amountToWithdraw);\r\n\r\n    if ( token == address(_IWETH) ) {\r\n      lendingPool.withdraw(token, amountToWithdraw, address(this));\r\n    }\r\n    else {\r\n      lendingPool.withdraw(token, amountToWithdraw, user);\r\n    }\r\n\r\n    if ( _feeTo.account != address(0) && _feeTo.permillage > 0 ) {\r\n      uint256 fee = _feeTo.permillage;\r\n      fee = amountToWithdraw.mul(fee).div(1000);\r\n      amountToWithdraw = amountToWithdraw.sub(fee);\r\n      if ( token != address(_IWETH) ) {\r\n        IERC20(token).safeTransferFrom(user, address(this), fee);\r\n      }\r\n    }\r\n\r\n    return amountToWithdraw;\r\n  }\r\n\r\n  function _claim(address to)\r\n    internal\r\n    returns (uint256)\r\n  {\r\n    uint256 totalReward = 0;\r\n    GunPoolContext.ReserveData storage reserve;\r\n    GunPoolContext.RewardContext storage reward;\r\n    IGPToken gpToken;\r\n    address token = address(0);\r\n\r\n    for ( uint32 i = 0; i < _reservesCount; i++ ) {\r\n      token = _reservesList[i];\r\n      reserve = _reserves[token];\r\n      reward = _rewards[msg.sender][token];\r\n\r\n      if ( reserve.pt == GunPoolContext.PlaneType.AAVE ) {\r\n        GunPoolContext.PlaneContext memory plane = _planes[token][reserve.pt];\r\n        gpToken = IGPToken(plane.gptoken);\r\n        _updateMint(reserve.pcoin, gpToken.totalSupply());\r\n        _updateReward(reward, reserve.pcoin);\r\n        totalReward = totalReward.add(reward.rewardSupply);\r\n        reward.rewardSupply = 0;\r\n        reward.lastMintCapacity = reserve.pcoin.mintCapacity;\r\n        reward.lastGpBalance = gpToken.balanceOf(msg.sender);\r\n      }\r\n    }\r\n\r\n    if ( (_pcoinAddress != address(0)) && (totalReward > 0) ) {\r\n      //      IERC20(_pcoinAddress).safeTransfer(to, totalReward);\r\n      IPCoin(_pcoinAddress).mint(to, totalReward);\r\n      emit Claim(msg.sender, to, totalReward);\r\n      return totalReward;\r\n    }\r\n    else {\r\n      return 0;\r\n    }\r\n  }\r\n\r\n  function _updateMint(\r\n    GunPoolContext.PcoinReward storage pcoin,\r\n    uint256 supply\r\n  )\r\n    internal\r\n  {\r\n    if ( pcoin.mintSupply < pcoin.mintMaxSupply ) {\r\n      uint256 timestamp = block.timestamp;\r\n      uint256 mintRate = pcoin.calcultionMintRate(timestamp);\r\n      pcoin.updateMintContext(supply, mintRate, timestamp);\r\n    }\r\n  }\r\n\r\n  function _updateReward(\r\n    GunPoolContext.RewardContext storage reward,\r\n    GunPoolContext.PcoinReward memory pcoin\r\n  )\r\n    internal\r\n  {\r\n    uint256 preSupply = reward.lastGpBalance.mul(reward.lastMintCapacity);\r\n    uint256 curSupply = reward.lastGpBalance.mul(pcoin.mintCapacity);\r\n    uint256 rewardAmount = curSupply.sub(preSupply);\r\n\r\n    if ( rewardAmount > 0 ) {\r\n      reward.rewardSupply = reward.rewardSupply.add(rewardAmount.div(WadRayMath.ray()));\r\n    }\r\n  }\r\n\r\n  /**\r\n   * @dev transfer ETH to an address, revert if it fails.\r\n   * @param to recipient of the transfer\r\n   * @param value the amount to send\r\n   */\r\n  function _safeTransferETH(address to, uint256 value) internal {\r\n    (bool success, ) = to.call{value: value}(new bytes(0));\r\n    require(success, 'ETH_TRANSFER_FAILED');\r\n  }\r\n\r\n  /*\r\n  * @dev approve aoken to aave plane from this address\r\n  * @param token find reserve from aave\r\n  * @param lpAddress is lendingPool address for aave\r\n  */\r\n  function _authorizeAAVEPlane(\r\n    address token,\r\n    address plane\r\n  )\r\n    internal\r\n  {\r\n    IERC20(token).approve(plane, type(uint256).max);\r\n  }\r\n\r\n  /**\r\n   * @dev Only _IWETH contract is allowed to transfer ETH here.\r\n   *   Prevent other addresses to send Ether to this contract.\r\n   */\r\n  receive() external payable {\r\n    require(msg.sender == address(_IWETH), 'Receive not allowed');\r\n  }\r\n\r\n  /**\r\n   * @dev Revert fallback calls\r\n   */\r\n  fallback() external payable {\r\n    revert('Fallback not allowed');\r\n  }\r\n}\r\n",
  "sourcePath": "E:\\my_work\\Eos\\polylend\\core\\protocol_v1\\contracts\\protocol\\gunpool\\GunPool.sol",
  "compiler": {
    "name": "solc",
    "version": "0.6.12+commit.27d51765.Emscripten.clang"
  },
  "schemaVersion": "3.4.2",
  "updatedAt": "2021-08-16T04:20:18.735Z",
  "devdoc": {
    "kind": "dev",
    "methods": {
      "claim(address)": {
        "details": "claim from gun pool(contain: polylend token) Returns amount The total amount of reward is obtained by to which is recalculated by pcoin Emits a {Claim} event.*"
      },
      "deposit(address,uint256)": {
        "details": "deposit the ERC20 token",
        "params": {
          "amount": "The amount of the token to deposit.(For max: `uint256(-1)`) Emits a {Deposit} event.*",
          "token": "The address of the token to deposit.(For MATIC: 0xEeeeeEeeeEeEeeEeEeEeeEEEeeeeEeeeeeeeEEeE)"
        }
      },
      "depositByEth()": {
        "details": "deposit the mainet basis token Returns a boolean value indicating whether the operation succeeded. Emits a {Deposit} event.*"
      },
      "getDepositAPY(address)": {
        "details": "getDepositAPY get the APY of deposited token",
        "params": {
          "token": "the address of reserve"
        },
        "returns": {
          "_0": "APY: Annual percentage yields*"
        }
      },
      "getDepositAccounts()": {
        "details": "getDepositAccounts get acconts of deposit",
        "returns": {
          "_0": "Accounts: who has deposited*"
        }
      },
      "getPlanes(address,uint8)": {
        "details": "getPlanes get the context address of work plane",
        "params": {
          "pt": "the type of plane",
          "token": "the address of reserve"
        },
        "returns": {
          "_0": "planecontext contain address of plane and gptoken*"
        }
      },
      "getReserve(address)": {
        "details": "Returns the state of the reserve in gunpool",
        "params": {
          "token": "The address of the underlying token of the reserve"
        },
        "returns": {
          "_0": "The state of the reserve in gunpool*"
        }
      },
      "initReserve(address,(uint8,(address,address))[],(uint256,uint256,uint256,uint256,uint256,uint256))": {
        "details": "initReserve configure the reserve in gunpool",
        "params": {
          "pcoin": "The reward context of polylend coin Emits a {InitReserve} event.*",
          "planes": "the context of the plane",
          "token": "The address of the underlying token of the reserve"
        }
      },
      "owner()": {
        "details": "Returns the address of the current owner."
      },
      "pause(address,bool)": {
        "details": "pause set token frozen status",
        "params": {
          "frozen": "the status of reserve, true is frozen Emits a {Pause} event*",
          "token": "the address of reserve"
        }
      },
      "renounceOwnership()": {
        "details": "Leaves the contract without owner. It will not be possible to call `onlyOwner` functions anymore. Can only be called by the current owner. NOTE: Renouncing ownership will leave the contract without an owner, thereby removing any functionality that is only available to the owner."
      },
      "resetPcoinReward(address,(uint256,uint256,uint256,uint256,uint256,uint256))": {
        "details": "resetReservePcoinReward reset pcoin reward params for reserve",
        "params": {
          "pcoin": "The reward context of polylend coin Emits a {ResetPcoinReward} event*",
          "token": "The address of the underlying token of the reserve"
        }
      },
      "resetPlane(address,(uint8,(address,address)))": {
        "details": "resetPlane reset plane for reserve",
        "params": {
          "planeInput": "the context of the plane Emits a {ResetPlane} event*",
          "token": "The address of the underlying token of the reserve"
        }
      },
      "rewardBalanceOf(address)": {
        "details": "rewardBalanceOf quary pcoin rewards",
        "params": {
          "user": "who has rewards Returns balance The total amount of reward*"
        }
      },
      "setFeeto((address,uint16))": {
        "details": "setFeeto set account and permillage for fee",
        "params": {
          "feeTo": "the context of feeto Emits a {SetFeeTo} event*"
        }
      },
      "setPcoinAddress(address)": {
        "details": "initPcoinAddress set the address of pcoin",
        "params": {
          "pcoinAddress": "the address of pcoin who mint reward for user Emits a {SetPcoinAddress} event*"
        }
      },
      "transferOwnership(address)": {
        "details": "Transfers ownership of the contract to a new account (`newOwner`). Can only be called by the current owner."
      },
      "withdraw(address,uint256)": {
        "details": "withdraw the ERC20 token",
        "params": {
          "amount": "The amount of the lptoken (For max: `uint256(-1)`) Returns a boolean value indicating whether the operation succeeded. Emits a {Withdraw} event.*",
          "token": "The address of the token to withdraw.(For MATIC: 0xEeeeeEeeeEeEeeEeEeEeeEEEeeeeEeeeeeeeEEeE)"
        }
      },
      "withdrawByEth(uint256)": {
        "details": "withdraw the mainet basis token",
        "params": {
          "amount": "The amount of the token to withdraw.(For max: `uint256(-1)`) Returns a boolean value indicating whether the operation succeeded. Emits a {Withdraw} event.*"
        }
      }
    },
    "version": 1
  },
  "userdoc": {
    "kind": "user",
    "methods": {},
    "version": 1
  }
}