{
  "contractName": "GunPool",
  "abi": [
    {
      "inputs": [
        {
          "internalType": "address",
          "name": "weth",
          "type": "address"
        }
      ],
      "stateMutability": "nonpayable",
      "type": "constructor"
    },
    {
      "anonymous": false,
      "inputs": [
        {
          "indexed": true,
          "internalType": "address",
          "name": "from",
          "type": "address"
        },
        {
          "indexed": true,
          "internalType": "address",
          "name": "to",
          "type": "address"
        },
        {
          "indexed": false,
          "internalType": "uint256",
          "name": "amount",
          "type": "uint256"
        }
      ],
      "name": "Claim",
      "type": "event"
    },
    {
      "anonymous": false,
      "inputs": [
        {
          "indexed": true,
          "internalType": "address",
          "name": "token",
          "type": "address"
        },
        {
          "indexed": true,
          "internalType": "address",
          "name": "user",
          "type": "address"
        },
        {
          "indexed": false,
          "internalType": "uint256",
          "name": "amount",
          "type": "uint256"
        }
      ],
      "name": "Deposit",
      "type": "event"
    },
    {
      "anonymous": false,
      "inputs": [
        {
          "indexed": true,
          "internalType": "address",
          "name": "token",
          "type": "address"
        },
        {
          "components": [
            {
              "internalType": "uint256",
              "name": "mintSupply",
              "type": "uint256"
            },
            {
              "internalType": "uint256",
              "name": "mintMaxSupply",
              "type": "uint256"
            },
            {
              "internalType": "uint256",
              "name": "mintRateBySec",
              "type": "uint256"
            },
            {
              "internalType": "uint256",
              "name": "lastMintTime",
              "type": "uint256"
            },
            {
              "internalType": "uint256",
              "name": "lastSupply",
              "type": "uint256"
            },
            {
              "internalType": "uint256",
              "name": "mintCapacity",
              "type": "uint256"
            }
          ],
          "indexed": false,
          "internalType": "struct GunPoolContext.PcoinReward",
          "name": "pcoin",
          "type": "tuple"
        },
        {
          "indexed": false,
          "internalType": "address[]",
          "name": "gptAddress",
          "type": "address[]"
        }
      ],
      "name": "InitReserve",
      "type": "event"
    },
    {
      "anonymous": false,
      "inputs": [
        {
          "indexed": false,
          "internalType": "string",
          "name": "msg",
          "type": "string"
        },
        {
          "indexed": false,
          "internalType": "uint256",
          "name": "value",
          "type": "uint256"
        }
      ],
      "name": "Log",
      "type": "event"
    },
    {
      "anonymous": false,
      "inputs": [
        {
          "indexed": true,
          "internalType": "address",
          "name": "previousOwner",
          "type": "address"
        },
        {
          "indexed": true,
          "internalType": "address",
          "name": "newOwner",
          "type": "address"
        }
      ],
      "name": "OwnershipTransferred",
      "type": "event"
    },
    {
      "anonymous": false,
      "inputs": [
        {
          "indexed": true,
          "internalType": "address",
          "name": "token",
          "type": "address"
        },
        {
          "indexed": false,
          "internalType": "bool",
          "name": "frozen",
          "type": "bool"
        }
      ],
      "name": "Pause",
      "type": "event"
    },
    {
      "anonymous": false,
      "inputs": [
        {
          "indexed": true,
          "internalType": "address",
          "name": "token",
          "type": "address"
        },
        {
          "components": [
            {
              "internalType": "uint256",
              "name": "mintSupply",
              "type": "uint256"
            },
            {
              "internalType": "uint256",
              "name": "mintMaxSupply",
              "type": "uint256"
            },
            {
              "internalType": "uint256",
              "name": "mintRateBySec",
              "type": "uint256"
            },
            {
              "internalType": "uint256",
              "name": "lastMintTime",
              "type": "uint256"
            },
            {
              "internalType": "uint256",
              "name": "lastSupply",
              "type": "uint256"
            },
            {
              "internalType": "uint256",
              "name": "mintCapacity",
              "type": "uint256"
            }
          ],
          "indexed": false,
          "internalType": "struct GunPoolContext.PcoinReward",
          "name": "pcoin",
          "type": "tuple"
        }
      ],
      "name": "ResetPcoinReward",
      "type": "event"
    },
    {
      "anonymous": false,
      "inputs": [
        {
          "indexed": true,
          "internalType": "address",
          "name": "token",
          "type": "address"
        },
        {
          "indexed": true,
          "internalType": "enum GunPoolContext.PlaneType",
          "name": "pt",
          "type": "uint8"
        },
        {
          "components": [
            {
              "internalType": "address",
              "name": "plane",
              "type": "address"
            },
            {
              "internalType": "address",
              "name": "gptoken",
              "type": "address"
            }
          ],
          "indexed": false,
          "internalType": "struct GunPoolContext.PlaneContext",
          "name": "pc",
          "type": "tuple"
        }
      ],
      "name": "ResetPlane",
      "type": "event"
    },
    {
      "anonymous": false,
      "inputs": [
        {
          "indexed": false,
          "internalType": "address",
          "name": "feeAccount",
          "type": "address"
        },
        {
          "indexed": false,
          "internalType": "uint16",
          "name": "permillage",
          "type": "uint16"
        }
      ],
      "name": "SetFeeto",
      "type": "event"
    },
    {
      "anonymous": false,
      "inputs": [
        {
          "indexed": true,
          "internalType": "address",
          "name": "pcoinAddress",
          "type": "address"
        }
      ],
      "name": "SetPcoinAddress",
      "type": "event"
    },
    {
      "anonymous": false,
      "inputs": [
        {
          "indexed": true,
          "internalType": "address",
          "name": "token",
          "type": "address"
        },
        {
          "indexed": true,
          "internalType": "address",
          "name": "user",
          "type": "address"
        },
        {
          "indexed": false,
          "internalType": "uint256",
          "name": "amount",
          "type": "uint256"
        }
      ],
      "name": "Withdraw",
      "type": "event"
    },
    {
      "stateMutability": "payable",
      "type": "fallback"
    },
    {
      "inputs": [],
      "name": "owner",
      "outputs": [
        {
          "internalType": "address",
          "name": "",
          "type": "address"
        }
      ],
      "stateMutability": "view",
      "type": "function"
    },
    {
      "inputs": [],
      "name": "renounceOwnership",
      "outputs": [],
      "stateMutability": "nonpayable",
      "type": "function"
    },
    {
      "inputs": [
        {
          "internalType": "address",
          "name": "newOwner",
          "type": "address"
        }
      ],
      "name": "transferOwnership",
      "outputs": [],
      "stateMutability": "nonpayable",
      "type": "function"
    },
    {
      "stateMutability": "payable",
      "type": "receive"
    },
    {
      "inputs": [
        {
          "internalType": "address",
          "name": "token",
          "type": "address"
        },
        {
          "components": [
            {
              "internalType": "enum GunPoolContext.PlaneType",
              "name": "pt",
              "type": "uint8"
            },
            {
              "components": [
                {
                  "internalType": "address",
                  "name": "plane",
                  "type": "address"
                },
                {
                  "internalType": "address",
                  "name": "gptoken",
                  "type": "address"
                }
              ],
              "internalType": "struct GunPoolContext.PlaneContext",
              "name": "plane",
              "type": "tuple"
            }
          ],
          "internalType": "struct GunPoolContext.PlaneInitInput[]",
          "name": "planes",
          "type": "tuple[]"
        },
        {
          "components": [
            {
              "internalType": "uint256",
              "name": "mintSupply",
              "type": "uint256"
            },
            {
              "internalType": "uint256",
              "name": "mintMaxSupply",
              "type": "uint256"
            },
            {
              "internalType": "uint256",
              "name": "mintRateBySec",
              "type": "uint256"
            },
            {
              "internalType": "uint256",
              "name": "lastMintTime",
              "type": "uint256"
            },
            {
              "internalType": "uint256",
              "name": "lastSupply",
              "type": "uint256"
            },
            {
              "internalType": "uint256",
              "name": "mintCapacity",
              "type": "uint256"
            }
          ],
          "internalType": "struct GunPoolContext.PcoinReward",
          "name": "pcoin",
          "type": "tuple"
        }
      ],
      "name": "initReserve",
      "outputs": [],
      "stateMutability": "nonpayable",
      "type": "function"
    },
    {
      "inputs": [
        {
          "internalType": "address",
          "name": "token",
          "type": "address"
        },
        {
          "components": [
            {
              "internalType": "uint256",
              "name": "mintSupply",
              "type": "uint256"
            },
            {
              "internalType": "uint256",
              "name": "mintMaxSupply",
              "type": "uint256"
            },
            {
              "internalType": "uint256",
              "name": "mintRateBySec",
              "type": "uint256"
            },
            {
              "internalType": "uint256",
              "name": "lastMintTime",
              "type": "uint256"
            },
            {
              "internalType": "uint256",
              "name": "lastSupply",
              "type": "uint256"
            },
            {
              "internalType": "uint256",
              "name": "mintCapacity",
              "type": "uint256"
            }
          ],
          "internalType": "struct GunPoolContext.PcoinReward",
          "name": "pcoin",
          "type": "tuple"
        }
      ],
      "name": "resetPcoinReward",
      "outputs": [],
      "stateMutability": "nonpayable",
      "type": "function"
    },
    {
      "inputs": [
        {
          "internalType": "address",
          "name": "token",
          "type": "address"
        },
        {
          "components": [
            {
              "internalType": "enum GunPoolContext.PlaneType",
              "name": "pt",
              "type": "uint8"
            },
            {
              "components": [
                {
                  "internalType": "address",
                  "name": "plane",
                  "type": "address"
                },
                {
                  "internalType": "address",
                  "name": "gptoken",
                  "type": "address"
                }
              ],
              "internalType": "struct GunPoolContext.PlaneContext",
              "name": "plane",
              "type": "tuple"
            }
          ],
          "internalType": "struct GunPoolContext.PlaneInitInput",
          "name": "planeInput",
          "type": "tuple"
        }
      ],
      "name": "resetPlane",
      "outputs": [],
      "stateMutability": "nonpayable",
      "type": "function"
    },
    {
      "inputs": [
        {
          "internalType": "address",
          "name": "token",
          "type": "address"
        },
        {
          "internalType": "bool",
          "name": "frozen",
          "type": "bool"
        }
      ],
      "name": "pause",
      "outputs": [],
      "stateMutability": "nonpayable",
      "type": "function"
    },
    {
      "inputs": [
        {
          "internalType": "address",
          "name": "pcoinAddress",
          "type": "address"
        }
      ],
      "name": "setPcoinAddress",
      "outputs": [],
      "stateMutability": "nonpayable",
      "type": "function"
    },
    {
      "inputs": [
        {
          "components": [
            {
              "internalType": "address",
              "name": "account",
              "type": "address"
            },
            {
              "internalType": "uint16",
              "name": "permillage",
              "type": "uint16"
            }
          ],
          "internalType": "struct GunPoolContext.FeeContext",
          "name": "feeTo",
          "type": "tuple"
        }
      ],
      "name": "setFeeto",
      "outputs": [],
      "stateMutability": "nonpayable",
      "type": "function"
    },
    {
      "inputs": [
        {
          "internalType": "address",
          "name": "token",
          "type": "address"
        }
      ],
      "name": "getDepositAPY",
      "outputs": [
        {
          "internalType": "uint256",
          "name": "",
          "type": "uint256"
        }
      ],
      "stateMutability": "view",
      "type": "function"
    },
    {
      "inputs": [],
      "name": "getDepositAccounts",
      "outputs": [
        {
          "internalType": "uint32",
          "name": "",
          "type": "uint32"
        }
      ],
      "stateMutability": "view",
      "type": "function"
    },
    {
      "inputs": [
        {
          "internalType": "address",
          "name": "token",
          "type": "address"
        },
        {
          "internalType": "uint256",
          "name": "amount",
          "type": "uint256"
        }
      ],
      "name": "deposit",
      "outputs": [],
      "stateMutability": "nonpayable",
      "type": "function"
    },
    {
      "inputs": [
        {
          "internalType": "address",
          "name": "token",
          "type": "address"
        },
        {
          "internalType": "uint256",
          "name": "amount",
          "type": "uint256"
        }
      ],
      "name": "withdraw",
      "outputs": [
        {
          "internalType": "uint256",
          "name": "",
          "type": "uint256"
        }
      ],
      "stateMutability": "nonpayable",
      "type": "function"
    },
    {
      "inputs": [],
      "name": "depositByEth",
      "outputs": [],
      "stateMutability": "payable",
      "type": "function"
    },
    {
      "inputs": [
        {
          "internalType": "uint256",
          "name": "amount",
          "type": "uint256"
        }
      ],
      "name": "withdrawByEth",
      "outputs": [],
      "stateMutability": "nonpayable",
      "type": "function"
    },
    {
      "inputs": [
        {
          "internalType": "address",
          "name": "to",
          "type": "address"
        }
      ],
      "name": "claim",
      "outputs": [
        {
          "internalType": "uint256",
          "name": "",
          "type": "uint256"
        }
      ],
      "stateMutability": "nonpayable",
      "type": "function"
    },
    {
      "inputs": [
        {
          "internalType": "address",
          "name": "token",
          "type": "address"
        }
      ],
      "name": "getReserve",
      "outputs": [
        {
          "components": [
            {
              "components": [
                {
                  "internalType": "uint256",
                  "name": "mintSupply",
                  "type": "uint256"
                },
                {
                  "internalType": "uint256",
                  "name": "mintMaxSupply",
                  "type": "uint256"
                },
                {
                  "internalType": "uint256",
                  "name": "mintRateBySec",
                  "type": "uint256"
                },
                {
                  "internalType": "uint256",
                  "name": "lastMintTime",
                  "type": "uint256"
                },
                {
                  "internalType": "uint256",
                  "name": "lastSupply",
                  "type": "uint256"
                },
                {
                  "internalType": "uint256",
                  "name": "mintCapacity",
                  "type": "uint256"
                }
              ],
              "internalType": "struct GunPoolContext.PcoinReward",
              "name": "pcoin",
              "type": "tuple"
            },
            {
              "internalType": "enum GunPoolContext.PlaneType",
              "name": "pt",
              "type": "uint8"
            },
            {
              "internalType": "bool",
              "name": "isFrozen",
              "type": "bool"
            },
            {
              "internalType": "bool",
              "name": "lock",
              "type": "bool"
            }
          ],
          "internalType": "struct GunPoolContext.ReserveData",
          "name": "",
          "type": "tuple"
        }
      ],
      "stateMutability": "view",
      "type": "function"
    },
    {
      "inputs": [
        {
          "internalType": "address",
          "name": "token",
          "type": "address"
        },
        {
          "internalType": "enum GunPoolContext.PlaneType",
          "name": "pt",
          "type": "uint8"
        }
      ],
      "name": "getPlanes",
      "outputs": [
        {
          "components": [
            {
              "internalType": "address",
              "name": "plane",
              "type": "address"
            },
            {
              "internalType": "address",
              "name": "gptoken",
              "type": "address"
            }
          ],
          "internalType": "struct GunPoolContext.PlaneContext",
          "name": "",
          "type": "tuple"
        }
      ],
      "stateMutability": "view",
      "type": "function"
    },
    {
      "inputs": [
        {
          "internalType": "address",
          "name": "user",
          "type": "address"
        }
      ],
      "name": "rewardBalanceOf",
      "outputs": [
        {
          "internalType": "uint256",
          "name": "amount",
          "type": "uint256"
        }
      ],
      "stateMutability": "view",
      "type": "function"
    }
  ],
  "bytecode": "0x60a06040523480156200001157600080fd5b506040516200374d3803806200374d8339810160408190526200003491620000d0565b600062000040620000cc565b600080546001600160a01b0319166001600160a01b0383169081178255604051929350917f8be0079c531659141344cd1fd0a4f28419497f9722a3daafe3b4186f6b6457e0908290a3506005805463ffffffff1990811690915560609190911b6001600160601b031916608052600780546001600160b01b031916905560088054909116905562000100565b3390565b600060208284031215620000e2578081fd5b81516001600160a01b0381168114620000f9578182fd5b9392505050565b60805160601c61360c62000141600039806101285280610e445280610e83528061136852806113df5280611cb1528061285852806129f5525061360c6000f3fe6080604052600436106101185760003560e01c806384659d5d116100a0578063c9a396e911610064578063c9a396e91461034c578063e964b64414610379578063f2fde38b14610399578063f3fef3a3146103b9578063fd3f5e52146103d957610170565b806384659d5d146102b35780638da5cb5b146102d5578063a09f52aa146102f7578063b2751b4c14610317578063bc66c1d91461034457610170565b80634d689130116100e75780634d6891301461021e578063534815fb1461023e5780635e32fae11461025e578063715018a61461027e578063727b32511461029357610170565b80631e83409a146101885780632279ce70146101be57806346ce827d146101de57806347e7ef24146101fe57610170565b3661017057336001600160a01b037f0000000000000000000000000000000000000000000000000000000000000000161461016e5760405162461bcd60e51b815260040161016590613265565b60405180910390fd5b005b60405162461bcd60e51b8152600401610165906131c2565b34801561019457600080fd5b506101a86101a3366004612d1e565b6103f9565b6040516101b59190613539565b60405180910390f35b3480156101ca57600080fd5b5061016e6101d9366004612d3a565b6106e5565b3480156101ea57600080fd5b506101a86101f9366004612d1e565b610b7f565b34801561020a57600080fd5b5061016e610219366004612ea9565b610d67565b34801561022a57600080fd5b5061016e61023936600461303a565b610e3d565b34801561024a57600080fd5b5061016e610259366004612d1e565b610ef8565b34801561026a57600080fd5b5061016e610279366004612f0c565b610f77565b34801561028a57600080fd5b5061016e611081565b34801561029f57600080fd5b5061016e6102ae366004612e35565b611100565b3480156102bf57600080fd5b506102c8611230565b6040516101b59190613542565b3480156102e157600080fd5b506102ea61123c565b6040516101b591906130c6565b34801561030357600080fd5b5061016e610312366004612dd0565b61124b565b34801561032357600080fd5b50610337610332366004612e08565b6112ee565b6040516101b59190613493565b61016e611361565b34801561035857600080fd5b5061036c610367366004612d1e565b611407565b6040516101b591906134b6565b34801561038557600080fd5b506101a8610394366004612d1e565b6114c0565b3480156103a557600080fd5b5061016e6103b4366004612d1e565b6116ad565b3480156103c557600080fd5b506101a86103d4366004612ea9565b611763565b3480156103e557600080fd5b5061016e6103f4366004612e6a565b61183f565b60008080808080805b60055463ffffffff90811690821610156106585763ffffffff81166000908152600460209081526040808320546001600160a01b0316808452600283528184203385526003845282852082865290935290832060068301549298509650935060ff16801561046c57fe5b14156106505761047a612b80565b6001600160a01b038316600090815260066020819052604082209088015490919060ff1680156104a657fe5b80156104ae57fe5b815260208082019290925260409081016000208151808301835281546001600160a01b03908116825260019092015490911681840181905282516318160ddd60e01b8152925190975090935061056292899288926318160ddd92600480840193919291829003018186803b15801561052557600080fd5b505afa158015610539573d6000803e3d6000fd5b505050506040513d601f19601f8201168201806040525081019061055d9190613052565b611a3d565b6040805160c08101825287548152600188015460208201526002880154918101919091526003870154606082015260048701546080820152600587015460a08201526105af908690611aa9565b84546105bc908890611b22565b60008655600587015460018701556040516370a0823160e01b81529097506001600160a01b038516906370a08231906105f99033906004016130c6565b60206040518083038186803b15801561061157600080fd5b505afa158015610625573d6000803e3d6000fd5b505050506040513d601f19601f820116820180604052508101906106499190613052565b6002860155505b600101610402565b506001546001600160a01b0316158015906106735750600085115b156106db5760015461068f906001600160a01b03168887611b4e565b866001600160a01b0316336001600160a01b03167f70eb43c4a8ae8c40502dcf22436c509c28d6ff421cf07c491be56984bd987068876040516106d29190613539565b60405180910390a35b5050505050919050565b6106ed611ba9565b6000546001600160a01b0390811691161461071a5760405162461bcd60e51b81526004016101659061330a565b6040805180820190915260018152600360fc1b60208201526001600160a01b0385166107595760405162461bcd60e51b8152600401610165919061318f565b5061076c846001600160a01b0316611bad565b604051806040016040528060018152602001603160f81b815250906107a45760405162461bcd60e51b8152600401610165919061318f565b5060005b60055463ffffffff90811690821610156108235763ffffffff811660009081526004602090815260409182902054825180840190935260018352603960f81b918301919091526001600160a01b038781169116141561081a5760405162461bcd60e51b8152600401610165919061318f565b506001016107a8565b506001600160a01b0384166000908152600260208181526040808420815160c08101835285815286840135938101849052868301359281018390524260608083018290526080830188905260a0909201879052868355600183019490945593810191909155600381019190915560048101839055600581019290925560068201805462ffffff191690558367ffffffffffffffff811180156108c457600080fd5b506040519080825280602002602001820160405280156108ee578160200160208202803683370190505b5090506000805b85811015610ab257600087878381811061090b57fe5b6109219260206060909202019081019150612ef0565b801561092957fe5b1415610aaa57604051806040016040528088888481811061094657fe5b61095f9260406060909202019081019150602001612d1e565b6001600160a01b0316815260200188888481811061097957fe5b610990926060918202019081019150604001612d1e565b6001600160a01b0390811690915289166000908152600660205260408120908989858181106109bb57fe5b6109d19260206060909202019081019150612ef0565b80156109d957fe5b80156109e157fe5b8152602080820192909252604001600020825181546001600160a01b039182166001600160a01b03199182161783559390920151600191820180549190931693169290921790559190910190868682818110610a3957fe5b610a50926060918202019081019150604001612d1e565b838281518110610a5c57fe5b60200260200101906001600160a01b031690816001600160a01b031681525050610aaa88888884818110610a8c57fe5b610aa59260406060909202019081019150602001612d1e565b611be9565b6001016108f5565b50604080518082019091526002815261031360f41b602082015281610aea5760405162461bcd60e51b8152600401610165919061318f565b506005805463ffffffff9081166000908152600460205260409081902080546001600160a01b0319166001600160a01b038c16908117909155835463ffffffff1981169084166001019093169290921790925590517f1f666445da447c32a327c9373b8b5ecd83d65df453ba9953cd4d788db4facdbf90610b6e90879086906133fb565b60405180910390a250505050505050565b6000610b89612b97565b6001600160a01b03831660009081526002602081815260409283902083516101408101909452805460808501908152600182015460a08601529281015460c0850152600381015460e08501526004810154610100850152600581015461012085015291835260068201549083019060ff168015610c0257fe5b8015610c0a57fe5b81526006919091015460ff6101008204811615156020840152620100009091041615156040909101529050600060208201518015610c4457fe5b1415610d5c57610c52612b80565b6001600160a01b03841660009081526006602090815260408220908401519091908015610c7b57fe5b8015610c8357fe5b81526020808201929092526040908101600020815180830190925280546001600160a01b0390811680845260019092015416928201929092529150610cc6612bc5565b6040516335ea6a7560e01b81526001600160a01b038316906335ea6a7590610cf29089906004016130c6565b6101806040518083038186803b158015610d0b57600080fd5b505afa158015610d1f573d6000803e3d6000fd5b505050506040513d601f19601f82011682018060405250810190610d439190612f1d565b606001516001600160801b03169450610d629350505050565b60009150505b919050565b6040805180820190915260018152600360fc1b6020820152829082906001600160a01b038316610daa5760405162461bcd60e51b8152600401610165919061318f565b50610dbd826001600160a01b0316611bad565b604051806040016040528060018152602001603160f81b81525090610df55760405162461bcd60e51b8152600401610165919061318f565b506040805180820190915260018152603360f81b602082015281610e2c5760405162461bcd60e51b8152600401610165919061318f565b50610e378484611c6b565b50505050565b6000610e697f000000000000000000000000000000000000000000000000000000000000000083611fc6565b604051632e1a7d4d60e01b81529091506001600160a01b037f00000000000000000000000000000000000000000000000000000000000000001690632e1a7d4d90610eb8908490600401613539565b600060405180830381600087803b158015610ed257600080fd5b505af1158015610ee6573d6000803e3d6000fd5b50505050610ef433826122bc565b5050565b610f00611ba9565b6000546001600160a01b03908116911614610f2d5760405162461bcd60e51b81526004016101659061330a565b600180546001600160a01b0319166001600160a01b0383169081179091556040517f4d8c0465f32841877cda1a7f3560b5f1141f69fc530e2c9ac10b92f7029b8d7390600090a250565b610f7f611ba9565b6000546001600160a01b03908116911614610fac5760405162461bcd60e51b81526004016101659061330a565b6000610fbe6040830160208401613018565b9050600a8161ffff161115610fd15750600a5b6040805180820190915280610fe96020850185612d1e565b6001600160a01b03908116825261ffff80851660209384015283516007805495850151909216600160a01b0261ffff60a01b19919093166001600160a01b03199095169490941793909316179091557fbd141520decd44037c2464fbcbac39fdb58aa6bb0061b4bd19371a81f1aa065c9061106690840184612d1e565b826040516110759291906130fe565b60405180910390a15050565b611089611ba9565b6000546001600160a01b039081169116146110b65760405162461bcd60e51b81526004016101659061330a565b600080546040516001600160a01b03909116907f8be0079c531659141344cd1fd0a4f28419497f9722a3daafe3b4186f6b6457e0908390a3600080546001600160a01b0319169055565b611108611ba9565b6000546001600160a01b039081169116146111355760405162461bcd60e51b81526004016101659061330a565b6000805b60055463ffffffff90811690821610156111875763ffffffff81166000908152600460205260409020546001600160a01b038581169116141561117f5760019150611187565b600101611139565b50604080518082019091526002815261313160f01b6020820152816111bf5760405162461bcd60e51b8152600401610165919061318f565b506001600160a01b038316600081815260026020818152604092839020908601356001820155858301359181019190915590519091907f7cf54b86656fffb9d1325c50c39e42b7505430adcc9cdd68c9d6bd1d52b0cc3d906112229086906133ed565b60405180910390a250505050565b60085463ffffffff1690565b6000546001600160a01b031690565b611253611ba9565b6000546001600160a01b039081169116146112805760405162461bcd60e51b81526004016101659061330a565b6001600160a01b0382166000818152600260205260409081902060068101805461ff0019166101008615150217905590519091907f0d7fd1e314b29407db3d79c46ecf1fa3d2108961fab8d20584277358cac41e89906112e1908590613184565b60405180910390a2505050565b6112f6612b80565b6001600160a01b03831660009081526006602052604081209083801561131857fe5b801561132057fe5b81526020808201929092526040908101600020815180830190925280546001600160a01b039081168352600190910154169181019190915290505b92915050565b60003490507f00000000000000000000000000000000000000000000000000000000000000006001600160a01b031663d0e30db0346040518263ffffffff1660e01b81526004016000604051808303818588803b1580156113c157600080fd5b505af11580156113d5573d6000803e3d6000fd5b50505050506114047f000000000000000000000000000000000000000000000000000000000000000082611c6b565b50565b61140f612b97565b6001600160a01b03821660009081526002602081815260409283902083516101408101909452805460808501908152600182015460a08601529281015460c0850152600381015460e08501526004810154610100850152600581015461012085015291835260068201549083019060ff16801561148857fe5b801561149057fe5b81526006919091015460ff6101008204811615156020840152620100009091041615156040909101529050919050565b60006114ca612b97565b6114d2612c30565b60008042815b60055463ffffffff90811690821610156116a15763ffffffff81166000908152600460208181526040808420546001600160a01b031680855260028084529482902082516101408101909352805460808401908152600182015460a08501529581015460c0840152600381015460e08401529384015461010083015260058401546101208301529381526006830154939750929083019060ff16801561157a57fe5b801561158257fe5b81526006919091015460ff610100820481161515602080850191909152620100009092041615156040928301526001600160a01b03808c166000908152600383528381209189168152908252828120835160608101855281548152600182015493810193909352600201549282019290925282519298509650906116069084612349565b90506000611625876020015188604001516123da90919063ffffffff16565b885160a00151909150611639908390611b22565b915060006116548389604001516123da90919063ffffffff16565b90506000611673611663612414565b61166d8486612424565b90612466565b8951909150611683908290611b22565b905061168f8782611b22565b965050600190930192506114d8915050565b50909695505050505050565b6116b5611ba9565b6000546001600160a01b039081169116146116e25760405162461bcd60e51b81526004016101659061330a565b6001600160a01b0381166117085760405162461bcd60e51b81526004016101659061321f565b600080546040516001600160a01b03808516939216917f8be0079c531659141344cd1fd0a4f28419497f9722a3daafe3b4186f6b6457e091a3600080546001600160a01b0319166001600160a01b0392909216919091179055565b6040805180820190915260018152600360fc1b6020820152600090839083906001600160a01b0383166117a95760405162461bcd60e51b8152600401610165919061318f565b506117bc826001600160a01b0316611bad565b604051806040016040528060018152602001603160f81b815250906117f45760405162461bcd60e51b8152600401610165919061318f565b506040805180820190915260018152603360f81b60208201528161182b5760405162461bcd60e51b8152600401610165919061318f565b506118368585611fc6565b95945050505050565b611847611ba9565b6000546001600160a01b039081169116146118745760405162461bcd60e51b81526004016101659061330a565b6000805b60055463ffffffff90811690821610156118c65763ffffffff81166000908152600460205260409020546001600160a01b03858116911614156118be57600191506118c6565b600101611878565b50604080518082019091526002815261313160f01b6020820152816118fe5760405162461bcd60e51b8152600401610165919061318f565b506001600160a01b0383166000908152600660209081526040822090829061192890860186612ef0565b801561193057fe5b801561193857fe5b8152602001908152602001600020905082602001600001602081019061195e9190612d1e565b81546001600160a01b0319166001600160a01b03919091161781556119896060840160408501612d1e565b6001820180546001600160a01b0319166001600160a01b039290921691909117905560006119ba6020850185612ef0565b80156119c257fe5b14156119de5780546119de9085906001600160a01b0316611be9565b6119eb6020840184612ef0565b80156119f357fe5b846001600160a01b03167f66de2dd922d8f6c758abb9469dc78f035df8c8647dbf551ca17695c6539ff84d85602001604051611a2f9190613458565b60405180910390a350505050565b600182015482541015610ef4576040805160c08101825283548152600184015460208201526002840154918101919091526003830154606082015260048301546080820152600583015460a08201524290600090611a9b9083612349565b9050610e37848483856124a8565b6000611ac6836001015484600201546123da90919063ffffffff16565b90506000611ae58360a0015185600201546123da90919063ffffffff16565b90506000611af38284612424565b90508015611b1b57611b18611b10611b09612414565b8390612466565b865490611b22565b85555b5050505050565b600082820183811015611b475760405162461bcd60e51b815260040161016590613292565b9392505050565b611ba48363a9059cbb60e01b8484604051602401611b6d92919061311b565b60408051601f198184030181529190526020810180516001600160e01b03166001600160e01b0319909316929092179091526124f1565b505050565b3390565b6000813f7fc5d2460186f7233c927e7db2dcc703c0e500b653ca82273b7bfad8045d85a470818114801590611be157508115155b949350505050565b60405163095ea7b360e01b81526001600160a01b0383169063095ea7b390611c199084906000199060040161311b565b602060405180830381600087803b158015611c3357600080fd5b505af1158015611c47573d6000803e3d6000fd5b505050506040513d601f19601f82011682018060405250810190611ba49190612ed4565b6001600160a01b0382166000908152600260205260409020611c8c81612580565b60068101805462ff000019166201000017905560008080806001600160a01b038781167f00000000000000000000000000000000000000000000000000000000000000009190911614611cee57611cee6001600160a01b03881633308961260b565b6000600686015460ff168015611d0057fe5b1415611e8757611d0e612b80565b6001600160a01b038816600090815260066020819052604082209088015490919060ff168015611d3a57fe5b8015611d4257fe5b81526020808201929092526040908101600020815180830190925280546001600160a01b03908116808452600190920154169282018390529195509150611d8d90899086338b61262c565b6040516370a0823160e01b81529095506001600160a01b038516906370a0823190611dbc9033906004016130c6565b60206040518083038186803b158015611dd457600080fd5b505afa158015611de8573d6000803e3d6000fd5b505050506040513d601f19601f82011682018060405250810190611e0c9190613052565b9150836001600160a01b03166318160ddd6040518163ffffffff1660e01b815260040160206040518083038186803b158015611e4757600080fd5b505afa158015611e5b573d6000803e3d6000fd5b505050506040513d601f19601f82011682018060405250810190611e7f9190613052565b925050611eb6565b60408051808201825260018152601b60f91b6020820152905162461bcd60e51b8152610165919060040161318f565b611ec08583611a3d565b3360009081526003602090815260408083206001600160a01b038b168452909152902084611f35576040805160c08101825287548152600188015460208201526002880154918101919091526003870154606082015260048701546080820152600587015460a0820152611f35908290611aa9565b60058601546001820155600281018290558415611f69576008805463ffffffff8082166001011663ffffffff199091161790555b60068601805462ff00001916905560405133906001600160a01b038a16907f5548c837ab068cf56a2c2479df0882a4922fd203edb7517321831d95078c5f6290611fb4908b90613539565b60405180910390a35050505050505050565b6001600160a01b0382166000908152600260205260408120611fe781612580565b60068101805462ff0000191662010000179055600080808080600686015460ff16801561201057fe5b1415611e875761201e612b80565b6001600160a01b038916600090815260066020819052604082209088015490919060ff16801561204a57fe5b801561205257fe5b81526020808201929092526040908101600020815180830190925280546001600160a01b0390811680845260019092015416928201839052919550915061209d908a9086338c612720565b9450836001600160a01b03166318160ddd6040518163ffffffff1660e01b815260040160206040518083038186803b1580156120d857600080fd5b505afa1580156120ec573d6000803e3d6000fd5b505050506040513d601f19601f820116820180604052508101906121109190613052565b6040516370a0823160e01b81529093506001600160a01b038516906370a082319061213f9033906004016130c6565b60206040518083038186803b15801561215757600080fd5b505afa15801561216b573d6000803e3d6000fd5b505050506040513d601f19601f8201168201806040525081019061218f9190613052565b91505061219c8583611a3d565b3360009081526003602081815260408084206001600160a01b038d168552825292839020835160c0810185528954815260018a01549281019290925260028901549382019390935290870154606082015260048701546080820152600587015460a082015261220c908290611aa9565b600586015460018201556002810182905581158015612232575060085463ffffffff1615155b15612256576008805463ffffffff19811663ffffffff918216600019019091161790555b336001600160a01b0316896001600160a01b03167f9b1bfa7fa9ee420a16e124f794c35ac9f90472acc99140eb2f6447c714cad8eb876040516122999190613539565b60405180910390a35050506006909201805462ff00001916905591505092915050565b604080516000808252602082019092526001600160a01b0384169083906040516122e691906130aa565b60006040518083038185875af1925050503d8060008114612323576040519150601f19603f3d011682016040523d82523d6000602084013e612328565b606091505b5050905080611ba45760405162461bcd60e51b815260040161016590613376565b6000818360600151108015612362575060008360800151115b156123d257600061238084606001518461242490919063ffffffff16565b9050600061239b8286604001516123da90919063ffffffff16565b90506123af6123a8612414565b82906123da565b90506123c885608001518261246690919063ffffffff16565b925061135b915050565b50600061135b565b6000826123e95750600061135b565b828202828482816123f657fe5b0414611b475760405162461bcd60e51b8152600401610165906132c9565b6b033b2e3c9fd0803ce800000090565b6000611b4783836040518060400160405280601e81526020017f536166654d6174683a207375627472616374696f6e206f766572666c6f770000815250612a4f565b6000611b4783836040518060400160405280601a81526020017f536166654d6174683a206469766973696f6e206279207a65726f000000000000815250612a7b565b6124cd6124c56124b6612414565b600487015461166d90866123da565b855490611b22565b845560058401546124de9083611b22565b6005850155600384015550600490910155565b6060612546826040518060400160405280602081526020017f5361666545524332303a206c6f772d6c6576656c2063616c6c206661696c6564815250856001600160a01b0316612ab29092919063ffffffff16565b805190915015611ba457808060200190518101906125649190612ed4565b611ba45760405162461bcd60e51b8152600401610165906133a3565b60068101546040805180820190915260018152600d60fa1b602082015290610100900460ff16156125c45760405162461bcd60e51b8152600401610165919061318f565b506006810154604080518082019091526002815261189960f11b60208201529062010000900460ff1615610ef45760405162461bcd60e51b8152600401610165919061318f565b610e37846323b872dd60e01b858585604051602401611b6d939291906130da565b60405163e8eda9df60e01b815260009085906001600160a01b0382169063e8eda9df90612663908a90879030908890600401613157565b600060405180830381600087803b15801561267d57600080fd5b505af1158015612691573d6000803e3d6000fd5b50506040516340c10f1960e01b81526001600160a01b03881692506340c10f1991506126c3908790879060040161311b565b602060405180830381600087803b1580156126dd57600080fd5b505af11580156126f1573d6000803e3d6000fd5b505050506040513d601f19601f820116820180604052508101906127159190612ed4565b979650505050505050565b6040516370a0823160e01b81526000908590839083906001600160a01b038816906370a08231906127559089906004016130c6565b60206040518083038186803b15801561276d57600080fd5b505afa158015612781573d6000803e3d6000fd5b505050506040513d601f19601f820116820180604052508101906127a59190613052565b90506000198514806127b657508085115b156127bf578091505b7fdd970dd9b5bfe707922155b058a407655cb18288b807e2216442bca8ad83d6b5826040516127ee91906131f0565b60405180910390a1604051632770a7eb60e21b81526001600160a01b03881690639dc29fac90612824908990869060040161311b565b600060405180830381600087803b15801561283e57600080fd5b505af1158015612852573d6000803e3d6000fd5b505050507f00000000000000000000000000000000000000000000000000000000000000006001600160a01b0316896001600160a01b0316141561291857604051631a4ca37b60e21b81526001600160a01b038416906369328dec906128c0908c9086903090600401613134565b602060405180830381600087803b1580156128da57600080fd5b505af11580156128ee573d6000803e3d6000fd5b505050506040513d601f19601f820116820180604052508101906129129190613052565b5061299c565b604051631a4ca37b60e21b81526001600160a01b038416906369328dec90612948908c9086908b90600401613134565b602060405180830381600087803b15801561296257600080fd5b505af1158015612976573d6000803e3d6000fd5b505050506040513d601f19601f8201168201806040525081019061299a9190613052565b505b6007546001600160a01b0316158015906129c25750600754600160a01b900461ffff1615155b15612a4357600754600160a01b900461ffff166129e56103e861166d85846123da565b90506129f18382612424565b92507f00000000000000000000000000000000000000000000000000000000000000006001600160a01b03168a6001600160a01b031614612a4157612a416001600160a01b038b1688308461260b565b505b50979650505050505050565b60008184841115612a735760405162461bcd60e51b8152600401610165919061318f565b505050900390565b60008183612a9c5760405162461bcd60e51b8152600401610165919061318f565b506000838581612aa857fe5b0495945050505050565b6060611be184846000856060612ac785611bad565b612ae35760405162461bcd60e51b81526004016101659061333f565b60006060866001600160a01b03168587604051612b0091906130aa565b60006040518083038185875af1925050503d8060008114612b3d576040519150601f19603f3d011682016040523d82523d6000602084013e612b42565b606091505b50915091508115612b56579150611be19050565b805115612b665780518082602001fd5b8360405162461bcd60e51b8152600401610165919061318f565b604080518082019091526000808252602082015290565b6040518060800160405280612baa612c51565b81526020016000815260006020820181905260409091015290565b604051806101800160405280612bd9612c87565b815260006020820181905260408201819052606082018190526080820181905260a0820181905260c0820181905260e082018190526101008201819052610120820181905261014082018190526101609091015290565b60405180606001604052806000815260200160008152602001600081525090565b6040518060c001604052806000815260200160008152602001600081526020016000815260200160008152602001600081525090565b6040518060200160405280600081525090565b805161135b816135a6565b600060c08284031215612cb6578081fd5b50919050565b600060208284031215612ccd578081fd5b612cd76020613553565b9151825250919050565b80516001600160801b038116811461135b57600080fd5b805164ffffffffff8116811461135b57600080fd5b805160ff8116811461135b57600080fd5b600060208284031215612d2f578081fd5b8135611b47816135a6565b6000806000806101008587031215612d50578283fd5b8435612d5b816135a6565b9350602085013567ffffffffffffffff80821115612d77578485fd5b818701915087601f830112612d8a578485fd5b813581811115612d98578586fd5b886020606083028501011115612dac578586fd5b602083019550809450505050612dc58660408701612ca5565b905092959194509250565b60008060408385031215612de2578182fd5b8235612ded816135a6565b91506020830135612dfd816135bb565b809150509250929050565b60008060408385031215612e1a578182fd5b8235612e25816135a6565b91506020830135612dfd816135c9565b60008060e08385031215612e47578182fd5b8235612e52816135a6565b9150612e618460208501612ca5565b90509250929050565b6000808284036080811215612e7d578283fd5b8335612e88816135a6565b92506060601f1982011215612e9b578182fd5b506020830190509250929050565b60008060408385031215612ebb578182fd5b8235612ec6816135a6565b946020939093013593505050565b600060208284031215612ee5578081fd5b8151611b47816135bb565b600060208284031215612f01578081fd5b8135611b47816135c9565b600060408284031215612cb6578081fd5b6000610180808385031215612f30578182fd5b612f3981613553565b9050612f458484612cbc565b8152612f548460208501612ce1565b6020820152612f668460408501612ce1565b6040820152612f788460608501612ce1565b6060820152612f8a8460808501612ce1565b6080820152612f9c8460a08501612ce1565b60a0820152612fae8460c08501612cf8565b60c0820152612fc08460e08501612c9a565b60e0820152610100612fd485828601612c9a565b90820152610120612fe785858301612c9a565b90820152610140612ffa85858301612c9a565b9082015261016061300d85858301612d0d565b908201529392505050565b600060208284031215613029578081fd5b813561ffff81168114611b47578182fd5b60006020828403121561304b578081fd5b5035919050565b600060208284031215613063578081fd5b5051919050565b15159052565b803582526020810135602083015260408101356040830152606081013560608301526080810135608083015260a081013560a08301525050565b600082516130bc81846020870161357a565b9190910192915050565b6001600160a01b0391909116815260200190565b6001600160a01b039384168152919092166020820152604081019190915260600190565b6001600160a01b0392909216825261ffff16602082015260400190565b6001600160a01b03929092168252602082015260400190565b6001600160a01b0393841681526020810192909252909116604082015260600190565b6001600160a01b03948516815260208101939093529216604082015261ffff909116606082015260800190565b901515815260200190565b60006020825282518060208401526131ae81604085016020870161357a565b601f01601f19169190910160400192915050565b60208082526014908201527311985b1b189858dac81b9bdd08185b1b1bddd95960621b604082015260600190565b6040808252600d908201526c6275726e20776974686472617760981b6060820152602081019190915260800190565b60208082526026908201527f4f776e61626c653a206e6577206f776e657220697320746865207a65726f206160408201526564647265737360d01b606082015260800190565b602080825260139082015272149958d95a5d99481b9bdd08185b1b1bddd959606a1b604082015260600190565b6020808252601b908201527f536166654d6174683a206164646974696f6e206f766572666c6f770000000000604082015260600190565b60208082526021908201527f536166654d6174683a206d756c7469706c69636174696f6e206f766572666c6f6040820152607760f81b606082015260800190565b6020808252818101527f4f776e61626c653a2063616c6c6572206973206e6f7420746865206f776e6572604082015260600190565b6020808252601d908201527f416464726573733a2063616c6c20746f206e6f6e2d636f6e7472616374000000604082015260600190565b60208082526013908201527211551217d514905394d1915497d19052531151606a1b604082015260600190565b6020808252602a908201527f5361666545524332303a204552433230206f7065726174696f6e20646964206e6040820152691bdd081cdd58d8d9595960b21b606082015260800190565b60c0810161135b8284613070565b600060e0820161340b8386613070565b60e060c0840152835190819052602090610100840190828601845b8281101561344b5781516001600160a01b031684529284019290840190600101613426565b5091979650505050505050565b604081018235613467816135a6565b6001600160a01b039081168352602084013590613483826135a6565b8082166020850152505092915050565b81516001600160a01b039081168252602092830151169181019190915260400190565b6000610120820190508251805183526020810151602084015260408101516040840152606081015160608401526080810151608084015260a081015160a08401525060208301516001811061350757fe5b60c0830152604083015161351e60e084018261306a565b50606083015161353261010084018261306a565b5092915050565b90815260200190565b63ffffffff91909116815260200190565b60405181810167ffffffffffffffff8111828210171561357257600080fd5b604052919050565b60005b8381101561359557818101518382015260200161357d565b83811115610e375750506000910152565b6001600160a01b038116811461140457600080fd5b801515811461140457600080fd5b6001811061140457600080fdfea2646970667358221220fba12202220c623b494de49737f79623e22134ca7a1e501749ed7bc76155bd6164736f6c634300060c0033",
  "immutableReferences": {
    "12463": [
      {
        "length": 32,
        "start": 296
      },
      {
        "length": 32,
        "start": 3652
      },
      {
        "length": 32,
        "start": 3715
      },
      {
        "length": 32,
        "start": 4968
      },
      {
        "length": 32,
        "start": 5087
      },
      {
        "length": 32,
        "start": 7345
      },
      {
        "length": 32,
        "start": 10328
      },
      {
        "length": 32,
        "start": 10741
      }
    ]
  },
  "source": "// SPDX-License-Identifier: agpl-3.0\r\npragma solidity >=0.4.22 <0.9.0;\r\npragma experimental ABIEncoderV2;\r\n\r\nimport {IGunPool} from \"../../interfaces/IGunPool.sol\";\r\nimport {IGPToken} from \"../../interfaces/IGPToken.sol\";\r\nimport {Ownable} from '../../dependencies/openzeppelin/contracts/access/Ownable.sol';\r\nimport {GunPoolContext} from \"./GunPoolContext.sol\";\r\nimport {IERC20} from \"../../dependencies/openzeppelin/contracts/token/ERC20/IERC20.sol\";\r\nimport {SafeERC20} from \"../../dependencies/openzeppelin/contracts/token/ERC20/SafeERC20.sol\";\r\nimport {Address} from \"../../dependencies/openzeppelin/contracts/utils/Address.sol\";\r\nimport {Error} from \"./helpers/Error.sol\";\r\nimport {DataTypes} from \"./pools/aave/DataTypes.sol\";\r\nimport {ILendingPool} from \"./pools/aave/ILendingPool.sol\";\r\nimport {IAToken} from \"./pools/aave/IAToken.sol\";\r\nimport {SafeMath} from \"../../dependencies/openzeppelin/contracts/math/SafeMath.sol\";\r\nimport {MintPolicy} from \"../libraries/MintPolicy.sol\";\r\nimport {IWETH} from \"../../dependencies/misc/IWETH.sol\";\r\nimport {WadRayMath} from \"./pools/aave/WadRayMath.sol\";\r\n\r\ncontract GunPool is IGunPool, Ownable {\r\n  using Address for address;\r\n  using SafeERC20 for IERC20;\r\n  using SafeMath for uint256;\r\n  using MintPolicy for GunPoolContext.PcoinReward;\r\n\r\n  /**** data context ****/\r\n  // pcoin address\r\n  address internal _pcoinAddress;\r\n  // reservers: key is token; value is resverer data\r\n  mapping(address => GunPoolContext.ReserveData) internal _reserves;\r\n  // rewards: key is user and token, value is reward context\r\n  mapping(address => mapping(address => GunPoolContext.RewardContext)) internal _rewards;\r\n  // reservers token list and count\r\n  mapping(uint32 => address) internal _reservesList;\r\n  uint32 internal _reservesCount;\r\n  // IWETH instance\r\n  IWETH internal immutable _IWETH;\r\n  // gptoken mapping: key is token and plane type, value is gptoken address\r\n  mapping (address => mapping(GunPoolContext.PlaneType => GunPoolContext.PlaneContext)) internal _planes;\r\n  // fee account\r\n  GunPoolContext.FeeContext _feeTo;\r\n  // the count of deposit account\r\n  uint32 _depositAccounts;\r\n\r\n  /**** modifier ****/\r\n  modifier tokenValid(address token, uint256 amount) {\r\n    require(token != address(0), Error.TOKEN_ADDRESS_ZERO);\r\n    require(token.isContract(), Error.TOKEN_INVALID_CONTRACTS);\r\n    require(amount > 0, Error.TOKEN_AMOUNT_ZERO);\r\n    _;\r\n  }\r\n\r\n  /**** constructor funcion ****/\r\n  constructor (address weth) public {\r\n    _reservesCount = 0;\r\n    _IWETH = IWETH(weth);\r\n    _feeTo.account = address(0);\r\n    _feeTo.permillage = 0;\r\n    _depositAccounts = 0;\r\n  }\r\n\r\n  /**** public function ****/\r\n  function initReserve(\r\n    address token,\r\n    GunPoolContext.PlaneInitInput[] calldata planes,\r\n    GunPoolContext.PcoinReward calldata pcoin\r\n  )\r\n    external\r\n    override\r\n    onlyOwner\r\n  {\r\n    require(token != address(0), Error.TOKEN_ADDRESS_ZERO);\r\n    require(token.isContract(), Error.TOKEN_INVALID_CONTRACTS);\r\n\r\n    for (uint32 i = 0; i < _reservesCount; i++) {\r\n      require(token != _reservesList[i], Error.TOKEN_RESERVE_EXIST);\r\n    }\r\n\r\n    GunPoolContext.ReserveData storage reserve = _reserves[token];\r\n    reserve.pcoin = GunPoolContext.PcoinReward(0,\r\n                                               pcoin.mintMaxSupply,\r\n                                               pcoin.mintRateBySec,\r\n                                               block.timestamp,\r\n                                               0,\r\n                                               0);\r\n    reserve.pt = GunPoolContext.PlaneType.AAVE;\r\n    reserve.isFrozen = false;\r\n    reserve.lock = false;\r\n\r\n    address[] memory gptoken = new address[](planes.length);\r\n    uint256 insertNums = 0;\r\n\r\n    for ( uint256 j = 0; j < planes.length; j++ ) {\r\n      if ( planes[j].pt == GunPoolContext.PlaneType.AAVE ) {\r\n        _planes[token][planes[j].pt] =\r\n          GunPoolContext.PlaneContext(\r\n            planes[j].plane.plane,\r\n            planes[j].plane.gptoken\r\n          );\r\n        insertNums += 1;\r\n        gptoken[j] = planes[j].plane.gptoken;\r\n        _authorizeAAVEPlane(token, planes[j].plane.plane);\r\n      }\r\n    }\r\n\r\n    require(insertNums > 0, Error.TOKEN_RESERVE_PLANE_INPUT_FAIL);\r\n    _reservesList[_reservesCount] = token;\r\n    _reservesCount++;\r\n\r\n    emit InitReserve(token, pcoin, gptoken);\r\n  }\r\n\r\n  function resetPcoinReward(\r\n    address token,\r\n    GunPoolContext.PcoinReward calldata pcoin\r\n  )\r\n    external\r\n    override\r\n    onlyOwner\r\n  {\r\n    bool isExist = false;\r\n    for (uint32 i = 0; i < _reservesCount; i++) {\r\n      if ( token == _reservesList[i] ) {\r\n        isExist = true;\r\n        break;\r\n      }\r\n    }\r\n    require(isExist, Error.TOKEN_RESERVE_RESET_UNEXIST);\r\n\r\n    GunPoolContext.ReserveData storage reserve = _reserves[token];\r\n    reserve.pcoin.mintMaxSupply = pcoin.mintMaxSupply;\r\n    reserve.pcoin.mintRateBySec = pcoin.mintRateBySec;\r\n\r\n    emit ResetPcoinReward(token, pcoin);\r\n  }\r\n\r\n  function resetPlane(\r\n    address token,\r\n    GunPoolContext.PlaneInitInput calldata planeInput\r\n  )\r\n    external\r\n    override\r\n    onlyOwner\r\n  {\r\n    bool isExist = false;\r\n    for (uint32 i = 0; i < _reservesCount; i++) {\r\n      if ( token == _reservesList[i] ) {\r\n        isExist = true;\r\n        break;\r\n      }\r\n    }\r\n    require(isExist, Error.TOKEN_RESERVE_RESET_UNEXIST);\r\n\r\n    GunPoolContext.PlaneContext storage planeContext = _planes[token][planeInput.pt];\r\n    planeContext.plane = planeInput.plane.plane;\r\n    planeContext.gptoken = planeInput.plane.gptoken;\r\n\r\n    if ( planeInput.pt == GunPoolContext.PlaneType.AAVE ) {\r\n      _authorizeAAVEPlane(token, planeContext.plane);\r\n    }\r\n\r\n    emit ResetPlane(token, planeInput.pt, planeInput.plane);\r\n\r\n  }\r\n\r\n  function pause(address token, bool frozen)\r\n    external\r\n    override\r\n    onlyOwner\r\n  {\r\n    GunPoolContext.ReserveData storage reserve = _reserves[token];\r\n    reserve.isFrozen = frozen;\r\n    emit Pause(token, frozen);\r\n  }\r\n\r\n  function setPcoinAddress(address pcoinAddress)\r\n    external\r\n    override\r\n    onlyOwner\r\n  {\r\n    _pcoinAddress = pcoinAddress;\r\n\r\n    emit SetPcoinAddress(pcoinAddress);\r\n  }\r\n\r\n  function setFeeto(GunPoolContext.FeeContext calldata feeTo)\r\n    external\r\n    override\r\n    onlyOwner\r\n  {\r\n    uint16 permillage = feeTo.permillage;\r\n    if ( permillage > 10 ) {\r\n      permillage = 10;\r\n    }\r\n    _feeTo = GunPoolContext.FeeContext(feeTo.account, permillage);\r\n    emit SetFeeto(feeTo.account, permillage);\r\n  }\r\n\r\n  function getDepositAPY(address token)\r\n    external\r\n    override\r\n    view\r\n    returns(uint256)\r\n  {\r\n    GunPoolContext.ReserveData memory reserve = _reserves[token];\r\n    if ( reserve.pt == GunPoolContext.PlaneType.AAVE ) {\r\n      GunPoolContext.PlaneContext memory plane =\r\n        _planes[token][reserve.pt];\r\n      ILendingPool lendingPool = ILendingPool(plane.plane);\r\n      DataTypes.ReserveData memory lpReserve = lendingPool.getReserveData(token);\r\n      return lpReserve.currentLiquidityRate;\r\n    }\r\n    else {\r\n      return 0;\r\n    }\r\n  }\r\n\r\n  function getDepositAccounts()\r\n    external\r\n    override\r\n    view\r\n    returns(uint32)\r\n  {\r\n    return _depositAccounts;\r\n  }\r\n\r\n  /*\r\n  * user who deposit by polylend gunpool will get gptoken and obtain pcoin reward\r\n  */\r\n  function deposit(\r\n    address token,\r\n    uint256 amount\r\n  )\r\n    external\r\n    override\r\n    tokenValid(token, amount)\r\n  {\r\n    _deposit(token, amount);\r\n  }\r\n\r\n  function _deposit(\r\n    address token,\r\n    uint256 amount\r\n  )\r\n    internal\r\n  {\r\n    GunPoolContext.ReserveData storage reserve = _reserves[token];\r\n    _reserveValidate(reserve);\r\n    bool isFirst = false;\r\n    IGPToken gpToken;\r\n    //uint256 gpMPSupply = 0;\r\n    uint256 gpMASupply = 0;\r\n    //uint256 gpMPBalance = 0;\r\n    uint256 gpMABalance = 0;\r\n    reserve.lock = true;\r\n\r\n    if ( token != address(_IWETH) ) {\r\n      IERC20(token).safeTransferFrom(msg.sender, address(this), amount);\r\n    }\r\n\r\n    if ( reserve.pt == GunPoolContext.PlaneType.AAVE ) {\r\n      GunPoolContext.PlaneContext memory plane = _planes[token][reserve.pt];\r\n      gpToken = IGPToken(plane.gptoken);\r\n      //gpMPBalance = gpToken.balanceOf(msg.sender);\r\n      //gpMPSupply = gpToken.totalSupply();\r\n      isFirst = _aaveDeposit(token,\r\n                             plane.plane,\r\n                             gpToken,\r\n                             msg.sender,\r\n                             amount);\r\n      gpMABalance = gpToken.balanceOf(msg.sender);\r\n      gpMASupply = gpToken.totalSupply();\r\n    }\r\n    else {\r\n      require(false, Error.POOL_PLANE_INVALID);\r\n    }\r\n\r\n    _updateMint(reserve.pcoin, gpMASupply);\r\n    GunPoolContext.RewardContext storage reward = _rewards[msg.sender][token];\r\n    if ( !isFirst ) {\r\n      _updateReward(reward, reserve.pcoin);\r\n    }\r\n    reward.lastMintCapacity = reserve.pcoin.mintCapacity;\r\n    reward.lastGpBalance = gpMABalance;\r\n\r\n    if ( isFirst ) {\r\n      _depositAccounts = _depositAccounts + 1;\r\n    }\r\n\r\n    reserve.lock = false;\r\n    emit Deposit(token, msg.sender, amount);\r\n  }\r\n\r\n  /*\r\n  * we will convert the ratio between gptoken and input token\r\n  */\r\n  function withdraw(\r\n    address token,\r\n    uint256 amount\r\n  ) external override tokenValid(token, amount) returns (uint256) {\r\n    return _withdraw(token, amount);\r\n  }\r\n\r\n  function _withdraw(\r\n    address token,\r\n    uint256 amount\r\n  )\r\n    internal\r\n    returns (uint256)\r\n  {\r\n    GunPoolContext.ReserveData storage reserve = _reserves[token];\r\n    _reserveValidate(reserve);\r\n    uint256 amountWithdraw = 0;\r\n    IGPToken gpToken;\r\n    uint256 gpMASupply = 0;\r\n    uint256 gpMABalance = 0;\r\n    reserve.lock = true;\r\n\r\n    if ( reserve.pt == GunPoolContext.PlaneType.AAVE ) {\r\n      GunPoolContext.PlaneContext memory plane = _planes[token][reserve.pt];\r\n      gpToken = IGPToken(plane.gptoken);\r\n      // gpPreSupply = gpToken.totalSupply();\r\n      amountWithdraw = _aaveWithdraw(token,\r\n                                     plane.plane,\r\n                                     gpToken,\r\n                                     msg.sender,\r\n                                     amount);\r\n      gpMASupply = gpToken.totalSupply();\r\n      gpMABalance = gpToken.balanceOf(msg.sender);\r\n    }\r\n    else {\r\n      require(false, Error.POOL_PLANE_INVALID);\r\n    }\r\n\r\n    _updateMint(reserve.pcoin, gpMASupply);\r\n    GunPoolContext.RewardContext storage reward = _rewards[msg.sender][token];\r\n    _updateReward(reward, reserve.pcoin);\r\n    reward.lastMintCapacity = reserve.pcoin.mintCapacity;\r\n    reward.lastGpBalance = gpMABalance;\r\n    if ( gpMABalance == 0 && _depositAccounts > 0 ) {\r\n      _depositAccounts = _depositAccounts - 1;\r\n    }\r\n\r\n    emit Withdraw(token, msg.sender, amountWithdraw);\r\n    reserve.lock = false;\r\n    return amountWithdraw;\r\n  }\r\n\r\n  function depositByEth()\r\n    external payable override\r\n  {\r\n    uint256 amount = msg.value;\r\n    _IWETH.deposit{value: msg.value}();\r\n    _deposit(address(_IWETH), amount);\r\n    //IGunPool pool = IGunPool(address(this));\r\n    //bytes memory data = abi.encodeWithSelector(pool.deposit.selector, address(_IWETH), amount);\r\n    //(bool success, ) = address(this).delegatecall(data);\r\n    //require(success, Error.WMATIC_DEPOSIT_FAIL);\r\n  }\r\n\r\n  function withdrawByEth(uint256 amount)\r\n    external override\r\n  {\r\n    //IGunPool pool = IGunPool(address(this));\r\n    //bytes memory data = abi.encodeWithSelector(pool.withdraw.selector, address(_IWETH), amount);\r\n    //(bool success, bytes memory returndata) = address(this).delegatecall(data);\r\n    //require(success, Error.WMATIC_WITHDRAW_FAIL);\r\n    //require(returndata.length > 0, Error.WMATIC_WITHDRAW_RETURN_NONE);\r\n    //uint256 amountWithdraw = abi.decode(returndata, (uint256));\r\n    //uint256 amountWithdraw = this.withdraw(address(_IWETH), amount);\r\n    uint256 amountWithdraw = _withdraw(address(_IWETH), amount);\r\n    _IWETH.withdraw(amountWithdraw);\r\n    _safeTransferETH(msg.sender, amountWithdraw);\r\n  }\r\n\r\n  function claim(\r\n    address to\r\n  ) external override returns (uint256) {\r\n    uint256 totalReward = 0;\r\n    GunPoolContext.ReserveData storage reserve;\r\n    GunPoolContext.RewardContext storage reward;\r\n    IGPToken gpToken;\r\n    address token = address(0);\r\n\r\n    for ( uint32 i = 0; i < _reservesCount; i++ ) {\r\n      token = _reservesList[i];\r\n      reserve = _reserves[token];\r\n      reward = _rewards[msg.sender][token];\r\n\r\n      if ( reserve.pt == GunPoolContext.PlaneType.AAVE ) {\r\n        GunPoolContext.PlaneContext memory plane = _planes[token][reserve.pt];\r\n        gpToken = IGPToken(plane.gptoken);\r\n        _updateMint(reserve.pcoin, gpToken.totalSupply());\r\n        _updateReward(reward, reserve.pcoin);\r\n        totalReward = totalReward.add(reward.rewardSupply);\r\n        reward.rewardSupply = 0;\r\n        reward.lastMintCapacity = reserve.pcoin.mintCapacity;\r\n        reward.lastGpBalance = gpToken.balanceOf(msg.sender);\r\n      }\r\n    }\r\n\r\n    if ( (_pcoinAddress != address(0)) && (totalReward > 0) ) {\r\n      IERC20(_pcoinAddress).safeTransfer(to, totalReward);\r\n      emit Claim(msg.sender, to, totalReward);\r\n    }\r\n  }\r\n\r\n  function getReserve(address token)\r\n    external\r\n    view\r\n    override\r\n    returns (GunPoolContext.ReserveData memory)\r\n  {\r\n    return _reserves[token];\r\n  }\r\n\r\n  function getPlanes(address token, GunPoolContext.PlaneType pt)\r\n    external\r\n    view\r\n    override\r\n    returns(GunPoolContext.PlaneContext memory)\r\n  {\r\n    return _planes[token][pt];\r\n  }\r\n\r\n  function rewardBalanceOf(address user)\r\n    external\r\n    view\r\n    override\r\n    returns (uint256 amount)\r\n  {\r\n    GunPoolContext.ReserveData memory reserve;\r\n    GunPoolContext.RewardContext memory reward;\r\n    address token = address(0);\r\n    uint256 rewardBalance = 0;\r\n    uint256 timestamp = block.timestamp;\r\n\r\n    for ( uint32 i = 0; i < _reservesCount; i++ ) {\r\n      token = _reservesList[i];\r\n      reserve = _reserves[token];\r\n      reward = _rewards[user][token];\r\n\r\n      uint256 mintRate = reserve.pcoin.calcultionMintRate(timestamp);\r\n      uint256 preSupply = reward.lastGpBalance.mul(reward.lastMintCapacity);\r\n      mintRate = mintRate.add(reserve.pcoin.mintCapacity);\r\n      uint256 curSupply = reward.lastGpBalance.mul(mintRate);\r\n      uint256 rewardAmount = curSupply.sub(preSupply).div(WadRayMath.ray());\r\n      rewardAmount = rewardAmount.add(reward.rewardSupply);\r\n      rewardBalance = rewardBalance.add(rewardAmount);\r\n    }\r\n\r\n    return rewardBalance;\r\n  }\r\n\r\n  /**** internal function ****/\r\n  function _reserveValidate(GunPoolContext.ReserveData storage reserve) internal view {\r\n    require(!(reserve.isFrozen), Error.RESERVE_FROZEN);\r\n    require(!(reserve.lock), Error.RESERVE_LOCK);\r\n    //require(reserve.aavePlane.gpTokenAddress != address(0), Error.RESERVE_GPTOKEN_ZERO);\r\n  }\r\n\r\n  function _aaveDeposit(\r\n    address token,\r\n    address lendingPoolAddress,\r\n    IGPToken gpToken,\r\n    address user,\r\n    uint256 amount\r\n  )\r\n    internal\r\n    returns (bool)\r\n  {\r\n    ILendingPool lendingPool = ILendingPool(lendingPoolAddress);\r\n    lendingPool.deposit(token, amount, address(this), 0);\r\n    return gpToken.mint(user, amount);\r\n  }\r\n\r\n  function _aaveWithdraw(\r\n    address token,\r\n    address lendingPoolAddress,\r\n    IGPToken gpToken,\r\n    address user,\r\n    uint256 amount\r\n  )\r\n    internal\r\n    returns (uint256)\r\n  {\r\n    ILendingPool lendingPool = ILendingPool(lendingPoolAddress);\r\n    uint256 amountToWithdraw = amount;\r\n    uint256 gpBalance = gpToken.balanceOf(user);\r\n\r\n    if ( (amount == type(uint256).max) || (amount > gpBalance) )\r\n      amountToWithdraw = gpBalance;\r\n    emit Log(\"burn withdraw\", amountToWithdraw);\r\n    gpToken.burn(user, amountToWithdraw);\r\n\r\n    if ( token == address(_IWETH) ) {\r\n      lendingPool.withdraw(token, amountToWithdraw, address(this));\r\n    }\r\n    else {\r\n      lendingPool.withdraw(token, amountToWithdraw, user);\r\n    }\r\n\r\n    if ( _feeTo.account != address(0) && _feeTo.permillage > 0 ) {\r\n      uint256 fee = _feeTo.permillage;\r\n      fee = amountToWithdraw.mul(fee).div(1000);\r\n      amountToWithdraw = amountToWithdraw.sub(fee);\r\n      if ( token != address(_IWETH) ) {\r\n        IERC20(token).safeTransferFrom(user, address(this), fee);\r\n      }\r\n    }\r\n\r\n    return amountToWithdraw;\r\n  }\r\n\r\n  function _updateMint(\r\n    GunPoolContext.PcoinReward storage pcoin,\r\n    uint256 supply\r\n  )\r\n    internal\r\n  {\r\n    if ( pcoin.mintSupply < pcoin.mintMaxSupply ) {\r\n      uint256 timestamp = block.timestamp;\r\n      uint256 mintRate = pcoin.calcultionMintRate(timestamp);\r\n      pcoin.updateMintContext(supply, mintRate, timestamp);\r\n    }\r\n  }\r\n\r\n  function _updateReward(\r\n    GunPoolContext.RewardContext storage reward,\r\n    GunPoolContext.PcoinReward memory pcoin\r\n  )\r\n    internal\r\n  {\r\n    uint256 preSupply = reward.lastGpBalance.mul(reward.lastMintCapacity);\r\n    uint256 curSupply = reward.lastGpBalance.mul(pcoin.mintCapacity);\r\n    uint256 rewardAmount = curSupply.sub(preSupply);\r\n\r\n    if ( rewardAmount > 0 ) {\r\n      reward.rewardSupply = reward.rewardSupply.add(rewardAmount.div(WadRayMath.ray()));\r\n    }\r\n  }\r\n\r\n  /**\r\n   * @dev transfer ETH to an address, revert if it fails.\r\n   * @param to recipient of the transfer\r\n   * @param value the amount to send\r\n   */\r\n  function _safeTransferETH(address to, uint256 value) internal {\r\n    (bool success, ) = to.call{value: value}(new bytes(0));\r\n    require(success, 'ETH_TRANSFER_FAILED');\r\n  }\r\n\r\n  /*\r\n  * @dev approve aoken to aave plane from this address\r\n  * @param token find reserve from aave\r\n  * @param lpAddress is lendingPool address for aave\r\n  */\r\n  function _authorizeAAVEPlane(\r\n    address token,\r\n    address plane\r\n  )\r\n    internal\r\n  {\r\n    IERC20(token).approve(plane, uint256(-1));\r\n  }\r\n\r\n  /**\r\n   * @dev Only _IWETH contract is allowed to transfer ETH here.\r\n   *   Prevent other addresses to send Ether to this contract.\r\n   */\r\n  receive() external payable {\r\n    require(msg.sender == address(_IWETH), 'Receive not allowed');\r\n  }\r\n\r\n  /**\r\n   * @dev Revert fallback calls\r\n   */\r\n  fallback() external payable {\r\n    revert('Fallback not allowed');\r\n  }\r\n}\r\n",
  "sourcePath": "E:\\my_work\\Eos\\polylend\\core\\protocol_v1\\contracts\\protocol\\gunpool\\GunPool.sol",
  "compiler": {
    "name": "solc",
    "version": "0.6.12+commit.27d51765.Emscripten.clang"
  },
  "schemaVersion": "3.4.2",
  "updatedAt": "2021-08-12T06:18:20.719Z",
  "devdoc": {
    "kind": "dev",
    "methods": {
      "claim(address)": {
        "details": "claim from gun pool(contain: polylend token) Returns amount The total amount of reward is obtained by to which is recalculated by pcoin Emits a {Claim} event.*"
      },
      "deposit(address,uint256)": {
        "details": "deposit the ERC20 token",
        "params": {
          "amount": "The amount of the token to deposit.(For max: `uint256(-1)`) Emits a {Deposit} event.*",
          "token": "The address of the token to deposit.(For MATIC: 0xEeeeeEeeeEeEeeEeEeEeeEEEeeeeEeeeeeeeEEeE)"
        }
      },
      "depositByEth()": {
        "details": "deposit the mainet basis token Returns a boolean value indicating whether the operation succeeded. Emits a {Deposit} event.*"
      },
      "getDepositAPY(address)": {
        "details": "getDepositAPY get the APY of deposited token",
        "params": {
          "token": "the address of reserve"
        },
        "returns": {
          "_0": "APY: Annual percentage yields*"
        }
      },
      "getDepositAccounts()": {
        "details": "getDepositAccounts get acconts of deposit",
        "returns": {
          "_0": "Accounts: who has deposited*"
        }
      },
      "getPlanes(address,uint8)": {
        "details": "getPlanes get the context address of work plane",
        "params": {
          "pt": "the type of plane",
          "token": "the address of reserve"
        },
        "returns": {
          "_0": "planecontext contain address of plane and gptoken*"
        }
      },
      "getReserve(address)": {
        "details": "Returns the state of the reserve in gunpool",
        "params": {
          "token": "The address of the underlying token of the reserve"
        },
        "returns": {
          "_0": "The state of the reserve in gunpool*"
        }
      },
      "initReserve(address,(uint8,(address,address))[],(uint256,uint256,uint256,uint256,uint256,uint256))": {
        "details": "initReserve configure the reserve in gunpool",
        "params": {
          "pcoin": "The reward context of polylend coin Emits a {InitReserve} event.*",
          "planes": "the context of the plane",
          "token": "The address of the underlying token of the reserve"
        }
      },
      "owner()": {
        "details": "Returns the address of the current owner."
      },
      "pause(address,bool)": {
        "details": "pause set token frozen status",
        "params": {
          "frozen": "the status of reserve, true is frozen Emits a {Pause} event*",
          "token": "the address of reserve"
        }
      },
      "renounceOwnership()": {
        "details": "Leaves the contract without owner. It will not be possible to call `onlyOwner` functions anymore. Can only be called by the current owner. NOTE: Renouncing ownership will leave the contract without an owner, thereby removing any functionality that is only available to the owner."
      },
      "resetPcoinReward(address,(uint256,uint256,uint256,uint256,uint256,uint256))": {
        "details": "resetReservePcoinReward reset pcoin reward params for reserve",
        "params": {
          "pcoin": "The reward context of polylend coin Emits a {ResetPcoinReward} event*",
          "token": "The address of the underlying token of the reserve"
        }
      },
      "resetPlane(address,(uint8,(address,address)))": {
        "details": "resetPlane reset plane for reserve",
        "params": {
          "planeInput": "the context of the plane Emits a {ResetPlane} event*",
          "token": "The address of the underlying token of the reserve"
        }
      },
      "rewardBalanceOf(address)": {
        "details": "rewardBalanceOf quary pcoin rewards",
        "params": {
          "user": "who has rewards Returns balance The total amount of reward*"
        }
      },
      "setFeeto((address,uint16))": {
        "details": "setFeeto set account and permillage for fee",
        "params": {
          "feeTo": "the context of feeto Emits a {SetFeeTo} event*"
        }
      },
      "setPcoinAddress(address)": {
        "details": "initPcoinAddress set the address of pcoin",
        "params": {
          "pcoinAddress": "the address of pcoin who mint reward for user Emits a {SetPcoinAddress} event*"
        }
      },
      "transferOwnership(address)": {
        "details": "Transfers ownership of the contract to a new account (`newOwner`). Can only be called by the current owner."
      },
      "withdraw(address,uint256)": {
        "details": "withdraw the ERC20 token",
        "params": {
          "amount": "The amount of the lptoken (For max: `uint256(-1)`) Returns a boolean value indicating whether the operation succeeded. Emits a {Withdraw} event.*",
          "token": "The address of the token to withdraw.(For MATIC: 0xEeeeeEeeeEeEeeEeEeEeeEEEeeeeEeeeeeeeEEeE)"
        }
      },
      "withdrawByEth(uint256)": {
        "details": "withdraw the mainet basis token",
        "params": {
          "amount": "The amount of the token to withdraw.(For max: `uint256(-1)`) Returns a boolean value indicating whether the operation succeeded. Emits a {Withdraw} event.*"
        }
      }
    },
    "version": 1
  },
  "userdoc": {
    "kind": "user",
    "methods": {},
    "version": 1
  }
}