{
  "contractName": "LoodingPoolMock",
  "abi": [
    {
      "inputs": [
        {
          "internalType": "address",
          "name": "asset",
          "type": "address"
        }
      ],
      "stateMutability": "nonpayable",
      "type": "constructor"
    },
    {
      "inputs": [
        {
          "internalType": "uint256",
          "name": "timestamp",
          "type": "uint256"
        }
      ],
      "name": "setCurBlockTime",
      "outputs": [],
      "stateMutability": "nonpayable",
      "type": "function"
    },
    {
      "inputs": [
        {
          "internalType": "address",
          "name": "asset",
          "type": "address"
        }
      ],
      "name": "getReserveNormalizedIncome",
      "outputs": [
        {
          "internalType": "uint256",
          "name": "",
          "type": "uint256"
        }
      ],
      "stateMutability": "view",
      "type": "function"
    },
    {
      "inputs": [],
      "name": "getLastBlockTime",
      "outputs": [
        {
          "internalType": "uint256",
          "name": "",
          "type": "uint256"
        }
      ],
      "stateMutability": "view",
      "type": "function"
    },
    {
      "inputs": [
        {
          "internalType": "address",
          "name": "gpToken",
          "type": "address"
        },
        {
          "internalType": "uint256",
          "name": "amount",
          "type": "uint256"
        }
      ],
      "name": "mint",
      "outputs": [
        {
          "internalType": "bool",
          "name": "",
          "type": "bool"
        }
      ],
      "stateMutability": "nonpayable",
      "type": "function"
    }
  ],
  "bytecode": "0x608060405234801561001057600080fd5b506040516103313803806103318339818101604052602081101561003357600080fd5b5051426000819055600180546001600160a01b039093166001600160a01b0319909316929092179091556002556305f5e1006003556102ba806100776000396000f3fe608060405234801561001057600080fd5b506004361061004c5760003560e01c806307d1a56e146100515780632f8dcc651461006b57806340c10f191461008a578063d15e0053146100ca575b600080fd5b6100596100f0565b60408051918252519081900360200190f35b6100886004803603602081101561008157600080fd5b50356100f6565b005b6100b6600480360360408110156100a057600080fd5b506001600160a01b038135169060200135610100565b604080519115158252519081900360200190f35b610059600480360360208110156100e057600080fd5b50356001600160a01b031661018c565b60005490565b6002805460005555565b6000826001600160a01b03166340c10f1933846040518363ffffffff1660e01b815260040180836001600160a01b0316815260200182815260200192505050602060405180830381600087803b15801561015957600080fd5b505af115801561016d573d6000803e3d6000fd5b505050506040513d602081101561018357600080fd5b50519392505050565b6001546000906001600160a01b038381169116146101e3576040805162461bcd60e51b815260206004820152600f60248201526e185cdcd95d08191a5999995c995b9d608a1b604482015290519081900360640190fd5b600254600054106101f7575060035461021e565b600080546002540361271002905061021a8160035461022390919063ffffffff16565b9150505b919050565b60008282018381101561027d576040805162461bcd60e51b815260206004820152601b60248201527f536166654d6174683a206164646974696f6e206f766572666c6f770000000000604482015290519081900360640190fd5b939250505056fea2646970667358221220b532ed62fa9089a8b0a2ba61d8e042c98d8dd8d77e4b87759c631a2f862357cf64736f6c634300060c0033",
  "immutableReferences": {},
  "source": "// SPDX-License-Identifier: agpl-3.0\npragma solidity >=0.4.22 <0.9.0;\n\nimport {SafeMath} from \"../dependencies/openzeppelin/contracts/math/SafeMath.sol\";\nimport {IGPToken} from \"../interfaces/IGPToken.sol\";\n\ncontract LoodingPoolMock {\n  using SafeMath for uint256;\n\n  uint256 _lastBlockTime;\n  address _asset;\n  uint256 _curBlockTime;\n  uint256 _index;\n\n  constructor (address asset) public {\n    _lastBlockTime = block.timestamp;\n    _asset = asset;\n    _curBlockTime = _lastBlockTime;\n    _index = 10**8;\n  }\n\n  function setCurBlockTime(uint256 timestamp)\n    external\n  {\n    _lastBlockTime = _curBlockTime;\n    _curBlockTime = timestamp;\n  }\n\n  function getReserveNormalizedIncome(address asset)\n    external\n    view\n    returns (uint256)\n  {\n    require(asset == _asset, \"asset different\");\n    if ( _lastBlockTime >= _curBlockTime ) {\n      return _index;\n    }\n    else {\n      uint256 ret = (10**4)*(_curBlockTime-_lastBlockTime);\n      return _index.add(ret);\n    }\n  }\n\n  function getLastBlockTime()\n    external\n    view\n    returns (uint256)\n  {\n    return _lastBlockTime;\n  }\n\n  function mint(address gpToken, uint256 amount)\n    external\n    returns (bool)\n  {\n    return IGPToken(gpToken).mint(msg.sender, amount);\n  }\n}\n\n/*\nimport {ILendingPool} from \"../protocol/gunpool/pools/aave/ILendingPool.sol\";\nimport {DataTypes} from \"../protocol/gunpool/pools/aave/DataTypes.sol\";\n\ncontract LoodingPoolMock is ILendingPool {\n\n  uint256 _lastBlockTime;\n\n  constructor () public {\n    _lastBlockTime = block.timestamp;\n  }\n\n  function deposit(\n    address asset,\n    uint256 amount,\n    address onBehalfOf,\n    uint16 referralCode\n  ) external override {\n    return;\n  }\n\n  function withdraw(\n    address asset,\n    uint256 amount,\n    address to\n  ) external override returns (uint256) {\n    return amount;\n  }\n\n  function borrow(\n    address asset,\n    uint256 amount,\n    uint256 interestRateMode,\n    uint16 referralCode,\n    address onBehalfOf\n  ) external override\n  {\n    return;\n  }\n\n  function repay(\n    address asset,\n    uint256 amount,\n    uint256 rateMode,\n    address onBehalfOf\n  ) external override returns (uint256)\n  {\n    return amount;\n  }\n\n  function swapBorrowRateMode(address asset, uint256 rateMode)\n    external override\n  {\n    return;\n  }\n\n  function rebalanceStableBorrowRate(address asset, address user)\n    external override\n  {\n    return;\n  }\n\n  function setUserUseReserveAsCollateral(address asset, bool useAsCollateral)\n    external override\n  {\n    return;\n  }\n\n  function liquidationCall(\n    address collateralAsset,\n    address debtAsset,\n    address user,\n    uint256 debtToCover,\n    bool receiveAToken\n  ) external override\n  {\n    return;\n  }\n\n  function flashLoan(\n    address receiverAddress,\n    address[] calldata assets,\n    uint256[] calldata amounts,\n    uint256[] calldata modes,\n    address onBehalfOf,\n    bytes calldata params,\n    uint16 referralCode\n  ) external override\n  {\n    return;\n  }\n\n  function getUserAccountData(address user)\n    external\n    override\n    view\n    returns (\n      uint256 totalCollateralETH,\n      uint256 totalDebtETH,\n      uint256 availableBorrowsETH,\n      uint256 currentLiquidationThreshold,\n      uint256 ltv,\n      uint256 healthFactor\n    )\n  {\n    return (0,0,0,0,0,0);\n  }\n\n  function initReserve(\n    address reserve,\n    address aTokenAddress,\n    address stableDebtAddress,\n    address variableDebtAddress,\n    address interestRateStrategyAddress\n  ) external override\n  {\n    return;\n  }\n\n  function setReserveInterestRateStrategyAddress(\n    address reserve,\n    address rateStrategyAddress\n  ) external override\n  {\n    return;\n  }\n\n  function setConfiguration(\n    address reserve,\n    uint256 configuration)\n    external override\n  {\n    return;\n  }\n\n  function getConfiguration(address asset)\n    external\n    view\n    override\n    returns (DataTypes.ReserveConfigurationMap memory)\n  {\n    DataTypes.ReserveConfigurationMap memory ret;\n    return ret;\n  }\n\n  function getUserConfiguration(address user)\n    external\n    view\n    override\n    returns (DataTypes.UserConfigurationMap memory)\n  {\n    DataTypes.UserConfigurationMap memory ret;\n    return ret;\n  }\n\n  function getReserveNormalizedIncome(address asset)\n    external\n    view\n    override\n    returns (uint256)\n  {\n    // todo\n    return 0;\n  }\n\n  function getReserveNormalizedVariableDebt(address asset)\n    external\n    view\n    override\n    returns (uint256)\n  {\n    return 0;\n  }\n\n  function getReserveData(address asset)\n    external\n    view\n    override\n    returns (DataTypes.ReserveData memory)\n  {\n    DataTypes.ReserveData memory ret;\n    return ret;\n  }\n\n  function finalizeTransfer(\n    address asset,\n    address from,\n    address to,\n    uint256 amount,\n    uint256 balanceFromAfter,\n    uint256 balanceToBefore\n  ) external\n    override\n  {\n    return;\n  }\n\n  function getReservesList()\n    external\n    view\n    override\n    returns (address[] memory)\n  {\n    address[] memory ret = new address[](2);\n    return ret;\n  }\n\n  function setPause(bool val) external override {\n    return;\n  }\n\n  function paused() external view override returns (bool) {\n    return true;\n  }\n} */\n",
  "sourcePath": "/home/gaozl/Downloads/polygon/myproject/contracts/protocol_v1/contracts/mock/LoodingPoolMock.sol",
  "compiler": {
    "name": "solc",
    "version": "0.6.12+commit.27d51765.Emscripten.clang"
  },
  "schemaVersion": "3.4.1",
  "updatedAt": "2021-07-23T11:42:28.222Z",
  "devdoc": {
    "kind": "dev",
    "methods": {},
    "version": 1
  },
  "userdoc": {
    "kind": "user",
    "methods": {},
    "version": 1
  }
}