{
  "contractName": "LoodingPoolMock",
  "abi": [
    {
      "inputs": [
        {
          "internalType": "address",
          "name": "asset",
          "type": "address"
        }
      ],
      "stateMutability": "nonpayable",
      "type": "constructor"
    },
    {
      "inputs": [
        {
          "internalType": "uint256",
          "name": "timestamp",
          "type": "uint256"
        }
      ],
      "name": "setCurBlockTime",
      "outputs": [],
      "stateMutability": "nonpayable",
      "type": "function"
    },
    {
      "inputs": [
        {
          "internalType": "address",
          "name": "asset",
          "type": "address"
        }
      ],
      "name": "getReserveNormalizedIncome",
      "outputs": [
        {
          "internalType": "uint256",
          "name": "",
          "type": "uint256"
        }
      ],
      "stateMutability": "view",
      "type": "function"
    },
    {
      "inputs": [],
      "name": "getLastBlockTime",
      "outputs": [
        {
          "internalType": "uint256",
          "name": "",
          "type": "uint256"
        }
      ],
      "stateMutability": "view",
      "type": "function"
    },
    {
      "inputs": [
        {
          "internalType": "address",
          "name": "gpToken",
          "type": "address"
        },
        {
          "internalType": "uint256",
          "name": "amount",
          "type": "uint256"
        }
      ],
      "name": "mint",
      "outputs": [
        {
          "internalType": "bool",
          "name": "",
          "type": "bool"
        }
      ],
      "stateMutability": "nonpayable",
      "type": "function"
    }
  ],
  "bytecode": "0x608060405234801561001057600080fd5b506040516103bf3803806103bf83398101604081905261002f91610066565b426000819055600180546001600160a01b0319166001600160a01b0393909316929092179091556002556305f5e100600355610096565b60006020828403121561007857600080fd5b81516001600160a01b038116811461008f57600080fd5b9392505050565b61031a806100a56000396000f3fe608060405234801561001057600080fd5b506004361061004c5760003560e01c806307d1a56e146100515780632f8dcc651461006857806340c10f1914610082578063d15e0053146100a5575b600080fd5b6000545b6040519081526020015b60405180910390f35b610080610076366004610267565b6002805460005555565b005b61009561009036600461021b565b6100b8565b604051901515815260200161005f565b6100556100b3366004610200565b610142565b6040516340c10f1960e01b8152336004820152602481018290526000906001600160a01b038416906340c10f1990604401602060405180830381600087803b15801561010357600080fd5b505af1158015610117573d6000803e3d6000fd5b505050506040513d601f19601f8201168201806040525081019061013b9190610245565b9392505050565b6001546000906001600160a01b038381169116146101985760405162461bcd60e51b815260206004820152600f60248201526e185cdcd95d08191a5999995c995b9d608a1b604482015260640160405180910390fd5b600254600054106101ab57505060035490565b600080546002546101bc91906102b7565b6101c890612710610298565b60035490915061013b90826101dd565b919050565b600061013b8284610280565b80356001600160a01b03811681146101d857600080fd5b60006020828403121561021257600080fd5b61013b826101e9565b6000806040838503121561022e57600080fd5b610237836101e9565b946020939093013593505050565b60006020828403121561025757600080fd5b8151801515811461013b57600080fd5b60006020828403121561027957600080fd5b5035919050565b60008219821115610293576102936102ce565b500190565b60008160001904831182151516156102b2576102b26102ce565b500290565b6000828210156102c9576102c96102ce565b500390565b634e487b7160e01b600052601160045260246000fdfea2646970667358221220385fc7fb8b2ec4e87cb8334c6c2ca72536b06d4a8fe8a429298e2d2a85f6202564736f6c63430008070033",
  "immutableReferences": {},
  "source": "// SPDX-License-Identifier: agpl-3.0\r\npragma solidity ^0.8.0;\r\n\r\nimport {SafeMath} from \"../dependencies/openzeppelin/contracts/utils/math/SafeMath.sol\";\r\nimport {IGPToken} from \"../interfaces/IGPToken.sol\";\r\n\r\ncontract LoodingPoolMock {\r\n  using SafeMath for uint256;\r\n\r\n  uint256 _lastBlockTime;\r\n  address _asset;\r\n  uint256 _curBlockTime;\r\n  uint256 _index;\r\n\r\n  constructor (address asset)\r\n  {\r\n    _lastBlockTime = block.timestamp;\r\n    _asset = asset;\r\n    _curBlockTime = _lastBlockTime;\r\n    _index = 10**8;\r\n  }\r\n\r\n  function setCurBlockTime(uint256 timestamp)\r\n    external\r\n  {\r\n    _lastBlockTime = _curBlockTime;\r\n    _curBlockTime = timestamp;\r\n  }\r\n\r\n  function getReserveNormalizedIncome(address asset)\r\n    external\r\n    view\r\n    returns (uint256)\r\n  {\r\n    require(asset == _asset, \"asset different\");\r\n    if ( _lastBlockTime >= _curBlockTime ) {\r\n      return _index;\r\n    }\r\n    else {\r\n      uint256 ret = (10**4)*(_curBlockTime-_lastBlockTime);\r\n      return _index.add(ret);\r\n    }\r\n  }\r\n\r\n  function getLastBlockTime()\r\n    external\r\n    view\r\n    returns (uint256)\r\n  {\r\n    return _lastBlockTime;\r\n  }\r\n\r\n  function mint(address gpToken, uint256 amount)\r\n    external\r\n    returns (bool)\r\n  {\r\n    return IGPToken(gpToken).mint(msg.sender, amount);\r\n  }\r\n}\r\n\r\n/*\r\nimport {ILendingPool} from \"../protocol/gunpool/pools/aave/ILendingPool.sol\";\r\nimport {DataTypes} from \"../protocol/gunpool/pools/aave/DataTypes.sol\";\r\n\r\ncontract LoodingPoolMock is ILendingPool {\r\n\r\n  uint256 _lastBlockTime;\r\n\r\n  constructor () public {\r\n    _lastBlockTime = block.timestamp;\r\n  }\r\n\r\n  function deposit(\r\n    address asset,\r\n    uint256 amount,\r\n    address onBehalfOf,\r\n    uint16 referralCode\r\n  ) external override {\r\n    return;\r\n  }\r\n\r\n  function withdraw(\r\n    address asset,\r\n    uint256 amount,\r\n    address to\r\n  ) external override returns (uint256) {\r\n    return amount;\r\n  }\r\n\r\n  function borrow(\r\n    address asset,\r\n    uint256 amount,\r\n    uint256 interestRateMode,\r\n    uint16 referralCode,\r\n    address onBehalfOf\r\n  ) external override\r\n  {\r\n    return;\r\n  }\r\n\r\n  function repay(\r\n    address asset,\r\n    uint256 amount,\r\n    uint256 rateMode,\r\n    address onBehalfOf\r\n  ) external override returns (uint256)\r\n  {\r\n    return amount;\r\n  }\r\n\r\n  function swapBorrowRateMode(address asset, uint256 rateMode)\r\n    external override\r\n  {\r\n    return;\r\n  }\r\n\r\n  function rebalanceStableBorrowRate(address asset, address user)\r\n    external override\r\n  {\r\n    return;\r\n  }\r\n\r\n  function setUserUseReserveAsCollateral(address asset, bool useAsCollateral)\r\n    external override\r\n  {\r\n    return;\r\n  }\r\n\r\n  function liquidationCall(\r\n    address collateralAsset,\r\n    address debtAsset,\r\n    address user,\r\n    uint256 debtToCover,\r\n    bool receiveAToken\r\n  ) external override\r\n  {\r\n    return;\r\n  }\r\n\r\n  function flashLoan(\r\n    address receiverAddress,\r\n    address[] calldata assets,\r\n    uint256[] calldata amounts,\r\n    uint256[] calldata modes,\r\n    address onBehalfOf,\r\n    bytes calldata params,\r\n    uint16 referralCode\r\n  ) external override\r\n  {\r\n    return;\r\n  }\r\n\r\n  function getUserAccountData(address user)\r\n    external\r\n    override\r\n    view\r\n    returns (\r\n      uint256 totalCollateralETH,\r\n      uint256 totalDebtETH,\r\n      uint256 availableBorrowsETH,\r\n      uint256 currentLiquidationThreshold,\r\n      uint256 ltv,\r\n      uint256 healthFactor\r\n    )\r\n  {\r\n    return (0,0,0,0,0,0);\r\n  }\r\n\r\n  function initReserve(\r\n    address reserve,\r\n    address aTokenAddress,\r\n    address stableDebtAddress,\r\n    address variableDebtAddress,\r\n    address interestRateStrategyAddress\r\n  ) external override\r\n  {\r\n    return;\r\n  }\r\n\r\n  function setReserveInterestRateStrategyAddress(\r\n    address reserve,\r\n    address rateStrategyAddress\r\n  ) external override\r\n  {\r\n    return;\r\n  }\r\n\r\n  function setConfiguration(\r\n    address reserve,\r\n    uint256 configuration)\r\n    external override\r\n  {\r\n    return;\r\n  }\r\n\r\n  function getConfiguration(address asset)\r\n    external\r\n    view\r\n    override\r\n    returns (DataTypes.ReserveConfigurationMap memory)\r\n  {\r\n    DataTypes.ReserveConfigurationMap memory ret;\r\n    return ret;\r\n  }\r\n\r\n  function getUserConfiguration(address user)\r\n    external\r\n    view\r\n    override\r\n    returns (DataTypes.UserConfigurationMap memory)\r\n  {\r\n    DataTypes.UserConfigurationMap memory ret;\r\n    return ret;\r\n  }\r\n\r\n  function getReserveNormalizedIncome(address asset)\r\n    external\r\n    view\r\n    override\r\n    returns (uint256)\r\n  {\r\n    // todo\r\n    return 0;\r\n  }\r\n\r\n  function getReserveNormalizedVariableDebt(address asset)\r\n    external\r\n    view\r\n    override\r\n    returns (uint256)\r\n  {\r\n    return 0;\r\n  }\r\n\r\n  function getReserveData(address asset)\r\n    external\r\n    view\r\n    override\r\n    returns (DataTypes.ReserveData memory)\r\n  {\r\n    DataTypes.ReserveData memory ret;\r\n    return ret;\r\n  }\r\n\r\n  function finalizeTransfer(\r\n    address asset,\r\n    address from,\r\n    address to,\r\n    uint256 amount,\r\n    uint256 balanceFromAfter,\r\n    uint256 balanceToBefore\r\n  ) external\r\n    override\r\n  {\r\n    return;\r\n  }\r\n\r\n  function getReservesList()\r\n    external\r\n    view\r\n    override\r\n    returns (address[] memory)\r\n  {\r\n    address[] memory ret = new address[](2);\r\n    return ret;\r\n  }\r\n\r\n  function setPause(bool val) external override {\r\n    return;\r\n  }\r\n\r\n  function paused() external view override returns (bool) {\r\n    return true;\r\n  }\r\n} */\r\n",
  "sourcePath": "E:\\my_work\\Eos\\polylend\\core\\protocol_v1\\contracts\\mock\\LoodingPoolMock.sol",
  "compiler": {
    "name": "solc",
    "version": "0.8.7+commit.e28d00a7.Emscripten.clang"
  },
  "schemaVersion": "3.4.2",
  "updatedAt": "2021-08-19T02:20:52.386Z",
  "devdoc": {
    "kind": "dev",
    "methods": {},
    "version": 1
  },
  "userdoc": {
    "kind": "user",
    "methods": {},
    "version": 1
  }
}