{
  "contractName": "LoodingPoolMock",
  "abi": [
    {
      "inputs": [
        {
          "internalType": "address",
          "name": "asset",
          "type": "address"
        }
      ],
      "stateMutability": "nonpayable",
      "type": "constructor"
    },
    {
      "inputs": [
        {
          "internalType": "uint256",
          "name": "timestamp",
          "type": "uint256"
        }
      ],
      "name": "setCurBlockTime",
      "outputs": [],
      "stateMutability": "nonpayable",
      "type": "function"
    },
    {
      "inputs": [
        {
          "internalType": "address",
          "name": "asset",
          "type": "address"
        }
      ],
      "name": "getReserveNormalizedIncome",
      "outputs": [
        {
          "internalType": "uint256",
          "name": "",
          "type": "uint256"
        }
      ],
      "stateMutability": "view",
      "type": "function"
    },
    {
      "inputs": [],
      "name": "getLastBlockTime",
      "outputs": [
        {
          "internalType": "uint256",
          "name": "",
          "type": "uint256"
        }
      ],
      "stateMutability": "view",
      "type": "function"
    },
    {
      "inputs": [
        {
          "internalType": "address",
          "name": "gpToken",
          "type": "address"
        },
        {
          "internalType": "uint256",
          "name": "amount",
          "type": "uint256"
        }
      ],
      "name": "mint",
      "outputs": [
        {
          "internalType": "bool",
          "name": "",
          "type": "bool"
        }
      ],
      "stateMutability": "nonpayable",
      "type": "function"
    }
  ],
  "bytecode": "0x608060405234801561001057600080fd5b506040516103313803806103318339818101604052602081101561003357600080fd5b5051426000819055600180546001600160a01b039093166001600160a01b0319909316929092179091556002556305f5e1006003556102ba806100776000396000f3fe608060405234801561001057600080fd5b506004361061004c5760003560e01c806307d1a56e146100515780632f8dcc651461006b57806340c10f191461008a578063d15e0053146100ca575b600080fd5b6100596100f0565b60408051918252519081900360200190f35b6100886004803603602081101561008157600080fd5b50356100f6565b005b6100b6600480360360408110156100a057600080fd5b506001600160a01b038135169060200135610100565b604080519115158252519081900360200190f35b610059600480360360208110156100e057600080fd5b50356001600160a01b031661018c565b60005490565b6002805460005555565b6000826001600160a01b03166340c10f1933846040518363ffffffff1660e01b815260040180836001600160a01b0316815260200182815260200192505050602060405180830381600087803b15801561015957600080fd5b505af115801561016d573d6000803e3d6000fd5b505050506040513d602081101561018357600080fd5b50519392505050565b6001546000906001600160a01b038381169116146101e3576040805162461bcd60e51b815260206004820152600f60248201526e185cdcd95d08191a5999995c995b9d608a1b604482015290519081900360640190fd5b600254600054106101f7575060035461021e565b600080546002540361271002905061021a8160035461022390919063ffffffff16565b9150505b919050565b60008282018381101561027d576040805162461bcd60e51b815260206004820152601b60248201527f536166654d6174683a206164646974696f6e206f766572666c6f770000000000604482015290519081900360640190fd5b939250505056fea26469706673582212202092713abf27c3b78546079fd3fca342a1d1b7cf8d134bfda4f243728fa7032364736f6c634300060c0033",
  "immutableReferences": {},
  "source": "// SPDX-License-Identifier: agpl-3.0\r\npragma solidity >=0.4.22 <0.9.0;\r\n\r\nimport {SafeMath} from \"../dependencies/openzeppelin/contracts/math/SafeMath.sol\";\r\nimport {IGPToken} from \"../interfaces/IGPToken.sol\";\r\n\r\ncontract LoodingPoolMock {\r\n  using SafeMath for uint256;\r\n\r\n  uint256 _lastBlockTime;\r\n  address _asset;\r\n  uint256 _curBlockTime;\r\n  uint256 _index;\r\n\r\n  constructor (address asset) public {\r\n    _lastBlockTime = block.timestamp;\r\n    _asset = asset;\r\n    _curBlockTime = _lastBlockTime;\r\n    _index = 10**8;\r\n  }\r\n\r\n  function setCurBlockTime(uint256 timestamp)\r\n    external\r\n  {\r\n    _lastBlockTime = _curBlockTime;\r\n    _curBlockTime = timestamp;\r\n  }\r\n\r\n  function getReserveNormalizedIncome(address asset)\r\n    external\r\n    view\r\n    returns (uint256)\r\n  {\r\n    require(asset == _asset, \"asset different\");\r\n    if ( _lastBlockTime >= _curBlockTime ) {\r\n      return _index;\r\n    }\r\n    else {\r\n      uint256 ret = (10**4)*(_curBlockTime-_lastBlockTime);\r\n      return _index.add(ret);\r\n    }\r\n  }\r\n\r\n  function getLastBlockTime()\r\n    external\r\n    view\r\n    returns (uint256)\r\n  {\r\n    return _lastBlockTime;\r\n  }\r\n\r\n  function mint(address gpToken, uint256 amount)\r\n    external\r\n    returns (bool)\r\n  {\r\n    return IGPToken(gpToken).mint(msg.sender, amount);\r\n  }\r\n}\r\n\r\n/*\r\nimport {ILendingPool} from \"../protocol/gunpool/pools/aave/ILendingPool.sol\";\r\nimport {DataTypes} from \"../protocol/gunpool/pools/aave/DataTypes.sol\";\r\n\r\ncontract LoodingPoolMock is ILendingPool {\r\n\r\n  uint256 _lastBlockTime;\r\n\r\n  constructor () public {\r\n    _lastBlockTime = block.timestamp;\r\n  }\r\n\r\n  function deposit(\r\n    address asset,\r\n    uint256 amount,\r\n    address onBehalfOf,\r\n    uint16 referralCode\r\n  ) external override {\r\n    return;\r\n  }\r\n\r\n  function withdraw(\r\n    address asset,\r\n    uint256 amount,\r\n    address to\r\n  ) external override returns (uint256) {\r\n    return amount;\r\n  }\r\n\r\n  function borrow(\r\n    address asset,\r\n    uint256 amount,\r\n    uint256 interestRateMode,\r\n    uint16 referralCode,\r\n    address onBehalfOf\r\n  ) external override\r\n  {\r\n    return;\r\n  }\r\n\r\n  function repay(\r\n    address asset,\r\n    uint256 amount,\r\n    uint256 rateMode,\r\n    address onBehalfOf\r\n  ) external override returns (uint256)\r\n  {\r\n    return amount;\r\n  }\r\n\r\n  function swapBorrowRateMode(address asset, uint256 rateMode)\r\n    external override\r\n  {\r\n    return;\r\n  }\r\n\r\n  function rebalanceStableBorrowRate(address asset, address user)\r\n    external override\r\n  {\r\n    return;\r\n  }\r\n\r\n  function setUserUseReserveAsCollateral(address asset, bool useAsCollateral)\r\n    external override\r\n  {\r\n    return;\r\n  }\r\n\r\n  function liquidationCall(\r\n    address collateralAsset,\r\n    address debtAsset,\r\n    address user,\r\n    uint256 debtToCover,\r\n    bool receiveAToken\r\n  ) external override\r\n  {\r\n    return;\r\n  }\r\n\r\n  function flashLoan(\r\n    address receiverAddress,\r\n    address[] calldata assets,\r\n    uint256[] calldata amounts,\r\n    uint256[] calldata modes,\r\n    address onBehalfOf,\r\n    bytes calldata params,\r\n    uint16 referralCode\r\n  ) external override\r\n  {\r\n    return;\r\n  }\r\n\r\n  function getUserAccountData(address user)\r\n    external\r\n    override\r\n    view\r\n    returns (\r\n      uint256 totalCollateralETH,\r\n      uint256 totalDebtETH,\r\n      uint256 availableBorrowsETH,\r\n      uint256 currentLiquidationThreshold,\r\n      uint256 ltv,\r\n      uint256 healthFactor\r\n    )\r\n  {\r\n    return (0,0,0,0,0,0);\r\n  }\r\n\r\n  function initReserve(\r\n    address reserve,\r\n    address aTokenAddress,\r\n    address stableDebtAddress,\r\n    address variableDebtAddress,\r\n    address interestRateStrategyAddress\r\n  ) external override\r\n  {\r\n    return;\r\n  }\r\n\r\n  function setReserveInterestRateStrategyAddress(\r\n    address reserve,\r\n    address rateStrategyAddress\r\n  ) external override\r\n  {\r\n    return;\r\n  }\r\n\r\n  function setConfiguration(\r\n    address reserve,\r\n    uint256 configuration)\r\n    external override\r\n  {\r\n    return;\r\n  }\r\n\r\n  function getConfiguration(address asset)\r\n    external\r\n    view\r\n    override\r\n    returns (DataTypes.ReserveConfigurationMap memory)\r\n  {\r\n    DataTypes.ReserveConfigurationMap memory ret;\r\n    return ret;\r\n  }\r\n\r\n  function getUserConfiguration(address user)\r\n    external\r\n    view\r\n    override\r\n    returns (DataTypes.UserConfigurationMap memory)\r\n  {\r\n    DataTypes.UserConfigurationMap memory ret;\r\n    return ret;\r\n  }\r\n\r\n  function getReserveNormalizedIncome(address asset)\r\n    external\r\n    view\r\n    override\r\n    returns (uint256)\r\n  {\r\n    // todo\r\n    return 0;\r\n  }\r\n\r\n  function getReserveNormalizedVariableDebt(address asset)\r\n    external\r\n    view\r\n    override\r\n    returns (uint256)\r\n  {\r\n    return 0;\r\n  }\r\n\r\n  function getReserveData(address asset)\r\n    external\r\n    view\r\n    override\r\n    returns (DataTypes.ReserveData memory)\r\n  {\r\n    DataTypes.ReserveData memory ret;\r\n    return ret;\r\n  }\r\n\r\n  function finalizeTransfer(\r\n    address asset,\r\n    address from,\r\n    address to,\r\n    uint256 amount,\r\n    uint256 balanceFromAfter,\r\n    uint256 balanceToBefore\r\n  ) external\r\n    override\r\n  {\r\n    return;\r\n  }\r\n\r\n  function getReservesList()\r\n    external\r\n    view\r\n    override\r\n    returns (address[] memory)\r\n  {\r\n    address[] memory ret = new address[](2);\r\n    return ret;\r\n  }\r\n\r\n  function setPause(bool val) external override {\r\n    return;\r\n  }\r\n\r\n  function paused() external view override returns (bool) {\r\n    return true;\r\n  }\r\n} */\r\n",
  "sourcePath": "E:\\my_work\\Eos\\polylend\\core\\protocol_v1\\contracts\\mock\\LoodingPoolMock.sol",
  "compiler": {
    "name": "solc",
    "version": "0.6.12+commit.27d51765.Emscripten.clang"
  },
  "schemaVersion": "3.4.2",
  "updatedAt": "2021-08-10T11:43:49.452Z",
  "devdoc": {
    "kind": "dev",
    "methods": {},
    "version": 1
  },
  "userdoc": {
    "kind": "user",
    "methods": {},
    "version": 1
  }
}