{
  "contractName": "MintPolicyMock",
  "abi": [
    {
      "anonymous": false,
      "inputs": [
        {
          "indexed": true,
          "internalType": "address",
          "name": "account",
          "type": "address"
        },
        {
          "indexed": false,
          "internalType": "uint256",
          "name": "amount",
          "type": "uint256"
        }
      ],
      "name": "Claim",
      "type": "event"
    },
    {
      "inputs": [],
      "name": "getPcoinreward",
      "outputs": [
        {
          "components": [
            {
              "internalType": "uint256",
              "name": "mintSupply",
              "type": "uint256"
            },
            {
              "internalType": "uint256",
              "name": "mintMaxSupply",
              "type": "uint256"
            },
            {
              "internalType": "uint256",
              "name": "mintRateBySec",
              "type": "uint256"
            },
            {
              "internalType": "uint256",
              "name": "lastMintTime",
              "type": "uint256"
            },
            {
              "internalType": "uint256",
              "name": "lastSupply",
              "type": "uint256"
            },
            {
              "internalType": "uint256",
              "name": "mintCapacity",
              "type": "uint256"
            }
          ],
          "internalType": "struct GunPoolContext.PcoinReward",
          "name": "",
          "type": "tuple"
        }
      ],
      "stateMutability": "view",
      "type": "function"
    },
    {
      "inputs": [
        {
          "internalType": "address",
          "name": "account",
          "type": "address"
        }
      ],
      "name": "getReward",
      "outputs": [
        {
          "components": [
            {
              "internalType": "uint256",
              "name": "rewardSupply",
              "type": "uint256"
            },
            {
              "internalType": "uint256",
              "name": "lastMintCapacity",
              "type": "uint256"
            },
            {
              "internalType": "uint256",
              "name": "lastGpBalance",
              "type": "uint256"
            }
          ],
          "internalType": "struct GunPoolContext.RewardContext",
          "name": "",
          "type": "tuple"
        }
      ],
      "stateMutability": "view",
      "type": "function"
    },
    {
      "inputs": [
        {
          "components": [
            {
              "internalType": "uint256",
              "name": "mintSupply",
              "type": "uint256"
            },
            {
              "internalType": "uint256",
              "name": "mintMaxSupply",
              "type": "uint256"
            },
            {
              "internalType": "uint256",
              "name": "mintRateBySec",
              "type": "uint256"
            },
            {
              "internalType": "uint256",
              "name": "lastMintTime",
              "type": "uint256"
            },
            {
              "internalType": "uint256",
              "name": "lastSupply",
              "type": "uint256"
            },
            {
              "internalType": "uint256",
              "name": "mintCapacity",
              "type": "uint256"
            }
          ],
          "internalType": "struct GunPoolContext.PcoinReward",
          "name": "pcoinreward",
          "type": "tuple"
        }
      ],
      "name": "setPcoinreward",
      "outputs": [],
      "stateMutability": "nonpayable",
      "type": "function"
    },
    {
      "inputs": [
        {
          "internalType": "uint256",
          "name": "timestamp",
          "type": "uint256"
        }
      ],
      "name": "rewardBalanceOf",
      "outputs": [
        {
          "internalType": "uint256",
          "name": "",
          "type": "uint256"
        }
      ],
      "stateMutability": "view",
      "type": "function"
    },
    {
      "inputs": [
        {
          "internalType": "uint256",
          "name": "timestamp",
          "type": "uint256"
        }
      ],
      "name": "claim",
      "outputs": [
        {
          "internalType": "uint256",
          "name": "",
          "type": "uint256"
        }
      ],
      "stateMutability": "nonpayable",
      "type": "function"
    },
    {
      "inputs": [
        {
          "internalType": "uint256",
          "name": "amount",
          "type": "uint256"
        },
        {
          "internalType": "uint256",
          "name": "timestamp",
          "type": "uint256"
        }
      ],
      "name": "deposit",
      "outputs": [],
      "stateMutability": "nonpayable",
      "type": "function"
    },
    {
      "inputs": [
        {
          "internalType": "uint256",
          "name": "amount",
          "type": "uint256"
        },
        {
          "internalType": "uint256",
          "name": "timestamp",
          "type": "uint256"
        }
      ],
      "name": "withdraw",
      "outputs": [],
      "stateMutability": "nonpayable",
      "type": "function"
    }
  ],
  "bytecode": "0x608060405234801561001057600080fd5b50610ac4806100206000396000f3fe608060405234801561001057600080fd5b506004361061007d5760003560e01c8063c00007b01161005b578063c00007b0146100d5578063e2bbb158146100f5578063f97da8ba14610108578063fe6adb4d1461011b5761007d565b8063155e816f14610082578063379607f5146100a0578063441a3e70146100c0575b600080fd5b61008a61012e565b6040516100979190610a20565b60405180910390f35b6100b36100ae3660046108e5565b610173565b6040516100979190610a85565b6100d36100ce3660046108fd565b610237565b005b6100e86100e33660046108a7565b61031b565b6040516100979190610a64565b6100d36101033660046108fd565b610365565b6100d36101163660046108ce565b610403565b6100b36101293660046108e5565b610460565b610136610850565b506040805160c08101825260005481526001546020820152600254918101919091526003546060820152600454608082015260055460a082015290565b3360009081526006602052604081206008546101919083908561052d565b6040805160c08101825260005481526001546020820152600254918101919091526003546060820152600454608082015260055460a08201526101d590829061059e565b80546000808355600554600184015533808252600760205260409182902054600285015590517f47cee97cb7acd717b3c0aa1435d004cd5b3c8c57d70dbceb4e4458bbd60e39d490610228908490610a85565b60405180910390a29392505050565b3360009081526007602090815260408083205460069092529091208382101561027b5760405162461bcd60e51b8152600401610272906109e9565b60405180910390fd5b6102858285610617565b336000908152600760205260409020556008546102a29085610617565b60088190556102b4906000908561052d565b6040805160c08101825260005481526001546020820152600254918101919091526003546060820152600454608082015260055460a08201526102f890829061059e565b600554600182015533600090815260076020526040902054600290910155505050565b610323610886565b506001600160a01b0316600090815260066020908152604091829020825160608101845281548152600182015492810192909252600201549181019190915290565b33600090815260076020908152604080832054600690925290912061038a8285610662565b336000908152600760205260409020556008546103a79085610662565b60088190556103b9906000908561052d565b81156102f8576040805160c08101825260005481526001546020820152600254918101919091526003546060820152600454608082015260055460a08201526102f890829061059e565b600060088190556040805160c0810182528281526020848101359082018190529382013591810182905242606082018190526080820184905260a09091018390528280556001939093556002556003919091556004819055600555565b336000908152600660209081526040808320815160c0810183528454815260015493810193909352600254918301919091526003546060830152600454608083015260055460a08301529082906104b79085610687565b905060006104d68360010154846002015461071890919063ffffffff16565b6005549091506104e7908390610662565b9150600061050283856002015461071890919063ffffffff16565b8454909150610522610512610752565b61051c8486610617565b90610762565b019695505050505050565b600183015483541015610599576040805160c08101825284548152600185015460208201526002850154918101919091526003840154606082015260048401546080820152600584015460a08201526000906105899083610687565b9050610597848483856107a4565b505b505050565b60006105bb8360010154846002015461071890919063ffffffff16565b905060006105da8360a00151856002015461071890919063ffffffff16565b905060006105e88284610617565b905080156106105761060d6106056105fe610752565b8390610762565b865490610662565b85555b5050505050565b600061065983836040518060400160405280601e81526020017f536166654d6174683a207375627472616374696f6e206f766572666c6f7700008152506107ed565b90505b92915050565b6000828201838110156106595760405162461bcd60e51b815260040161027290610971565b60008183606001511080156106a0575060008360800151115b156107105760006106be84606001518461061790919063ffffffff16565b905060006106d982866040015161071890919063ffffffff16565b90506106ed6106e6610752565b8290610718565b905061070685608001518261076290919063ffffffff16565b925061065c915050565b50600061065c565b6000826107275750600061065c565b8282028284828161073457fe5b04146106595760405162461bcd60e51b8152600401610272906109a8565b6b033b2e3c9fd0803ce800000090565b600061065983836040518060400160405280601a81526020017f536166654d6174683a206469766973696f6e206279207a65726f000000000000815250610819565b6107c96107c16107b2610752565b600487015461051c9086610718565b855490610662565b845560058401546107da9083610662565b6005850155600384015550600490910155565b600081848411156108115760405162461bcd60e51b8152600401610272919061091e565b505050900390565b6000818361083a5760405162461bcd60e51b8152600401610272919061091e565b50600083858161084657fe5b0495945050505050565b6040518060c001604052806000815260200160008152602001600081526020016000815260200160008152602001600081525090565b60405180606001604052806000815260200160008152602001600081525090565b6000602082840312156108b8578081fd5b81356001600160a01b0381168114610659578182fd5b600060c082840312156108df578081fd5b50919050565b6000602082840312156108f6578081fd5b5035919050565b6000806040838503121561090f578081fd5b50508035926020909101359150565b6000602080835283518082850152825b8181101561094a5785810183015185820160400152820161092e565b8181111561095b5783604083870101525b50601f01601f1916929092016040019392505050565b6020808252601b908201527f536166654d6174683a206164646974696f6e206f766572666c6f770000000000604082015260600190565b60208082526021908201527f536166654d6174683a206d756c7469706c69636174696f6e206f766572666c6f6040820152607760f81b606082015260800190565b60208082526018908201527f616d6f756e74206d6f7265207468616e2062616c616e63650000000000000000604082015260600190565b600060c082019050825182526020830151602083015260408301516040830152606083015160608301526080830151608083015260a083015160a083015292915050565b81518152602080830151908201526040918201519181019190915260600190565b9081526020019056fea26469706673582212206f8312360116e430b69552230cd1fe085752983986b455206a19f7b3f94e1a1464736f6c634300060c0033",
  "immutableReferences": {},
  "source": "// SPDX-License-Identifier: agpl-3.0\npragma solidity >=0.4.22 <0.9.0;\npragma experimental ABIEncoderV2;\n\nimport {GunPoolContext} from \"../protocol/gunpool/GunPoolContext.sol\";\nimport {MintPolicy} from \"../protocol/libraries/MintPolicy.sol\";\nimport {SafeMath} from \"../dependencies/openzeppelin/contracts/math/SafeMath.sol\";\nimport {WadRayMath} from \"../protocol/gunpool/pools/aave/WadRayMath.sol\";\n\ncontract MintPolicyMock {\n  using SafeMath for uint256;\n  using MintPolicy for GunPoolContext.PcoinReward;\n\n  GunPoolContext.PcoinReward private _pcoinreward;\n  mapping(address => GunPoolContext.RewardContext) private _rewards;\n  mapping(address => uint256) private _balanceOf;\n  uint256 private _supply;\n\n  function getPcoinreward()\n    external\n    view\n    returns (GunPoolContext.PcoinReward memory)\n  {\n    return _pcoinreward;\n  }\n\n  function getReward(address account)\n    external\n    view\n    returns (GunPoolContext.RewardContext memory)\n  {\n    return _rewards[account];\n  }\n\n  function setPcoinreward(\n    GunPoolContext.PcoinReward calldata pcoinreward\n  )\n    external\n  {\n    _supply = 0;\n    _pcoinreward = GunPoolContext.PcoinReward(\n                       0,\n                       pcoinreward.mintMaxSupply,\n                       pcoinreward.mintRateBySec,\n                       block.timestamp,\n                       0,\n                       0\n                   );\n  }\n\n  function rewardBalanceOf(uint256 timestamp)\n    external\n    view\n    returns (uint256)\n  {\n    GunPoolContext.RewardContext storage reward = _rewards[msg.sender];\n\n    uint256 mintRate = _pcoinreward.calcultionMintRate(timestamp);\n    uint256 preSupply = reward.lastGpBalance.mul(reward.lastMintCapacity);\n    mintRate = mintRate.add(_pcoinreward.mintCapacity);\n    uint256 curSupply = reward.lastGpBalance.mul(mintRate);\n    return curSupply.sub(preSupply).div(WadRayMath.ray()) + reward.rewardSupply;\n  }\n\n  event Claim(address indexed account, uint256 amount);\n\n  function claim(uint256 timestamp)\n    external\n    returns (uint256)\n  {\n    GunPoolContext.RewardContext storage reward = _rewards[msg.sender];\n\n    _updateMint(_pcoinreward, _supply, timestamp);\n    _updateReward(reward, _pcoinreward);\n\n    uint256 totalReward = reward.rewardSupply;\n    reward.rewardSupply = 0;\n    reward.lastMintCapacity = _pcoinreward.mintCapacity;\n    reward.lastGpBalance = _balanceOf[msg.sender];\n\n    emit Claim(msg.sender, totalReward);\n    return totalReward;\n  }\n\n  function deposit(uint256 amount, uint256 timestamp)\n    external\n  {\n    uint256 preBalance = _balanceOf[msg.sender];\n    GunPoolContext.RewardContext storage reward = _rewards[msg.sender];\n    _balanceOf[msg.sender] = preBalance.add(amount);\n    _supply = _supply.add(amount);\n\n    _updateMint(_pcoinreward, _supply, timestamp);\n\n    if ( 0 != preBalance ) {\n      _updateReward(reward, _pcoinreward);\n    }\n    reward.lastMintCapacity = _pcoinreward.mintCapacity;\n    reward.lastGpBalance = _balanceOf[msg.sender];\n  }\n\n  function withdraw(uint256 amount, uint256 timestamp)\n    external\n  {\n    uint256 preBalance = _balanceOf[msg.sender];\n    GunPoolContext.RewardContext storage reward = _rewards[msg.sender];\n    require(preBalance >= amount, \"amount more than balance\");\n    _balanceOf[msg.sender] = preBalance.sub(amount);\n    _supply = _supply.sub(amount);\n\n    _updateMint(_pcoinreward, _supply, timestamp);\n    _updateReward(reward, _pcoinreward);\n    reward.lastMintCapacity = _pcoinreward.mintCapacity;\n    reward.lastGpBalance = _balanceOf[msg.sender];\n  }\n\n  function _updateMint(\n    GunPoolContext.PcoinReward storage pcoin,\n    uint256 supply,\n    uint256 timestamp\n  )\n    internal\n  {\n    if ( pcoin.mintSupply < pcoin.mintMaxSupply ) {\n      uint256 mintRate = pcoin.calcultionMintRate(timestamp);\n      pcoin.updateMintContext(supply, mintRate, timestamp);\n    }\n  }\n\n  function _updateReward(\n    GunPoolContext.RewardContext storage reward,\n    GunPoolContext.PcoinReward memory pcoin\n  )\n    internal\n  {\n    uint256 preSupply = reward.lastGpBalance.mul(reward.lastMintCapacity);\n    uint256 curSupply = reward.lastGpBalance.mul(pcoin.mintCapacity);\n    uint256 rewardAmount = curSupply.sub(preSupply);\n\n    if ( rewardAmount > 0 ) {\n      reward.rewardSupply = reward.rewardSupply.add(rewardAmount.div(WadRayMath.ray()));\n    }\n  }\n}\n",
  "sourcePath": "/home/gaozl/Downloads/polygon/myproject/contracts/protocol_v1/contracts/mock/MintPolicyMock.sol",
  "compiler": {
    "name": "solc",
    "version": "0.6.12+commit.27d51765.Emscripten.clang"
  },
  "schemaVersion": "3.4.1",
  "updatedAt": "2021-07-28T06:04:33.868Z",
  "devdoc": {
    "kind": "dev",
    "methods": {},
    "version": 1
  },
  "userdoc": {
    "kind": "user",
    "methods": {},
    "version": 1
  }
}