{
  "contractName": "MintPolicyMock",
  "abi": [
    {
      "anonymous": false,
      "inputs": [
        {
          "indexed": true,
          "internalType": "address",
          "name": "account",
          "type": "address"
        },
        {
          "indexed": false,
          "internalType": "uint256",
          "name": "amount",
          "type": "uint256"
        }
      ],
      "name": "Claim",
      "type": "event"
    },
    {
      "inputs": [],
      "name": "getPcoinreward",
      "outputs": [
        {
          "components": [
            {
              "internalType": "uint256",
              "name": "mintSupply",
              "type": "uint256"
            },
            {
              "internalType": "uint256",
              "name": "mintMaxSupply",
              "type": "uint256"
            },
            {
              "internalType": "uint256",
              "name": "mintRateBySec",
              "type": "uint256"
            },
            {
              "internalType": "uint256",
              "name": "lastMintTime",
              "type": "uint256"
            },
            {
              "internalType": "uint256",
              "name": "lastSupply",
              "type": "uint256"
            },
            {
              "internalType": "uint256",
              "name": "mintCapacity",
              "type": "uint256"
            }
          ],
          "internalType": "struct GunPoolContext.PcoinReward",
          "name": "",
          "type": "tuple"
        }
      ],
      "stateMutability": "view",
      "type": "function"
    },
    {
      "inputs": [
        {
          "internalType": "address",
          "name": "account",
          "type": "address"
        }
      ],
      "name": "getReward",
      "outputs": [
        {
          "components": [
            {
              "internalType": "uint256",
              "name": "rewardSupply",
              "type": "uint256"
            },
            {
              "internalType": "uint256",
              "name": "lastMintCapacity",
              "type": "uint256"
            },
            {
              "internalType": "uint256",
              "name": "lastGpBalance",
              "type": "uint256"
            }
          ],
          "internalType": "struct GunPoolContext.RewardContext",
          "name": "",
          "type": "tuple"
        }
      ],
      "stateMutability": "view",
      "type": "function"
    },
    {
      "inputs": [
        {
          "components": [
            {
              "internalType": "uint256",
              "name": "mintSupply",
              "type": "uint256"
            },
            {
              "internalType": "uint256",
              "name": "mintMaxSupply",
              "type": "uint256"
            },
            {
              "internalType": "uint256",
              "name": "mintRateBySec",
              "type": "uint256"
            },
            {
              "internalType": "uint256",
              "name": "lastMintTime",
              "type": "uint256"
            },
            {
              "internalType": "uint256",
              "name": "lastSupply",
              "type": "uint256"
            },
            {
              "internalType": "uint256",
              "name": "mintCapacity",
              "type": "uint256"
            }
          ],
          "internalType": "struct GunPoolContext.PcoinReward",
          "name": "pcoinreward",
          "type": "tuple"
        }
      ],
      "name": "setPcoinreward",
      "outputs": [],
      "stateMutability": "nonpayable",
      "type": "function"
    },
    {
      "inputs": [
        {
          "internalType": "uint256",
          "name": "timestamp",
          "type": "uint256"
        }
      ],
      "name": "rewardBalanceOf",
      "outputs": [
        {
          "internalType": "uint256",
          "name": "",
          "type": "uint256"
        }
      ],
      "stateMutability": "view",
      "type": "function"
    },
    {
      "inputs": [
        {
          "internalType": "uint256",
          "name": "timestamp",
          "type": "uint256"
        }
      ],
      "name": "claim",
      "outputs": [
        {
          "internalType": "uint256",
          "name": "",
          "type": "uint256"
        }
      ],
      "stateMutability": "nonpayable",
      "type": "function"
    },
    {
      "inputs": [
        {
          "internalType": "uint256",
          "name": "amount",
          "type": "uint256"
        },
        {
          "internalType": "uint256",
          "name": "timestamp",
          "type": "uint256"
        }
      ],
      "name": "deposit",
      "outputs": [],
      "stateMutability": "nonpayable",
      "type": "function"
    },
    {
      "inputs": [
        {
          "internalType": "uint256",
          "name": "amount",
          "type": "uint256"
        },
        {
          "internalType": "uint256",
          "name": "timestamp",
          "type": "uint256"
        }
      ],
      "name": "withdraw",
      "outputs": [],
      "stateMutability": "nonpayable",
      "type": "function"
    }
  ],
  "bytecode": "0x608060405234801561001057600080fd5b5061094e806100206000396000f3fe608060405234801561001057600080fd5b506004361061007d5760003560e01c8063c00007b01161005b578063c00007b014610115578063e2bbb1581461014a578063f97da8ba1461015d578063fe6adb4d146101c857600080fd5b8063155e816f14610082578063379607f5146100df578063441a3e7014610100575b600080fd5b61008a6101db565b6040516100d69190600060c082019050825182526020830151602083015260408301516040830152606083015160608301526080830151608083015260a083015160a083015292915050565b60405180910390f35b6100f26100ed366004610857565b610251565b6040519081526020016100d6565b61011361010e366004610870565b610317565b005b61012861012336600461080f565b610426565b60408051825181526020808401519082015291810151908201526060016100d6565b610113610158366004610870565b61048c565b61011361016b36600461083f565b600060088190556040805160c0810182528281526020848101359082018190529382013591810182905242606082018190526080820184905260a09091018390528280556001939093556002556003919091556004819055600555565b6100f26101d6366004610857565b61052a565b6102146040518060c001604052806000815260200160008152602001600081526020016000815260200160008152602001600081525090565b506040805160c08101825260005481526001546020820152600254918101919091526003546060820152600454608082015260055460a082015290565b33600090815260066020526040812060085461026f90839085610605565b6040805160c08101825260005481526001546020820152600254918101919091526003546060820152600454608082015260055460a08201526102b3908290610676565b80546000808355600554600184015533808252600760205260409182902054600285015590517f47cee97cb7acd717b3c0aa1435d004cd5b3c8c57d70dbceb4e4458bbd60e39d4906103089084815260200190565b60405180910390a29392505050565b336000908152600760209081526040808320546006909252909120838210156103865760405162461bcd60e51b815260206004820152601860248201527f616d6f756e74206d6f7265207468616e2062616c616e63650000000000000000604482015260640160405180910390fd5b61039082856106f3565b336000908152600760205260409020556008546103ad90856106f3565b60088190556103bf9060009085610605565b6040805160c08101825260005481526001546020820152600254918101919091526003546060820152600454608082015260055460a0820152610403908290610676565b600554600182015533600090815260076020526040902054600290910155505050565b61044a60405180606001604052806000815260200160008152602001600081525090565b506001600160a01b0316600090815260066020908152604091829020825160608101845281548152600182015492810192909252600201549181019190915290565b3360009081526007602090815260408083205460069092529091206104b18285610708565b336000908152600760205260409020556008546104ce9085610708565b60088190556104e09060009085610605565b8115610403576040805160c08101825260005481526001546020820152600254918101919091526003546060820152600454608082015260055460a0820152610403908290610676565b336000908152600660209081526040808320815160c0810183528454815260015493810193909352600254918301919091526003546060830152600454608083015260055460a08301529082906105819085610714565b905060006105a0836001015484600201546107a990919063ffffffff16565b6005549091506105b1908390610708565b915060006105cc8385600201546107a990919063ffffffff16565b84549091506105f16b033b2e3c9fd0803ce80000006105eb84866106f3565b906107b5565b6105fb9190610892565b9695505050505050565b600183015483541015610671576040805160c08101825284548152600185015460208201526002850154918101919091526003840154606082015260048401546080820152600584015460a08201526000906106619083610714565b905061066f848483856107c1565b505b505050565b6000610693836001015484600201546107a990919063ffffffff16565b905060006106b28360a0015185600201546107a990919063ffffffff16565b905060006106c082846106f3565b905080156106ec576106e96106e1826b033b2e3c9fd0803ce80000006107b5565b865490610708565b85555b5050505050565b60006106ff82846108eb565b90505b92915050565b60006106ff8284610892565b600081836060015110801561072d575060008360800151115b156107a157600061074b8460600151846106f390919063ffffffff16565b905060006107668286604001516107a990919063ffffffff16565b905061077e816b033b2e3c9fd0803ce80000006107a9565b90506107978560800151826107b590919063ffffffff16565b9250610702915050565b506000610702565b60006106ff82846108cc565b60006106ff82846108aa565b6107eb6107e36b033b2e3c9fd0803ce800000060048701546105eb90866107a9565b855490610708565b845560058401546107fc9083610708565b6005850155600384015550600490910155565b60006020828403121561082157600080fd5b81356001600160a01b038116811461083857600080fd5b9392505050565b600060c0828403121561085157600080fd5b50919050565b60006020828403121561086957600080fd5b5035919050565b6000806040838503121561088357600080fd5b50508035926020909101359150565b600082198211156108a5576108a5610902565b500190565b6000826108c757634e487b7160e01b600052601260045260246000fd5b500490565b60008160001904831182151516156108e6576108e6610902565b500290565b6000828210156108fd576108fd610902565b500390565b634e487b7160e01b600052601160045260246000fdfea2646970667358221220e481f40e0b4bc89b666a0f3750133c233df859575e8f0bee59156acb3cc2deb964736f6c63430008070033",
  "immutableReferences": {},
  "source": "// SPDX-License-Identifier: agpl-3.0\r\npragma solidity ^0.8.0;\r\npragma experimental ABIEncoderV2;\r\n\r\nimport {GunPoolContext} from \"../protocol/gunpool/GunPoolContext.sol\";\r\nimport {MintPolicy} from \"../protocol/libraries/MintPolicy.sol\";\r\nimport {SafeMath} from \"../dependencies/openzeppelin/contracts/utils/math/SafeMath.sol\";\r\nimport {WadRayMath} from \"../protocol/gunpool/pools/aave/WadRayMath.sol\";\r\n\r\ncontract MintPolicyMock {\r\n  using SafeMath for uint256;\r\n  using MintPolicy for GunPoolContext.PcoinReward;\r\n\r\n  GunPoolContext.PcoinReward private _pcoinreward;\r\n  mapping(address => GunPoolContext.RewardContext) private _rewards;\r\n  mapping(address => uint256) private _balanceOf;\r\n  uint256 private _supply;\r\n\r\n  function getPcoinreward()\r\n    external\r\n    view\r\n    returns (GunPoolContext.PcoinReward memory)\r\n  {\r\n    return _pcoinreward;\r\n  }\r\n\r\n  function getReward(address account)\r\n    external\r\n    view\r\n    returns (GunPoolContext.RewardContext memory)\r\n  {\r\n    return _rewards[account];\r\n  }\r\n\r\n  function setPcoinreward(\r\n    GunPoolContext.PcoinReward calldata pcoinreward\r\n  )\r\n    external\r\n  {\r\n    _supply = 0;\r\n    _pcoinreward = GunPoolContext.PcoinReward(\r\n                       0,\r\n                       pcoinreward.mintMaxSupply,\r\n                       pcoinreward.mintRateBySec,\r\n                       block.timestamp,\r\n                       0,\r\n                       0\r\n                   );\r\n  }\r\n\r\n  function rewardBalanceOf(uint256 timestamp)\r\n    external\r\n    view\r\n    returns (uint256)\r\n  {\r\n    GunPoolContext.RewardContext storage reward = _rewards[msg.sender];\r\n\r\n    uint256 mintRate = _pcoinreward.calcultionMintRate(timestamp);\r\n    uint256 preSupply = reward.lastGpBalance.mul(reward.lastMintCapacity);\r\n    mintRate = mintRate.add(_pcoinreward.mintCapacity);\r\n    uint256 curSupply = reward.lastGpBalance.mul(mintRate);\r\n    return curSupply.sub(preSupply).div(WadRayMath.ray()) + reward.rewardSupply;\r\n  }\r\n\r\n  event Claim(address indexed account, uint256 amount);\r\n\r\n  function claim(uint256 timestamp)\r\n    external\r\n    returns (uint256)\r\n  {\r\n    GunPoolContext.RewardContext storage reward = _rewards[msg.sender];\r\n\r\n    _updateMint(_pcoinreward, _supply, timestamp);\r\n    _updateReward(reward, _pcoinreward);\r\n\r\n    uint256 totalReward = reward.rewardSupply;\r\n    reward.rewardSupply = 0;\r\n    reward.lastMintCapacity = _pcoinreward.mintCapacity;\r\n    reward.lastGpBalance = _balanceOf[msg.sender];\r\n\r\n    emit Claim(msg.sender, totalReward);\r\n    return totalReward;\r\n  }\r\n\r\n  function deposit(uint256 amount, uint256 timestamp)\r\n    external\r\n  {\r\n    uint256 preBalance = _balanceOf[msg.sender];\r\n    GunPoolContext.RewardContext storage reward = _rewards[msg.sender];\r\n    _balanceOf[msg.sender] = preBalance.add(amount);\r\n    _supply = _supply.add(amount);\r\n\r\n    _updateMint(_pcoinreward, _supply, timestamp);\r\n\r\n    if ( 0 != preBalance ) {\r\n      _updateReward(reward, _pcoinreward);\r\n    }\r\n    reward.lastMintCapacity = _pcoinreward.mintCapacity;\r\n    reward.lastGpBalance = _balanceOf[msg.sender];\r\n  }\r\n\r\n  function withdraw(uint256 amount, uint256 timestamp)\r\n    external\r\n  {\r\n    uint256 preBalance = _balanceOf[msg.sender];\r\n    GunPoolContext.RewardContext storage reward = _rewards[msg.sender];\r\n    require(preBalance >= amount, \"amount more than balance\");\r\n    _balanceOf[msg.sender] = preBalance.sub(amount);\r\n    _supply = _supply.sub(amount);\r\n\r\n    _updateMint(_pcoinreward, _supply, timestamp);\r\n    _updateReward(reward, _pcoinreward);\r\n    reward.lastMintCapacity = _pcoinreward.mintCapacity;\r\n    reward.lastGpBalance = _balanceOf[msg.sender];\r\n  }\r\n\r\n  function _updateMint(\r\n    GunPoolContext.PcoinReward storage pcoin,\r\n    uint256 supply,\r\n    uint256 timestamp\r\n  )\r\n    internal\r\n  {\r\n    if ( pcoin.mintSupply < pcoin.mintMaxSupply ) {\r\n      uint256 mintRate = pcoin.calcultionMintRate(timestamp);\r\n      pcoin.updateMintContext(supply, mintRate, timestamp);\r\n    }\r\n  }\r\n\r\n  function _updateReward(\r\n    GunPoolContext.RewardContext storage reward,\r\n    GunPoolContext.PcoinReward memory pcoin\r\n  )\r\n    internal\r\n  {\r\n    uint256 preSupply = reward.lastGpBalance.mul(reward.lastMintCapacity);\r\n    uint256 curSupply = reward.lastGpBalance.mul(pcoin.mintCapacity);\r\n    uint256 rewardAmount = curSupply.sub(preSupply);\r\n\r\n    if ( rewardAmount > 0 ) {\r\n      reward.rewardSupply = reward.rewardSupply.add(rewardAmount.div(WadRayMath.ray()));\r\n    }\r\n  }\r\n}\r\n",
  "sourcePath": "E:\\my_work\\Eos\\polylend\\core\\protocol_v1\\contracts\\mock\\MintPolicyMock.sol",
  "compiler": {
    "name": "solc",
    "version": "0.8.7+commit.e28d00a7.Emscripten.clang"
  },
  "schemaVersion": "3.4.2",
  "updatedAt": "2021-08-19T02:20:52.392Z",
  "devdoc": {
    "kind": "dev",
    "methods": {},
    "version": 1
  },
  "userdoc": {
    "kind": "user",
    "methods": {},
    "version": 1
  }
}