{
  "contractName": "MintPolicyMock",
  "abi": [
    {
      "inputs": [
        {
          "components": [
            {
              "internalType": "uint256",
              "name": "mintSupply",
              "type": "uint256"
            },
            {
              "internalType": "uint256",
              "name": "mintMaxSupply",
              "type": "uint256"
            },
            {
              "internalType": "uint256",
              "name": "mintRateBySec",
              "type": "uint256"
            },
            {
              "internalType": "uint256",
              "name": "lastMintTime",
              "type": "uint256"
            },
            {
              "internalType": "uint256",
              "name": "lastSupply",
              "type": "uint256"
            },
            {
              "internalType": "uint256",
              "name": "mintCapacity",
              "type": "uint256"
            }
          ],
          "internalType": "struct GunPoolContext.PcoinReward",
          "name": "pcoinreward",
          "type": "tuple"
        }
      ],
      "name": "setPcoinreward",
      "outputs": [],
      "stateMutability": "nonpayable",
      "type": "function"
    },
    {
      "inputs": [
        {
          "internalType": "uint256",
          "name": "amount",
          "type": "uint256"
        }
      ],
      "name": "deposit",
      "outputs": [],
      "stateMutability": "nonpayable",
      "type": "function"
    }
  ],
  "bytecode": "0x608060405234801561001057600080fd5b50610115806100206000396000f3fe6080604052348015600f57600080fd5b506004361060325760003560e01c8063b6b55f25146037578063f97da8ba146048575b600080fd5b6046604236600460c8565b6057565b005b6046605336600460b2565b605a565b50565b6040805160c08101825260008082526020848101359083018190529383013592820183905242606083018190526080830182905260a09092018190528080556001939093556002919091556003556004819055600555565b600060c0828403121560c2578081fd5b50919050565b60006020828403121560d8578081fd5b503591905056fea2646970667358221220ed54da1d545707bbcf7a6675c252ca34a28e5f3685109f3a6a01f14be076a8fe64736f6c634300060c0033",
  "immutableReferences": {},
  "source": "// SPDX-License-Identifier: agpl-3.0\npragma solidity >=0.4.22 <0.9.0;\npragma experimental ABIEncoderV2;\n\nimport {GunPoolContext} from \"../protocol/gunpool/GunPoolContext.sol\";\nimport {MintPolicy} from \"../protocol/libraries/MintPolicy.sol\";\n\ncontract MintPolicyMock {\n  GunPoolContext.PcoinReward private _pcoinreward;\n  mapping(address => GunPoolContext.RewardContext) private _rewards;\n  mapping(address => uint256) private _balanceOf;\n\n  function setPcoinreward(\n    GunPoolContext.PcoinReward calldata pcoinreward\n  )\n    external\n  {\n    _pcoinreward = GunPoolContext.PcoinReward(\n                       0,\n                       pcoinreward.mintMaxSupply,\n                       pcoinreward.mintRateBySec,\n                       block.timestamp,\n                       0,\n                       0\n                   );\n  }\n\n  function deposit(uint256 amount)\n    external\n  {\n    \n  }\n\n\n}\n",
  "sourcePath": "/home/gaozl/Downloads/polygon/myproject/contracts/protocol_v1/contracts/mock/MintPolicyMock.sol",
  "compiler": {
    "name": "solc",
    "version": "0.6.12+commit.27d51765.Emscripten.clang"
  },
  "schemaVersion": "3.4.1",
  "updatedAt": "2021-07-23T11:42:28.226Z",
  "devdoc": {
    "kind": "dev",
    "methods": {},
    "version": 1
  },
  "userdoc": {
    "kind": "user",
    "methods": {},
    "version": 1
  }
}