{
  "contractName": "SpError",
  "abi": [
    {
      "inputs": [],
      "name": "DELEGATE_AMOUNT_INVALID",
      "outputs": [
        {
          "internalType": "string",
          "name": "",
          "type": "string"
        }
      ],
      "stateMutability": "view",
      "type": "function"
    },
    {
      "inputs": [],
      "name": "DELEGATE_AMOUNT_ZERO",
      "outputs": [
        {
          "internalType": "string",
          "name": "",
          "type": "string"
        }
      ],
      "stateMutability": "view",
      "type": "function"
    },
    {
      "inputs": [],
      "name": "ORDER_CLAIM_FAIL_FOR_STATE",
      "outputs": [
        {
          "internalType": "string",
          "name": "",
          "type": "string"
        }
      ],
      "stateMutability": "view",
      "type": "function"
    },
    {
      "inputs": [],
      "name": "ORDER_CLAIM_FAIL_FOR_ZERO",
      "outputs": [
        {
          "internalType": "string",
          "name": "",
          "type": "string"
        }
      ],
      "stateMutability": "view",
      "type": "function"
    },
    {
      "inputs": [],
      "name": "ORDER_CONTRACT_INVALID",
      "outputs": [
        {
          "internalType": "string",
          "name": "",
          "type": "string"
        }
      ],
      "stateMutability": "view",
      "type": "function"
    },
    {
      "inputs": [],
      "name": "ORDER_DELEGATE_FAIL_FOR_STATE",
      "outputs": [
        {
          "internalType": "string",
          "name": "",
          "type": "string"
        }
      ],
      "stateMutability": "view",
      "type": "function"
    },
    {
      "inputs": [],
      "name": "ORDER_DELEGATE_INVALID",
      "outputs": [
        {
          "internalType": "string",
          "name": "",
          "type": "string"
        }
      ],
      "stateMutability": "view",
      "type": "function"
    },
    {
      "inputs": [],
      "name": "ORDER_INIT_FAIL_FOR_STATE",
      "outputs": [
        {
          "internalType": "string",
          "name": "",
          "type": "string"
        }
      ],
      "stateMutability": "view",
      "type": "function"
    },
    {
      "inputs": [],
      "name": "ORDER_MISMATCH",
      "outputs": [
        {
          "internalType": "string",
          "name": "",
          "type": "string"
        }
      ],
      "stateMutability": "view",
      "type": "function"
    },
    {
      "inputs": [],
      "name": "ORDER_PROXY_ABNORMAL",
      "outputs": [
        {
          "internalType": "string",
          "name": "",
          "type": "string"
        }
      ],
      "stateMutability": "view",
      "type": "function"
    },
    {
      "inputs": [],
      "name": "ORDER_PROXY_INVALID",
      "outputs": [
        {
          "internalType": "string",
          "name": "",
          "type": "string"
        }
      ],
      "stateMutability": "view",
      "type": "function"
    },
    {
      "inputs": [],
      "name": "ORDER_REPAY_AMOUNT_ZERO",
      "outputs": [
        {
          "internalType": "string",
          "name": "",
          "type": "string"
        }
      ],
      "stateMutability": "view",
      "type": "function"
    },
    {
      "inputs": [],
      "name": "ORDER_REPLY_FAIL_FOR_STATE",
      "outputs": [
        {
          "internalType": "string",
          "name": "",
          "type": "string"
        }
      ],
      "stateMutability": "view",
      "type": "function"
    },
    {
      "inputs": [],
      "name": "UNDELEGATE_NOT_SUBSCRIBE",
      "outputs": [
        {
          "internalType": "string",
          "name": "",
          "type": "string"
        }
      ],
      "stateMutability": "view",
      "type": "function"
    }
  ],
  "bytecode": "0x6103ae610026600b82828239805160001a60731461001957fe5b30600052607381538281f3fe73000000000000000000000000000000000000000030146080604052600436106100f45760003560e01c8063a9ae93ef11610096578063c9d36e6f11610070578063c9d36e6f146101be578063d97fff93146101c6578063e78cc9bb146101ce578063f4cd8b16146101d6576100f4565b8063a9ae93ef146101a6578063bab53174146101ae578063bc0922a6146101b6576100f4565b806373079e5d116100d257806373079e5d146101865780637b7d78981461018e5780638b154733146101965780639fc36ee61461019e576100f4565b80630ebb1cc9146100f95780631a9fe42c146101765780631dde8ab31461017e575b600080fd5b6101016101de565b6040805160208082528351818301528351919283929083019185019080838360005b8381101561013b578181015183820152602001610123565b50505050905090810190601f1680156101685780820380516001836020036101000a031916815260200191505b509250505060405180910390f35b6101016101fc565b61010161021a565b610101610238565b610101610255565b610101610272565b61010161028f565b6101016102ac565b6101016102c9565b6101016102e7565b610101610304565b610101610321565b61010161033e565b61010161035b565b60405180604001604052806002815260200161031360f41b81525081565b60405180604001604052806002815260200161189960f11b81525081565b60405180604001604052806002815260200161313160f01b81525081565b604051806040016040528060018152602001603360f81b81525081565b604051806040016040528060018152602001603160f81b81525081565b604051806040016040528060018152602001603760f81b81525081565b604051806040016040528060018152602001600d60fa1b81525081565b604051806040016040528060018152602001601b60f91b81525081565b60405180604001604052806002815260200161313360f01b81525081565b604051806040016040528060018152602001600360fc1b81525081565b604051806040016040528060018152602001603560f81b81525081565b604051806040016040528060018152602001603960f81b81525081565b604051806040016040528060018152602001600760fb1b81525081565b604051806040016040528060018152602001601960f91b8152508156fea26469706673582212207cf3c51b8ddc163b4e4d9edd293b9c1afa9e990de9b7ee692ed1135baea92f7b64736f6c634300060c0033",
  "immutableReferences": {},
  "source": "// SPDX-License-Identifier: agpl-3.0\r\npragma solidity >=0.4.22 <0.9.0;\r\n\r\nlibrary SpError {\r\n    // order does not initialize for state mismatch\r\n    string public constant ORDER_INIT_FAIL_FOR_STATE = '0';\r\n    // order proxy is zero address\r\n    string public constant ORDER_PROXY_INVALID = '1';\r\n    // order does not delegate for state mismatch\r\n    string public constant ORDER_DELEGATE_FAIL_FOR_STATE = '2';\r\n    // delegate amount is invalid\r\n    string public constant DELEGATE_AMOUNT_INVALID = '3';\r\n    // undelegate amount is zero\r\n    string public constant DELEGATE_AMOUNT_ZERO = '4';\r\n    // undelegate must in subscribe status\r\n    string public constant UNDELEGATE_NOT_SUBSCRIBE = '5';\r\n    // order mismatch\r\n    string public constant ORDER_MISMATCH = '6';\r\n    // order proxy abnormal\r\n    string public constant ORDER_PROXY_ABNORMAL = '7';\r\n    // order repay is invalid\r\n    string public constant ORDER_REPAY_AMOUNT_ZERO = '8';\r\n    // order does not reply for state mismatch\r\n    string public constant ORDER_REPLY_FAIL_FOR_STATE = '9';\r\n    // order does not claim for state mismatch\r\n    string public constant ORDER_CLAIM_FAIL_FOR_STATE = '10';\r\n    // order contract address is invalid\r\n    string public constant ORDER_CONTRACT_INVALID = '11';\r\n    // order claim fail for zero amount\r\n    string public constant ORDER_CLAIM_FAIL_FOR_ZERO = '12';\r\n    // order delegate is invalid\r\n    string public constant ORDER_DELEGATE_INVALID = '13';\r\n}",
  "sourcePath": "E:\\my_work\\Eos\\polylend\\core\\protocol_v1\\contracts\\protocol\\stakepool\\helper\\SpError.sol",
  "compiler": {
    "name": "solc",
    "version": "0.6.12+commit.27d51765.Emscripten.clang"
  },
  "schemaVersion": "3.4.2",
  "updatedAt": "2021-08-12T06:18:20.802Z",
  "devdoc": {
    "kind": "dev",
    "methods": {},
    "version": 1
  },
  "userdoc": {
    "kind": "user",
    "methods": {},
    "version": 1
  }
}