{
  "contractName": "SpError",
  "abi": [
    {
      "inputs": [],
      "name": "DELEGATE_AMOUNT_INVALID",
      "outputs": [
        {
          "internalType": "string",
          "name": "",
          "type": "string"
        }
      ],
      "stateMutability": "view",
      "type": "function"
    },
    {
      "inputs": [],
      "name": "DELEGATE_AMOUNT_ZERO",
      "outputs": [
        {
          "internalType": "string",
          "name": "",
          "type": "string"
        }
      ],
      "stateMutability": "view",
      "type": "function"
    },
    {
      "inputs": [],
      "name": "ORDER_CLAIM_FAIL_FOR_STATE",
      "outputs": [
        {
          "internalType": "string",
          "name": "",
          "type": "string"
        }
      ],
      "stateMutability": "view",
      "type": "function"
    },
    {
      "inputs": [],
      "name": "ORDER_CLAIM_FAIL_FOR_ZERO",
      "outputs": [
        {
          "internalType": "string",
          "name": "",
          "type": "string"
        }
      ],
      "stateMutability": "view",
      "type": "function"
    },
    {
      "inputs": [],
      "name": "ORDER_CONTRACT_INVALID",
      "outputs": [
        {
          "internalType": "string",
          "name": "",
          "type": "string"
        }
      ],
      "stateMutability": "view",
      "type": "function"
    },
    {
      "inputs": [],
      "name": "ORDER_DELEGATE_FAIL_FOR_STATE",
      "outputs": [
        {
          "internalType": "string",
          "name": "",
          "type": "string"
        }
      ],
      "stateMutability": "view",
      "type": "function"
    },
    {
      "inputs": [],
      "name": "ORDER_DELEGATE_INVALID",
      "outputs": [
        {
          "internalType": "string",
          "name": "",
          "type": "string"
        }
      ],
      "stateMutability": "view",
      "type": "function"
    },
    {
      "inputs": [],
      "name": "ORDER_INIT_FAIL_FOR_STATE",
      "outputs": [
        {
          "internalType": "string",
          "name": "",
          "type": "string"
        }
      ],
      "stateMutability": "view",
      "type": "function"
    },
    {
      "inputs": [],
      "name": "ORDER_MISMATCH",
      "outputs": [
        {
          "internalType": "string",
          "name": "",
          "type": "string"
        }
      ],
      "stateMutability": "view",
      "type": "function"
    },
    {
      "inputs": [],
      "name": "ORDER_PROXY_ABNORMAL",
      "outputs": [
        {
          "internalType": "string",
          "name": "",
          "type": "string"
        }
      ],
      "stateMutability": "view",
      "type": "function"
    },
    {
      "inputs": [],
      "name": "ORDER_PROXY_INVALID",
      "outputs": [
        {
          "internalType": "string",
          "name": "",
          "type": "string"
        }
      ],
      "stateMutability": "view",
      "type": "function"
    },
    {
      "inputs": [],
      "name": "ORDER_REPAY_AMOUNT_ZERO",
      "outputs": [
        {
          "internalType": "string",
          "name": "",
          "type": "string"
        }
      ],
      "stateMutability": "view",
      "type": "function"
    },
    {
      "inputs": [],
      "name": "ORDER_REPLY_FAIL_FOR_STATE",
      "outputs": [
        {
          "internalType": "string",
          "name": "",
          "type": "string"
        }
      ],
      "stateMutability": "view",
      "type": "function"
    },
    {
      "inputs": [],
      "name": "UNDELEGATE_NOT_SUBSCRIBE",
      "outputs": [
        {
          "internalType": "string",
          "name": "",
          "type": "string"
        }
      ],
      "stateMutability": "view",
      "type": "function"
    }
  ],
  "bytecode": "0x61035e61003a600b82828239805160001a60731461002d57634e487b7160e01b600052600060045260246000fd5b30600052607381538281f3fe73000000000000000000000000000000000000000030146080604052600436106100f45760003560e01c8063a9ae93ef11610096578063c9d36e6f11610070578063c9d36e6f14610253578063d97fff9314610273578063e78cc9bb14610293578063f4cd8b16146102b357600080fd5b8063a9ae93ef146101f2578063bab5317414610212578063bc0922a61461023357600080fd5b806373079e5d116100d257806373079e5d146101725780637b7d7898146101925780638b154733146101b25780639fc36ee6146101d257600080fd5b80630ebb1cc9146100f95780631a9fe42c146101305780631dde8ab314610151575b600080fd5b61011a60405180604001604052806002815260200161031360f41b81525081565b60405161012791906102d3565b60405180910390f35b61011a60405180604001604052806002815260200161189960f11b81525081565b61011a60405180604001604052806002815260200161313160f01b81525081565b61011a604051806040016040528060018152602001603360f81b81525081565b61011a604051806040016040528060018152602001603160f81b81525081565b61011a604051806040016040528060018152602001603760f81b81525081565b61011a604051806040016040528060018152602001600d60fa1b81525081565b61011a604051806040016040528060018152602001601b60f91b81525081565b61011a60405180604001604052806002815260200161313360f01b81525081565b61011a604051806040016040528060018152602001600360fc1b81525081565b61011a604051806040016040528060018152602001603560f81b81525081565b61011a604051806040016040528060018152602001603960f81b81525081565b61011a604051806040016040528060018152602001600760fb1b81525081565b61011a604051806040016040528060018152602001601960f91b81525081565b600060208083528351808285015260005b81811015610300578581018301518582016040015282016102e4565b81811115610312576000604083870101525b50601f01601f191692909201604001939250505056fea26469706673582212205574d94f27d9b19ca1347254008503f79f5b1779cc47b083502761ec1ce6e51364736f6c63430008070033",
  "immutableReferences": {},
  "source": "// SPDX-License-Identifier: agpl-3.0\r\npragma solidity ^0.8.0;\r\n\r\nlibrary SpError {\r\n    // order does not initialize for state mismatch\r\n    string public constant ORDER_INIT_FAIL_FOR_STATE = '0';\r\n    // order proxy is zero address\r\n    string public constant ORDER_PROXY_INVALID = '1';\r\n    // order does not delegate for state mismatch\r\n    string public constant ORDER_DELEGATE_FAIL_FOR_STATE = '2';\r\n    // delegate amount is invalid\r\n    string public constant DELEGATE_AMOUNT_INVALID = '3';\r\n    // undelegate amount is zero\r\n    string public constant DELEGATE_AMOUNT_ZERO = '4';\r\n    // undelegate must in subscribe status\r\n    string public constant UNDELEGATE_NOT_SUBSCRIBE = '5';\r\n    // order mismatch\r\n    string public constant ORDER_MISMATCH = '6';\r\n    // order proxy abnormal\r\n    string public constant ORDER_PROXY_ABNORMAL = '7';\r\n    // order repay is invalid\r\n    string public constant ORDER_REPAY_AMOUNT_ZERO = '8';\r\n    // order does not reply for state mismatch\r\n    string public constant ORDER_REPLY_FAIL_FOR_STATE = '9';\r\n    // order does not claim for state mismatch\r\n    string public constant ORDER_CLAIM_FAIL_FOR_STATE = '10';\r\n    // order contract address is invalid\r\n    string public constant ORDER_CONTRACT_INVALID = '11';\r\n    // order claim fail for zero amount\r\n    string public constant ORDER_CLAIM_FAIL_FOR_ZERO = '12';\r\n    // order delegate is invalid\r\n    string public constant ORDER_DELEGATE_INVALID = '13';\r\n}",
  "sourcePath": "E:\\my_work\\Eos\\polylend\\core\\protocol_v1\\contracts\\protocol\\stakepool\\helper\\SpError.sol",
  "compiler": {
    "name": "solc",
    "version": "0.8.7+commit.e28d00a7.Emscripten.clang"
  },
  "schemaVersion": "3.4.2",
  "updatedAt": "2021-08-19T02:20:52.496Z",
  "devdoc": {
    "kind": "dev",
    "methods": {},
    "version": 1
  },
  "userdoc": {
    "kind": "user",
    "methods": {},
    "version": 1
  }
}