{
  "contractName": "SpError",
  "abi": [
    {
      "inputs": [],
      "name": "DELEGATE_AMOUNT_INVALID",
      "outputs": [
        {
          "internalType": "string",
          "name": "",
          "type": "string"
        }
      ],
      "stateMutability": "view",
      "type": "function"
    },
    {
      "inputs": [],
      "name": "DELEGATE_AMOUNT_ZERO",
      "outputs": [
        {
          "internalType": "string",
          "name": "",
          "type": "string"
        }
      ],
      "stateMutability": "view",
      "type": "function"
    },
    {
      "inputs": [],
      "name": "ORDER_DELEGATE_FAIL_FOR_STATE",
      "outputs": [
        {
          "internalType": "string",
          "name": "",
          "type": "string"
        }
      ],
      "stateMutability": "view",
      "type": "function"
    },
    {
      "inputs": [],
      "name": "ORDER_INIT_FAIL_FOR_STATE",
      "outputs": [
        {
          "internalType": "string",
          "name": "",
          "type": "string"
        }
      ],
      "stateMutability": "view",
      "type": "function"
    },
    {
      "inputs": [],
      "name": "ORDER_PROXY_INVALID",
      "outputs": [
        {
          "internalType": "string",
          "name": "",
          "type": "string"
        }
      ],
      "stateMutability": "view",
      "type": "function"
    },
    {
      "inputs": [],
      "name": "UNDELEGATE_NOT_SUBSCRIBE",
      "outputs": [
        {
          "internalType": "string",
          "name": "",
          "type": "string"
        }
      ],
      "stateMutability": "view",
      "type": "function"
    }
  ],
  "bytecode": "0x6101fa610026600b82828239805160001a60731461001957fe5b30600052607381538281f3fe730000000000000000000000000000000000000000301460806040526004361061006c5760003560e01c806373079e5d146100715780637b7d7898146100ee5780639fc36ee6146100f6578063bc0922a6146100fe578063c9d36e6f14610106578063f4cd8b161461010e575b600080fd5b610079610116565b6040805160208082528351818301528351919283929083019185019080838360005b838110156100b357818101518382015260200161009b565b50505050905090810190601f1680156100e05780820380516001836020036101000a031916815260200191505b509250505060405180910390f35b610079610133565b610079610150565b61007961016d565b61007961018a565b6100796101a7565b604051806040016040528060018152602001603360f81b81525081565b604051806040016040528060018152602001603160f81b81525081565b604051806040016040528060018152602001600d60fa1b81525081565b604051806040016040528060018152602001600360fc1b81525081565b604051806040016040528060018152602001603560f81b81525081565b604051806040016040528060018152602001601960f91b8152508156fea2646970667358221220923918aeef1e4f8a231f5f19fbf6472d5a2c03ae649f5b11ab810f4cdb7c14cf64736f6c634300060c0033",
  "immutableReferences": {},
  "source": "// SPDX-License-Identifier: agpl-3.0\r\npragma solidity >=0.4.22 <0.9.0;\r\n\r\nlibrary SpError {\r\n    // order does not initialize for state mismatch\r\n    string public constant ORDER_INIT_FAIL_FOR_STATE = '0';\r\n    // order proxy is zero address\r\n    string public constant ORDER_PROXY_INVALID = '1';\r\n    // order does not delegate for state mismatch\r\n    string public constant ORDER_DELEGATE_FAIL_FOR_STATE = '2';\r\n    // delegate amount is invalid\r\n    string public constant DELEGATE_AMOUNT_INVALID = '3';\r\n    // undelegate amount is zero\r\n    string public constant DELEGATE_AMOUNT_ZERO = '4';\r\n    // undelegate must in subscribe status\r\n    string public constant UNDELEGATE_NOT_SUBSCRIBE = '5';\r\n}",
  "sourcePath": "E:\\my_work\\Eos\\polylend\\core\\protocol_v1\\contracts\\protocol\\stakepool\\helper\\SpError.sol",
  "compiler": {
    "name": "solc",
    "version": "0.6.12+commit.27d51765.Emscripten.clang"
  },
  "schemaVersion": "3.4.2",
  "updatedAt": "2021-08-10T11:43:49.546Z",
  "devdoc": {
    "kind": "dev",
    "methods": {},
    "version": 1
  },
  "userdoc": {
    "kind": "user",
    "methods": {},
    "version": 1
  }
}