{
  "contractName": "StakePool",
  "abi": [
    {
      "inputs": [
        {
          "internalType": "address",
          "name": "pcoinAddress",
          "type": "address"
        },
        {
          "internalType": "address",
          "name": "gunpoolAddress",
          "type": "address"
        },
        {
          "internalType": "address",
          "name": "iwethAddress",
          "type": "address"
        }
      ],
      "stateMutability": "nonpayable",
      "type": "constructor"
    },
    {
      "anonymous": false,
      "inputs": [
        {
          "indexed": true,
          "internalType": "uint128",
          "name": "id",
          "type": "uint128"
        },
        {
          "indexed": false,
          "internalType": "uint256",
          "name": "matic",
          "type": "uint256"
        },
        {
          "indexed": false,
          "internalType": "uint256",
          "name": "pcoin",
          "type": "uint256"
        }
      ],
      "name": "Claim",
      "type": "event"
    },
    {
      "anonymous": false,
      "inputs": [
        {
          "indexed": true,
          "internalType": "uint128",
          "name": "id",
          "type": "uint128"
        },
        {
          "indexed": true,
          "internalType": "address",
          "name": "account",
          "type": "address"
        },
        {
          "indexed": false,
          "internalType": "uint256",
          "name": "amount",
          "type": "uint256"
        }
      ],
      "name": "Delegate",
      "type": "event"
    },
    {
      "anonymous": false,
      "inputs": [
        {
          "components": [
            {
              "internalType": "uint128",
              "name": "id",
              "type": "uint128"
            },
            {
              "internalType": "enum StakePoolContext.ORDER_STATUS",
              "name": "state",
              "type": "uint8"
            },
            {
              "internalType": "uint256[]",
              "name": "stateTime",
              "type": "uint256[]"
            },
            {
              "internalType": "uint256",
              "name": "threshold",
              "type": "uint256"
            },
            {
              "internalType": "uint32",
              "name": "period",
              "type": "uint32"
            },
            {
              "internalType": "address",
              "name": "proxy",
              "type": "address"
            },
            {
              "internalType": "uint256",
              "name": "pcoinReward",
              "type": "uint256"
            },
            {
              "internalType": "address",
              "name": "feeTo",
              "type": "address"
            },
            {
              "internalType": "uint16",
              "name": "feePermillage",
              "type": "uint16"
            }
          ],
          "indexed": false,
          "internalType": "struct StakePoolContext.Order",
          "name": "order",
          "type": "tuple"
        }
      ],
      "name": "InitOrder",
      "type": "event"
    },
    {
      "anonymous": false,
      "inputs": [
        {
          "indexed": true,
          "internalType": "uint128",
          "name": "id",
          "type": "uint128"
        },
        {
          "indexed": true,
          "internalType": "address",
          "name": "proxy",
          "type": "address"
        },
        {
          "indexed": false,
          "internalType": "uint256",
          "name": "amount",
          "type": "uint256"
        }
      ],
      "name": "Migrate",
      "type": "event"
    },
    {
      "anonymous": false,
      "inputs": [
        {
          "indexed": true,
          "internalType": "address",
          "name": "previousOwner",
          "type": "address"
        },
        {
          "indexed": true,
          "internalType": "address",
          "name": "newOwner",
          "type": "address"
        }
      ],
      "name": "OwnershipTransferred",
      "type": "event"
    },
    {
      "anonymous": false,
      "inputs": [
        {
          "indexed": true,
          "internalType": "uint128",
          "name": "id",
          "type": "uint128"
        },
        {
          "indexed": false,
          "internalType": "uint256",
          "name": "amount",
          "type": "uint256"
        }
      ],
      "name": "Reply",
      "type": "event"
    },
    {
      "anonymous": false,
      "inputs": [
        {
          "indexed": true,
          "internalType": "uint128",
          "name": "id",
          "type": "uint128"
        },
        {
          "indexed": false,
          "internalType": "enum StakePoolContext.ORDER_STATUS",
          "name": "preState",
          "type": "uint8"
        },
        {
          "indexed": false,
          "internalType": "enum StakePoolContext.ORDER_STATUS",
          "name": "curState",
          "type": "uint8"
        }
      ],
      "name": "StatusTransfer",
      "type": "event"
    },
    {
      "anonymous": false,
      "inputs": [
        {
          "indexed": true,
          "internalType": "uint128",
          "name": "id",
          "type": "uint128"
        },
        {
          "indexed": true,
          "internalType": "address",
          "name": "account",
          "type": "address"
        },
        {
          "indexed": false,
          "internalType": "uint256",
          "name": "amount",
          "type": "uint256"
        }
      ],
      "name": "UnDelegate",
      "type": "event"
    },
    {
      "anonymous": false,
      "inputs": [
        {
          "indexed": true,
          "internalType": "uint128",
          "name": "id",
          "type": "uint128"
        },
        {
          "indexed": false,
          "internalType": "string",
          "name": "msg",
          "type": "string"
        }
      ],
      "name": "Warn",
      "type": "event"
    },
    {
      "inputs": [],
      "name": "MASK",
      "outputs": [
        {
          "internalType": "uint256",
          "name": "",
          "type": "uint256"
        }
      ],
      "stateMutability": "view",
      "type": "function"
    },
    {
      "inputs": [],
      "name": "owner",
      "outputs": [
        {
          "internalType": "address",
          "name": "",
          "type": "address"
        }
      ],
      "stateMutability": "view",
      "type": "function"
    },
    {
      "inputs": [],
      "name": "renounceOwnership",
      "outputs": [],
      "stateMutability": "nonpayable",
      "type": "function"
    },
    {
      "inputs": [
        {
          "internalType": "address",
          "name": "newOwner",
          "type": "address"
        }
      ],
      "name": "transferOwnership",
      "outputs": [],
      "stateMutability": "nonpayable",
      "type": "function"
    },
    {
      "stateMutability": "payable",
      "type": "receive"
    },
    {
      "inputs": [
        {
          "components": [
            {
              "internalType": "uint128",
              "name": "id",
              "type": "uint128"
            },
            {
              "internalType": "uint256",
              "name": "threshold",
              "type": "uint256"
            },
            {
              "internalType": "uint32",
              "name": "period",
              "type": "uint32"
            },
            {
              "internalType": "address",
              "name": "proxy",
              "type": "address"
            },
            {
              "internalType": "uint256",
              "name": "pcoinReward",
              "type": "uint256"
            },
            {
              "internalType": "address",
              "name": "feeTo",
              "type": "address"
            },
            {
              "internalType": "uint16",
              "name": "feePermillage",
              "type": "uint16"
            }
          ],
          "internalType": "struct StakePoolContext.OrderInitParam",
          "name": "orderParam",
          "type": "tuple"
        }
      ],
      "name": "initOrder",
      "outputs": [
        {
          "internalType": "uint128",
          "name": "",
          "type": "uint128"
        }
      ],
      "stateMutability": "nonpayable",
      "type": "function"
    },
    {
      "inputs": [],
      "name": "delegate",
      "outputs": [],
      "stateMutability": "payable",
      "type": "function"
    },
    {
      "inputs": [
        {
          "internalType": "uint256",
          "name": "amount",
          "type": "uint256"
        }
      ],
      "name": "undelegate",
      "outputs": [],
      "stateMutability": "nonpayable",
      "type": "function"
    },
    {
      "inputs": [],
      "name": "lock",
      "outputs": [],
      "stateMutability": "nonpayable",
      "type": "function"
    },
    {
      "inputs": [
        {
          "internalType": "uint128",
          "name": "id",
          "type": "uint128"
        }
      ],
      "name": "reply",
      "outputs": [],
      "stateMutability": "payable",
      "type": "function"
    },
    {
      "inputs": [],
      "name": "claim",
      "outputs": [],
      "stateMutability": "nonpayable",
      "type": "function"
    },
    {
      "inputs": [
        {
          "internalType": "address",
          "name": "account",
          "type": "address"
        }
      ],
      "name": "balanceOf",
      "outputs": [
        {
          "internalType": "uint256",
          "name": "",
          "type": "uint256"
        }
      ],
      "stateMutability": "view",
      "type": "function"
    },
    {
      "inputs": [],
      "name": "totalSupply",
      "outputs": [
        {
          "internalType": "uint256",
          "name": "",
          "type": "uint256"
        }
      ],
      "stateMutability": "view",
      "type": "function"
    },
    {
      "inputs": [],
      "name": "getOrder",
      "outputs": [
        {
          "components": [
            {
              "internalType": "uint128",
              "name": "id",
              "type": "uint128"
            },
            {
              "internalType": "enum StakePoolContext.ORDER_STATUS",
              "name": "state",
              "type": "uint8"
            },
            {
              "internalType": "uint256[]",
              "name": "stateTime",
              "type": "uint256[]"
            },
            {
              "internalType": "uint256",
              "name": "threshold",
              "type": "uint256"
            },
            {
              "internalType": "uint32",
              "name": "period",
              "type": "uint32"
            },
            {
              "internalType": "address",
              "name": "proxy",
              "type": "address"
            },
            {
              "internalType": "uint256",
              "name": "pcoinReward",
              "type": "uint256"
            },
            {
              "internalType": "address",
              "name": "feeTo",
              "type": "address"
            },
            {
              "internalType": "uint16",
              "name": "feePermillage",
              "type": "uint16"
            }
          ],
          "internalType": "struct StakePoolContext.Order",
          "name": "",
          "type": "tuple"
        }
      ],
      "stateMutability": "view",
      "type": "function"
    },
    {
      "inputs": [
        {
          "internalType": "address",
          "name": "account",
          "type": "address"
        }
      ],
      "name": "reward",
      "outputs": [
        {
          "internalType": "uint256",
          "name": "",
          "type": "uint256"
        }
      ],
      "stateMutability": "view",
      "type": "function"
    }
  ],
  "bytecode": "0x60806040523480156200001157600080fd5b50604051620026ee380380620026ee83398101604081905262000034916200028a565b600080546001600160a01b031916339081178255604051909182917f8be0079c531659141344cd1fd0a4f28419497f9722a3daafe3b4186f6b6457e0908290a35062000094836001600160a01b03166200022960201b620011d11760201c565b60405180604001604052806002815260200161313160f01b81525090620000d95760405162461bcd60e51b8152600401620000d09190620002d4565b60405180910390fd5b50620000f9826001600160a01b03166200022960201b620011d11760201c565b60405180604001604052806002815260200161313160f01b81525090620001355760405162461bcd60e51b8152600401620000d09190620002d4565b5062000155816001600160a01b03166200022960201b620011d11760201c565b60405180604001604052806002815260200161313160f01b81525090620001915760405162461bcd60e51b8152600401620000d09190620002d4565b506001805460ff60801b19169055620001ad600b60006200022f565b6000600a819055600c80546001600160a01b03199081166001600160a01b0396871617909155600d8054821694861694909417909355600e805490931691909316179055600280546001810182559152427f405787fa12a823e0f2b7631cc41b3ba8828b3321ca811111fa75cd3aa3bb5ace909101556200032c565b3b151590565b50805460008255906000526020600020908101906200024f919062000252565b50565b5b8082111562000269576000815560010162000253565b5090565b80516001600160a01b03811681146200028557600080fd5b919050565b600080600060608486031215620002a057600080fd5b620002ab846200026d565b9250620002bb602085016200026d565b9150620002cb604085016200026d565b90509250925092565b600060208083528351808285015260005b818110156200030357858101830151858201604001528201620002e5565b8181111562000316576000604083870101525b50601f01601f1916929092016040019392505050565b6123b2806200033c6000396000f3fe6080604052600436106100e15760003560e01c806381d8b8251161007f578063d36dedd211610059578063d36dedd21461021c578063e91f214e1461023e578063f2fde38b14610259578063f83d08ba1461027957600080fd5b806381d8b825146101b45780638da5cb5b146101ec578063c89e43611461021457600080fd5b80636353586b116100bb5780636353586b1461013f5780636c68c0e11461015f57806370a082311461017f578063715018a61461019f57600080fd5b806318160ddd146100ed578063479ee3a8146101155780634e71d92d1461012a57600080fd5b366100e857005b600080fd5b3480156100f957600080fd5b5061010261028e565b6040519081526020015b60405180910390f35b610128610123366004611e4f565b610303565b005b34801561013657600080fd5b50610128610677565b34801561014b57600080fd5b5061010261015a366004611d04565b6107fd565b34801561016b57600080fd5b5061012861017a366004611e9c565b610845565b34801561018b57600080fd5b5061010261019a366004611d04565b610937565b3480156101ab57600080fd5b506101286109c1565b3480156101c057600080fd5b506101d46101cf366004611d21565b610a35565b6040516001600160801b03909116815260200161010c565b3480156101f857600080fd5b506000546040516001600160a01b03909116815260200161010c565b610128610d51565b34801561022857600080fd5b50610231610e80565b60405161010c9190612044565b34801561024a57600080fd5b506101026001600160801b0381565b34801561026557600080fd5b50610128610274366004611d04565b610fd4565b34801561028557600080fd5b506101286110be565b600a5460009060018054600160801b900460ff1660058111156102b3576102b36122f8565b14806102dc57506004600154600160801b900460ff1660058111156102da576102da6122f8565b145b156102fe5760006102eb6111d7565b90506102f78282611399565b9250505090565b919050565b6001805460408051808201909152918252601b60f91b60208301526001600160801b038381169116146103525760405162461bcd60e51b81526004016103499190611fdc565b60405180910390fd5b5060045464010000000090046001600160a01b0316336001600160a01b03161415604051806040016040528060018152602001603760f81b815250906103ab5760405162461bcd60e51b81526004016103499190611fdc565b506003600154600160801b900460ff1660058111156103cc576103cc6122f8565b14604051806040016040528060018152602001603960f81b815250906104055760405162461bcd60e51b81526004016103499190611fdc565b506040805180820190915260018152600760fb1b60208201523461043c5760405162461bcd60e51b81526004016103499190611fdc565b50600a5434906000808061044e6111d7565b6000600a8190559091505b600b5481101561051557600b8054829081106104775761047761230e565b60009182526020808320909101546001600160a01b03168083526008909152604090912054945092506104b4856104ae8887611465565b90611471565b6001600160a01b03841660009081526008602052604090208190556104d9908361147d565b6001600160a01b0384166000908152600860205260409020819055600a5461050091611565565b600a558061050d816122c7565b915050610459565b50600d60009054906101000a90046001600160a01b03166001600160a01b031663bc66c1d9866040518263ffffffff1660e01b81526004016000604051808303818588803b15801561056657600080fd5b505af115801561057a573d6000803e3d6000fd5b50506005541592506105f791505057600a54935060005b600b548110156105f5576001600160a01b0383166000908152600860205260409020546005549094506105ca9086906104ae9087611465565b6001600160a01b038416600090815260096020526040902055806105ed816122c7565b915050610591565b505b60028054600180820183556000929092524260008051602061233d83398151915290910155805460ff60801b198116600160821b17918290556040516001600160801b039091169160008051602061235d8339815191529161066791600391600160801b90910460ff1690611fc1565b60405180910390a2505050505050565b6004600154600160801b900460ff166005811115610697576106976122f8565b1460405180604001604052806002815260200161031360f41b815250906106d15760405162461bcd60e51b81526004016103499190611fdc565b503360006106e6826001600160801b03611571565b6001600160a01b0383166000908152600960205260409020549091508115801561070e575080155b15610743576040805180820182526002815261189960f11b6020820152905162461bcd60e51b81526103499190600401611fdc565b80156107b057600c546040516340c10f1960e01b81526001600160a01b03858116600483015260248201859052909116906340c10f1990604401600060405180830381600087803b15801561079757600080fd5b505af11580156107ab573d6000803e3d6000fd5b505050505b60015460408051848152602081018490526001600160801b03909216917f159d4063d0972e9f08a7739eb1880ebf259aaddd91fb245c72b72651f0e8067a910160405180910390a2505050565b6001600160a01b03811660009081526007602052604081205460ff16801561083c5750506001600160a01b031660009081526009602052604090205490565b50600092915050565b6040805180820190915260018152600d60fa1b60208201528161087b5760405162461bcd60e51b81526004016103499190611fdc565b5060018054600160801b900460ff16600581111561089b5761089b6122f8565b14604051806040016040528060018152602001603560f81b815250906108d45760405162461bcd60e51b81526004016103499190611fdc565b503360006108e28284611571565b6001546040518281529192506001600160a01b038416916001600160801b03909116907f5dddd7e9d56d330faab24a241acd2cd656b342a2559ac7ef8c6e76c5959ad4c59060200160405180910390a3505050565b6001600160a01b03811660009081526008602052604081205460018054600160801b900460ff16600581111561096f5761096f6122f8565b148061099857506004600154600160801b900460ff166005811115610996576109966122f8565b145b156109bb5760006109a76111d7565b90506109b38282611399565b949350505050565b92915050565b6000546001600160a01b031633146109eb5760405162461bcd60e51b81526004016103499061200f565b600080546040516001600160a01b03909116907f8be0079c531659141344cd1fd0a4f28419497f9722a3daafe3b4186f6b6457e0908390a3600080546001600160a01b0319169055565b600080546001600160a01b03163314610a605760405162461bcd60e51b81526004016103499061200f565b6000600154600160801b900460ff166005811115610a8057610a806122f8565b14604051806040016040528060018152602001600360fc1b81525090610ab95760405162461bcd60e51b81526004016103499190611fdc565b506000610acc6080840160608501611d04565b6001600160a01b031614604051806040016040528060018152602001603160f81b81525090610b0e5760405162461bcd60e51b81526004016103499190611fdc565b50610b1c6020830183611e4f565b600180546fffffffffffffffffffffffffffffffff19166001600160801b03929092169190911790556020820135600355605a610b5f6060840160408501611ece565b63ffffffff1610610b7f576004805463ffffffff1916605a179055610bc2565b603c610b916060840160408501611ece565b63ffffffff1610610bb1576004805463ffffffff1916603c179055610bc2565b6004805463ffffffff1916601e1790555b610bd26080830160608401611d04565b600480546001600160a01b039290921664010000000002640100000000600160c01b03199092169190911790556080820135600555610c1760c0830160a08401611d04565b600680546001600160a01b0319166001600160a01b039290921691909117905560c8610c4960e0840160c08501611e78565b61ffff1611610c8857610c6260e0830160c08401611e78565b6006805461ffff92909216600160a01b0261ffff60a01b19909216919091179055610c9d565b6006805461ffff60a01b1916601960a31b1790555b6001805460ff60801b1916600160801b1781556002805480830182556000919091524260008051602061233d833981519152909101556040517f4cee320ea33bcf9d9dc3433d695a8a86883843cb7f4689c8715d928b2fadc21c91610d0191612102565b60405180910390a1600180546040516001600160801b039091169160008051602061235d83398151915291610d3891600091611fc1565b60405180910390a250506001546001600160801b031690565b6040805180820190915260018152603360f81b6020820152670de0b6b3a7640000341015610d925760405162461bcd60e51b81526004016103499190611fdc565b50333460018054600160801b900460ff166005811115610db457610db46122f8565b1415610dc957610dc48282611755565b610e28565b6002600154600160801b900460ff166005811115610de957610de96122f8565b1415610df957610dc48282611b44565b60408051808201825260018152601960f91b6020820152905162461bcd60e51b81526103499190600401611fdc565b610e3182611b96565b6001546040513481526001600160a01b038416916001600160801b0316907f2191d7db20ff624cf91a60b916ff863df210b683223983c752c30d0fd5a22c5b9060200160405180910390a35050565b604080516101208101825260008082526020820181905260609282018390529181018290526080810182905260a0810182905260c0810182905260e08101829052610100810191909152604080516101208101909152600180546001600160801b03811683526020830190600160801b900460ff166005811115610f0657610f066122f8565b6005811115610f1757610f176122f8565b815260200160018201805480602002602001604051908101604052809291908181526020018280548015610f6a57602002820191906000526020600020905b815481526020019060010190808311610f56575b505050918352505060028201546020820152600382015463ffffffff8116604083015264010000000090046001600160a01b0390811660608301526004830154608083015260059092015491821660a0820152600160a01b90910461ffff1660c090910152919050565b6000546001600160a01b03163314610ffe5760405162461bcd60e51b81526004016103499061200f565b6001600160a01b0381166110635760405162461bcd60e51b815260206004820152602660248201527f4f776e61626c653a206e6577206f776e657220697320746865207a65726f206160448201526564647265737360d01b6064820152608401610349565b600080546040516001600160a01b03808516939216917f8be0079c531659141344cd1fd0a4f28419497f9722a3daafe3b4186f6b6457e091a3600080546001600160a01b0319166001600160a01b0392909216919091179055565b6000546001600160a01b031633146110e85760405162461bcd60e51b81526004016103499061200f565b60045447906111089064010000000090046001600160a01b031682611c21565b6004546001546040518381526401000000009092046001600160a01b0316916001600160801b03909116907f265048b39dc8ae31d096105310a02bc6f6ac5642e8cc38b41e8da4b863def39d9060200160405180910390a3600280546001808201835560008390524260008051602061233d833981519152909201919091558054600360801b60ff60801b198216179091556040516001600160801b039091169160008051602061235d833981519152916111c69190600390611fc1565b60405180910390a250565b3b151590565b600d54600e5460405163c9a396e960e01b81526001600160a01b0391821660048201526000928392169063c9a396e9906024016101206040518083038186803b15801561122357600080fd5b505afa158015611237573d6000803e3d6000fd5b505050506040513d601f19601f8201168201806040525081019061125b9190611da6565b9050600060208201518015611272576112726122f8565b141561139157600d54600e546020830151604051632c9d46d360e21b81526000936001600160a01b039081169363b2751b4c936112b6939290911691600401611f94565b604080518083038186803b1580156112cd57600080fd5b505afa1580156112e1573d6000803e3d6000fd5b505050506040513d601f19601f820116820180604052508101906113059190611d39565b8051600e5460405163d15e005360e01b81526001600160a01b03918216600482015292935090919082169063d15e00539060240160206040518083038186803b15801561135157600080fd5b505afa158015611365573d6000803e3d6000fd5b505050506040513d601f19601f820116820180604052508101906113899190611eb5565b935050505090565b600191505090565b60008215806113a6575081155b156113b3575060006109bb565b816113cb60026b033b2e3c9fd0803ce800000061223f565b6113d790600019612280565b6113e1919061223f565b8311156114285760405162461bcd60e51b81526020600482015260156024820152744d61746820726179206d756c206f766572666c6f7760581b6044820152606401610349565b6b033b2e3c9fd0803ce800000061144060028261223f565b61144a8486612261565b6114549190612227565b61145e919061223f565b9392505050565b600061145e8284612261565b600061145e828461223f565b6000816114c05760405162461bcd60e51b81526020600482015260116024820152704d6174682072617920646976207a65726f60781b6044820152606401610349565b60006114cd60028461223f565b90506b033b2e3c9fd0803ce80000006114e882600019612280565b6114f2919061223f565b8411156115395760405162461bcd60e51b81526020600482015260156024820152744d6174682072617920646976206f766572666c6f7760581b6044820152606401610349565b82816115516b033b2e3c9fd0803ce800000087612261565b61155b9190612227565b6109b3919061223f565b600061145e8284612227565b6000818161157d6111d7565b6001600160a01b038616600090815260086020526040812054600a5492935091906115a88385611399565b92506115b48285611399565b91506001600160801b038714806115ca57508287115b156115d3578294505b848210156116815760015460405192955085926001600160801b03909116907fa8f5e6fe129c249397333eebbd4315f133f5ab2ec88a7560ddfa4b270642951b906116759060208082526037908201527f537570706c79206c657373207468616e207769746864726177416d6f756e742060408201527f7768656e205f7375627363726962655769746864726177000000000000000000606082015260800190565b60405180910390a25060015b84156116ef57600d546040516304d6891360e41b8152600481018790526001600160a01b0390911690634d68913090602401600060405180830381600087803b1580156116cd57600080fd5b505af11580156116e1573d6000803e3d6000fd5b505050506116ef8886611c21565b8015611718576001600160a01b0388166000908152600860205260408120819055600a55611749565b6117228386611cd9565b6001600160a01b0389166000908152600860205260409020556117458286611cd9565b600a555b50929695505050505050565b6001600160a01b038216600090815260086020526040812054600a54909161177b6111d7565b905061179161178a858361147d565b8490611565565b6001600160a01b0386166000908152600860205260409020556117be6117b7858361147d565b8390611565565b600a819055600354906117d19083611399565b10611acd576000915060005b600b54811015611846576001600160a01b038616600090815260086020526040902054935061180c8483611399565b6001600160a01b0387166000908152600860205260409020819055611832908490611565565b92508061183e816122c7565b9150506117dd565b50600a829055600d546040516304d6891360e41b81526001600160801b0360048201526001600160a01b0390911690634d68913090602401600060405180830381600087803b15801561189857600080fd5b505af11580156118ac573d6000803e3d6000fd5b5050600d54604051630f41a04d60e11b8152306004820152600093506001600160a01b039091169150631e83409a90602401602060405180830381600087803b1580156118f857600080fd5b505af115801561190c573d6000803e3d6000fd5b505050506040513d601f19601f820116820180604052508101906119309190611eb5565b905080156119a857600c54604051630852cd8d60e31b8152600481018390526001600160a01b03909116906342966c6890602401600060405180830381600087803b15801561197e57600080fd5b505af1158015611992573d6000803e3d6000fd5b50506005546119a49250905082611565565b6005555b600a54471015611a5b576001546040516001600160801b03909116907fa8f5e6fe129c249397333eebbd4315f133f5ab2ec88a7560ddfa4b270642951b90611a529060208082526042908201527f5f75736572732e746f74616c537570706c79206d6f7265207468616e20636f6e60408201527f74726163742062616c616e636520696e205f7375627363726962654465706f736060820152611a5d60f21b608082015260a00190565b60405180910390a25b600280546001808201835560008390524260008051602061233d833981519152909201919091558054600160811b60ff60801b1982161782556040516001600160801b039091169260008051602061235d83398151915292611abf92909190611fc1565b60405180910390a250611b3d565b4715611b3d57600d60009054906101000a90046001600160a01b03166001600160a01b031663bc66c1d9856040518263ffffffff1660e01b81526004016000604051808303818588803b158015611b2357600080fd5b505af1158015611b37573d6000803e3d6000fd5b50505050505b5050505050565b6001600160a01b038216600090815260086020526040902054600a54611b6a8284611565565b6001600160a01b038516600090815260086020526040902055611b8d8184611565565b600a5550505050565b6001600160a01b03811660009081526007602052604090205460ff1680611c1d576001600160a01b0382166000818152600760205260408120805460ff19166001908117909155600b805491820181559091527f0175b7a638427703f0dbe7bb9bbf987a2551717b34e79f33b5b1008d1fa01db90180546001600160a01b03191690911790555b5050565b604080516000808252602082019092526001600160a01b038416908390604051611c4b9190611f78565b60006040518083038185875af1925050503d8060008114611c88576040519150601f19603f3d011682016040523d82523d6000602084013e611c8d565b606091505b5050905080611cd45760405162461bcd60e51b815260206004820152601360248201527211551217d514905394d1915497d19052531151606a1b6044820152606401610349565b505050565b600061145e8284612280565b805180151581146102fe57600080fd5b8051600181106102fe57600080fd5b600060208284031215611d1657600080fd5b813561145e81612324565b600060e08284031215611d3357600080fd5b50919050565b600060408284031215611d4b57600080fd5b6040516040810181811067ffffffffffffffff82111715611d7c57634e487b7160e01b600052604160045260246000fd5b6040528251611d8a81612324565b81526020830151611d9a81612324565b60208201529392505050565b6000818303610120811215611dba57600080fd5b611dc26121bf565b60c0821215611dd057600080fd5b611dd86121f6565b9150835182526020840151602083015260408401516040830152606084015160608301526080840151608083015260a084015160a0830152818152611e1f60c08501611cf5565b6020820152611e3060e08501611ce5565b6040820152611e426101008501611ce5565b6060820152949350505050565b600060208284031215611e6157600080fd5b81356001600160801b038116811461145e57600080fd5b600060208284031215611e8a57600080fd5b813561ffff8116811461145e57600080fd5b600060208284031215611eae57600080fd5b5035919050565b600060208284031215611ec757600080fd5b5051919050565b600060208284031215611ee057600080fd5b813563ffffffff8116811461145e57600080fd5b600081518084526020808501945080840160005b83811015611f2457815187529582019590820190600101611f08565b509495945050505050565b6000815480845260208085019450836000528060002060005b83811015611f2457815487529582019560019182019101611f48565b60068110611f7457611f746122f8565b9052565b60008251611f8a818460208701612297565b9190910192915050565b6001600160a01b03831681526040810160018310611fb457611fb46122f8565b8260208301529392505050565b60408101611fcf8285611f64565b61145e6020830184611f64565b6020815260008251806020840152611ffb816040850160208701612297565b601f01601f19169190910160400192915050565b6020808252818101527f4f776e61626c653a2063616c6c6572206973206e6f7420746865206f776e6572604082015260600190565b6020815261205e6020820183516001600160801b03169052565b600060208301516120726040840182611f64565b50604083015161012080606085015261208f610140850183611ef4565b91506060850151608085015260808501516120b260a086018263ffffffff169052565b5060a08501516001600160a01b03811660c08601525060c085015160e085015260e08501516101006120ee818701836001600160a01b03169052565b9095015161ffff1693019290925250919050565b6020815260008254612128602084016001600160801b0383166001600160801b03169052565b61213b6040840160ff8360801c16611f64565b50610120806060840152612156610140840160018601611f2f565b60028501546080850152600385015463ffffffff811660a08601526001600160a01b03602082901c811660c0870152600487015460e087015260058701546001600160a01b038282161661010088015291505060a081901c61ffff168584015250949350505050565b6040516080810167ffffffffffffffff811182821017156121f057634e487b7160e01b600052604160045260246000fd5b60405290565b60405160c0810167ffffffffffffffff811182821017156121f057634e487b7160e01b600052604160045260246000fd5b6000821982111561223a5761223a6122e2565b500190565b60008261225c57634e487b7160e01b600052601260045260246000fd5b500490565b600081600019048311821515161561227b5761227b6122e2565b500290565b600082821015612292576122926122e2565b500390565b60005b838110156122b257818101518382015260200161229a565b838111156122c1576000848401525b50505050565b60006000198214156122db576122db6122e2565b5060010190565b634e487b7160e01b600052601160045260246000fd5b634e487b7160e01b600052602160045260246000fd5b634e487b7160e01b600052603260045260246000fd5b6001600160a01b038116811461233957600080fd5b5056fe405787fa12a823e0f2b7631cc41b3ba8828b3321ca811111fa75cd3aa3bb5acede7719aa2b10bf2c9a65bffd94b1f49f0a3d8774cae68376d47200f7a2a6f7e2a2646970667358221220aaa1d910a02d14e5a2518d925b02b7bd81aef66a8346621ba1f19dee0b87575664736f6c63430008070033",
  "immutableReferences": {},
  "source": "// SPDX-License-Identifier: agpl-3.0\r\npragma solidity ^0.8.0;\r\npragma experimental ABIEncoderV2;\r\n\r\nimport {StakePoolContext} from \"./StakePoolContext.sol\";\r\nimport {SpError} from \"./helper/SpError.sol\";\r\nimport {IStakePool} from \"../../interfaces/IStakePool.sol\";\r\nimport {IGunPool} from \"../../interfaces/IGunPool.sol\";\r\nimport {IPCoin} from \"../../interfaces/IPCoin.sol\";\r\nimport {GunPoolContext} from \"../gunpool/GunPoolContext.sol\";\r\nimport {ILendingPool} from \"../gunpool/pools/aave/ILendingPool.sol\";\r\nimport {WadRayMath} from \"../gunpool/pools/aave/WadRayMath.sol\";\r\nimport {Ownable} from \"../../dependencies/openzeppelin/contracts/access/Ownable.sol\";\r\nimport {SafeMath} from \"../../dependencies/openzeppelin/contracts/utils/math/SafeMath.sol\";\r\nimport {Address} from \"../../dependencies/openzeppelin/contracts/utils/Address.sol\";\r\n\r\n\r\ncontract StakePool is Ownable, IStakePool {\r\n    using SafeMath for uint256;\r\n    using WadRayMath for uint256;\r\n    using Address for address;\r\n\r\n    /******** Key Variables ********/\r\n    // order context\r\n    StakePoolContext.Order _order;\r\n    // user context\r\n    StakePoolContext.User _users;\r\n    // pcoin address\r\n    address private _pcoin;\r\n    // gunpool address\r\n    address private _gunpool;\r\n    // IWETH address\r\n    address private _iweth;\r\n\r\n    uint256 public constant MASK = type(uint128).max;\r\n\r\n    constructor (\r\n        address pcoinAddress,\r\n        address gunpoolAddress,\r\n        address iwethAddress)\r\n    {\r\n        require(pcoinAddress.isContract(), SpError.ORDER_CONTRACT_INVALID);\r\n        require(gunpoolAddress.isContract(), SpError.ORDER_CONTRACT_INVALID);\r\n        require(iwethAddress.isContract(), SpError.ORDER_CONTRACT_INVALID);\r\n\r\n        _order.state = StakePoolContext.ORDER_STATUS.INIT;\r\n        delete _users.accounts;\r\n        _users.totalSupply = 0;\r\n        _pcoin = pcoinAddress;\r\n        _gunpool = gunpoolAddress;\r\n        _iweth = iwethAddress;\r\n        _order.stateTime.push(block.timestamp);\r\n    }\r\n\r\n    /*\r\n    * init order: start new order by configure parameters\r\n    *    primary key is order index\r\n    */\r\n    function initOrder(\r\n        StakePoolContext.OrderInitParam calldata orderParam\r\n    )\r\n        external\r\n        override\r\n        onlyOwner\r\n        returns (uint128)\r\n    {\r\n        require(_order.state == StakePoolContext.ORDER_STATUS.INIT, SpError.ORDER_INIT_FAIL_FOR_STATE);\r\n        require(orderParam.proxy == address(0), SpError.ORDER_PROXY_INVALID);\r\n        _order.id = orderParam.id;\r\n        _order.threshold = orderParam.threshold;\r\n        if ( orderParam.period >= 90 ) {\r\n            _order.period = 90;\r\n        } else if ( orderParam.period >= 60 ) {\r\n            _order.period = 60;\r\n        } else {\r\n            _order.period = 30;\r\n        }\r\n\r\n        _order.proxy = orderParam.proxy;\r\n        _order.pcoinReward = orderParam.pcoinReward;\r\n        _order.feeTo = orderParam.feeTo;\r\n        if ( orderParam.feePermillage <= StakePoolContext.FEE_PERMILLAGE_MAX ) {\r\n            _order.feePermillage = orderParam.feePermillage;\r\n        }\r\n        else {\r\n            _order.feePermillage = StakePoolContext.FEE_PERMILLAGE_MAX;\r\n        }\r\n\r\n        _order.state = StakePoolContext.ORDER_STATUS.SUBSCRIBE;\r\n        _order.stateTime.push(block.timestamp);\r\n        emit InitOrder(_order);\r\n        emit StatusTransfer(_order.id,\r\n                            StakePoolContext.ORDER_STATUS.INIT,\r\n                            StakePoolContext.ORDER_STATUS.SUBSCRIBE);\r\n        return _order.id;\r\n    }\r\n\r\n    /*\r\n    * user delegate matic in order status(SUBSCRIBE or MIGRATE)\r\n    *   During subscribe state, user can get reward by gunpool\r\n    *   During migrate state, user can delegate continuity\r\n    */\r\n    function delegate()\r\n        external\r\n        payable\r\n        override\r\n    {\r\n        require(msg.value >= StakePoolContext.DELEGATE_AMOUNT_MIN, SpError.DELEGATE_AMOUNT_INVALID);\r\n        address account = msg.sender;\r\n        uint256 amount = msg.value;\r\n\r\n        if ( _order.state == StakePoolContext.ORDER_STATUS.SUBSCRIBE ) {\r\n            _subscribeDeposit(account, amount);\r\n        }\r\n        else if ( _order.state == StakePoolContext.ORDER_STATUS.MIGRATE ) {\r\n            _migrate(account, amount);\r\n        }\r\n        else {\r\n            require(false, SpError.ORDER_DELEGATE_FAIL_FOR_STATE);\r\n        }\r\n\r\n        _addUser(account);\r\n\r\n        emit Delegate(_order.id, account, msg.value);\r\n    }\r\n\r\n    function undelegate(uint256 amount)\r\n        external\r\n        override\r\n    {\r\n        require(amount > 0, SpError.DELEGATE_AMOUNT_ZERO);\r\n        require(_order.state == StakePoolContext.ORDER_STATUS.SUBSCRIBE, SpError.UNDELEGATE_NOT_SUBSCRIBE);\r\n\r\n        address account = msg.sender;\r\n\r\n        uint256 withdrawAmount = _withdraw(account, amount);\r\n\r\n        emit UnDelegate(_order.id, account, withdrawAmount);\r\n    }\r\n\r\n    function lock()\r\n        external\r\n        override\r\n        onlyOwner\r\n    {\r\n        uint256 amount = address(this).balance;\r\n        _safeTransferETH(_order.proxy, amount);\r\n        emit Migrate(_order.id, _order.proxy, amount);\r\n        // status change\r\n        _order.stateTime.push(block.timestamp);\r\n        _order.state = StakePoolContext.ORDER_STATUS.LOCKING;\r\n        emit StatusTransfer(_order.id,\r\n            StakePoolContext.ORDER_STATUS.MIGRATE,\r\n            StakePoolContext.ORDER_STATUS.LOCKING);\r\n    }\r\n\r\n    function reply(uint128 id)\r\n        external\r\n        payable\r\n        override\r\n    {\r\n        require(_order.id == id, SpError.ORDER_MISMATCH);\r\n        require(_msgSender() != _order.proxy, SpError.ORDER_PROXY_ABNORMAL);\r\n        require(_order.state == StakePoolContext.ORDER_STATUS.LOCKING, SpError.ORDER_REPLY_FAIL_FOR_STATE);\r\n        require(msg.value > 0, SpError.ORDER_REPAY_AMOUNT_ZERO);\r\n\r\n        uint256 amount = msg.value;\r\n        uint256 supply = _users.totalSupply;\r\n        uint256 balance = 0;\r\n        address account = address(0);\r\n        uint256 index = _getIncome();\r\n\r\n        _users.totalSupply = 0;\r\n\r\n        // alloc matic reward\r\n        for ( uint256 i = 0; i < _users.accounts.length; i++ ) {\r\n            account = _users.accounts[i];\r\n            balance = _users.balances[account];\r\n            _users.balances[account] = amount.mul(balance).div(supply);\r\n            _users.balances[account] = _users.balances[account].rayDiv(index);\r\n            _users.totalSupply = _users.totalSupply.add(_users.balances[account]);\r\n        }\r\n        // deposit into gunpool to get matic reward\r\n        IGunPool(_gunpool).depositByEth{value: amount}();\r\n\r\n        // alloc pcoin reward\r\n        if ( _order.pcoinReward > 0 ) {\r\n            supply = _users.totalSupply;\r\n            for ( uint256 j = 0; j < _users.accounts.length; j++ ) {\r\n                balance = _users.balances[account];\r\n                _users.pcoinReward[account] = _order.pcoinReward.mul(balance).div(supply);\r\n            }\r\n        }\r\n\r\n        // status change\r\n        _order.stateTime.push(block.timestamp);\r\n        _order.state = StakePoolContext.ORDER_STATUS.CLAIM;\r\n        emit StatusTransfer(_order.id,\r\n            StakePoolContext.ORDER_STATUS.LOCKING,\r\n            _order.state);\r\n    }\r\n\r\n    function claim()\r\n        external\r\n        override\r\n    {\r\n        require(_order.state == StakePoolContext.ORDER_STATUS.CLAIM, SpError.ORDER_CLAIM_FAIL_FOR_STATE);\r\n        address account = _msgSender();\r\n\r\n        uint256 maticAmount = _withdraw(account, MASK);\r\n        uint256 pcoinAmount = _users.pcoinReward[account];\r\n\r\n        if ( maticAmount == 0 && pcoinAmount == 0 ) {\r\n            require(false, SpError.ORDER_CLAIM_FAIL_FOR_ZERO);\r\n        }\r\n\r\n        if ( pcoinAmount > 0 ) {\r\n            IPCoin(_pcoin).mint(account, maticAmount);\r\n        }\r\n\r\n        emit Claim(_order.id, maticAmount, pcoinAmount);\r\n    }\r\n\r\n    function balanceOf(address account)\r\n        external\r\n        view\r\n        override\r\n        returns (uint256)\r\n    {\r\n        uint256 balance = _users.balances[account];\r\n        if ( _order.state == StakePoolContext.ORDER_STATUS.SUBSCRIBE\r\n          || _order.state == StakePoolContext.ORDER_STATUS.CLAIM ) {\r\n            uint256 index = _getIncome();\r\n            return balance.rayMul(index);\r\n        }\r\n        else {\r\n            return balance;\r\n        }\r\n    }\r\n\r\n    function totalSupply()\r\n        external\r\n        view\r\n        override\r\n        returns (uint256)\r\n    {\r\n        uint256 supply = _users.totalSupply;\r\n\r\n        if ( _order.state == StakePoolContext.ORDER_STATUS.SUBSCRIBE\r\n          || _order.state == StakePoolContext.ORDER_STATUS.CLAIM ) {\r\n            uint256 index = _getIncome();\r\n            return supply.rayMul(index);\r\n        }\r\n        else {\r\n            return supply;\r\n        }\r\n    }\r\n\r\n    function getOrder()\r\n        external\r\n        view\r\n        override\r\n        returns (StakePoolContext.Order memory)\r\n    {\r\n        return _order;\r\n    }\r\n\r\n    function reward(address account)\r\n        external\r\n        view\r\n        override\r\n        returns (uint256)\r\n    {\r\n        bool isDelegater = _users.delegates[account];\r\n        if ( isDelegater ) {\r\n            return _users.pcoinReward[account];\r\n        } else {\r\n            return 0;\r\n        }\r\n    }\r\n\r\n    /****** internal function ******/\r\n    // add user into delegate set\r\n    function _addUser(address account) internal\r\n    {\r\n        bool isDelegater = _users.delegates[account];\r\n        if ( !isDelegater ) {\r\n            _users.delegates[account] = true;\r\n            _users.accounts.push(account);\r\n        }\r\n    }\r\n\r\n    function _subscribeDeposit(address account, uint256 amount)\r\n        internal\r\n    {\r\n        uint256 balance = _users.balances[account];\r\n        uint256 supply = _users.totalSupply;\r\n        uint256 index = _getIncome();\r\n\r\n        _users.balances[account] = balance.add(amount.rayDiv(index));\r\n        _users.totalSupply = supply.add(amount.rayDiv(index));\r\n\r\n        if ( _users.totalSupply.rayMul(index) >= _order.threshold ) {   // withdraw matic from gunpool\r\n            supply = 0;\r\n            for ( uint256 i = 0; i < _users.accounts.length; i++ ) {\r\n                balance = _users.balances[account];\r\n                _users.balances[account] = balance.rayMul(index);\r\n                supply = supply.add(_users.balances[account]);\r\n            }\r\n            _users.totalSupply = supply;\r\n\r\n            // gunpool withdraw and claim reward\r\n            IGunPool(_gunpool).withdrawByEth( MASK );\r\n            uint256 pcoinReward = IGunPool(_gunpool).claim(address(this));\r\n            if ( pcoinReward > 0 ) {\r\n                IPCoin(_pcoin).burn(pcoinReward);\r\n                _order.pcoinReward = _order.pcoinReward.add(pcoinReward);\r\n            }\r\n\r\n            if ( _users.totalSupply > address(this).balance ) {\r\n                emit Warn(_order.id, \"_users.totalSupply more than contract balance in _subscribeDeposit\");\r\n            }\r\n\r\n            _order.stateTime.push(block.timestamp);\r\n            _order.state = StakePoolContext.ORDER_STATUS.MIGRATE;\r\n            emit StatusTransfer(_order.id,\r\n                StakePoolContext.ORDER_STATUS.SUBSCRIBE,\r\n                StakePoolContext.ORDER_STATUS.MIGRATE);\r\n        }\r\n        else {  // deposit matic into gunpool\r\n            if ( address(this).balance > 0 ) {\r\n                IGunPool(_gunpool).depositByEth{value: amount}();\r\n            }\r\n        }\r\n    }\r\n\r\n    function _withdraw(address account, uint256 amount)\r\n        internal\r\n        returns (uint256)\r\n    {\r\n        uint256 withdrawAmount = amount;\r\n        uint256 index = _getIncome();\r\n        uint256 balance = _users.balances[account];\r\n        uint256 supply = _users.totalSupply;\r\n        bool isClear = false;\r\n\r\n        balance = balance.rayMul(index);\r\n        supply = supply.rayMul(index);\r\n\r\n        if ( (amount == MASK) || (amount > balance) ) {\r\n            withdrawAmount = balance;\r\n        }\r\n\r\n        if ( supply < withdrawAmount ) {\r\n            withdrawAmount = supply;\r\n            emit Warn(_order.id, \"Supply less than withdrawAmount when _subscribeWithdraw\");\r\n            isClear = true;\r\n        }\r\n\r\n        if ( withdrawAmount > 0 ) {\r\n            IGunPool(_gunpool).withdrawByEth( withdrawAmount );\r\n            _safeTransferETH(account, withdrawAmount);\r\n        }\r\n\r\n        if ( isClear ) {\r\n            _users.balances[account] = 0;\r\n            _users.totalSupply = 0;\r\n        } else {\r\n            _users.balances[account] = balance.sub(withdrawAmount);\r\n            _users.totalSupply = supply.sub(withdrawAmount);\r\n        }\r\n\r\n        return withdrawAmount;\r\n    }\r\n\r\n    function _migrate(address account, uint256 amount)\r\n        internal\r\n    {\r\n        uint256 balance = _users.balances[account];\r\n        uint256 supply = _users.totalSupply;\r\n\r\n        _users.balances[account] = balance.add(amount);\r\n        _users.totalSupply = supply.add(amount);\r\n    }\r\n\r\n    function _getIncome()\r\n        internal\r\n        view\r\n        returns (uint256)\r\n    {\r\n        GunPoolContext.ReserveData memory reserve = IGunPool(_gunpool).getReserve(_iweth);\r\n        if ( reserve.pt == GunPoolContext.PlaneType.AAVE ) {\r\n            GunPoolContext.PlaneContext memory plane = IGunPool(_gunpool).getPlanes(_iweth, reserve.pt);\r\n            ILendingPool lendingPool = ILendingPool(plane.plane);\r\n            return lendingPool.getReserveNormalizedIncome(_iweth);\r\n        }\r\n        else {\r\n            return 1;\r\n        }\r\n    }\r\n\r\n    /**\r\n    * @dev transfer ETH to an address, revert if it fails.\r\n    * @param to recipient of the transfer\r\n    * @param value the amount to send\r\n    */\r\n    function _safeTransferETH(address to, uint256 value) internal {\r\n        (bool success, ) = to.call{value: value}(new bytes(0));\r\n        require(success, 'ETH_TRANSFER_FAILED');\r\n    }\r\n\r\n    receive() external payable {\r\n        //require(msg.sender == address(_IWETH), 'Receive not allowed');\r\n    }\r\n}",
  "sourcePath": "E:\\my_work\\Eos\\polylend\\core\\protocol_v1\\contracts\\protocol\\stakepool\\StakePool.sol",
  "compiler": {
    "name": "solc",
    "version": "0.8.7+commit.e28d00a7.Emscripten.clang"
  },
  "schemaVersion": "3.4.2",
  "updatedAt": "2021-08-19T02:20:52.473Z",
  "devdoc": {
    "kind": "dev",
    "methods": {
      "balanceOf(address)": {
        "details": "balanceOf get balance of account",
        "params": {
          "account": "who has delegated*"
        }
      },
      "claim()": {
        "details": "claim the rewards of user Emits a {Claim}*"
      },
      "delegate()": {
        "details": "delegate deposit matic into contract to stake Emits a {Delegate} event.*"
      },
      "getOrder()": {
        "details": "get order context*"
      },
      "initOrder((uint128,uint256,uint32,address,uint256,address,uint16))": {
        "details": "initOrder initializes parameters for order",
        "params": {
          "orderParam": "the initialization parameters of order Emits a {InitOrder} event.*"
        }
      },
      "lock()": {
        "details": "lock migrating matic from contract to ethereum Emits a {Migrate} event*"
      },
      "owner()": {
        "details": "Returns the address of the current owner."
      },
      "renounceOwnership()": {
        "details": "Leaves the contract without owner. It will not be possible to call `onlyOwner` functions anymore. Can only be called by the current owner. NOTE: Renouncing ownership will leave the contract without an owner, thereby removing any functionality that is only available to the owner."
      },
      "reply(uint128)": {
        "details": "repay the rewards from ethereum to delegates",
        "params": {
          "id": "the index of order Emits a {reply}*"
        }
      },
      "reward(address)": {
        "details": "get the pcoin reward of account",
        "params": {
          "account": "who has delegated*"
        }
      },
      "totalSupply()": {
        "details": "totalSupply get supply of this contract*"
      },
      "transferOwnership(address)": {
        "details": "Transfers ownership of the contract to a new account (`newOwner`). Can only be called by the current owner."
      },
      "undelegate(uint256)": {
        "details": "undelegate withdraw matic from contract to unstake",
        "params": {
          "amount": "the withdraw amount of user Emits a {Undelegate} event.*"
        }
      }
    },
    "version": 1
  },
  "userdoc": {
    "kind": "user",
    "methods": {},
    "version": 1
  }
}