{
  "contractName": "StakePool",
  "abi": [
    {
      "inputs": [
        {
          "internalType": "address",
          "name": "pcoinAddress",
          "type": "address"
        },
        {
          "internalType": "address",
          "name": "gunpoolAddress",
          "type": "address"
        },
        {
          "internalType": "address",
          "name": "iwethAddress",
          "type": "address"
        }
      ],
      "stateMutability": "nonpayable",
      "type": "constructor"
    },
    {
      "anonymous": false,
      "inputs": [
        {
          "indexed": true,
          "internalType": "uint128",
          "name": "id",
          "type": "uint128"
        },
        {
          "indexed": true,
          "internalType": "address",
          "name": "account",
          "type": "address"
        },
        {
          "indexed": false,
          "internalType": "uint256",
          "name": "amount",
          "type": "uint256"
        }
      ],
      "name": "Delegate",
      "type": "event"
    },
    {
      "anonymous": false,
      "inputs": [
        {
          "components": [
            {
              "internalType": "uint128",
              "name": "id",
              "type": "uint128"
            },
            {
              "internalType": "enum StakePoolContext.ORDER_STATUS",
              "name": "state",
              "type": "uint8"
            },
            {
              "internalType": "uint256[]",
              "name": "stateTime",
              "type": "uint256[]"
            },
            {
              "internalType": "uint256",
              "name": "threshold",
              "type": "uint256"
            },
            {
              "internalType": "uint32",
              "name": "period",
              "type": "uint32"
            },
            {
              "internalType": "address",
              "name": "proxy",
              "type": "address"
            },
            {
              "internalType": "uint256",
              "name": "pcoinReward",
              "type": "uint256"
            },
            {
              "internalType": "address",
              "name": "feeTo",
              "type": "address"
            },
            {
              "internalType": "uint16",
              "name": "feePermillage",
              "type": "uint16"
            }
          ],
          "indexed": false,
          "internalType": "struct StakePoolContext.Order",
          "name": "order",
          "type": "tuple"
        }
      ],
      "name": "InitOrder",
      "type": "event"
    },
    {
      "anonymous": false,
      "inputs": [
        {
          "indexed": true,
          "internalType": "uint128",
          "name": "id",
          "type": "uint128"
        },
        {
          "indexed": true,
          "internalType": "address",
          "name": "proxy",
          "type": "address"
        },
        {
          "indexed": false,
          "internalType": "uint256",
          "name": "amount",
          "type": "uint256"
        }
      ],
      "name": "Migrate",
      "type": "event"
    },
    {
      "anonymous": false,
      "inputs": [
        {
          "indexed": true,
          "internalType": "address",
          "name": "previousOwner",
          "type": "address"
        },
        {
          "indexed": true,
          "internalType": "address",
          "name": "newOwner",
          "type": "address"
        }
      ],
      "name": "OwnershipTransferred",
      "type": "event"
    },
    {
      "anonymous": false,
      "inputs": [
        {
          "indexed": true,
          "internalType": "uint128",
          "name": "id",
          "type": "uint128"
        },
        {
          "indexed": false,
          "internalType": "enum StakePoolContext.ORDER_STATUS",
          "name": "preState",
          "type": "uint8"
        },
        {
          "indexed": false,
          "internalType": "enum StakePoolContext.ORDER_STATUS",
          "name": "curState",
          "type": "uint8"
        }
      ],
      "name": "StatusTransfer",
      "type": "event"
    },
    {
      "anonymous": false,
      "inputs": [
        {
          "indexed": true,
          "internalType": "uint128",
          "name": "id",
          "type": "uint128"
        },
        {
          "indexed": true,
          "internalType": "address",
          "name": "account",
          "type": "address"
        },
        {
          "indexed": false,
          "internalType": "uint256",
          "name": "amount",
          "type": "uint256"
        }
      ],
      "name": "UnDelegate",
      "type": "event"
    },
    {
      "anonymous": false,
      "inputs": [
        {
          "indexed": true,
          "internalType": "uint128",
          "name": "id",
          "type": "uint128"
        },
        {
          "indexed": false,
          "internalType": "string",
          "name": "msg",
          "type": "string"
        }
      ],
      "name": "Warn",
      "type": "event"
    },
    {
      "inputs": [],
      "name": "owner",
      "outputs": [
        {
          "internalType": "address",
          "name": "",
          "type": "address"
        }
      ],
      "stateMutability": "view",
      "type": "function"
    },
    {
      "inputs": [],
      "name": "renounceOwnership",
      "outputs": [],
      "stateMutability": "nonpayable",
      "type": "function"
    },
    {
      "inputs": [
        {
          "internalType": "address",
          "name": "newOwner",
          "type": "address"
        }
      ],
      "name": "transferOwnership",
      "outputs": [],
      "stateMutability": "nonpayable",
      "type": "function"
    },
    {
      "stateMutability": "payable",
      "type": "receive"
    },
    {
      "inputs": [
        {
          "components": [
            {
              "internalType": "uint128",
              "name": "id",
              "type": "uint128"
            },
            {
              "internalType": "uint256",
              "name": "threshold",
              "type": "uint256"
            },
            {
              "internalType": "uint32",
              "name": "period",
              "type": "uint32"
            },
            {
              "internalType": "address",
              "name": "proxy",
              "type": "address"
            },
            {
              "internalType": "uint256",
              "name": "pcoinReward",
              "type": "uint256"
            },
            {
              "internalType": "address",
              "name": "feeTo",
              "type": "address"
            },
            {
              "internalType": "uint16",
              "name": "feePermillage",
              "type": "uint16"
            }
          ],
          "internalType": "struct StakePoolContext.OrderInitParam",
          "name": "orderParam",
          "type": "tuple"
        }
      ],
      "name": "initOrder",
      "outputs": [
        {
          "internalType": "uint128",
          "name": "",
          "type": "uint128"
        }
      ],
      "stateMutability": "nonpayable",
      "type": "function"
    },
    {
      "inputs": [],
      "name": "delegate",
      "outputs": [],
      "stateMutability": "payable",
      "type": "function"
    },
    {
      "inputs": [
        {
          "internalType": "uint256",
          "name": "amount",
          "type": "uint256"
        }
      ],
      "name": "undelegate",
      "outputs": [],
      "stateMutability": "nonpayable",
      "type": "function"
    },
    {
      "inputs": [],
      "name": "lock",
      "outputs": [],
      "stateMutability": "nonpayable",
      "type": "function"
    },
    {
      "inputs": [
        {
          "internalType": "address",
          "name": "account",
          "type": "address"
        }
      ],
      "name": "balanceOf",
      "outputs": [
        {
          "internalType": "uint256",
          "name": "",
          "type": "uint256"
        }
      ],
      "stateMutability": "view",
      "type": "function"
    },
    {
      "inputs": [],
      "name": "totalSupply",
      "outputs": [
        {
          "internalType": "uint256",
          "name": "",
          "type": "uint256"
        }
      ],
      "stateMutability": "view",
      "type": "function"
    }
  ],
  "bytecode": "0x60806040523480156200001157600080fd5b5060405162001c5138038062001c51833981016040819052620000349162000163565b60006200004062000121565b600080546001600160a01b0319166001600160a01b0383169081178255604051929350917f8be0079c531659141344cd1fd0a4f28419497f9722a3daafe3b4186f6b6457e0908290a3506001805460ff60801b19169055620000a5600a600062000125565b60006009819055600b80546001600160a01b03199081166001600160a01b0396871617909155600c8054821694861694909417909355600d805490931691909316179055600280546001810182559152427f405787fa12a823e0f2b7631cc41b3ba8828b3321ca811111fa75cd3aa3bb5ace90910155620001cc565b3390565b508054600082559060005260206000209081019062000145919062000148565b50565b5b808211156200015f576000815560010162000149565b5090565b60008060006060848603121562000178578283fd5b83516200018581620001b6565b60208501519093506200019881620001b6565b6040850151909250620001ab81620001b6565b809150509250925092565b6001600160a01b03811681146200014557600080fd5b611a7580620001dc6000396000f3fe60806040526004361061008a5760003560e01c806381d8b8251161005957806381d8b825146101185780638da5cb5b14610145578063c89e436114610167578063f2fde38b1461016f578063f83d08ba1461018f57610091565b806318160ddd146100965780636c68c0e1146100c157806370a08231146100e3578063715018a61461010357610091565b3661009157005b600080fd5b3480156100a257600080fd5b506100ab6101a4565b6040516100b891906119bd565b60405180910390f35b3480156100cd57600080fd5b506100e16100dc366004611548565b6101ee565b005b3480156100ef57600080fd5b506100ab6100fe3660046113dc565b6102e8565b34801561010f57600080fd5b506100e1610347565b34801561012457600080fd5b506101386101333660046113f8565b6103c6565b6040516100b891906119a9565b34801561015157600080fd5b5061015a61070c565b6040516100b8919061162e565b6100e161071b565b34801561017b57600080fd5b506100e161018a3660046113dc565b610843565b34801561019b57600080fd5b506100e16108f9565b60095460009060018054600160801b900460ff1660068111156101c357fe5b14156101e85760006101d3610a41565b90506101df8282610c14565b925050506101eb565b90505b90565b6040805180820190915260018152600d60fa1b60208201528161022d5760405162461bcd60e51b81526004016102249190611682565b60405180910390fd5b5060018054600160801b900460ff16600681111561024757fe5b14604051806040016040528060018152602001603560f81b815250906102805760405162461bcd60e51b81526004016102249190611682565b5033600061028e8284610c8b565b6001546040519192506001600160a01b038416916001600160801b03909116907f5dddd7e9d56d330faab24a241acd2cd656b342a2559ac7ef8c6e76c5959ad4c5906102db9085906119bd565b60405180910390a3505050565b6001600160a01b03811660009081526008602052604081205460018054600160801b900460ff16600681111561031a57fe5b141561033f57600061032a610a41565b90506103368282610c14565b92505050610342565b90505b919050565b61034f610e16565b6000546001600160a01b0390811691161461037c5760405162461bcd60e51b8152600401610224906117f4565b600080546040516001600160a01b03909116907f8be0079c531659141344cd1fd0a4f28419497f9722a3daafe3b4186f6b6457e0908390a3600080546001600160a01b0319169055565b60006103d0610e16565b6000546001600160a01b039081169116146103fd5760405162461bcd60e51b8152600401610224906117f4565b6000600154600160801b900460ff16600681111561041757fe5b14604051806040016040528060018152602001600360fc1b815250906104505760405162461bcd60e51b81526004016102249190611682565b50600061046360808401606085016113dc565b6001600160a01b031614604051806040016040528060018152602001603160f81b815250906104a55760405162461bcd60e51b81526004016102249190611682565b506104b360208301836114ff565b600180546fffffffffffffffffffffffffffffffff19166001600160801b03929092169190911790556020820135600355605a6104f66060840160408501611578565b63ffffffff1610610516576004805463ffffffff1916605a179055610559565b603c6105286060840160408501611578565b63ffffffff1610610548576004805463ffffffff1916603c179055610559565b6004805463ffffffff1916601e1790555b61056960808301606084016113dc565b600480546001600160a01b039290921664010000000002640100000000600160c01b031990921691909117905560808201356005556105ae60c0830160a084016113dc565b600680546001600160a01b0319166001600160a01b039290921691909117905560c86105e060e0840160c08501611526565b61ffff161161061f576105f960e0830160c08401611526565b6006805461ffff92909216600160a01b0261ffff60a01b19909216919091179055610634565b6006805461ffff60a01b1916601960a31b1790555b6001805460ff60801b1916600160801b178155600280548083018255600091909152427f405787fa12a823e0f2b7631cc41b3ba8828b3321ca811111fa75cd3aa3bb5ace909101556040517f4cee320ea33bcf9d9dc3433d695a8a86883843cb7f4689c8715d928b2fadc21c916106aa916118e2565b60405180910390a1600180546040516001600160801b03909116917fde7719aa2b10bf2c9a65bffd94b1f49f0a3d8774cae68376d47200f7a2a6f7e2916106f391600091611669565b60405180910390a250506001546001600160801b031690565b6000546001600160a01b031690565b6040805180820190915260018152603360f81b6020820152670de0b6b3a764000034101561075c5760405162461bcd60e51b81526004016102249190611682565b50333460018054600160801b900460ff16600681111561077857fe5b141561078d576107888282610e1a565b6107e6565b6002600154600160801b900460ff1660068111156107a757fe5b14156107b75761078882826110c5565b60408051808201825260018152601960f91b6020820152905162461bcd60e51b81526102249190600401611682565b6107ef82611117565b6001546040516001600160a01b038416916001600160801b0316907f2191d7db20ff624cf91a60b916ff863df210b683223983c752c30d0fd5a22c5b906108379034906119bd565b60405180910390a35050565b61084b610e16565b6000546001600160a01b039081169116146108785760405162461bcd60e51b8152600401610224906117f4565b6001600160a01b03811661089e5760405162461bcd60e51b8152600401610224906116b5565b600080546040516001600160a01b03808516939216917f8be0079c531659141344cd1fd0a4f28419497f9722a3daafe3b4186f6b6457e091a3600080546001600160a01b0319166001600160a01b0392909216919091179055565b610901610e16565b6000546001600160a01b0390811691161461092e5760405162461bcd60e51b8152600401610224906117f4565b60045460095461094f9164010000000090046001600160a01b0316906111a2565b6004546001546009546040516401000000009093046001600160a01b0316926001600160801b03909216917f265048b39dc8ae31d096105310a02bc6f6ac5642e8cc38b41e8da4b863def39d916109a5916119bd565b60405180910390a360028054600180820183556000839052427f405787fa12a823e0f2b7631cc41b3ba8828b3321ca811111fa75cd3aa3bb5ace90920191909155805460ff60801b1916600360801b17908190556040516001600160801b03909116917fde7719aa2b10bf2c9a65bffd94b1f49f0a3d8774cae68376d47200f7a2a6f7e291610a379190600390611669565b60405180910390a2565b6000610a4b611342565b600c54600d5460405163c9a396e960e01b81526001600160a01b039283169263c9a396e992610a7f9291169060040161162e565b6101206040518083038186803b158015610a9857600080fd5b505afa158015610aac573d6000803e3d6000fd5b505050506040513d601f19601f82011682018060405250810190610ad09190611451565b9050600060208201518015610ae157fe5b1415610c0a57610aef611370565b600c54600d546020840151604051632c9d46d360e21b81526001600160a01b039384169363b2751b4c93610b2893911691600401611642565b604080518083038186803b158015610b3f57600080fd5b505afa158015610b53573d6000803e3d6000fd5b505050506040513d601f19601f82011682018060405250810190610b77919061140f565b8051600d5460405163d15e005360e01b815292935090916001600160a01b038084169263d15e005392610bb0929091169060040161162e565b60206040518083038186803b158015610bc857600080fd5b505afa158015610bdc573d6000803e3d6000fd5b505050506040513d601f19601f82011682018060405250810190610c009190611560565b93505050506101eb565b60019150506101eb565b6000821580610c21575081155b15610c2e57506000610c85565b816b019d971e4fe8401e740000001981610c4457fe5b04831115610c645760405162461bcd60e51b8152600401610224906118b3565b506b033b2e3c9fd0803ce80000006b019d971e4fe8401e7400000082840201045b92915050565b60008181610c97610a41565b6001600160a01b0386166000908152600860205260408120546009549293509190610cc28385610c14565b9250610cce8285610c14565b9150600019871480610cdf57508287115b15610ce8578294505b84821015610d3e5760015460405192955085926001600160801b03909116907fa8f5e6fe129c249397333eebbd4315f133f5ab2ec88a7560ddfa4b270642951b90610d3290611829565b60405180910390a25060015b8415610db057600c546040516304d6891360e41b81526001600160a01b0390911690634d68913090610d749088906004016119bd565b600060405180830381600087803b158015610d8e57600080fd5b505af1158015610da2573d6000803e3d6000fd5b50505050610db088866111a2565b8015610dd9576001600160a01b0388166000908152600860205260408120819055600955610e0a565b610de38386611234565b6001600160a01b038916600090815260086020526040902055610e068286611234565b6009555b50929695505050505050565b3390565b6001600160a01b0382166000908152600860205260408120546009549091610e40610a41565b9050610e56610e4f858361127d565b84906112f1565b6001600160a01b038616600090815260086020526040902055610e83610e7c858361127d565b83906112f1565b600981905560035490610e969083610c14565b1061104e576000915060005b600a54811015610f01576001600160a01b0386166000908152600860205260409020549350610ed18483610c14565b6001600160a01b0387166000908152600860205260409020819055610ef79084906112f1565b9250600101610ea2565b50600c546040516304d6891360e41b81526001600160a01b0390911690634d68913090610f3490600019906004016119bd565b600060405180830381600087803b158015610f4e57600080fd5b505af1158015610f62573d6000803e3d6000fd5b50505060098390555047821115610fb9576001546040516001600160801b03909116907fa8f5e6fe129c249397333eebbd4315f133f5ab2ec88a7560ddfa4b270642951b90610fb090611761565b60405180910390a25b60028054600180820183556000839052427f405787fa12a823e0f2b7631cc41b3ba8828b3321ca811111fa75cd3aa3bb5ace90920191909155805460ff60801b1916600160811b178082556040516001600160801b03909116927fde7719aa2b10bf2c9a65bffd94b1f49f0a3d8774cae68376d47200f7a2a6f7e29261104192909190611669565b60405180910390a26110be565b47156110be57600c60009054906101000a90046001600160a01b03166001600160a01b031663bc66c1d9856040518263ffffffff1660e01b81526004016000604051808303818588803b1580156110a457600080fd5b505af11580156110b8573d6000803e3d6000fd5b50505050505b5050505050565b6001600160a01b0382166000908152600860205260409020546009546110eb82846112f1565b6001600160a01b03851660009081526008602052604090205561110e81846112f1565b60095550505050565b6001600160a01b03811660009081526007602052604090205460ff168061119e576001600160a01b0382166000818152600760205260408120805460ff19166001908117909155600a805491820181559091527fc65a7bb8d6351c1cf70c95a316cc6a92839c986682d98bc35f958f4883f9d2a80180546001600160a01b03191690911790555b5050565b604080516000808252602082019092526001600160a01b0384169083906040516111cc9190611612565b60006040518083038185875af1925050503d8060008114611209576040519150601f19603f3d011682016040523d82523d6000602084013e61120e565b606091505b505090508061122f5760405162461bcd60e51b815260040161022490611886565b505050565b600061127683836040518060400160405280601e81526020017f536166654d6174683a207375627472616374696f6e206f766572666c6f770000815250611316565b9392505050565b60008161129c5760405162461bcd60e51b8152600401610224906117c9565b600282046b033b2e3c9fd0803ce80000008119048411156112cf5760405162461bcd60e51b815260040161022490611732565b82816b033b2e3c9fd0803ce8000000860201816112e857fe5b04949350505050565b6000828201838110156112765760405162461bcd60e51b8152600401610224906116fb565b6000818484111561133a5760405162461bcd60e51b81526004016102249190611682565b505050900390565b6040518060800160405280611355611387565b81526020016000815260006020820181905260409091015290565b604080518082019091526000808252602082015290565b6040518060c001604052806000815260200160008152602001600081526020016000815260200160008152602001600081525090565b80518015158114610c8557600080fd5b805160018110610c8557600080fd5b6000602082840312156113ed578081fd5b813561127681611a2a565b600060e08284031215611409578081fd5b50919050565b600060408284031215611420578081fd5b61142a60406119c6565b825161143581611a2a565b8152602083015161144581611a2a565b60208201529392505050565b6000818303610120811215611464578182fd5b61146e60806119c6565b60c082121561147b578283fd5b61148560c06119c6565b9150835182526020840151602083015260408401516040830152606084015160608301526080840151608083015260a084015160a08301528181526114cd8560c086016113cd565b60208201526114df8560e086016113bd565b60408201526114f28561010086016113bd565b6060820152949350505050565b600060208284031215611510578081fd5b81356001600160801b0381168114611276578182fd5b600060208284031215611537578081fd5b813561ffff81168114611276578182fd5b600060208284031215611559578081fd5b5035919050565b600060208284031215611571578081fd5b5051919050565b600060208284031215611589578081fd5b813563ffffffff81168114611276578182fd5b6001600160a01b03169052565b6000815480845260208085019450838352808320835b838110156115db578154875295820195600191820191016115bf565b509495945050505050565b6115ef81611a1d565b9052565b6001600160801b03169052565b61ffff169052565b63ffffffff169052565b600082516116248184602087016119ed565b9190910192915050565b6001600160a01b0391909116815260200190565b6001600160a01b0383168152604081016001831061165c57fe5b8260208301529392505050565b6040810161167684611a1d565b83825261165c83611a1d565b60006020825282518060208401526116a18160408501602087016119ed565b601f01601f19169190910160400192915050565b60208082526026908201527f4f776e61626c653a206e6577206f776e657220697320746865207a65726f206160408201526564647265737360d01b606082015260800190565b6020808252601b908201527f536166654d6174683a206164646974696f6e206f766572666c6f770000000000604082015260600190565b6020808252601590820152744d6174682072617920646976206f766572666c6f7760581b604082015260600190565b60208082526042908201527f5f75736572732e746f74616c537570706c79206d6f7265207468616e20636f6e60408201527f74726163742062616c616e636520696e205f7375627363726962654465706f736060820152611a5d60f21b608082015260a00190565b6020808252601190820152704d6174682072617920646976207a65726f60781b604082015260600190565b6020808252818101527f4f776e61626c653a2063616c6c6572206973206e6f7420746865206f776e6572604082015260600190565b60208082526037908201527f537570706c79206c657373207468616e207769746864726177416d6f756e742060408201527f7768656e205f7375627363726962655769746864726177000000000000000000606082015260800190565b60208082526013908201527211551217d514905394d1915497d19052531151606a1b604082015260600190565b6020808252601590820152744d61746820726179206d756c206f766572666c6f7760581b604082015260600190565b6000602082528254611900602084016001600160801b0383166115f3565b6119136040840160ff8360801c166115e6565b5061012080606084015261192e6101408401600186016115a9565b60028501546080850152600385015461195060a0860163ffffffff8316611608565b6001600160a01b0361196b60c08701602084901c831661159c565b600487015460e08701526005870154915061198c610100870182841661159c565b506119a083860161ffff8360a01c16611600565b50949350505050565b6001600160801b0391909116815260200190565b90815260200190565b60405181810167ffffffffffffffff811182821017156119e557600080fd5b604052919050565b60005b83811015611a085781810151838201526020016119f0565b83811115611a17576000848401525b50505050565b60078110611a2757fe5b50565b6001600160a01b0381168114611a2757600080fdfea2646970667358221220ac48b9934dfa28b108bd85e4f7851070cb39513304fc9f88e58028f98e9a299964736f6c634300060c0033",
  "immutableReferences": {},
  "source": "// SPDX-License-Identifier: agpl-3.0\r\npragma solidity >=0.4.22 <0.9.0;\r\npragma experimental ABIEncoderV2;\r\n\r\nimport {StakePoolContext} from \"./StakePoolContext.sol\";\r\nimport {SpError} from \"./helper/SpError.sol\";\r\nimport {IStakePool} from \"../../interfaces/IStakePool.sol\";\r\nimport {IGunPool} from \"../../interfaces/IGunPool.sol\";\r\nimport {GunPoolContext} from \"../gunpool/GunPoolContext.sol\";\r\nimport {ILendingPool} from \"../gunpool/pools/aave/ILendingPool.sol\";\r\nimport {WadRayMath} from \"../gunpool/pools/aave/WadRayMath.sol\";\r\nimport {Ownable} from \"../../dependencies/openzeppelin/contracts/access/Ownable.sol\";\r\nimport {SafeMath} from \"../../dependencies/openzeppelin/contracts/math/SafeMath.sol\";\r\n\r\ncontract StakePool is Ownable, IStakePool {\r\n    using SafeMath for uint256;\r\n    using WadRayMath for uint256;\r\n\r\n    /******** Key Variables ********/\r\n    // order context\r\n    StakePoolContext.Order _order;\r\n    // user context\r\n    StakePoolContext.User _users;\r\n    // pcoin address\r\n    address private _pcoin;\r\n    // gunpool address\r\n    address private _gunpool;\r\n    // IWETH address\r\n    address private _iweth;\r\n\r\n    constructor (\r\n        address pcoinAddress,\r\n        address gunpoolAddress,\r\n        address iwethAddress\r\n    )\r\n        public\r\n    {\r\n        _order.state = StakePoolContext.ORDER_STATUS.INIT;\r\n        delete _users.accounts;\r\n        _users.totalSupply = 0;\r\n        _pcoin = pcoinAddress;\r\n        _gunpool = gunpoolAddress;\r\n        _iweth = iwethAddress;\r\n        _order.stateTime.push(block.timestamp);\r\n    }\r\n\r\n    /*\r\n    * init order: start new order by configure parameters\r\n    *    primary key is order index\r\n    */\r\n    function initOrder(\r\n        StakePoolContext.OrderInitParam calldata orderParam\r\n    )\r\n        external\r\n        override\r\n        onlyOwner\r\n        returns (uint128)\r\n    {\r\n        require(_order.state == StakePoolContext.ORDER_STATUS.INIT, SpError.ORDER_INIT_FAIL_FOR_STATE);\r\n        require(orderParam.proxy == address(0), SpError.ORDER_PROXY_INVALID);\r\n        _order.id = orderParam.id;\r\n        _order.threshold = orderParam.threshold;\r\n        if ( orderParam.period >= 90 ) {\r\n            _order.period = 90;\r\n        } else if ( orderParam.period >= 60 ) {\r\n            _order.period = 60;\r\n        } else {\r\n            _order.period = 30;\r\n        }\r\n\r\n        _order.proxy = orderParam.proxy;\r\n        _order.pcoinReward = orderParam.pcoinReward;\r\n        _order.feeTo = orderParam.feeTo;\r\n        if ( orderParam.feePermillage <= StakePoolContext.FEE_PERMILLAGE_MAX ) {\r\n            _order.feePermillage = orderParam.feePermillage;\r\n        }\r\n        else {\r\n            _order.feePermillage = StakePoolContext.FEE_PERMILLAGE_MAX;\r\n        }\r\n\r\n        _order.state = StakePoolContext.ORDER_STATUS.SUBSCRIBE;\r\n        _order.stateTime.push(block.timestamp);\r\n        emit InitOrder(_order);\r\n        emit StatusTransfer(_order.id,\r\n                            StakePoolContext.ORDER_STATUS.INIT,\r\n                            StakePoolContext.ORDER_STATUS.SUBSCRIBE);\r\n        return _order.id;\r\n    }\r\n\r\n    /*\r\n    * user delegate matic in order status(SUBSCRIBE or MIGRATE)\r\n    *   During subscribe state, user can get reward by gunpool\r\n    *   During migrate state, user can delegate continuity\r\n    */\r\n    function delegate()\r\n        external\r\n        payable\r\n        override\r\n    {\r\n        require(msg.value >= StakePoolContext.DELEGATE_AMOUNT_MIN, SpError.DELEGATE_AMOUNT_INVALID);\r\n        address account = msg.sender;\r\n        uint256 amount = msg.value;\r\n\r\n        if ( _order.state == StakePoolContext.ORDER_STATUS.SUBSCRIBE ) {\r\n            _subscribeDeposit(account, amount);\r\n        }\r\n        else if ( _order.state == StakePoolContext.ORDER_STATUS.MIGRATE ) {\r\n            _migrate(account, amount);\r\n        }\r\n        else {\r\n            require(false, SpError.ORDER_DELEGATE_FAIL_FOR_STATE);\r\n        }\r\n\r\n        _addUser(account);\r\n\r\n        emit Delegate(_order.id, account, msg.value);\r\n    }\r\n\r\n    function undelegate(uint256 amount)\r\n        external\r\n        override\r\n    {\r\n        require(amount > 0, SpError.DELEGATE_AMOUNT_ZERO);\r\n        require(_order.state == StakePoolContext.ORDER_STATUS.SUBSCRIBE, SpError.UNDELEGATE_NOT_SUBSCRIBE);\r\n\r\n        address account = msg.sender;\r\n\r\n        uint256 withdrawAmount = _subscribeWithdraw(account, amount);\r\n\r\n        emit UnDelegate(_order.id, account, withdrawAmount);\r\n    }\r\n\r\n    function lock()\r\n        external\r\n        override\r\n        onlyOwner\r\n    {\r\n        _safeTransferETH(_order.proxy, _users.totalSupply);\r\n        emit Migrate(_order.id, _order.proxy, _users.totalSupply);\r\n        // status change\r\n        _order.stateTime.push(block.timestamp);\r\n        _order.state = StakePoolContext.ORDER_STATUS.LOCKING;\r\n        emit StatusTransfer(_order.id,\r\n            StakePoolContext.ORDER_STATUS.MIGRATE,\r\n            StakePoolContext.ORDER_STATUS.LOCKING);\r\n    }\r\n\r\n    function balanceOf(address account)\r\n        external\r\n        view\r\n        override\r\n        returns (uint256)\r\n    {\r\n        uint256 balance = _users.balances[account];\r\n        if ( _order.state == StakePoolContext.ORDER_STATUS.SUBSCRIBE ) {\r\n            uint256 index = _getIncome();\r\n            return balance.rayMul(index);\r\n        }\r\n        else {\r\n            return balance;\r\n        }\r\n    }\r\n\r\n    function totalSupply()\r\n        external\r\n        view\r\n        override\r\n        returns (uint256)\r\n    {\r\n        uint256 supply = _users.totalSupply;\r\n\r\n        if ( _order.state == StakePoolContext.ORDER_STATUS.SUBSCRIBE ) {\r\n            uint256 index = _getIncome();\r\n            return supply.rayMul(index);\r\n        }\r\n        else {\r\n            return supply;\r\n        }\r\n    }\r\n\r\n    /****** internal function ******/\r\n    // add user into delegate set\r\n    function _addUser(address account) internal\r\n    {\r\n        bool isDelegater = _users.delegates[account];\r\n        if ( !isDelegater ) {\r\n            _users.delegates[account] = true;\r\n            _users.accounts.push(account);\r\n        }\r\n    }\r\n\r\n    function _subscribeDeposit(address account, uint256 amount)\r\n        internal\r\n    {\r\n        uint256 balance = _users.balances[account];\r\n        uint256 supply = _users.totalSupply;\r\n        uint256 index = _getIncome();\r\n\r\n        _users.balances[account] = balance.add(amount.rayDiv(index));\r\n        _users.totalSupply = supply.add(amount.rayDiv(index));\r\n\r\n        if ( _users.totalSupply.rayMul(index) >= _order.threshold ) {   // withdraw matic from gunpool\r\n            supply = 0;\r\n            for ( uint256 i = 0; i < _users.accounts.length; i++ ) {\r\n                balance = _users.balances[account];\r\n                _users.balances[account] = balance.rayMul(index);\r\n                supply = supply.add(_users.balances[account]);\r\n            }\r\n\r\n            IGunPool(_gunpool).withdrawByEth( uint256(-1) );\r\n            _users.totalSupply = supply;\r\n\r\n            if ( _users.totalSupply > address(this).balance ) {\r\n                emit Warn(_order.id, \"_users.totalSupply more than contract balance in _subscribeDeposit\");\r\n            }\r\n\r\n            _order.stateTime.push(block.timestamp);\r\n            _order.state = StakePoolContext.ORDER_STATUS.MIGRATE;\r\n            emit StatusTransfer(_order.id,\r\n                StakePoolContext.ORDER_STATUS.SUBSCRIBE,\r\n                StakePoolContext.ORDER_STATUS.MIGRATE);\r\n        }\r\n        else {  // deposit matic into gunpool\r\n            if ( address(this).balance > 0 ) {\r\n                IGunPool(_gunpool).depositByEth{value: amount}();\r\n            }\r\n        }\r\n    }\r\n\r\n    function _subscribeWithdraw(address account, uint256 amount)\r\n        internal\r\n        returns (uint256)\r\n    {\r\n        uint256 withdrawAmount = amount;\r\n        uint256 index = _getIncome();\r\n        uint256 balance = _users.balances[account];\r\n        uint256 supply = _users.totalSupply;\r\n        bool isClear = false;\r\n\r\n        balance = balance.rayMul(index);\r\n        supply = supply.rayMul(index);\r\n\r\n        if ( (amount == uint256(-1)) || (amount > balance) ) {\r\n            withdrawAmount = balance;\r\n        }\r\n\r\n        if ( supply < withdrawAmount ) {\r\n            withdrawAmount = supply;\r\n            emit Warn(_order.id, \"Supply less than withdrawAmount when _subscribeWithdraw\");\r\n            isClear = true;\r\n        }\r\n\r\n        if ( withdrawAmount > 0 ) {\r\n            IGunPool(_gunpool).withdrawByEth( withdrawAmount );\r\n            _safeTransferETH(account, withdrawAmount);\r\n        }\r\n\r\n        if ( isClear ) {\r\n            _users.balances[account] = 0;\r\n            _users.totalSupply = 0;\r\n        } else {\r\n            _users.balances[account] = balance.sub(withdrawAmount);\r\n            _users.totalSupply = supply.sub(withdrawAmount);\r\n        }\r\n\r\n        return withdrawAmount;\r\n    }\r\n\r\n    function _migrate(address account, uint256 amount)\r\n        internal\r\n    {\r\n        uint256 balance = _users.balances[account];\r\n        uint256 supply = _users.totalSupply;\r\n\r\n        _users.balances[account] = balance.add(amount);\r\n        _users.totalSupply = supply.add(amount);\r\n    }\r\n\r\n    function _getIncome()\r\n        internal\r\n        view\r\n        returns (uint256)\r\n    {\r\n        GunPoolContext.ReserveData memory reserve = IGunPool(_gunpool).getReserve(_iweth);\r\n        if ( reserve.pt == GunPoolContext.PlaneType.AAVE ) {\r\n            GunPoolContext.PlaneContext memory plane = IGunPool(_gunpool).getPlanes(_iweth, reserve.pt);\r\n            ILendingPool lendingPool = ILendingPool(plane.plane);\r\n            return lendingPool.getReserveNormalizedIncome(_iweth);\r\n        }\r\n        else {\r\n            return 1;\r\n        }\r\n    }\r\n\r\n    /**\r\n    * @dev transfer ETH to an address, revert if it fails.\r\n    * @param to recipient of the transfer\r\n    * @param value the amount to send\r\n    */\r\n    function _safeTransferETH(address to, uint256 value) internal {\r\n        (bool success, ) = to.call{value: value}(new bytes(0));\r\n        require(success, 'ETH_TRANSFER_FAILED');\r\n    }\r\n\r\n    receive() external payable {\r\n        //require(msg.sender == address(_IWETH), 'Receive not allowed');\r\n    }\r\n}",
  "sourcePath": "E:\\my_work\\Eos\\polylend\\core\\protocol_v1\\contracts\\protocol\\stakepool\\StakePool.sol",
  "compiler": {
    "name": "solc",
    "version": "0.6.12+commit.27d51765.Emscripten.clang"
  },
  "schemaVersion": "3.4.2",
  "updatedAt": "2021-08-10T11:43:49.530Z",
  "devdoc": {
    "kind": "dev",
    "methods": {
      "balanceOf(address)": {
        "details": "balanceOf get balance of account",
        "params": {
          "account": "who has delegated*"
        }
      },
      "delegate()": {
        "details": "delegate deposit matic into contract to stake Emits a {Delegate} event.*"
      },
      "initOrder((uint128,uint256,uint32,address,uint256,address,uint16))": {
        "details": "initOrder initializes parameters for order",
        "params": {
          "orderParam": "the initialization parameters of order Emits a {InitOrder} event.*"
        }
      },
      "lock()": {
        "details": "lock it is migrating matic from contract to ethereum Emits a {Migrate} event*"
      },
      "owner()": {
        "details": "Returns the address of the current owner."
      },
      "renounceOwnership()": {
        "details": "Leaves the contract without owner. It will not be possible to call `onlyOwner` functions anymore. Can only be called by the current owner. NOTE: Renouncing ownership will leave the contract without an owner, thereby removing any functionality that is only available to the owner."
      },
      "totalSupply()": {
        "details": "totalSupply get supply of this contract*"
      },
      "transferOwnership(address)": {
        "details": "Transfers ownership of the contract to a new account (`newOwner`). Can only be called by the current owner."
      },
      "undelegate(uint256)": {
        "details": "undelegate withdraw matic from contract to unstake",
        "params": {
          "amount": "the withdraw amount of user Emits a {Undelegate} event.*"
        }
      }
    },
    "version": 1
  },
  "userdoc": {
    "kind": "user",
    "methods": {},
    "version": 1
  }
}