{
  "contractName": "StakePool",
  "abi": [
    {
      "inputs": [
        {
          "internalType": "address",
          "name": "pcoinAddress",
          "type": "address"
        },
        {
          "internalType": "address",
          "name": "gunpoolAddress",
          "type": "address"
        },
        {
          "internalType": "address",
          "name": "iwethAddress",
          "type": "address"
        }
      ],
      "stateMutability": "nonpayable",
      "type": "constructor"
    },
    {
      "anonymous": false,
      "inputs": [
        {
          "indexed": true,
          "internalType": "uint128",
          "name": "id",
          "type": "uint128"
        },
        {
          "indexed": false,
          "internalType": "uint256",
          "name": "matic",
          "type": "uint256"
        },
        {
          "indexed": false,
          "internalType": "uint256",
          "name": "pcoin",
          "type": "uint256"
        }
      ],
      "name": "Claim",
      "type": "event"
    },
    {
      "anonymous": false,
      "inputs": [
        {
          "indexed": true,
          "internalType": "uint128",
          "name": "id",
          "type": "uint128"
        },
        {
          "indexed": true,
          "internalType": "address",
          "name": "account",
          "type": "address"
        },
        {
          "indexed": false,
          "internalType": "uint256",
          "name": "amount",
          "type": "uint256"
        }
      ],
      "name": "Delegate",
      "type": "event"
    },
    {
      "anonymous": false,
      "inputs": [
        {
          "components": [
            {
              "internalType": "uint128",
              "name": "id",
              "type": "uint128"
            },
            {
              "internalType": "enum StakePoolContext.ORDER_STATUS",
              "name": "state",
              "type": "uint8"
            },
            {
              "internalType": "uint256[]",
              "name": "stateTime",
              "type": "uint256[]"
            },
            {
              "internalType": "uint256",
              "name": "threshold",
              "type": "uint256"
            },
            {
              "internalType": "uint32",
              "name": "period",
              "type": "uint32"
            },
            {
              "internalType": "address",
              "name": "proxy",
              "type": "address"
            },
            {
              "internalType": "uint256",
              "name": "pcoinReward",
              "type": "uint256"
            },
            {
              "internalType": "address",
              "name": "feeTo",
              "type": "address"
            },
            {
              "internalType": "uint16",
              "name": "feePermillage",
              "type": "uint16"
            }
          ],
          "indexed": false,
          "internalType": "struct StakePoolContext.Order",
          "name": "order",
          "type": "tuple"
        }
      ],
      "name": "InitOrder",
      "type": "event"
    },
    {
      "anonymous": false,
      "inputs": [
        {
          "indexed": true,
          "internalType": "uint128",
          "name": "id",
          "type": "uint128"
        },
        {
          "indexed": true,
          "internalType": "address",
          "name": "proxy",
          "type": "address"
        },
        {
          "indexed": false,
          "internalType": "uint256",
          "name": "amount",
          "type": "uint256"
        }
      ],
      "name": "Migrate",
      "type": "event"
    },
    {
      "anonymous": false,
      "inputs": [
        {
          "indexed": true,
          "internalType": "address",
          "name": "previousOwner",
          "type": "address"
        },
        {
          "indexed": true,
          "internalType": "address",
          "name": "newOwner",
          "type": "address"
        }
      ],
      "name": "OwnershipTransferred",
      "type": "event"
    },
    {
      "anonymous": false,
      "inputs": [
        {
          "indexed": true,
          "internalType": "uint128",
          "name": "id",
          "type": "uint128"
        },
        {
          "indexed": false,
          "internalType": "uint256",
          "name": "amount",
          "type": "uint256"
        }
      ],
      "name": "Reply",
      "type": "event"
    },
    {
      "anonymous": false,
      "inputs": [
        {
          "indexed": true,
          "internalType": "uint128",
          "name": "id",
          "type": "uint128"
        },
        {
          "indexed": false,
          "internalType": "enum StakePoolContext.ORDER_STATUS",
          "name": "preState",
          "type": "uint8"
        },
        {
          "indexed": false,
          "internalType": "enum StakePoolContext.ORDER_STATUS",
          "name": "curState",
          "type": "uint8"
        }
      ],
      "name": "StatusTransfer",
      "type": "event"
    },
    {
      "anonymous": false,
      "inputs": [
        {
          "indexed": true,
          "internalType": "uint128",
          "name": "id",
          "type": "uint128"
        },
        {
          "indexed": true,
          "internalType": "address",
          "name": "account",
          "type": "address"
        },
        {
          "indexed": false,
          "internalType": "uint256",
          "name": "amount",
          "type": "uint256"
        }
      ],
      "name": "UnDelegate",
      "type": "event"
    },
    {
      "anonymous": false,
      "inputs": [
        {
          "indexed": true,
          "internalType": "uint128",
          "name": "id",
          "type": "uint128"
        },
        {
          "indexed": false,
          "internalType": "string",
          "name": "msg",
          "type": "string"
        }
      ],
      "name": "Warn",
      "type": "event"
    },
    {
      "inputs": [],
      "name": "owner",
      "outputs": [
        {
          "internalType": "address",
          "name": "",
          "type": "address"
        }
      ],
      "stateMutability": "view",
      "type": "function"
    },
    {
      "inputs": [],
      "name": "renounceOwnership",
      "outputs": [],
      "stateMutability": "nonpayable",
      "type": "function"
    },
    {
      "inputs": [
        {
          "internalType": "address",
          "name": "newOwner",
          "type": "address"
        }
      ],
      "name": "transferOwnership",
      "outputs": [],
      "stateMutability": "nonpayable",
      "type": "function"
    },
    {
      "stateMutability": "payable",
      "type": "receive"
    },
    {
      "inputs": [
        {
          "components": [
            {
              "internalType": "uint128",
              "name": "id",
              "type": "uint128"
            },
            {
              "internalType": "uint256",
              "name": "threshold",
              "type": "uint256"
            },
            {
              "internalType": "uint32",
              "name": "period",
              "type": "uint32"
            },
            {
              "internalType": "address",
              "name": "proxy",
              "type": "address"
            },
            {
              "internalType": "uint256",
              "name": "pcoinReward",
              "type": "uint256"
            },
            {
              "internalType": "address",
              "name": "feeTo",
              "type": "address"
            },
            {
              "internalType": "uint16",
              "name": "feePermillage",
              "type": "uint16"
            }
          ],
          "internalType": "struct StakePoolContext.OrderInitParam",
          "name": "orderParam",
          "type": "tuple"
        }
      ],
      "name": "initOrder",
      "outputs": [
        {
          "internalType": "uint128",
          "name": "",
          "type": "uint128"
        }
      ],
      "stateMutability": "nonpayable",
      "type": "function"
    },
    {
      "inputs": [],
      "name": "delegate",
      "outputs": [],
      "stateMutability": "payable",
      "type": "function"
    },
    {
      "inputs": [
        {
          "internalType": "uint256",
          "name": "amount",
          "type": "uint256"
        }
      ],
      "name": "undelegate",
      "outputs": [],
      "stateMutability": "nonpayable",
      "type": "function"
    },
    {
      "inputs": [],
      "name": "lock",
      "outputs": [],
      "stateMutability": "nonpayable",
      "type": "function"
    },
    {
      "inputs": [
        {
          "internalType": "uint128",
          "name": "id",
          "type": "uint128"
        }
      ],
      "name": "reply",
      "outputs": [],
      "stateMutability": "payable",
      "type": "function"
    },
    {
      "inputs": [],
      "name": "claim",
      "outputs": [],
      "stateMutability": "nonpayable",
      "type": "function"
    },
    {
      "inputs": [
        {
          "internalType": "address",
          "name": "account",
          "type": "address"
        }
      ],
      "name": "balanceOf",
      "outputs": [
        {
          "internalType": "uint256",
          "name": "",
          "type": "uint256"
        }
      ],
      "stateMutability": "view",
      "type": "function"
    },
    {
      "inputs": [],
      "name": "totalSupply",
      "outputs": [
        {
          "internalType": "uint256",
          "name": "",
          "type": "uint256"
        }
      ],
      "stateMutability": "view",
      "type": "function"
    },
    {
      "inputs": [],
      "name": "getOrder",
      "outputs": [
        {
          "components": [
            {
              "internalType": "uint128",
              "name": "id",
              "type": "uint128"
            },
            {
              "internalType": "enum StakePoolContext.ORDER_STATUS",
              "name": "state",
              "type": "uint8"
            },
            {
              "internalType": "uint256[]",
              "name": "stateTime",
              "type": "uint256[]"
            },
            {
              "internalType": "uint256",
              "name": "threshold",
              "type": "uint256"
            },
            {
              "internalType": "uint32",
              "name": "period",
              "type": "uint32"
            },
            {
              "internalType": "address",
              "name": "proxy",
              "type": "address"
            },
            {
              "internalType": "uint256",
              "name": "pcoinReward",
              "type": "uint256"
            },
            {
              "internalType": "address",
              "name": "feeTo",
              "type": "address"
            },
            {
              "internalType": "uint16",
              "name": "feePermillage",
              "type": "uint16"
            }
          ],
          "internalType": "struct StakePoolContext.Order",
          "name": "",
          "type": "tuple"
        }
      ],
      "stateMutability": "view",
      "type": "function"
    },
    {
      "inputs": [
        {
          "internalType": "address",
          "name": "account",
          "type": "address"
        }
      ],
      "name": "reward",
      "outputs": [
        {
          "internalType": "uint256",
          "name": "",
          "type": "uint256"
        }
      ],
      "stateMutability": "view",
      "type": "function"
    }
  ],
  "bytecode": "0x60806040523480156200001157600080fd5b506040516200285f3803806200285f8339810160408190526200003491620002bd565b6000620000406200023e565b600080546001600160a01b0319166001600160a01b0383169081178255604051929350917f8be0079c531659141344cd1fd0a4f28419497f9722a3daafe3b4186f6b6457e0908290a350620000a9836001600160a01b03166200024260201b620011091760201c565b60405180604001604052806002815260200161313160f01b81525090620000ee5760405162461bcd60e51b8152600401620000e5919062000310565b60405180910390fd5b506200010e826001600160a01b03166200024260201b620011091760201c565b60405180604001604052806002815260200161313160f01b815250906200014a5760405162461bcd60e51b8152600401620000e5919062000310565b506200016a816001600160a01b03166200024260201b620011091760201c565b60405180604001604052806002815260200161313160f01b81525090620001a65760405162461bcd60e51b8152600401620000e5919062000310565b506001805460ff60801b19169055620001c2600b60006200027f565b6000600a819055600c80546001600160a01b03199081166001600160a01b0396871617909155600d8054821694861694909417909355600e805490931691909316179055600280546001810182559152427f405787fa12a823e0f2b7631cc41b3ba8828b3321ca811111fa75cd3aa3bb5ace909101556200037c565b3390565b6000813f7fc5d2460186f7233c927e7db2dcc703c0e500b653ca82273b7bfad8045d85a4708181148015906200027757508115155b949350505050565b50805460008255906000526020600020908101906200029f9190620002a2565b50565b5b80821115620002b95760008155600101620002a3565b5090565b600080600060608486031215620002d2578283fd5b8351620002df8162000366565b6020850151909350620002f28162000366565b6040850151909250620003058162000366565b809150509250925092565b6000602080835283518082850152825b818110156200033e5785810183015185820160400152820162000320565b81811115620003505783604083870101525b50601f01601f1916929092016040019392505050565b6001600160a01b03811681146200029f57600080fd5b6124d3806200038c6000396000f3fe6080604052600436106100c65760003560e01c8063715018a61161007f578063c89e436111610059578063c89e4361146101eb578063d36dedd2146101f3578063f2fde38b14610215578063f83d08ba14610235576100cd565b8063715018a61461018757806381d8b8251461019c5780638da5cb5b146101c9576100cd565b806318160ddd146100d2578063479ee3a8146100fd5780634e71d92d146101125780636353586b146101275780636c68c0e11461014757806370a0823114610167576100cd565b366100cd57005b600080fd5b3480156100de57600080fd5b506100e761024a565b6040516100f491906123d7565b60405180910390f35b61011061010b366004611ddf565b6102b6565b005b34801561011e57600080fd5b5061011061060f565b34801561013357600080fd5b506100e7610142366004611cbc565b610794565b34801561015357600080fd5b50610110610162366004611e28565b6107e1565b34801561017357600080fd5b506100e7610182366004611cbc565b6108d2565b34801561019357600080fd5b50610110610952565b3480156101a857600080fd5b506101bc6101b7366004611cd8565b6109d1565b6040516100f491906123c3565b3480156101d557600080fd5b506101de610cf3565b6040516100f49190611f3e565b610110610d02565b3480156101ff57600080fd5b50610208610e2a565b6040516100f4919061224e565b34801561022157600080fd5b50610110610230366004611cbc565b610f30565b34801561024157600080fd5b50610110610fe6565b600a5460009060018054600160801b900460ff16600581111561026957fe5b148061028c57506004600154600160801b900460ff16600581111561028a57fe5b145b156102b057600061029b611145565b90506102a78282611318565b925050506102b3565b90505b90565b6001805460408051808201909152918252601b60f91b60208301526001600160801b038381169116146103055760405162461bcd60e51b81526004016102fc9190611fad565b60405180910390fd5b5060045464010000000090046001600160a01b031661032261138f565b6001600160a01b03161415604051806040016040528060018152602001603760f81b815250906103655760405162461bcd60e51b81526004016102fc9190611fad565b506003600154600160801b900460ff16600581111561038057fe5b14604051806040016040528060018152602001603960f81b815250906103b95760405162461bcd60e51b81526004016102fc9190611fad565b506040805180820190915260018152600760fb1b6020820152346103f05760405162461bcd60e51b81526004016102fc9190611fad565b50600a54349060008080610402611145565b6000600a8190559091505b600b548110156104b957600b80548290811061042557fe5b60009182526020808320909101546001600160a01b03168083526008909152604090912054945092506104628561045c8887611393565b906113d4565b6001600160a01b03841660009081526008602052604090208190556104879083611416565b6001600160a01b0384166000908152600860205260409020819055600a546104ae9161148a565b600a5560010161040d565b50600d60009054906101000a90046001600160a01b03166001600160a01b031663bc66c1d9866040518263ffffffff1660e01b81526004016000604051808303818588803b15801561050a57600080fd5b505af115801561051e573d6000803e3d6000fd5b505060055415925061059191505057600a54935060005b600b5481101561058f576001600160a01b03831660009081526008602052604090205460055490945061056e90869061045c9087611393565b6001600160a01b038416600090815260096020526040902055600101610535565b505b60028054600180820183556000929092524260008051602061245e83398151915290910155805460ff60801b1916600160821b17908190556040516001600160801b0382169160008051602061247e833981519152916105ff91600391600160801b90910460ff1690611f92565b60405180910390a2505050505050565b6004600154600160801b900460ff16600581111561062957fe5b1460405180604001604052806002815260200161031360f41b815250906106635760405162461bcd60e51b81526004016102fc9190611fad565b50600061066e61138f565b9050600061067e826000196114af565b6001600160a01b038316600090815260096020526040902054909150811580156106a6575080155b156106db576040805180820182526002815261189960f11b6020820152905162461bcd60e51b81526102fc9190600401611fad565b801561074657600c546040516340c10f1960e01b81526001600160a01b03909116906340c10f19906107139086908690600401611f79565b600060405180830381600087803b15801561072d57600080fd5b505af1158015610741573d6000803e3d6000fd5b505050505b6001546040516001600160801b03909116907f159d4063d0972e9f08a7739eb1880ebf259aaddd91fb245c72b72651f0e8067a9061078790859085906123e0565b60405180910390a2505050565b6001600160a01b03811660009081526007602052604081205460ff1680156107d65750506001600160a01b0381166000908152600960205260409020546107dc565b60009150505b919050565b6040805180820190915260018152600d60fa1b6020820152816108175760405162461bcd60e51b81526004016102fc9190611fad565b5060018054600160801b900460ff16600581111561083157fe5b14604051806040016040528060018152602001603560f81b8152509061086a5760405162461bcd60e51b81526004016102fc9190611fad565b5033600061087882846114af565b6001546040519192506001600160a01b038416916001600160801b03909116907f5dddd7e9d56d330faab24a241acd2cd656b342a2559ac7ef8c6e76c5959ad4c5906108c59085906123d7565b60405180910390a3505050565b6001600160a01b03811660009081526008602052604081205460018054600160801b900460ff16600581111561090457fe5b148061092757506004600154600160801b900460ff16600581111561092557fe5b145b1561094b576000610936611145565b90506109428282611318565b925050506107dc565b90506107dc565b61095a61138f565b6000546001600160a01b039081169116146109875760405162461bcd60e51b81526004016102fc90612160565b600080546040516001600160a01b03909116907f8be0079c531659141344cd1fd0a4f28419497f9722a3daafe3b4186f6b6457e0908390a3600080546001600160a01b0319169055565b60006109db61138f565b6000546001600160a01b03908116911614610a085760405162461bcd60e51b81526004016102fc90612160565b6000600154600160801b900460ff166005811115610a2257fe5b14604051806040016040528060018152602001600360fc1b81525090610a5b5760405162461bcd60e51b81526004016102fc9190611fad565b506000610a6e6080840160608501611cbc565b6001600160a01b031614604051806040016040528060018152602001603160f81b81525090610ab05760405162461bcd60e51b81526004016102fc9190611fad565b50610abe6020830183611ddf565b600180546fffffffffffffffffffffffffffffffff19166001600160801b03929092169190911790556020820135600355605a610b016060840160408501611e58565b63ffffffff1610610b21576004805463ffffffff1916605a179055610b64565b603c610b336060840160408501611e58565b63ffffffff1610610b53576004805463ffffffff1916603c179055610b64565b6004805463ffffffff1916601e1790555b610b746080830160608401611cbc565b600480546001600160a01b039290921664010000000002640100000000600160c01b03199092169190911790556080820135600555610bb960c0830160a08401611cbc565b600680546001600160a01b0319166001600160a01b039290921691909117905560c8610beb60e0840160c08501611e06565b61ffff1611610c2a57610c0460e0830160c08401611e06565b6006805461ffff92909216600160a01b0261ffff60a01b19909216919091179055610c3f565b6006805461ffff60a01b1916601960a31b1790555b6001805460ff60801b1916600160801b1781556002805480830182556000919091524260008051602061245e833981519152909101556040517f4cee320ea33bcf9d9dc3433d695a8a86883843cb7f4689c8715d928b2fadc21c91610ca3916122fc565b60405180910390a1600180546040516001600160801b039091169160008051602061247e83398151915291610cda91600091611f92565b60405180910390a250506001546001600160801b031690565b6000546001600160a01b031690565b6040805180820190915260018152603360f81b6020820152670de0b6b3a7640000341015610d435760405162461bcd60e51b81526004016102fc9190611fad565b50333460018054600160801b900460ff166005811115610d5f57fe5b1415610d7457610d6f828261163a565b610dcd565b6002600154600160801b900460ff166005811115610d8e57fe5b1415610d9e57610d6f82826119c5565b60408051808201825260018152601960f91b6020820152905162461bcd60e51b81526102fc9190600401611fad565b610dd682611a17565b6001546040516001600160a01b038416916001600160801b0316907f2191d7db20ff624cf91a60b916ff863df210b683223983c752c30d0fd5a22c5b90610e1e9034906123d7565b60405180910390a35050565b610e32611bd4565b604080516101208101909152600180546001600160801b03811683526020830190600160801b900460ff166005811115610e6857fe5b6005811115610e7357fe5b815260200160018201805480602002602001604051908101604052809291908181526020018280548015610ec657602002820191906000526020600020905b815481526020019060010190808311610eb2575b505050918352505060028201546020820152600382015463ffffffff8116604083015264010000000090046001600160a01b0390811660608301526004830154608083015260059092015491821660a0820152600160a01b90910461ffff1660c090910152919050565b610f3861138f565b6000546001600160a01b03908116911614610f655760405162461bcd60e51b81526004016102fc90612160565b6001600160a01b038116610f8b5760405162461bcd60e51b81526004016102fc90611fe0565b600080546040516001600160a01b03808516939216917f8be0079c531659141344cd1fd0a4f28419497f9722a3daafe3b4186f6b6457e091a3600080546001600160a01b0319166001600160a01b0392909216919091179055565b610fee61138f565b6000546001600160a01b0390811691161461101b5760405162461bcd60e51b81526004016102fc90612160565b600454479061103b9064010000000090046001600160a01b031682611aa2565b6004546001546040516401000000009092046001600160a01b0316916001600160801b03909116907f265048b39dc8ae31d096105310a02bc6f6ac5642e8cc38b41e8da4b863def39d906110909085906123d7565b60405180910390a3600280546001808201835560008390524260008051602061245e83398151915290920191909155805460ff60801b1916600360801b17908190556040516001600160801b039091169160008051602061247e833981519152916110fe9190600390611f92565b60405180910390a250565b6000813f7fc5d2460186f7233c927e7db2dcc703c0e500b653ca82273b7bfad8045d85a47081811480159061113d57508115155b949350505050565b600061114f611c22565b600d54600e5460405163c9a396e960e01b81526001600160a01b039283169263c9a396e99261118392911690600401611f3e565b6101206040518083038186803b15801561119c57600080fd5b505afa1580156111b0573d6000803e3d6000fd5b505050506040513d601f19601f820116820180604052508101906111d49190611d31565b90506000602082015180156111e557fe5b141561130e576111f3611c50565b600d54600e546020840151604051632c9d46d360e21b81526001600160a01b039384169363b2751b4c9361122c93911691600401611f52565b604080518083038186803b15801561124357600080fd5b505afa158015611257573d6000803e3d6000fd5b505050506040513d601f19601f8201168201806040525081019061127b9190611cef565b8051600e5460405163d15e005360e01b815292935090916001600160a01b038084169263d15e0053926112b49290911690600401611f3e565b60206040518083038186803b1580156112cc57600080fd5b505afa1580156112e0573d6000803e3d6000fd5b505050506040513d601f19601f820116820180604052508101906113049190611e40565b93505050506102b3565b60019150506102b3565b6000821580611325575081155b1561133257506000611389565b816b019d971e4fe8401e74000000198161134857fe5b048311156113685760405162461bcd60e51b81526004016102fc9061221f565b506b033b2e3c9fd0803ce80000006b019d971e4fe8401e7400000082840201045b92915050565b3390565b6000826113a257506000611389565b828202828482816113af57fe5b04146113cd5760405162461bcd60e51b81526004016102fc9061211f565b9392505050565b60006113cd83836040518060400160405280601a81526020017f536166654d6174683a206469766973696f6e206279207a65726f000000000000815250611b34565b6000816114355760405162461bcd60e51b81526004016102fc906120f4565b600282046b033b2e3c9fd0803ce80000008119048411156114685760405162461bcd60e51b81526004016102fc9061205d565b82816b033b2e3c9fd0803ce80000008602018161148157fe5b04949350505050565b6000828201838110156113cd5760405162461bcd60e51b81526004016102fc90612026565b600081816114bb611145565b6001600160a01b038616600090815260086020526040812054600a5492935091906114e68385611318565b92506114f28285611318565b915060001987148061150357508287115b1561150c578294505b848210156115625760015460405192955085926001600160801b03909116907fa8f5e6fe129c249397333eebbd4315f133f5ab2ec88a7560ddfa4b270642951b9061155690612195565b60405180910390a25060015b84156115d457600d546040516304d6891360e41b81526001600160a01b0390911690634d689130906115989088906004016123d7565b600060405180830381600087803b1580156115b257600080fd5b505af11580156115c6573d6000803e3d6000fd5b505050506115d48886611aa2565b80156115fd576001600160a01b0388166000908152600860205260408120819055600a5561162e565b6116078386611b6b565b6001600160a01b03891660009081526008602052604090205561162a8286611b6b565b600a555b50929695505050505050565b6001600160a01b038216600090815260086020526040812054600a549091611660611145565b905061167661166f8583611416565b849061148a565b6001600160a01b0386166000908152600860205260409020556116a361169c8583611416565b839061148a565b600a819055600354906116b69083611318565b1061194e576000915060005b600b54811015611721576001600160a01b03861660009081526008602052604090205493506116f18483611318565b6001600160a01b038716600090815260086020526040902081905561171790849061148a565b92506001016116c2565b50600a829055600d546040516304d6891360e41b81526001600160a01b0390911690634d6891309061175990600019906004016123d7565b600060405180830381600087803b15801561177357600080fd5b505af1158015611787573d6000803e3d6000fd5b5050600d54604051630f41a04d60e11b8152600093506001600160a01b039091169150631e83409a906117be903090600401611f3e565b602060405180830381600087803b1580156117d857600080fd5b505af11580156117ec573d6000803e3d6000fd5b505050506040513d601f19601f820116820180604052508101906118109190611e40565b9050801561188c57600c54604051630852cd8d60e31b81526001600160a01b03909116906342966c68906118489084906004016123d7565b600060405180830381600087803b15801561186257600080fd5b505af1158015611876573d6000803e3d6000fd5b5050600554611888925090508261148a565b6005555b600a544710156118dc576001546040516001600160801b03909116907fa8f5e6fe129c249397333eebbd4315f133f5ab2ec88a7560ddfa4b270642951b906118d39061208c565b60405180910390a25b600280546001808201835560008390524260008051602061245e83398151915290920191909155805460ff60801b1916600160811b178082556040516001600160801b039091169260008051602061247e8339815191529261194092909190611f92565b60405180910390a2506119be565b47156119be57600d60009054906101000a90046001600160a01b03166001600160a01b031663bc66c1d9856040518263ffffffff1660e01b81526004016000604051808303818588803b1580156119a457600080fd5b505af11580156119b8573d6000803e3d6000fd5b50505050505b5050505050565b6001600160a01b038216600090815260086020526040902054600a546119eb828461148a565b6001600160a01b038516600090815260086020526040902055611a0e818461148a565b600a5550505050565b6001600160a01b03811660009081526007602052604090205460ff1680611a9e576001600160a01b0382166000818152600760205260408120805460ff19166001908117909155600b805491820181559091527f0175b7a638427703f0dbe7bb9bbf987a2551717b34e79f33b5b1008d1fa01db90180546001600160a01b03191690911790555b5050565b604080516000808252602082019092526001600160a01b038416908390604051611acc9190611f22565b60006040518083038185875af1925050503d8060008114611b09576040519150601f19603f3d011682016040523d82523d6000602084013e611b0e565b606091505b5050905080611b2f5760405162461bcd60e51b81526004016102fc906121f2565b505050565b60008183611b555760405162461bcd60e51b81526004016102fc9190611fad565b506000838581611b6157fe5b0495945050505050565b60006113cd83836040518060400160405280601e81526020017f536166654d6174683a207375627472616374696f6e206f766572666c6f77000081525060008184841115611bcc5760405162461bcd60e51b81526004016102fc9190611fad565b505050900390565b6040805161012081019091526000808252602082019081526060602082018190526000604083018190529082018190526080820181905260a0820181905260c0820181905260e09091015290565b6040518060800160405280611c35611c67565b81526020016000815260006020820181905260409091015290565b604080518082019091526000808252602082015290565b6040518060c001604052806000815260200160008152602001600081526020016000815260200160008152602001600081525090565b8051801515811461138957600080fd5b80516001811061138957600080fd5b600060208284031215611ccd578081fd5b81356113cd81612445565b600060e08284031215611ce9578081fd5b50919050565b600060408284031215611d00578081fd5b611d0a60406123ee565b8251611d1581612445565b81526020830151611d2581612445565b60208201529392505050565b6000818303610120811215611d44578182fd5b611d4e60806123ee565b60c0821215611d5b578283fd5b611d6560c06123ee565b9150835182526020840151602083015260408401516040830152606084015160608301526080840151608083015260a084015160a0830152818152611dad8560c08601611cad565b6020820152611dbf8560e08601611c9d565b6040820152611dd2856101008601611c9d565b6060820152949350505050565b600060208284031215611df0578081fd5b81356001600160801b03811681146113cd578182fd5b600060208284031215611e17578081fd5b813561ffff811681146113cd578182fd5b600060208284031215611e39578081fd5b5035919050565b600060208284031215611e51578081fd5b5051919050565b600060208284031215611e69578081fd5b813563ffffffff811681146113cd578182fd5b6001600160a01b03169052565b6000815180845260208085019450808401835b83811015611eb857815187529582019590820190600101611e9c565b509495945050505050565b6000815480845260208085019450838352808320835b83811015611eb857815487529582019560019182019101611ed9565b60068110611eff57fe5b9052565b6001600160801b03169052565b61ffff169052565b63ffffffff169052565b60008251611f34818460208701612415565b9190910192915050565b6001600160a01b0391909116815260200190565b6001600160a01b03831681526040810160018310611f6c57fe5b8260208301529392505050565b6001600160a01b03929092168252602082015260400190565b60408101611fa08285611ef5565b6113cd6020830184611ef5565b6000602082528251806020840152611fcc816040850160208701612415565b601f01601f19169190910160400192915050565b60208082526026908201527f4f776e61626c653a206e6577206f776e657220697320746865207a65726f206160408201526564647265737360d01b606082015260800190565b6020808252601b908201527f536166654d6174683a206164646974696f6e206f766572666c6f770000000000604082015260600190565b6020808252601590820152744d6174682072617920646976206f766572666c6f7760581b604082015260600190565b60208082526042908201527f5f75736572732e746f74616c537570706c79206d6f7265207468616e20636f6e60408201527f74726163742062616c616e636520696e205f7375627363726962654465706f736060820152611a5d60f21b608082015260a00190565b6020808252601190820152704d6174682072617920646976207a65726f60781b604082015260600190565b60208082526021908201527f536166654d6174683a206d756c7469706c69636174696f6e206f766572666c6f6040820152607760f81b606082015260800190565b6020808252818101527f4f776e61626c653a2063616c6c6572206973206e6f7420746865206f776e6572604082015260600190565b60208082526037908201527f537570706c79206c657373207468616e207769746864726177416d6f756e742060408201527f7768656e205f7375627363726962655769746864726177000000000000000000606082015260800190565b60208082526013908201527211551217d514905394d1915497d19052531151606a1b604082015260600190565b6020808252601590820152744d61746820726179206d756c206f766572666c6f7760581b604082015260600190565b600060208252612262602083018451611f03565b60208301516122746040840182611ef5565b506040830151610120806060850152612291610140850183611e89565b91506060850151608085015260808501516122af60a0860182611f18565b5060a08501516122c260c0860182611e7c565b5060c085015160e085015260e08501516101006122e181870183611e7c565b86015190506122f285830182611f10565b5090949350505050565b600060208252825461231a602084016001600160801b038316611f03565b61232d6040840160ff8360801c16611ef5565b50610120806060840152612348610140840160018601611ec3565b60028501546080850152600385015461236a60a0860163ffffffff8316611f18565b6001600160a01b0361238560c08701602084901c8316611e7c565b600487015460e0870152600587015491506123a66101008701828416611e7c565b506123ba83860161ffff8360a01c16611f10565b50949350505050565b6001600160801b0391909116815260200190565b90815260200190565b918252602082015260400190565b60405181810167ffffffffffffffff8111828210171561240d57600080fd5b604052919050565b60005b83811015612430578181015183820152602001612418565b8381111561243f576000848401525b50505050565b6001600160a01b038116811461245a57600080fd5b5056fe405787fa12a823e0f2b7631cc41b3ba8828b3321ca811111fa75cd3aa3bb5acede7719aa2b10bf2c9a65bffd94b1f49f0a3d8774cae68376d47200f7a2a6f7e2a2646970667358221220c84c9ba54938fb2eb55ffcb917a74122b01f2a98bdbeec099624e21fa863a50764736f6c634300060c0033",
  "immutableReferences": {},
  "source": "// SPDX-License-Identifier: agpl-3.0\r\npragma solidity >=0.4.22 <0.9.0;\r\npragma experimental ABIEncoderV2;\r\n\r\nimport {StakePoolContext} from \"./StakePoolContext.sol\";\r\nimport {SpError} from \"./helper/SpError.sol\";\r\nimport {IStakePool} from \"../../interfaces/IStakePool.sol\";\r\nimport {IGunPool} from \"../../interfaces/IGunPool.sol\";\r\nimport {IPCoin} from \"../../interfaces/IPCoin.sol\";\r\nimport {GunPoolContext} from \"../gunpool/GunPoolContext.sol\";\r\nimport {ILendingPool} from \"../gunpool/pools/aave/ILendingPool.sol\";\r\nimport {WadRayMath} from \"../gunpool/pools/aave/WadRayMath.sol\";\r\nimport {Ownable} from \"../../dependencies/openzeppelin/contracts/access/Ownable.sol\";\r\nimport {SafeMath} from \"../../dependencies/openzeppelin/contracts/math/SafeMath.sol\";\r\nimport {Address} from \"../../dependencies/openzeppelin/contracts/utils/Address.sol\";\r\n\r\n\r\ncontract StakePool is Ownable, IStakePool {\r\n    using SafeMath for uint256;\r\n    using WadRayMath for uint256;\r\n    using Address for address;\r\n\r\n    /******** Key Variables ********/\r\n    // order context\r\n    StakePoolContext.Order _order;\r\n    // user context\r\n    StakePoolContext.User _users;\r\n    // pcoin address\r\n    address private _pcoin;\r\n    // gunpool address\r\n    address private _gunpool;\r\n    // IWETH address\r\n    address private _iweth;\r\n\r\n    constructor (\r\n        address pcoinAddress,\r\n        address gunpoolAddress,\r\n        address iwethAddress\r\n    )\r\n        public\r\n    {\r\n        require(pcoinAddress.isContract(), SpError.ORDER_CONTRACT_INVALID);\r\n        require(gunpoolAddress.isContract(), SpError.ORDER_CONTRACT_INVALID);\r\n        require(iwethAddress.isContract(), SpError.ORDER_CONTRACT_INVALID);\r\n\r\n        _order.state = StakePoolContext.ORDER_STATUS.INIT;\r\n        delete _users.accounts;\r\n        _users.totalSupply = 0;\r\n        _pcoin = pcoinAddress;\r\n        _gunpool = gunpoolAddress;\r\n        _iweth = iwethAddress;\r\n        _order.stateTime.push(block.timestamp);\r\n    }\r\n\r\n    /*\r\n    * init order: start new order by configure parameters\r\n    *    primary key is order index\r\n    */\r\n    function initOrder(\r\n        StakePoolContext.OrderInitParam calldata orderParam\r\n    )\r\n        external\r\n        override\r\n        onlyOwner\r\n        returns (uint128)\r\n    {\r\n        require(_order.state == StakePoolContext.ORDER_STATUS.INIT, SpError.ORDER_INIT_FAIL_FOR_STATE);\r\n        require(orderParam.proxy == address(0), SpError.ORDER_PROXY_INVALID);\r\n        _order.id = orderParam.id;\r\n        _order.threshold = orderParam.threshold;\r\n        if ( orderParam.period >= 90 ) {\r\n            _order.period = 90;\r\n        } else if ( orderParam.period >= 60 ) {\r\n            _order.period = 60;\r\n        } else {\r\n            _order.period = 30;\r\n        }\r\n\r\n        _order.proxy = orderParam.proxy;\r\n        _order.pcoinReward = orderParam.pcoinReward;\r\n        _order.feeTo = orderParam.feeTo;\r\n        if ( orderParam.feePermillage <= StakePoolContext.FEE_PERMILLAGE_MAX ) {\r\n            _order.feePermillage = orderParam.feePermillage;\r\n        }\r\n        else {\r\n            _order.feePermillage = StakePoolContext.FEE_PERMILLAGE_MAX;\r\n        }\r\n\r\n        _order.state = StakePoolContext.ORDER_STATUS.SUBSCRIBE;\r\n        _order.stateTime.push(block.timestamp);\r\n        emit InitOrder(_order);\r\n        emit StatusTransfer(_order.id,\r\n                            StakePoolContext.ORDER_STATUS.INIT,\r\n                            StakePoolContext.ORDER_STATUS.SUBSCRIBE);\r\n        return _order.id;\r\n    }\r\n\r\n    /*\r\n    * user delegate matic in order status(SUBSCRIBE or MIGRATE)\r\n    *   During subscribe state, user can get reward by gunpool\r\n    *   During migrate state, user can delegate continuity\r\n    */\r\n    function delegate()\r\n        external\r\n        payable\r\n        override\r\n    {\r\n        require(msg.value >= StakePoolContext.DELEGATE_AMOUNT_MIN, SpError.DELEGATE_AMOUNT_INVALID);\r\n        address account = msg.sender;\r\n        uint256 amount = msg.value;\r\n\r\n        if ( _order.state == StakePoolContext.ORDER_STATUS.SUBSCRIBE ) {\r\n            _subscribeDeposit(account, amount);\r\n        }\r\n        else if ( _order.state == StakePoolContext.ORDER_STATUS.MIGRATE ) {\r\n            _migrate(account, amount);\r\n        }\r\n        else {\r\n            require(false, SpError.ORDER_DELEGATE_FAIL_FOR_STATE);\r\n        }\r\n\r\n        _addUser(account);\r\n\r\n        emit Delegate(_order.id, account, msg.value);\r\n    }\r\n\r\n    function undelegate(uint256 amount)\r\n        external\r\n        override\r\n    {\r\n        require(amount > 0, SpError.DELEGATE_AMOUNT_ZERO);\r\n        require(_order.state == StakePoolContext.ORDER_STATUS.SUBSCRIBE, SpError.UNDELEGATE_NOT_SUBSCRIBE);\r\n\r\n        address account = msg.sender;\r\n\r\n        uint256 withdrawAmount = _withdraw(account, amount);\r\n\r\n        emit UnDelegate(_order.id, account, withdrawAmount);\r\n    }\r\n\r\n    function lock()\r\n        external\r\n        override\r\n        onlyOwner\r\n    {\r\n        uint256 amount = address(this).balance;\r\n        _safeTransferETH(_order.proxy, amount);\r\n        emit Migrate(_order.id, _order.proxy, amount);\r\n        // status change\r\n        _order.stateTime.push(block.timestamp);\r\n        _order.state = StakePoolContext.ORDER_STATUS.LOCKING;\r\n        emit StatusTransfer(_order.id,\r\n            StakePoolContext.ORDER_STATUS.MIGRATE,\r\n            StakePoolContext.ORDER_STATUS.LOCKING);\r\n    }\r\n\r\n    function reply(uint128 id)\r\n        external\r\n        payable\r\n        override\r\n    {\r\n        require(_order.id == id, SpError.ORDER_MISMATCH);\r\n        require(_msgSender() != _order.proxy, SpError.ORDER_PROXY_ABNORMAL);\r\n        require(_order.state == StakePoolContext.ORDER_STATUS.LOCKING, SpError.ORDER_REPLY_FAIL_FOR_STATE);\r\n        require(msg.value > 0, SpError.ORDER_REPAY_AMOUNT_ZERO);\r\n\r\n        uint256 amount = msg.value;\r\n        uint256 supply = _users.totalSupply;\r\n        uint256 balance = 0;\r\n        address account = address(0);\r\n        uint256 index = _getIncome();\r\n\r\n        _users.totalSupply = 0;\r\n\r\n        // alloc matic reward\r\n        for ( uint256 i = 0; i < _users.accounts.length; i++ ) {\r\n            account = _users.accounts[i];\r\n            balance = _users.balances[account];\r\n            _users.balances[account] = amount.mul(balance).div(supply);\r\n            _users.balances[account] = _users.balances[account].rayDiv(index);\r\n            _users.totalSupply = _users.totalSupply.add(_users.balances[account]);\r\n        }\r\n        // deposit into gunpool to get matic reward\r\n        IGunPool(_gunpool).depositByEth{value: amount}();\r\n\r\n        // alloc pcoin reward\r\n        if ( _order.pcoinReward > 0 ) {\r\n            supply = _users.totalSupply;\r\n            for ( uint256 j = 0; j < _users.accounts.length; j++ ) {\r\n                balance = _users.balances[account];\r\n                _users.pcoinReward[account] = _order.pcoinReward.mul(balance).div(supply);\r\n            }\r\n        }\r\n\r\n        // status change\r\n        _order.stateTime.push(block.timestamp);\r\n        _order.state = StakePoolContext.ORDER_STATUS.CLAIM;\r\n        emit StatusTransfer(_order.id,\r\n            StakePoolContext.ORDER_STATUS.LOCKING,\r\n            _order.state);\r\n    }\r\n\r\n    function claim()\r\n        external\r\n        override\r\n    {\r\n        require(_order.state == StakePoolContext.ORDER_STATUS.CLAIM, SpError.ORDER_CLAIM_FAIL_FOR_STATE);\r\n        address account = _msgSender();\r\n\r\n        uint256 maticAmount = _withdraw(account, uint256(-1));\r\n        uint256 pcoinAmount = _users.pcoinReward[account];\r\n\r\n        if ( maticAmount == 0 && pcoinAmount == 0 ) {\r\n            require(false, SpError.ORDER_CLAIM_FAIL_FOR_ZERO);\r\n        }\r\n\r\n        if ( pcoinAmount > 0 ) {\r\n            IPCoin(_pcoin).mint(account, maticAmount);\r\n        }\r\n\r\n        emit Claim(_order.id, maticAmount, pcoinAmount);\r\n    }\r\n\r\n    function balanceOf(address account)\r\n        external\r\n        view\r\n        override\r\n        returns (uint256)\r\n    {\r\n        uint256 balance = _users.balances[account];\r\n        if ( _order.state == StakePoolContext.ORDER_STATUS.SUBSCRIBE\r\n          || _order.state == StakePoolContext.ORDER_STATUS.CLAIM ) {\r\n            uint256 index = _getIncome();\r\n            return balance.rayMul(index);\r\n        }\r\n        else {\r\n            return balance;\r\n        }\r\n    }\r\n\r\n    function totalSupply()\r\n        external\r\n        view\r\n        override\r\n        returns (uint256)\r\n    {\r\n        uint256 supply = _users.totalSupply;\r\n\r\n        if ( _order.state == StakePoolContext.ORDER_STATUS.SUBSCRIBE\r\n          || _order.state == StakePoolContext.ORDER_STATUS.CLAIM ) {\r\n            uint256 index = _getIncome();\r\n            return supply.rayMul(index);\r\n        }\r\n        else {\r\n            return supply;\r\n        }\r\n    }\r\n\r\n    function getOrder()\r\n        external\r\n        view\r\n        override\r\n        returns (StakePoolContext.Order memory)\r\n    {\r\n        return _order;\r\n    }\r\n\r\n    function reward(address account)\r\n        external\r\n        view\r\n        override\r\n        returns (uint256)\r\n    {\r\n        bool isDelegater = _users.delegates[account];\r\n        if ( isDelegater ) {\r\n            return _users.pcoinReward[account];\r\n        } else {\r\n            return 0;\r\n        }\r\n    }\r\n\r\n    /****** internal function ******/\r\n    // add user into delegate set\r\n    function _addUser(address account) internal\r\n    {\r\n        bool isDelegater = _users.delegates[account];\r\n        if ( !isDelegater ) {\r\n            _users.delegates[account] = true;\r\n            _users.accounts.push(account);\r\n        }\r\n    }\r\n\r\n    function _subscribeDeposit(address account, uint256 amount)\r\n        internal\r\n    {\r\n        uint256 balance = _users.balances[account];\r\n        uint256 supply = _users.totalSupply;\r\n        uint256 index = _getIncome();\r\n\r\n        _users.balances[account] = balance.add(amount.rayDiv(index));\r\n        _users.totalSupply = supply.add(amount.rayDiv(index));\r\n\r\n        if ( _users.totalSupply.rayMul(index) >= _order.threshold ) {   // withdraw matic from gunpool\r\n            supply = 0;\r\n            for ( uint256 i = 0; i < _users.accounts.length; i++ ) {\r\n                balance = _users.balances[account];\r\n                _users.balances[account] = balance.rayMul(index);\r\n                supply = supply.add(_users.balances[account]);\r\n            }\r\n            _users.totalSupply = supply;\r\n\r\n            // gunpool withdraw and claim reward\r\n            IGunPool(_gunpool).withdrawByEth( uint256(-1) );\r\n            uint256 pcoinReward = IGunPool(_gunpool).claim(address(this));\r\n            if ( pcoinReward > 0 ) {\r\n                IPCoin(_pcoin).burn(pcoinReward);\r\n                _order.pcoinReward = _order.pcoinReward.add(pcoinReward);\r\n            }\r\n\r\n            if ( _users.totalSupply > address(this).balance ) {\r\n                emit Warn(_order.id, \"_users.totalSupply more than contract balance in _subscribeDeposit\");\r\n            }\r\n\r\n            _order.stateTime.push(block.timestamp);\r\n            _order.state = StakePoolContext.ORDER_STATUS.MIGRATE;\r\n            emit StatusTransfer(_order.id,\r\n                StakePoolContext.ORDER_STATUS.SUBSCRIBE,\r\n                StakePoolContext.ORDER_STATUS.MIGRATE);\r\n        }\r\n        else {  // deposit matic into gunpool\r\n            if ( address(this).balance > 0 ) {\r\n                IGunPool(_gunpool).depositByEth{value: amount}();\r\n            }\r\n        }\r\n    }\r\n\r\n    function _withdraw(address account, uint256 amount)\r\n        internal\r\n        returns (uint256)\r\n    {\r\n        uint256 withdrawAmount = amount;\r\n        uint256 index = _getIncome();\r\n        uint256 balance = _users.balances[account];\r\n        uint256 supply = _users.totalSupply;\r\n        bool isClear = false;\r\n\r\n        balance = balance.rayMul(index);\r\n        supply = supply.rayMul(index);\r\n\r\n        if ( (amount == uint256(-1)) || (amount > balance) ) {\r\n            withdrawAmount = balance;\r\n        }\r\n\r\n        if ( supply < withdrawAmount ) {\r\n            withdrawAmount = supply;\r\n            emit Warn(_order.id, \"Supply less than withdrawAmount when _subscribeWithdraw\");\r\n            isClear = true;\r\n        }\r\n\r\n        if ( withdrawAmount > 0 ) {\r\n            IGunPool(_gunpool).withdrawByEth( withdrawAmount );\r\n            _safeTransferETH(account, withdrawAmount);\r\n        }\r\n\r\n        if ( isClear ) {\r\n            _users.balances[account] = 0;\r\n            _users.totalSupply = 0;\r\n        } else {\r\n            _users.balances[account] = balance.sub(withdrawAmount);\r\n            _users.totalSupply = supply.sub(withdrawAmount);\r\n        }\r\n\r\n        return withdrawAmount;\r\n    }\r\n\r\n    function _migrate(address account, uint256 amount)\r\n        internal\r\n    {\r\n        uint256 balance = _users.balances[account];\r\n        uint256 supply = _users.totalSupply;\r\n\r\n        _users.balances[account] = balance.add(amount);\r\n        _users.totalSupply = supply.add(amount);\r\n    }\r\n\r\n    function _getIncome()\r\n        internal\r\n        view\r\n        returns (uint256)\r\n    {\r\n        GunPoolContext.ReserveData memory reserve = IGunPool(_gunpool).getReserve(_iweth);\r\n        if ( reserve.pt == GunPoolContext.PlaneType.AAVE ) {\r\n            GunPoolContext.PlaneContext memory plane = IGunPool(_gunpool).getPlanes(_iweth, reserve.pt);\r\n            ILendingPool lendingPool = ILendingPool(plane.plane);\r\n            return lendingPool.getReserveNormalizedIncome(_iweth);\r\n        }\r\n        else {\r\n            return 1;\r\n        }\r\n    }\r\n\r\n    /**\r\n    * @dev transfer ETH to an address, revert if it fails.\r\n    * @param to recipient of the transfer\r\n    * @param value the amount to send\r\n    */\r\n    function _safeTransferETH(address to, uint256 value) internal {\r\n        (bool success, ) = to.call{value: value}(new bytes(0));\r\n        require(success, 'ETH_TRANSFER_FAILED');\r\n    }\r\n\r\n    receive() external payable {\r\n        //require(msg.sender == address(_IWETH), 'Receive not allowed');\r\n    }\r\n}",
  "sourcePath": "E:\\my_work\\Eos\\polylend\\core\\protocol_v1\\contracts\\protocol\\stakepool\\StakePool.sol",
  "compiler": {
    "name": "solc",
    "version": "0.6.12+commit.27d51765.Emscripten.clang"
  },
  "schemaVersion": "3.4.2",
  "updatedAt": "2021-08-12T06:18:20.778Z",
  "devdoc": {
    "kind": "dev",
    "methods": {
      "balanceOf(address)": {
        "details": "balanceOf get balance of account",
        "params": {
          "account": "who has delegated*"
        }
      },
      "claim()": {
        "details": "claim the rewards of user Emits a {Claim}*"
      },
      "delegate()": {
        "details": "delegate deposit matic into contract to stake Emits a {Delegate} event.*"
      },
      "getOrder()": {
        "details": "get order context*"
      },
      "initOrder((uint128,uint256,uint32,address,uint256,address,uint16))": {
        "details": "initOrder initializes parameters for order",
        "params": {
          "orderParam": "the initialization parameters of order Emits a {InitOrder} event.*"
        }
      },
      "lock()": {
        "details": "lock migrating matic from contract to ethereum Emits a {Migrate} event*"
      },
      "owner()": {
        "details": "Returns the address of the current owner."
      },
      "renounceOwnership()": {
        "details": "Leaves the contract without owner. It will not be possible to call `onlyOwner` functions anymore. Can only be called by the current owner. NOTE: Renouncing ownership will leave the contract without an owner, thereby removing any functionality that is only available to the owner."
      },
      "reply(uint128)": {
        "details": "repay the rewards from ethereum to delegates",
        "params": {
          "id": "the index of order Emits a {reply}*"
        }
      },
      "reward(address)": {
        "details": "get the pcoin reward of account",
        "params": {
          "account": "who has delegated*"
        }
      },
      "totalSupply()": {
        "details": "totalSupply get supply of this contract*"
      },
      "transferOwnership(address)": {
        "details": "Transfers ownership of the contract to a new account (`newOwner`). Can only be called by the current owner."
      },
      "undelegate(uint256)": {
        "details": "undelegate withdraw matic from contract to unstake",
        "params": {
          "amount": "the withdraw amount of user Emits a {Undelegate} event.*"
        }
      }
    },
    "version": 1
  },
  "userdoc": {
    "kind": "user",
    "methods": {},
    "version": 1
  }
}