{
  "contractName": "TokenTimelock",
  "abi": [
    {
      "inputs": [
        {
          "internalType": "contract IERC20",
          "name": "token",
          "type": "address"
        },
        {
          "internalType": "address",
          "name": "beneficiary",
          "type": "address"
        },
        {
          "internalType": "uint256",
          "name": "releaseTime",
          "type": "uint256"
        }
      ],
      "stateMutability": "nonpayable",
      "type": "constructor"
    },
    {
      "inputs": [],
      "name": "token",
      "outputs": [
        {
          "internalType": "contract IERC20",
          "name": "",
          "type": "address"
        }
      ],
      "stateMutability": "view",
      "type": "function"
    },
    {
      "inputs": [],
      "name": "beneficiary",
      "outputs": [
        {
          "internalType": "address",
          "name": "",
          "type": "address"
        }
      ],
      "stateMutability": "view",
      "type": "function"
    },
    {
      "inputs": [],
      "name": "releaseTime",
      "outputs": [
        {
          "internalType": "uint256",
          "name": "",
          "type": "uint256"
        }
      ],
      "stateMutability": "view",
      "type": "function"
    },
    {
      "inputs": [],
      "name": "release",
      "outputs": [],
      "stateMutability": "nonpayable",
      "type": "function"
    }
  ],
  "bytecode": "0x608060405234801561001057600080fd5b5060405161068a38038061068a8339818101604052606081101561003357600080fd5b50805160208201516040909201519091904281116100825760405162461bcd60e51b81526004018080602001828103825260328152602001806106586032913960400191505060405180910390fd5b600080546001600160a01b039485166001600160a01b0319918216179091556001805493909416921691909117909155600255610594806100c46000396000f3fe608060405234801561001057600080fd5b506004361061004c5760003560e01c806338af3eed1461005157806386d1a69f14610075578063b91d40011461007f578063fc0c546a14610099575b600080fd5b6100596100a1565b604080516001600160a01b039092168252519081900360200190f35b61007d6100b0565b005b6100876101c7565b60408051918252519081900360200190f35b6100596101cd565b6001546001600160a01b031690565b6002544210156100f15760405162461bcd60e51b81526004018080602001828103825260328152602001806104e06032913960400191505060405180910390fd5b60008054604080516370a0823160e01b815230600482015290516001600160a01b03909216916370a0823191602480820192602092909190829003018186803b15801561013d57600080fd5b505afa158015610151573d6000803e3d6000fd5b505050506040513d602081101561016757600080fd5b50519050806101a75760405162461bcd60e51b815260040180806020018281038252602381526020018061053c6023913960400191505060405180910390fd5b6001546000546101c4916001600160a01b039182169116836101dc565b50565b60025490565b6000546001600160a01b031690565b604080516001600160a01b038416602482015260448082018490528251808303909101815260649091019091526020810180516001600160e01b031663a9059cbb60e01b17905261022e908490610233565b505050565b6060610288826040518060400160405280602081526020017f5361666545524332303a206c6f772d6c6576656c2063616c6c206661696c6564815250856001600160a01b03166102e49092919063ffffffff16565b80519091501561022e578080602001905160208110156102a757600080fd5b505161022e5760405162461bcd60e51b815260040180806020018281038252602a815260200180610512602a913960400191505060405180910390fd5b60606102f384846000856102fb565b949350505050565b6060610306856104a6565b610357576040805162461bcd60e51b815260206004820152601d60248201527f416464726573733a2063616c6c20746f206e6f6e2d636f6e7472616374000000604482015290519081900360640190fd5b60006060866001600160a01b031685876040518082805190602001908083835b602083106103965780518252601f199092019160209182019101610377565b6001836020036101000a03801982511681845116808217855250505050505090500191505060006040518083038185875af1925050503d80600081146103f8576040519150601f19603f3d011682016040523d82523d6000602084013e6103fd565b606091505b509150915081156104115791506102f39050565b8051156104215780518082602001fd5b8360405162461bcd60e51b81526004018080602001828103825283818151815260200191508051906020019080838360005b8381101561046b578181015183820152602001610453565b50505050905090810190601f1680156104985780820380516001836020036101000a031916815260200191505b509250505060405180910390fd5b6000813f7fc5d2460186f7233c927e7db2dcc703c0e500b653ca82273b7bfad8045d85a4708181148015906102f357505015159291505056fe546f6b656e54696d656c6f636b3a2063757272656e742074696d65206973206265666f72652072656c656173652074696d655361666545524332303a204552433230206f7065726174696f6e20646964206e6f742073756363656564546f6b656e54696d656c6f636b3a206e6f20746f6b656e7320746f2072656c65617365a26469706673582212202770e1dadc11578c3efe8a807c4eaeb60aa95df63941489e68fa0fd74223767e64736f6c634300060c0033546f6b656e54696d656c6f636b3a2072656c656173652074696d65206973206265666f72652063757272656e742074696d65",
  "immutableReferences": {},
  "source": "// SPDX-License-Identifier: MIT\r\n\r\npragma solidity ^0.6.0;\r\n\r\nimport \"./SafeERC20.sol\";\r\n\r\n/**\r\n * @dev A token holder contract that will allow a beneficiary to extract the\r\n * tokens after a given release time.\r\n *\r\n * Useful for simple vesting schedules like \"advisors get all of their tokens\r\n * after 1 year\".\r\n */\r\ncontract TokenTimelock {\r\n    using SafeERC20 for IERC20;\r\n\r\n    // ERC20 basic token contract being held\r\n    IERC20 private _token;\r\n\r\n    // beneficiary of tokens after they are released\r\n    address private _beneficiary;\r\n\r\n    // timestamp when token release is enabled\r\n    uint256 private _releaseTime;\r\n\r\n    constructor (IERC20 token, address beneficiary, uint256 releaseTime) public {\r\n        // solhint-disable-next-line not-rely-on-time\r\n        require(releaseTime > block.timestamp, \"TokenTimelock: release time is before current time\");\r\n        _token = token;\r\n        _beneficiary = beneficiary;\r\n        _releaseTime = releaseTime;\r\n    }\r\n\r\n    /**\r\n     * @return the token being held.\r\n     */\r\n    function token() public view returns (IERC20) {\r\n        return _token;\r\n    }\r\n\r\n    /**\r\n     * @return the beneficiary of the tokens.\r\n     */\r\n    function beneficiary() public view returns (address) {\r\n        return _beneficiary;\r\n    }\r\n\r\n    /**\r\n     * @return the time when the tokens are released.\r\n     */\r\n    function releaseTime() public view returns (uint256) {\r\n        return _releaseTime;\r\n    }\r\n\r\n    /**\r\n     * @notice Transfers tokens held by timelock to beneficiary.\r\n     */\r\n    function release() public virtual {\r\n        // solhint-disable-next-line not-rely-on-time\r\n        require(block.timestamp >= _releaseTime, \"TokenTimelock: current time is before release time\");\r\n\r\n        uint256 amount = _token.balanceOf(address(this));\r\n        require(amount > 0, \"TokenTimelock: no tokens to release\");\r\n\r\n        _token.safeTransfer(_beneficiary, amount);\r\n    }\r\n}\r\n",
  "sourcePath": "E:\\my_work\\Eos\\polylend\\core\\protocol_v1\\contracts\\dependencies\\openzeppelin\\contracts\\token\\ERC20\\TokenTimelock.sol",
  "compiler": {
    "name": "solc",
    "version": "0.6.12+commit.27d51765.Emscripten.clang"
  },
  "schemaVersion": "3.4.2",
  "updatedAt": "2021-08-16T04:20:18.600Z",
  "devdoc": {
    "details": "A token holder contract that will allow a beneficiary to extract the tokens after a given release time. Useful for simple vesting schedules like \"advisors get all of their tokens after 1 year\".",
    "kind": "dev",
    "methods": {
      "beneficiary()": {
        "returns": {
          "_0": "the beneficiary of the tokens."
        }
      },
      "releaseTime()": {
        "returns": {
          "_0": "the time when the tokens are released."
        }
      },
      "token()": {
        "returns": {
          "_0": "the token being held."
        }
      }
    },
    "version": 1
  },
  "userdoc": {
    "kind": "user",
    "methods": {
      "release()": {
        "notice": "Transfers tokens held by timelock to beneficiary."
      }
    },
    "version": 1
  }
}